:0A0000000206E6C10AC108C10700AC
:10000B000220110102030201900043E05480FF33F0
:10001B0095E04F221210067F0B112ED322A28522C0
:10002B000220068FF722FFAB2FAA2EA92DA82C2278
:10003B000223180203FFE86480F8E933E833601108
:10004B000460F0ED33EC337009E8FCE9FDEAFEEBFC
:10005B00FF220460DED3EB9FEA9EE99DE8C2E78CAA
:10006B00F0C2F795F0400CE8CCF8E9CDF9EACEFAFE
:10007B00EBCFFB1203CA85D0F05804700320D5B325
:10008B00E80470075002B2D502040992D5EC046063
:10009B00F7E4CCC0E0C398F8603B94186008400DBF
:1000AB00D0E0FB0203E1E4FBFAC9FC8028E830E472
:1000BB0006E4C9FBE4CAFCE830E305E4C9CACBFC9F
:1000CB00E854076010F8C3E913F9EA13FAEB13FBD2
:1000DB00EC13FCD8F130F52FC3E49CFCEF9BFFEE47
:1000EB009AFEED99FDD0E0FBEF4E4D4C701222DBEA
:1000FB0003020406EC2CFCEF33FFEE33FEED33FD75
:10010B00ED30E7EB0203E1EF2BFFEE3AFEED39FDAD
:10011B00D0E0FB50130BBB0003020409ED13FDEE03
:10012B0013FEEF13FFEC13FC0203E1EC4D6011E83F
:10013B00497017ED33EC3304600DE4FCFFFEFD2238
:10014B00E933E8330470F80203FF1203CA58046062
:10015B0009E4CC24815006285009020409284003E5
:10016B00020406C0E0EB4A7044B98006D0E0FB0203
:10017B0003F5EF4E701CBD8008EBFFEAFEE9FD8036
:10018B00EBE98DF0A4FEE5F002021FE9CDF9EAFEE2
:10019B00EBFFEF89F0A4FCE5F0CE89F0A42EFFE491
:1001AB0035F0CD89F0A42DFEE435F08067EF4E706D
:1001BB0005BD80D780C3EF8BF0A4ACF0EE8BF0A421
:1001CB002CFCE435F0F8EF8AF0A42CE5F038FCE4D5
:1001DB0033CB8DF0A42CFCE5F03BF8EE8AF0A42C8D
:1001EB00FCE5F038F8E433CF89F0A42CFCE5F038CB
:1001FB00CF3400CE89F0A42FFFE5F03EFEE433C9E7
:10020B008DF0A42EFEE5F039CD8AF0A42FFFE5F09A
:10021B003EFEE43DFD33D0E0FB50070BBB000F026D
:10022B000409EC2CFCEF33FFEE33FEED33FD020340
:10023B00E1020409EC5D046005E859047003020354
:10024B00FF1203CA580460F6EC4860F2EC7004FD30
:10025B00FEFF22C860DB2481C85009C3986002509E
:10026B00060204069850CAF582E9294B4A7005AB81
:10027B00820203F575F0007C1A7880C3EF9BEE9A2F
:10028B00ED99400DC3EF9BFFEE9AFEED99FDE84211
:10029B00F0DC23ACF0D0E0FFD0E0FED0E0FDAB8291
:1002AB0020E7101BEB60BAEC2CFCEF33FFEE33FEB8
:1002BB00ED33FD0203E1E803F830E705C0F075F01C
:1002CB0000EF2FFFEE33FEED33FD40B830E7C28079
:1002DB00AA74F8CC6480CCC86480C8F58204604FE3
:1002EB00C3EB9FF5F0EA9E42F0E99D42F0E89C4596
:1002FB00F0603C501DE5825FFFE582D313CB5BCBF7
:10030B00F42B5582FB50280ABA002409B9002008A7
:10031B00801DE5825BFBE582D313CF5FCFF4C31364
:10032B002F5582FF50090EBE00050DBD00010CC3F9
:10033B00EB9FF5F0EA9E42F0E99D42F0E89C45F018
:10034B006007CC4820E701B3EC2275F020800E75D6
:10035B00F010800575F0087D007E007F003392D58C
:10036B0030D503120612EC334010EF33FFEE33FEA1
:10037B00ED33FDEC33FCD5F0ED22E5F0247EA2D578
:10038B0013CC92E7CDCEFF22EDD2E7CD33EC3392F7
:10039B00D524814006E4FFFEFDFC22FCE4CFCECD4C
:1003AB00CC24E0501174FF80EDC3CC13CCCD13CD16
:1003BB00CE13CECF13CF0470F030D5DE020612E988
:1003CB00D2E7C933E833F892D5EDD2E7CD33EC332E
:1003DB00FC5002B2D522EC30E7100FBF000C0EBE62
:1003EB0000080DBD00040BEB6014A2D5EB13FCED64
:1003FB0092E7FD2274FFFCFDFEFF22E480F8A2D5FC
:10040B0074FF13FC7D80E480EFC2D530F707B2D5C3
:10041B0063F0FF05F030E70CB2D5F4048463F0FF12
:10042B0005F080018430D502F40422BB01068982D9
:10043B008A83E0225002E722BBFE02E32289828AF2
:10044B0083E49322BB010CE58229F582E5833AF51F
:10045B0083E0225006E92582F8E622BBFE06E92559
:10046B0082F8E222E58229F582E5833AF583E4936B
:10047B0022BB010689828A83F0225002F722BBFE3F
:10048B0001F322EF8DF0A4A8F0CF8CF0A428CE8D31
:10049B00F0A42EFE22C2D5EC30E709B2D5E4C39D01
:1004AB00FDE49CFCEE30E715B2D5E4C39FFFE49E60
:1004BB00FE120691C3E49DFDE49CFC8003120691A1
:1004CB0030D507C3E49FFFE49EFE22BB010A89825D
:1004DB008A83F0E5F0A3F0225006F709A7F0192262
:1004EB00BBFE06F3E5F009F31922E88FF0A4CC8BE1
:1004FB00F0A42CFCE98EF0A42CFC8AF0EDA42CFCCF
:10050B00EA8EF0A4CDA8F08BF0A42DCC3825F0FD0D
:10051B00E98FF0A42CCD35F0FCEB8EF0A4FEA9F006
:10052B00EB8FF0A4CFC5F02ECD39FEE43CFCEAA452
:10053B002DCE35F0FDE43CFC2275F008758200EF02
:10054B002FFFEE33FECD33CDCC33CCC58233C582FA
:10055B009BED9AEC99E58298400CF582EE9BFEEDB3
:10056B009AFDEC99FC0FD5F0D6E4CEFBE4CDFAE482
:10057B00CCF9A88222B800C1B90059BA002DEC8B76
:10058B00F084CFCECDFCE5F0CBF97818EF2FFFEE52
:10059B0033FEED33FDEC33FCEB33FB10D70399400B
:1005AB0004EB99FB0FD8E5E4F9FA227818EF2FFF4B
:1005BB00EE33FEED33FDEC33FCC933C910D7059B8D
:1005CB00E99A4007EC9BFCE99AF90FD8E0E4C9FAE9
:1005DB00E4CCFB2275F010EF2FFFEE33FEED33FD75
:1005EB00CC33CCC833C810D7079BEC9AE899400A98
:1005FB00ED9BFDEC9AFCE899F80FD5F0DAE4CDFB16
:10060B00E4CCFAE4C8F922C3E49FFFE49EFEE49D28
:10061B00FDE49CFC22EB9FF5F0EA9E42F0E99D4243
:10062B00F0E89C45F022E8600FECC313FCED13FDE2
:10063B00EE13FEEF13FFD8F122E493FC740193FD4C
:10064B00740293FE740393FF22ECF0A3EDF0A3EE80
:10065B00F0A3EFF022A8828583F0D083D08212061C
:10066B0077120677120677120677E473E493A3C525
:10067B0083C5F0C583C8C582C8F0A3C583C5F0C5C3
:10068B0083C8C582C822BC000BBE0029EF8DF08445
:10069B00FFADF022E4CCF875F008EF2FFFEE33FE40
:1006AB00EC33FCEE9DEC984005FCEE9DFE0FD5F077
:1006BB00E9E4CEFD22EDF8F5F0EE8420D21CFEAD80
:1006CB00F075F008EF2FFFED33FD4007985006D57E
:1006DB00F0F222C398FD0FD5F0EA2278FFE4F6D8AA
:1006EB00FD9000007F007E04E4F0A3DFFCDEFA75D2
:1006FB00814602073B02093AE493A3F8E493A34033
:10070B0003F68001F208DFF48029E493A3F8540781
:10071B00240CC8C333C4540F4420C8834004F4567C
:10072B00800146F6DFE4800B0102040810204080B4
:10073B00900003E47E019360BCA3FF543F30E509B6
:10074B00541FFEE493A360010ECF54C025E060A8B4
:10075B0040B8E493A3FAE493A3F8E493A3C8C58247
:10076B00C8CAC583CAF0A3C8C582C8CAC583CADFB5
:10077B00E9DEE780BE001EA8D2001C84FB001A8BAA
:10078B008F0018B8F8001709F400157B8C00140BB8
:10079B000D0012B60400117A320010558E000F4670
:1007AB003B000E4A85000D60DF000C87DE000BBEA0
:1007BB0033000B02B0000A543D0009B1DA00091AEC
:1007CB009E00088DB000080A4B00078FBA00071D6A
:1007DB00550006B28400064EB90005F17200059A69
:1007EB0037000548990004FC330004B4A6000471DB
:1007FB009C000432C40003F7D50003C08900038CAE
:10080B00A100035BE200032E160003030A0002DAC9
:10081B00900002B47C000290A700026EE900024F28
:10082B002200023130000214F50001FA560001E1FA
:10083B00390001C9850001B32400019E0100018A22
:10084B0008000177280001654E0001546B0001443C
:10085B007100013551000126FF0001196E00010CDA
:10086B009200010063F4D4E9DEDF77D597CC37C370
:10087B0050BAD9B2CFAB2AA3E49CF9966490208AE4
:10088B002884797F0F79E674FB704A6BD0678B6392
:10089B00785F945BDD585054EC51AF4E964B9F48AC
:1008AB00CA4614437C41013EA13C5A3A2C381536BA
:1008BB001434293252308E2EDD2D3D2BAE2A2F28AB
:1008CB00BF275E260B24C5238C225F213D20271FCB
:1008DB001B1E1A1D221C331B4E1A71199C18CF1884
:1008EB000A174B169415E31539149513F6135D126D
:1008FB00CA123B11B2112D10AD10320FBA0F470EA9
:10090B00D80E6C0E0400001012141603047F048022
:10091B000004017F05030F0618FF07001F08001FC7
:10092B0009C0FF0A00FF0B02030CDEFF0D000012D3
:10093B0025FB121FF9122017121930F1B012185A99
:10094B00121696122579121AB053A0E743A2185328
:10095B0080F7439A08121890121CC31226C3122256
:10096B00751227363006EE1216F1200A09318D1258
:10097B00262CD20A8008121F59122363C20AC20600
:10098B0080D3E517B40C00400241A390099DF828D1
:10099B0028730209C10209D00209D50209CB020A48
:1009AB0035020A35020A09020A090209D7020A614D
:1009BB00020A61020A61C282C284E4900043F022FF
:1009CB00C282D28422D282C284228059C2829000F7
:1009DB0043E0FE547FFDC36480948350090DEE54B5
:1009EB0080F04DF0800E1200137F8060027F00902C
:1009FB000043EFF0120013C36001D392842212293B
:100A0B008EB406027E031229E050051229D5800E02
:100A1B001200137F8060027F00900043EFF0900084
:100A2B0043E030E76FD282D28422C28412298EB483
:100A3B0004027E031229E050051229D5800E120004
:100A4B00137F8060027F00900043EFF0120013C30E
:100A5B006001D3928222900043E0547FF0D36480F4
:100A6B0094864004E4F51722900043E0FF04F0EF76
:100A7B0075F002120414AFF0EF6019E517B40B0513
:100A8B00D284C28222E517B40A05D284D28222C252
:100A9B0084D28222C282C284227D407F028F2D1299
:100AAB000436FF14601514602814603D14603A245A
:100ABB0004705B12293412296E8029122934F582B5
:100ACB007401F532858233E582F4F582753400804A
:100ADB0013122934F4F582753200858233EDF582D9
:100AEB007401F5348582358025ED12296E858235AA
:100AFB00EDF5827401F52E85822FEFB40407EDFF1F
:100B0B007401FE8005EDF4FF7E008E308F31900076
:100B1B000112044F7007EDFF7401FE8005EDF4FF29
:100B2B007E008E368F3790000212044F7007EDFF58
:100B3B007401FE8005EDF4FF7E00E52D147002615B
:100B4B00DF147002816214700281E524036002A13C
:100B5B006FE52EAB9A30E006E52F4BFD8004E52FB9
:100B6B005BFD8D9AE53030E00890F0091229B080DA
:100B7B000690F0091229A990F009EDF0E53230E06A
:100B8B0005122986800690F00A1229A290F00AED30
:100B9B00F0E53430E00512297E800690F00B122927
:100BAB009B90F00BEDF0EE30E0051229F1800890F0
:100BBB00F00CE0FBEF5BFD90F00CEDF0E53630E078
:100BCB00051229C2800690F00D1229EAAF0590F0AC
:100BDB000DEDF022E52EABA130E006E52F4BFD80AD
:100BEB0004E52F5BFD8DA1E53030E00890F0191284
:100BFB0029B0800690F0191229A990F019EDF0E5B3
:100C0B003230E005122986800690F01A1229A29044
:100C1B00F01AEDF0E53430E00512297E800690F0F5
:100C2B001B12299B90F01BEDF0EE30E0051229F121
:100C3B00800890F01CE0FBEF5BFD90F01CEDF0E505
:100C4B003630E0051229C2800690F01D1229EAAF5A
:100C5B000590F01DEDF022E52EABA230E006E52F5E
:100C6B004BFD8004E52F5BFD8DA2E53030E0089055
:100C7B00F0291229B0800690F0291229A990F029A9
:100C8B00EDF0E53230E005122986800690F02A124D
:100C9B0029A290F02AEDF0E53430E00512297E8090
:100CAB000690F02B12299B90F02BEDF0EE30E00527
:100CBB001229F1800890F02CE0FBEF5BFD90F02CFB
:100CCB00EDF0E53630E0051229C2800690F02D12CA
:100CDB0029EAAF0590F02DEDF022E52EABA330E025
:100CEB0006E52F4BFD8004E52F5BFD8DA3E5303032
:100CFB00E00890F0391229B0800690F0391229A93A
:100D0B0090F039EDF0E53230E0051229868006903F
:100D1B00F03A1229A290F03AEDF0E53430E00512EA
:100D2B00297E800690F03B12299B90F03BEDF0EE74
:100D3B0030E008A3E0FDEF4DFF800890F03CE0FDB4
:100D4B00EF5DFF90F03CEFF0E53630E009A3E0FDFE
:100D5B00E5374DFF800990F03DE0FDE5375DFF90F5
:100D6B00F03DEFF0221216F175F580752A03752B05
:100D7B0001752C0112162D7D207F0251A8752A01B9
:100D8B007B0051A4E4FBF1410DF145D2A5E4F5291B
:100D9B001216F1D183C2A520A60DD183D2A50529A8
:100DAB00E529C3940940E9752A0312162D51A4C2F3
:100DBB00A6C2A5D183D2A5D183D2A6752A01F13FB4
:100DCB0012162DF1F37F0B12002ED1837D817F0440
:100DDB00B1E17D017F04AC07752D368C2E8D2F7BF9
:100DEB00007A00792D7D031217D28F307A00792F7C
:100DFB00AF048F357536027F1B8B328A338934EF04
:100E0B0025E054FEF5F48535F675F5031210A45064
:100E1B000122E5366029AB32AA33A934120436F528
:100E2B00F675F5011210A4500122E536D39401405A
:100E3B000B74012534F534E43533F533D536D775DA
:100E4B00F504753605E5F530E502C322D183D536B9
:100E5B00F475F58000000002001FEF14600E1460A3
:100E6B000F1460102403700FED42AC22ED42AD2243
:100E7B00ED42AE22ED42AF227F017E008E408F41CC
:100E8B00E4F546E54145407002E1140546AE40AF3E
:100E9B0041EE3395E0FDFCE47BA07A0FF9F81204E8
:100EAB00F5122A13C007AF46AB07E4FAF9F8D007DF
:100EBB00120580122A13E47FFF7EFFFDFCAB45AACF
:100ECB0044A943A842D312062050C0C374FF9545D2
:100EDB00F54574FF9544F544E49543F543E4954299
:100EEB00F542AF45AE44AD43AC4278081206318FA4
:100EFB008CE545FF8F8AC204438810E58820E50303
:100F0B003004F85388CFD546D922E4FD7F03B1E1F5
:100F1B00E4FD7F06B1E17D807F04B1E1E4FD7F0557
:100F2B00B1E140E67D337F0DB1E140DE7D207F04F2
:100F3B00B1E180D67B0C7D057F02EB64026065EB33
:100F4B0064036060EB6419605BEBD3941C5055EF4A
:100F5B0014601514602314603124037047EDD3948F
:100F6B00055041ED2400802BEDD394075036EDC393
:100F7B0094034030ED2410801AEDD394065025EDE8
:100F8B00C39401401FED24208009EDD39406501427
:100F9B00ED2430F52EE434F0F52DEB541F852E8225
:100FAB00852D83F022752201121FE7D2A5F13F7B1D
:100FBB00007A007922F1F37F0B02002EEF146011FF
:100FCB001460151460192403701CE5AC5D6017D315
:100FDB0022E5AD5D6010D322E5AE5D6009D322E55D
:100FEB00AF5D6002D322C3227D2051A87B0D7D060D
:100FFB007F02F1457B007D40120AA8E4F5F5F5F27E
:10100B00228F308B318A3289337B007A0079378F8C
:10101B003E753F037F1B8F3A8B3B8A3C893DE53FF7
:10102B007002D322E53A25E054FEF5F4853EF675C1
:10103B00F50311A45001220000E53A25E04401F527
:10104B00F4153FE53F600575F50B800375F503114E
:10105B00A450012211EAE53F60237401253DF53DC3
:10106B00E4353CF53CE53FD394017F0140027F0919
:10107B008FF511A450012211EA153F80D975F504A3
:10108B00753F05E5F530E502C322120E83D53FF31C
:10109B0075F58000000002001F7540017541F4805A
:1010AB0023E5F520E726E541454070028026E54320
:1010BB00154370021542E543454270E5E541154184
:1010CB00700215407542017543F480D5E4F5F5E5E2
:1010DB00F530E10975F58000000002001FC322AB5B
:1010EB003BAA3CA93DE5F602047C110C500122F110
:1010FB00B96002D322E537FFE538AB31AA32A93309
:10110B00CF8FF01204D6C3227B007A0079287F019F
:10111B00F13C50037F0222E52820E00241B1900010
:10112B001412066000000000D12D7F2611F5500B24
:10113B00D12D7F2811F550037F0222D16D7B7B7A55
:10114B0014792E783E120136E4FBFA798778C312B4
:10115B000045B1FC120393900019EFF0E4F52FF565
:10116B002EF52DF52CF529E52990091293FFD12D9C
:10117B0011F550037F0222D16DE4FBFA79C0784060
:10118B00B1F9E4FBFA7980784512023FE52925E0B5
:10119B0025E02400F582E43400F58312065471E94E
:1011AB00FF51BE500571E9FFD1270529E529C394ED
:1011BB000440B4E4F52FF52E752DC0752C40F529A0
:1011CB0071E91200311202DC6008400671E9F52F5B
:1011DB00B1FE0529E529B404E7D14F9000101206A2
:1011EB005490001471F8120031120041D127E4FF22
:1011FB00FEFDFC51BE500A90001471F8FFD158D17E
:10120B002790001471F8FF122A1C120136D127D136
:10121B002D7F2411F550037F0222D16DB1FC1200FA
:10122B0032E4FFFE7D807C45120041A804A905AA8B
:10123B0006AB07D14F12023F7B007A40791C7846F0
:10124B00B1F97F907E467DF57C491200321202DCAB
:10125B00600250107F007E407D607C451200321290
:10126B0002DC500BE4900018F090001AF0801CD1B7
:10127B004FF1F6120041B1FC1203937B017A007916
:10128B001A1223B8EF24FD900018F0900019E0FF1C
:10129B00D3648094FD5008C3EF6480946C500AE4CF
:1012AB0090001AF080037F01227F0022E4FFFE7D75
:1012BB00487C43900014E0F8A3E0F9A3E0FAA3E024
:1012CB00FB0202DCD178900035E014601E14604EF6
:1012DB0014607D147002618D2404600261AD121FD5
:1012EB00DC51BE6002500261AD805D51B7600840B9
:1012FB00069000357402F0E4FFFE7D967C4251BEF1
:10130B00400261AD7F9A7E997D397C4090001051EF
:10131B00C16002500261ADE4900035F061ADE4FFB5
:10132B00FE7DAF51BC600840069000357403F0E4BD
:10133B00FFFE7D2051BC506A7433FFFEFD7C409054
:10134B00001051C1605C405A9000357401F080521E
:10135B00E4FFFE7D167C4451BE60054003121E4E19
:10136B00E4FFFE7D8751BC50397FCD7ECC7D2C7C3C
:10137B004090001051C1602A40289000357402F053
:10138B008020E4FFFE7DC851BC50177F667E667DD2
:10139B00267C4090001051C16008400690003574C7
:1013AB0003F0E50D1460161460272402702FE4FF80
:1013BB00FE7D5C7C4251BE60244022801D51B76093
:1013CB00054003750D02122A2451BE5010E4F50D91
:1013DB0022E4FFFE7D1651BC5003750D0122E52959
:1013EB0025E025E02400F582E43400F583E0FCA33E
:1013FB00E0FDA3E0FEA3E022900032E0147002A116
:10140B001B147002A1A1147002A1BA24FE7002A1D8
:10141B00C5147002A1E224026002A1EA300902A104
:10142B00EAE4F528F527F526F525F522D134B1EBBD
:10143B00121E78120045D1460522E522B404ED12A6
:10144B001FC4D13412023F8F308E2F8D2E8C2DE482
:10145B00F528F5277526207525C1F52CF52B752A52
:10146B0020752941F523F524F522B1EB71F6FFD157
:10147B0062600D400B852223B1EB71F6F52CD13F49
:10148B00B1EB71F6FF1229B7500B852224B1EB712A
:10149B00F6F528D1480522E522640470CDE523B189
:1014AB00ED121E78AF30AE2FAD2EAC2D120041D108
:1014BB003DE524B1ED71F6FFAB30AA2FA92EA82D77
:1014CB00120041D146E4FFFEFDFCD1625007122A07
:1014DB000AD158D13DE4FFFEFDFC1229B75006D1CD
:1014EB0034D158D146D134D16260064004E5238013
:1014FB0002E52404900037F0E50D9000377003F0FF
:10150B008007E025E025E014F09000327401F02212
:10151B00122A2490002B51C15005E4F5318029E4A7
:10152B00FFFE7D167C4390002B51C1500575310198
:10153B008016E4FFFE7D967C4390002B51C1500535
:10154B007531028003753103E4FFFE7D7A7C449094
:10155B00002B51C15004F1F680127F007E607D8616
:10156B007C4590002B51C15010122A1C90002B71FE
:10157B00F8FF12023FD13D800D75170975080C90CD
:10158B0000327406F022122A0A853136121F32906D
:10159B0000327402F022900033E07043900037E089
:1015AB006003750808E4F5179000327403F022E528
:1015BB0008702C9000327405F022900037E0600A1E
:1015CB007F0030E1027F028F17229000327406F009
:1015DB0075080CE4F51722E5087004900032F02230
:1015EB00E52225E025E0241BF582E43400221201DC
:1015FB00368F2F8E2E8D2D8C2C22EF14600F1460B6
:10160B001114601324037013EDF452AC22EDF45259
:10161B00AD22EDF452AE22EDF452AF229000140243
:10162B0006547B007A00792A22AF28AE27AD26AC70
:10163B0025228F2C8E2B8D2A8C29228F288E278D5D
:10164B00268C2522AF2FAE2EAD2DAC2C22E4FBFA2F
:10165B00798078BF020136AB2CAA2BA92AA82902C4
:10166B0002DC532A0FAC2AAD2BE402035AE4FBEB4A
:10167B0071EBFFEBB1EDF5831206540BBB04F0904D
:10168B00001471F8FF90002B020654752264752428
:10169B0014F154D1E8600BB40203120D70F102D5B2
:1016AB0022F1E5227002F109D178752264E4F52369
:1016BB00D1E8701390001AE0600405238003E4F571
:1016CB0023E523640A6015E525B40208D52402F14D
:1016DB0009120D70F102D522D7121F7C22D1F131E4
:1016EB00138F25E52522C2AF007596AA7596554333
:1016FB0097010000D2AF227F0A7E00020E87121ED6
:10170B005C751705E4F529F1021200284004052940
:10171B008003E4F529E529B46403121FAE3006E714
:10172B00D3300A01C3920A300A0312098DC2068014
:10173B00D6110C500122F1B96002D322AB31AA327F
:10174B00A933E53712047CC322E4F526E4F527E53B
:10175B0027C394325047052712294912295CFD12E1
:10176B000DE15002800D1229497B007A007928F196
:10177B003C5005120D70801CE52675F003A424184F
:10178B00F582E43409F583E493FF522812295C5F58
:10179B00652860097F0F7E00120E8780B2E527B4A3
:1017AB003202F1090526E526C3940C409F227534BD
:1017BB0036853035E53404F5367B007A0079347D97
:1017CB0005F1D2EF653922E4FF12043662077E0879
:1017DB00EF30E70725E06407FF8004EF25E0FFDE2D
:1017EB00EF740129F9E43AFADDDF22E4FBFA79C858
:1017FB00784222EBD394035055EF146015146023F9
:10180B0014603124037047EDD394055041ED2480CF
:10181B00802BEDD394075036EDC394034030ED2469
:10182B0088801AEDD394065025EDC39401401FED2B
:10183B0024908009EDD394065014ED2498F526E4FA
:10184B0034F0F525EB5403852682852583F022752C
:10185B002201E4F523F524FB7D05FF311A7D2012CF
:10186B000AA87D20E4FF120E657B027D051217FE90
:10187B0043B90190004474FFF0E4F511F512F5142F
:10188B00F515F516227D20E4FF120FC740379000A7
:10189B0044E025E0F0308503E004F0900044E0FFE5
:1018AB00F46003EF701FE4F5B4BFFF03C38001D3F3
:1018BB00920B7B01BFFF027B027D05E4FF1217FE3B
:1018CB007D20120E65300B08E51230E70375128090
:1018DB00300B25E511B48520D3E51464809480404A
:1018EB000BAF14EF3395E0FE31228009E4F514754C
:1018FB001601751301E4F511200B13E512B4850ED7
:10190B00E4F512E513700475150122E4F5132212A8
:10191B000F457A00792222E4F512F515F514F5132B
:10192B00EF04F51622752203E4F523752401C28218
:10193B00C284FB7D02FF120F457D04311A120AA8E7
:10194B007B007D10E4FF120AA8E4900043F0F5172A
:10195B0022EF14602214603D14605824037076ED5E
:10196B00D394054002806EED248031F58002C333A1
:10197B00D8FC55ACFC8062EDD394075006EDC394B4
:10198B000350028050ED248831F58002C333D8FC1C
:10199B0055ADFC8044EDD394065006EDC394015035
:1019AB00028032ED249031F58002C333D8FC55AE62
:1019BB00FC8026EDD394064002801AED2498FBE4BC
:1019CB0034F0FAAF05A8077401088002C333D8FCC2
:1019DB0055AFFC8004E4FEFF22EC7003FEFF228B6C
:1019EB00828A83E05403FF7E0022FBE434F0FAA8E2
:1019FB0005740108227D05E4FF315CEF64014E7034
:101A0B002FC20BE511547FFFE4F511E5137004E5CC
:101A1B00166007E4F516F5138019EFC39405501300
:101A2B00C3E51464809488500205147512808003FA
:101A3B001223897D20E4FF12160590004474AAF04E
:101A4B0022E4F52CD15C7F0A3001027F048F17E56D
:101A5B001760213006F9D3300201C3920230021015
:101A6B00300102052CE52CB41403E4F51712098D93
:101A7B00C20680DBE4F52C120028500730810405E8
:101A8B002C8003E4F52CF1BDE52CC3940A40E8C28D
:101A9B0003900035E0F52D122517E4F5C853A8DFA8
:101AAB00513E020F15E4F527F52BF52AF529F528FC
:101ABB00C200F1E4D14EE4900033F0A374A0F0D156
:101ACB00559000407432F0D136E490003DF0900018
:101ADB003AF0900037F0900039F0D12F900031742C
:101AEB002CF0E4F5251212CF91A840F9E4F52574FA
:101AFB00092525F87603E4F526E5251213EBFF748B
:101B0B0009252591020526E526C3940A40EB919FF2
:101B1B00E525D16D12004591B0E5251213EBFF7B46
:101B2B00CD7ACC790C78401202DC600D400BD200E0
:101B3B00E5277005E52504F5270525E525C3940460
:101B4B0040AD919FF1C412023F91B0E4FFFE7D20A6
:101B5B007C40AB2BAA2AA929A8281202DC5002D25E
:101B6B0000750E03E4F5257B007A00790E919F91A9
:101B7B000691A840F2E4F510C280C2A2FB7A00796C
:101B8B00227D01FFF1CC7F02120AA87522017B0096
:101B9B007D02E4FF120AA8F1EE5008A3E0648094E2
:101BAB00DA4005750F028010C3EF648094805005F6
:101BBB00750F018003E4F50FE50F6002D2809000F2
:101BCB00417404F09000367412F0E50DB4020890E5
:101BDB0000327404F08005E4900032F0300017E519
:101BEB0027600FD15C75170291B9E4F51791B9D540
:101BFB0027F1D201514C22F9E4FAFB8F328E318D51
:101C0B00308C2F8B2C8A2D892E12043614601A14CB
:101C1B006039146057240370667F9A7E997D6991B1
:101C2B0092505C918B740180537F9A7E997D799150
:101C3B009260084006918BE412047C7F337E337DE7
:101C4B00539192503A918B74028031E4FFFE7D6088
:101C5B00919260094007918B740112047CE4FFFEA2
:101C6B007D4091925019918B740380107FCD7ECC67
:101C7B007D4C919260094007918B740212047C2277
:101C8B00AB2CAA2DA92E227C40AB32AA31A930A8AD
:101C9B002F0202DCAF2BAE2AAD29AC28220525E59D
:101CAB0025C3940A228F2B8E2A8D298C2822120968
:101CBB008D7F2C7E01020E87900034E07004D201E0
:101CCB00514C90003BE07002A3E06009D1415005FC
:101CDB00E4D12FF510900041E0700FE51060028009
:101CEB0009308106900033E06004D13680129000F9
:101CFB002FE07002A3E06004D1415004C201514CAB
:101D0B001223564002C12ED13612239CEF14B40875
:101D1B00004002A1BA901D271221FD73021D3F0244
:101D2B001D60021D64021D68021D7A021DA5021DA5
:101D3B00AB021DB2E50FB40605E4F50F8071900000
:101D4B0041E0706B308168E510706490003674125E
:101D5B00F07F018057D18680567F01803F90003203
:101D6B00E0704CA3E070489000327404F080403077
:101D7B008107F1D41212BE50057517098031E51099
:101D8B00700E90003B74E1F0A3E4F0751002801F1D
:101D9B00E50D701BD12FF5108015E4FFD1D3800F0B
:101DAB0075170B7F04800575170B7F031227221203
:101DBB002208EF24FE601C14602514602E14603979
:101DCB00146056240570599000001213F8FF850912
:101DDB003680229000041213F8FF850A3680169085
:101DEB0000081213F8FF850B36800A90000C1213B3
:101DFB00F8FF850C36F1328027E510B40122E4FFA1
:101E0B00FE7D207C4390002B1212C16007400575AC
:101E1B001709800CE4F5108007E50F7003750F06AA
:101E2B001223AA2290003BF0A3F02290002F740102
:101E3B00F0A374E0F022E51664016002C322E4F51E
:101E4B0016D3229000357404F0229000387450F0B1
:101E5B0022C2AF007596AA759655759700D2AF2220
:101E6B00E52225E025E02400F582E43400F583E04B
:101E7B00F8A3E0F9A3E0FAA3E0FB22900033E070B3
:101E8B0029F11E900042E50EF0E41229CAD1BFD110
:101E9B006B120045D1B60522E522B404F0D1BF1276
:101EAB0017F6120136D1B6D1C8F0228F268E258DAA
:101EBB00248C2322AF26AE25AD24AC232212039310
:101ECB0090003EEEF0A3EF2290001AE0603B9000F2
:101EDB0033E07035F11EEF6007900018E0FB8005D2
:101EEB00900019E0FBEBFF3395E0FE7C007D0A12BE
:101EFB00048ED1CBF0EB30E70ED207F1157CFF7DD2
:101F0B00FF12048ED1CBF0D2082290003EE0FEA34C
:101F1B00E0FF229000337401F0308104E510600380
:101F2B00750808E4F517228F358E348D338C32907B
:101F3B000033E07018F11E900042E536F0F1DCAB97
:101F4B0035AA34A933A832120136D1C8F022308118
:101F5B000C900036E060028004E5106002C15590E1
:101F6B000038E0600314F022D1559000367403F072
:101F7B0022D15C751707E4F52612170212002840D0
:101F8B000405268003E4F526E526B46402F1AE30A1
:101F9B0006E7D3300A01C3920A300A0312098DC235
:101FAB000680D6C2AF007596AA7596557597808038
:101FBB00FE227F057E00020E87E4FBFA79807840D3
:101FCB0022120AA87B007D0422E4FFFE7D207C41C7
:101FDB0022E4FFFE7DC87C42227522037523017526
:101FEB00240122900018E0FFD3648094B722C2AF83
:101FFB00007596AA75965553977F2275C900B20541
:10200B00300502D206325388EFD204325388CF53B5
:10201B0089F0438901E4F58CF58AF5CE75CB0B7508
:10202B00CADB75CD5D75CC66F5C975CF8075A8A279
:10203B00C206C20575C89122EF14600C14600F1410
:10204B007017C282D284800AD282C2848004D28268
:10205B00D284121702C282C284228F228D23E508FA
:10206B0030E7051143E4F508E5087F0030E102AFE6
:10207B00228F17E508700BF51775080A900033E5EA
:10208B0023F022900033E014B40B00400221EE90B9
:10209B0020A031FD730220C10220D10221120221A6
:1020AB001802212D02213302214D02219C0221AA6B
:1020BB00022153022163E508600221EE75080F909F
:1020CB0000337402F02251328F17E508600221EEC3
:1020DB00121F15D394E7EE64809483402131EFD324
:1020EB00ED9404EC64809480400BE0240AF09000A3
:1020FB003EE03400F0121F1531EF121ECBF0121F11
:10210B001531F67D0380397D047F018039121F154F
:10211B0031F690003EECF0FEA3EDF0FF31EF7D05C4
:10212B00801E7D067F02801E30080A75080A90000B
:10213B0033740AF022121F1531EFAE04AF057D0781
:10214B0041177D087F030165E508600221EE9000D1
:10215B0033740BF075081F22E508C394195029E559
:10216B000854F86023900018E0FFC3648094AA50D1
:10217B00057517038015C3EF648094B05005751770
:10218B000280087517018003E4F517E50870548089
:10219B0007E508704E7508169000337409F022C2DB
:1021AB0007C208E490003EF0A3F0E508D394044086
:1021BB0021900042E014600E14600F146010240391
:1021CB0070217517032275170222751701227517D7
:1021DB000422E5086004E4F517225108EF7004901F
:1021EB000033F0227C007D0A0204A07C007D640297
:1021FB0004A075F003A4C58325F0C58322E516144E
:10220B00FFD3648094804001227F0022E508701682
:10221B00EF4E70057508808008EF25E025E014F57A
:10222B0008900033EDF022E508D394094039E50816
:10223B0024F8C31314FF3008053007020F0F2008D2
:10224B0013D390003FE094E790003EE064809483CA
:10225B0040020F0FEF3395E0FE740E2FF5827400E2
:10226B003EF583E493FF227F0022E517D3940840C9
:10227B00026117900033E06002018E900032E06043
:10228B0003021403E50F604420814114601C1460A9
:10229B001914602B14602014602114706F90003D92
:1022AB00E070697428F075170B2290003DE0705CAC
:1022BB007428F075170A22751705227517072290D7
:1022CB00003DE070477428F075170922E51060187F
:1022DB00E50D14600B14600C240270307517082286
:1022EB007517062275170422900036E070032081C3
:1022FB0018E50D14600B14600C2402700F75170396
:10230B00227517022275170122E4F51722C0E0C0CF
:10231B00F0C083C082C0D075D000C000C001C00225
:10232B00C003C004C005C006C007121A0075B40074
:10233B00D007D006D005D004D003D002D001D000F6
:10234B00D0D0D082D083D0F0D0E032E5166002D36B
:10235B0022E515C36001D322E4FE74112EF8E6309A
:10236B00E717547FFDEE7F05EDC39F50010DE6543B
:10237B0080F674112EF8E64DF60EBE02DD22D20B5E
:10238B00E51230E703751280E51120E70375118024
:10239B0022E5167004E51570037F0022AF1422E5C9
:1023AB00156009E5146005E4F515F514228B308AE8
:1023BB003189328F368E358D348C337FD27EA87D2A
:1023CB001E7C009185D31206204005918E7FD8226A
:1023DB00E47F047E0E9183C31206205005918E7FFD
:1023EB006422AB30AA31A932740112047CE47FD48D
:1023FB007EF49183D3120620402AE4F537E5372586
:10240B00E025E02480F582E43407F583120644913D
:10241B0085C31206204006E53724D8FF220537E591
:10242B0037B43CD9E4F537E53725E02470F582E481
:10243B003408F583E493FE740193FFE48F3B8E3AEB
:10244B00F539F538E53BF53BE53AF53AE4F539F581
:10245B0038AF36AE35AD34AC33AB3BAA3AA939A85D
:10246B0038D31206205006E5372414FF220537E532
:10247B0037B450B3918EFF22FDFCAB36AA35A9348D
:10248B00A83322AB30AA31A932E402047CE518143C
:10249B00601514601A14601F1460242404702690B5
:1024AB00F1617431F0801E90F161745AF0801690D6
:1024BB00F1617496F0800E90F16174C8F080069013
:1024CB00F16174FFF0E518D394014006B101748FEC
:1024DB00F022E518D3940390F1317402400CF09084
:1024EB00F1307489B10C7444F022F090F1307457D0
:1024FB00B10C742BF02290F1317403F090F1307425
:10250B001FF090F1417401F090F14022A20C3003C6
:10251B0001B3502A300310D2B2B15E90F129E070B2
:10252B00FA90F164F0801390F1297403F090F12983
:10253B00E070FAB1F4121FBDC2B2A203920CE518FF
:10254B00652D600EB1F4B15E90F129E070FA90F157
:10255B0064F02290F126E4F07F05FE120E87852DA4
:10256B0018919890F1267403F090F129F022121F24
:10257B00E4C20C751804C2B2C2B1C2B07B007A00BF
:10258B0079227D027F03120AA87B007D017F031253
:10259B001FCC7F03120AA890F1207412F0A37403CE
:1025AB00F090F1237401F090F12A74FFF090F12276
:1025BB00E4F090F1277403F0A3F090F1607401F054
:1025CB00919890F165E4F0B1F490F166E4F0B1010B
:1025DB00748FF0B16E90F129E070FA7B127D017F60
:1025EB0003120F450B1D020F4590F1647403F0228B
:1025FB00538E1F438EE0007596AA759655759702FC
:10260B0022E4F528E5281213EBFF7B667A667986C0
:10261B0078401202DC5001220528E528B404E5C3FA
:10262B0022900032E0FF7008900036E0600214F058
:10263B00E5086002150890003DE0600214F0900080
:10264B003BE07002A3E0600E90003CE024FFF090B2
:10265B00003BE034FFF0900031E0600814F0E0B490
:10266B000102D209900041E0700690003AF0800719
:10267B00D1BB5003E004F0900039E0C39408500341
:10268B00E004F0900034E0600214F090002FE07052
:10269B0002A3E0600E900030E024FFF090002FE0EA
:1026AB0034FFF0EFB40508900037E0600214F0221D
:1026BB0090003AE0C3945822900041E0146010144B
:1026CB0060191460451460342404704AC2A222902D
:1026DB00003AE0C394055039D2A22290003AE0FFB1
:1026EB00C394045003D2A222EFC394085003C2A296
:1026FB0022EFC3940C5003D2A222801590003AE033
:10270B00C394285003D2A2228007D1BB5003D2A27C
:10271B0022E4900041F022900041E0700DEF600A3E
:10272B00E490003AF0900041EFF022900040E0601E
:10273B000914F07F017E00020E879000407432F086
:10274B00121113EF600A24FE600302292B020D7095
:10275B00E4900039F0E510600530096360611212F6
:10276B00CFC209E4F5271229CAE5221213EBFF7435
:10277B00092522121C02122A01121E6B120045128D
:10278B0029F8E5221213EBFFE4FBFA7920784012CB
:10279B0002DC500205230522E522C3940440CAE55E
:1027AB0023B5220690003474A0F0122A01121FC424
:1027BB0012023F1229F87B007A00790E121C06E4F4
:1027CB00F522F523E5221213EBFFE4FBFAF978402F
:1027DB001202DC6004400205220523E523B404E465
:1027EB00E50FB404028054E5226002804EE510141C
:1027FB00601B14602824027045121E4EE50D640206
:10280B00703CE50E640360367510018031E50EB443
:10281B000303E4F510E50D7025F5108021E50EB4EA
:10282B000303E4F51090003BE07002A3E0600C1290
:10283B001FD41212BE5007E50D7003E4F510E5101E
:10284B006005E50FB40207C203752D04802F9000BD
:10285B0031E07003742CF0312C94B25008A3E06477
:10286B008094C64003121E4E900031E0D394044076
:10287B0003D38001C39203900035E0F52D12251789
:10288B00900039E0FFB40805750F04211B90001A66
:10289B00E0FE7005750F058077E50F601D14604530
:1028AB0014604A14605D24FE600B047063EFC394E4
:1028BB0008505D8058EE60588053121FEE5008A3ED
:1028CB00E0648094DA4003750F02C3EF6480948058
:1028DB005003750F0112260C5036E50D6402703053
:1028EB00750F03802B312C948F402580209000187E
:1028FB00E0C3648094AD5018A3E0C3648094C650C9
:10290B000F800A12260C4008E50DB40103E4F50F05
:10291B00E510B40203D28022E50FD37001C392807D
:10292B0022900018E0D3648022EDF4F582758300C9
:10293B0085832E85822F858330858231ED22E52696
:10294B0075F003A42416F582E43409F583E493FFB0
:10295B0022E52675F003A42417F582E43409F583E8
:10296B00E49322F4F5827583008583328582338567
:10297B00833422A3E0FBE5354BFD22A3E0FBE533DB
:10298B004BFD22900043E0FF547FFDE5177E0022B4
:10299B00E0FBE5355BFD22E0FBE5335BFD22E0FB75
:1029AB00E5315BFD22E0FBE5314BFD22AB28AA278D
:1029BB00A926A8250202DCA3E0FBE5374BFD22F597
:1029CB0026F525F524F523F522220DEF54809000F2
:1029DB0043F04DF022C3EE6480F8ED64809822E062
:1029EB00FBE5375BFD22A3E0FBEF4BFD228F278E30
:1029FB00268D258C2422AF27AE26AD25AC2422AF05
:102A0B002CAE2BAD2AAC29228F458E448D438C42A4
:102A1B0022E4FBFA797A784422E4FFFE7D207C42A3
:012A2B002288
:00000001FF
