:0A0000000206E6C10AC108C10700AC
:10000B000220080102030201900043E05480FF33F9
:10001B0095E04F221210067F0B112ED322A28522C0
:10002B00021FFD8FF722FFAB2FAA2EA92DA82C2282
:10003B0002230F0203FFE86480F8E933E833601111
:10004B000460F0ED33EC337009E8FCE9FDEAFEEBFC
:10005B00FF220460DED3EB9FEA9EE99DE8C2E78CAA
:10006B00F0C2F795F0400CE8CCF8E9CDF9EACEFAFE
:10007B00EBCFFB1203CA85D0F05804700320D5B325
:10008B00E80470075002B2D502040992D5EC046063
:10009B00F7E4CCC0E0C398F8603B94186008400DBF
:1000AB00D0E0FB0203E1E4FBFAC9FC8028E830E472
:1000BB0006E4C9FBE4CAFCE830E305E4C9CACBFC9F
:1000CB00E854076010F8C3E913F9EA13FAEB13FBD2
:1000DB00EC13FCD8F130F52FC3E49CFCEF9BFFEE47
:1000EB009AFEED99FDD0E0FBEF4E4D4C701222DBEA
:1000FB0003020406EC2CFCEF33FFEE33FEED33FD75
:10010B00ED30E7EB0203E1EF2BFFEE3AFEED39FDAD
:10011B00D0E0FB50130BBB0003020409ED13FDEE03
:10012B0013FEEF13FFEC13FC0203E1EC4D6011E83F
:10013B00497017ED33EC3304600DE4FCFFFEFD2238
:10014B00E933E8330470F80203FF1203CA58046062
:10015B0009E4CC24815006285009020409284003E5
:10016B00020406C0E0EB4A7044B98006D0E0FB0203
:10017B0003F5EF4E701CBD8008EBFFEAFEE9FD8036
:10018B00EBE98DF0A4FEE5F002021FE9CDF9EAFEE2
:10019B00EBFFEF89F0A4FCE5F0CE89F0A42EFFE491
:1001AB0035F0CD89F0A42DFEE435F08067EF4E706D
:1001BB0005BD80D780C3EF8BF0A4ACF0EE8BF0A421
:1001CB002CFCE435F0F8EF8AF0A42CE5F038FCE4D5
:1001DB0033CB8DF0A42CFCE5F03BF8EE8AF0A42C8D
:1001EB00FCE5F038F8E433CF89F0A42CFCE5F038CB
:1001FB00CF3400CE89F0A42FFFE5F03EFEE433C9E7
:10020B008DF0A42EFEE5F039CD8AF0A42FFFE5F09A
:10021B003EFEE43DFD33D0E0FB50070BBB000F026D
:10022B000409EC2CFCEF33FFEE33FEED33FD020340
:10023B00E1020409EC5D046005E859047003020354
:10024B00FF1203CA580460F6EC4860F2EC7004FD30
:10025B00FEFF22C860DB2481C85009C3986002509E
:10026B00060204069850CAF582E9294B4A7005AB81
:10027B00820203F575F0007C1A7880C3EF9BEE9A2F
:10028B00ED99400DC3EF9BFFEE9AFEED99FDE84211
:10029B00F0DC23ACF0D0E0FFD0E0FED0E0FDAB8291
:1002AB0020E7101BEB60BAEC2CFCEF33FFEE33FEB8
:1002BB00ED33FD0203E1E803F830E705C0F075F01C
:1002CB0000EF2FFFEE33FEED33FD40B830E7C28079
:1002DB00AA74F8CC6480CCC86480C8F58204604FE3
:1002EB00C3EB9FF5F0EA9E42F0E99D42F0E89C4596
:1002FB00F0603C501DE5825FFFE582D313CB5BCBF7
:10030B00F42B5582FB50280ABA002409B9002008A7
:10031B00801DE5825BFBE582D313CF5FCFF4C31364
:10032B002F5582FF50090EBE00050DBD00010CC3F9
:10033B00EB9FF5F0EA9E42F0E99D42F0E89C45F018
:10034B006007CC4820E701B3EC2275F020800E75D6
:10035B00F010800575F0087D007E007F003392D58C
:10036B0030D503120612EC334010EF33FFEE33FEA1
:10037B00ED33FDEC33FCD5F0ED22E5F0247EA2D578
:10038B0013CC92E7CDCEFF22EDD2E7CD33EC3392F7
:10039B00D524814006E4FFFEFDFC22FCE4CFCECD4C
:1003AB00CC24E0501174FF80EDC3CC13CCCD13CD16
:1003BB00CE13CECF13CF0470F030D5DE020612E988
:1003CB00D2E7C933E833F892D5EDD2E7CD33EC332E
:1003DB00FC5002B2D522EC30E7100FBF000C0EBE62
:1003EB0000080DBD00040BEB6014A2D5EB13FCED64
:1003FB0092E7FD2274FFFCFDFEFF22E480F8A2D5FC
:10040B0074FF13FC7D80E480EFC2D530F707B2D5C3
:10041B0063F0FF05F030E70CB2D5F4048463F0FF12
:10042B0005F080018430D502F40422BB01068982D9
:10043B008A83E0225002E722BBFE02E32289828AF2
:10044B0083E49322BB010CE58229F582E5833AF51F
:10045B0083E0225006E92582F8E622BBFE06E92559
:10046B0082F8E222E58229F582E5833AF583E4936B
:10047B0022BB010689828A83F0225002F722BBFE3F
:10048B0001F322EF8DF0A4A8F0CF8CF0A428CE8D31
:10049B00F0A42EFE22C2D5EC30E709B2D5E4C39D01
:1004AB00FDE49CFCEE30E715B2D5E4C39FFFE49E60
:1004BB00FE120691C3E49DFDE49CFC8003120691A1
:1004CB0030D507C3E49FFFE49EFE22BB010A89825D
:1004DB008A83F0E5F0A3F0225006F709A7F0192262
:1004EB00BBFE06F3E5F009F31922E88FF0A4CC8BE1
:1004FB00F0A42CFCE98EF0A42CFC8AF0EDA42CFCCF
:10050B00EA8EF0A4CDA8F08BF0A42DCC3825F0FD0D
:10051B00E98FF0A42CCD35F0FCEB8EF0A4FEA9F006
:10052B00EB8FF0A4CFC5F02ECD39FEE43CFCEAA452
:10053B002DCE35F0FDE43CFC2275F008758200EF02
:10054B002FFFEE33FECD33CDCC33CCC58233C582FA
:10055B009BED9AEC99E58298400CF582EE9BFEEDB3
:10056B009AFDEC99FC0FD5F0D6E4CEFBE4CDFAE482
:10057B00CCF9A88222B800C1B90059BA002DEC8B76
:10058B00F084CFCECDFCE5F0CBF97818EF2FFFEE52
:10059B0033FEED33FDEC33FCEB33FB10D70399400B
:1005AB0004EB99FB0FD8E5E4F9FA227818EF2FFF4B
:1005BB00EE33FEED33FDEC33FCC933C910D7059B8D
:1005CB00E99A4007EC9BFCE99AF90FD8E0E4C9FAE9
:1005DB00E4CCFB2275F010EF2FFFEE33FEED33FD75
:1005EB00CC33CCC833C810D7079BEC9AE899400A98
:1005FB00ED9BFDEC9AFCE899F80FD5F0DAE4CDFB16
:10060B00E4CCFAE4C8F922C3E49FFFE49EFEE49D28
:10061B00FDE49CFC22EB9FF5F0EA9E42F0E99D4243
:10062B00F0E89C45F022E8600FECC313FCED13FDE2
:10063B00EE13FEEF13FFD8F122E493FC740193FD4C
:10064B00740293FE740393FF22ECF0A3EDF0A3EE80
:10065B00F0A3EFF022A8828583F0D083D08212061C
:10066B0077120677120677120677E473E493A3C525
:10067B0083C5F0C583C8C582C8F0A3C583C5F0C5C3
:10068B0083C8C582C822BC000BBE0029EF8DF08445
:10069B00FFADF022E4CCF875F008EF2FFFEE33FE40
:1006AB00EC33FCEE9DEC984005FCEE9DFE0FD5F077
:1006BB00E9E4CEFD22EDF8F5F0EE8420D21CFEAD80
:1006CB00F075F008EF2FFFED33FD4007985006D57E
:1006DB00F0F222C398FD0FD5F0EA2278FFE4F6D8AA
:1006EB00FD9000007F007E04E4F0A3DFFCDEFA75D2
:1006FB00814602073B02093AE493A3F8E493A34033
:10070B0003F68001F208DFF48029E493A3F8540781
:10071B00240CC8C333C4540F4420C8834004F4567C
:10072B00800146F6DFE4800B0102040810204080B4
:10073B00900003E47E019360BCA3FF543F30E509B6
:10074B00541FFEE493A360010ECF54C025E060A8B4
:10075B0040B8E493A3FAE493A3F8E493A3C8C58247
:10076B00C8CAC583CAF0A3C8C582C8CAC583CADFB5
:10077B00E9DEE780BE001EA8D2001C84FB001A8BAA
:10078B008F0018B8F8001709F400157B8C00140BB8
:10079B000D0012B60400117A320010558E000F4670
:1007AB003B000E4A85000D60DF000C87DE000BBEA0
:1007BB0033000B02B0000A543D0009B1DA00091AEC
:1007CB009E00088DB000080A4B00078FBA00071D6A
:1007DB00550006B28400064EB90005F17200059A69
:1007EB0037000548990004FC330004B4A6000471DB
:1007FB009C000432C40003F7D50003C08900038CAE
:10080B00A100035BE200032E160003030A0002DAC9
:10081B00900002B47C000290A700026EE900024F28
:10082B002200023130000214F50001FA560001E1FA
:10083B00390001C9850001B32400019E0100018A22
:10084B0008000177280001654E0001546B0001443C
:10085B007100013551000126FF0001196E00010CDA
:10086B009200010063F4D4E9DEDF77D597CC37C370
:10087B0050BAD9B2CFAB2AA3E49CF9966490208AE4
:10088B002884797F0F79E674FB704A6BD0678B6392
:10089B00785F945BDD585054EC51AF4E964B9F48AC
:1008AB00CA4614437C41013EA13C5A3A2C381536BA
:1008BB001434293252308E2EDD2D3D2BAE2A2F28AB
:1008CB00BF275E260B24C5238C225F213D20271FCB
:1008DB001B1E1A1D221C331B4E1A71199C18CF1884
:1008EB000A174B169415E31539149513F6135D126D
:1008FB00CA123B11B2112D10AD10320FBA0F470EA9
:10090B00D80E6C0E0400001012141603047F048022
:10091B000004017F05030F0618FF07001F08001FC7
:10092B0009C0FF0A00FF0B02030CDEFF0D000012D3
:10093B0025F2121FF012200E121930F1B012185AB4
:10094B00121696122570121AB053A0E743A2185331
:10095B0080F7439A08121890121CC41226BA12225E
:10096B006C12272D3006EE1216F1200A09318D126A
:10097B002623D20A8008121F5B12235AC20AC20610
:10098B0080D3E517B40C00400241A390099DF828D1
:10099B0028730209C10209D00209D50209CB020A48
:1009AB0035020A35020A09020A090209D7020A614D
:1009BB00020A61020A61C282C284E4900043F022FF
:1009CB00C282D28422D282C284228059C2829000F7
:1009DB0043E0FE547FFDC36480948350090DEE54B5
:1009EB0080F04DF0800E1200137F8060027F00902C
:1009FB000043EFF0120013C36001D392842212293B
:100A0B0087B406027E031229D950051229CE800E17
:100A1B001200137F8060027F00900043EFF0900084
:100A2B0043E030E76FD282D28422C284122987B48A
:100A3B0004027E031229D950051229CE800E120012
:100A4B00137F8060027F00900043EFF0120013C30E
:100A5B006001D3928222900043E0547FF0D36480F4
:100A6B0094864004E4F51722900043E0FF04F0EF76
:100A7B0075F002120414AFF0EF6019E517B40B0513
:100A8B00D284C28222E517B40A05D284D28222C252
:100A9B0084D28222C282C284227D407F028F2D1299
:100AAB000436FF14601514602814603D14603A245A
:100ABB0004705B12292D122967802912292DF582CA
:100ACB007401F532858233E582F4F582753400804A
:100ADB001312292DF4F582753200858233EDF582E0
:100AEB007401F5348582358025ED122967858235B1
:100AFB00EDF5827401F52E85822FEFB40407EDFF1F
:100B0B007401FE8005EDF4FF7E008E308F31900076
:100B1B000112044F7007EDFF7401FE8005EDF4FF29
:100B2B007E008E368F3790000212044F7007EDFF58
:100B3B007401FE8005EDF4FF7E00E52D147002615B
:100B4B00DF147002816214700281E524036002A13C
:100B5B006FE52EAB9A30E006E52F4BFD8004E52FB9
:100B6B005BFD8D9AE53030E00890F0091229A980E1
:100B7B000690F0091229A290F009EDF0E53230E071
:100B8B000512297F800690F00A12299B90F00AED3E
:100B9B00F0E53430E005122977800690F00B12292E
:100BAB009490F00BEDF0EE30E0051229EA800890FE
:100BBB00F00CE0FBEF5BFD90F00CEDF0E53630E078
:100BCB00051229BB800690F00D1229E3AF0590F0BA
:100BDB000DEDF022E52EABA130E006E52F4BFD80AD
:100BEB0004E52F5BFD8DA1E53030E00890F0191284
:100BFB0029A9800690F0191229A290F019EDF0E5C1
:100C0B003230E00512297F800690F01A12299B9052
:100C1B00F01AEDF0E53430E005122977800690F0FC
:100C2B001B12299490F01BEDF0EE30E0051229EA2F
:100C3B00800890F01CE0FBEF5BFD90F01CEDF0E505
:100C4B003630E0051229BB800690F01D1229E3AF68
:100C5B000590F01DEDF022E52EABA230E006E52F5E
:100C6B004BFD8004E52F5BFD8DA2E53030E0089055
:100C7B00F0291229A9800690F0291229A290F029B7
:100C8B00EDF0E53230E00512297F800690F02A1254
:100C9B00299B90F02AEDF0E53430E005122977809E
:100CAB000690F02B12299490F02BEDF0EE30E0052E
:100CBB001229EA800890F02CE0FBEF5BFD90F02C02
:100CCB00EDF0E53630E0051229BB800690F02D12D1
:100CDB0029E3AF0590F02DEDF022E52EABA330E02C
:100CEB0006E52F4BFD8004E52F5BFD8DA3E5303032
:100CFB00E00890F0391229A9800690F0391229A248
:100D0B0090F039EDF0E53230E00512297F80069046
:100D1B00F03A12299B90F03AEDF0E53430E00512F1
:100D2B002977800690F03B12299490F03BEDF0EE82
:100D3B0030E008A3E0FDEF4DFF800890F03CE0FDB4
:100D4B00EF5DFF90F03CEFF0E53630E009A3E0FDFE
:100D5B00E5374DFF800990F03DE0FDE5375DFF90F5
:100D6B00F03DEFF0221216F175F580752A03752B05
:100D7B0001752C0112162D7D207F0251A8752A01B9
:100D8B007B0051A4E4FBF1410DF145D2A5E4F5291B
:100D9B001216F1D183C2A520A60DD183D2A50529A8
:100DAB00E529C3940940E9752A0312162D51A4C2F3
:100DBB00A6C2A5D183D2A5D183D2A6752A01F13FB4
:100DCB0012162DF1F37F0B12002ED1837D817F0440
:100DDB00B1E17D017F04AC07752D368C2E8D2F7BF9
:100DEB00007A00792D7D031217D28F307A00792F7C
:100DFB00AF048F357536027F1B8B328A338934EF04
:100E0B0025E054FEF5F48535F675F5031210A45064
:100E1B000122E5366029AB32AA33A934120436F528
:100E2B00F675F5011210A4500122E536D39401405A
:100E3B000B74012534F534E43533F533D536D775DA
:100E4B00F504753605E5F530E502C322D183D536B9
:100E5B00F475F58000000002001FEF14600E1460A3
:100E6B000F1460102403700FED42AC22ED42AD2243
:100E7B00ED42AE22ED42AF227F017E008E408F41CC
:100E8B00E4F546E54145407002E1140546AE40AF3E
:100E9B0041EE3395E0FDFCE47BA07A0FF9F81204E8
:100EAB00F5122A0CC007AF46AB07E4FAF9F8D007E6
:100EBB00120580122A0CE47FFF7EFFFDFCAB45AAD6
:100ECB0044A943A842D312062050C0C374FF9545D2
:100EDB00F54574FF9544F544E49543F543E4954299
:100EEB00F542AF45AE44AD43AC4278081206318FA4
:100EFB008CE545FF8F8AC204438810E58820E50303
:100F0B003004F85388CFD546D922E4FD7F03B1E1F5
:100F1B00E4FD7F06B1E17D807F04B1E1E4FD7F0557
:100F2B00B1E140E67D337F0DB1E140DE7D207F04F2
:100F3B00B1E180D67B0C7D057F02EB64026065EB33
:100F4B0064036060EB6419605BEBD3941C5055EF4A
:100F5B0014601514602314603124037047EDD3948F
:100F6B00055041ED2400802BEDD394075036EDC393
:100F7B0094034030ED2410801AEDD394065025EDE8
:100F8B00C39401401FED24208009EDD39406501427
:100F9B00ED2430F52EE434F0F52DEB541F852E8225
:100FAB00852D83F022752201121FE9D2A5F13F7B1B
:100FBB00007A007922F1F37F0B02002EEF146011FF
:100FCB001460151460192403701CE5AC5D6017D315
:100FDB0022E5AD5D6010D322E5AE5D6009D322E55D
:100FEB00AF5D6002D322C3227D2051A87B0D7D060D
:100FFB007F02F1457B007D40120AA8E4F5F5F5F27E
:10100B00228F308B318A3289337B007A0079378F8C
:10101B003E753F037F1B8F3A8B3B8A3C893DE53FF7
:10102B007002D322E53A25E054FEF5F4853EF675C1
:10103B00F50311A45001220000E53A25E04401F527
:10104B00F4153FE53F600575F50B800375F503114E
:10105B00A450012211EAE53F60237401253DF53DC3
:10106B00E4353CF53CE53FD394017F0140027F0919
:10107B008FF511A450012211EA153F80D975F504A3
:10108B00753F05E5F530E502C322120E83D53FF31C
:10109B0075F58000000002001F7540017541F4805A
:1010AB0023E5F520E726E541454070028026E54320
:1010BB00154370021542E543454270E5E541154184
:1010CB00700215407542017543F480D5E4F5F5E5E2
:1010DB00F530E10975F58000000002001FC322AB5B
:1010EB003BAA3CA93DE5F602047C110C500122F110
:1010FB00B96002D322E537FFE538AB31AA32A93309
:10110B00CF8FF01204D6C3227B007A0079287F019F
:10111B00F13C50037F0222E52820E00241B1900010
:10112B001412066000000000D12D7F2611F5500B24
:10113B00D12D7F2811F550037F0222D16D7B7B7A55
:10114B0014792E783E120136E4FBFA798778C312B4
:10115B000045B1FC120393900019EFF0E4F52FF565
:10116B002EF52DF52CF529E52990091293FFD12D9C
:10117B0011F550037F0222D16DE4FBFA79C0784060
:10118B00B1F9E4FBFA7980784512023FE52925E0B5
:10119B0025E02400F582E43400F58312065471E94E
:1011AB00FF51BE500571E9FFD1270529E529C394ED
:1011BB000440B4E4F52FF52E752DC0752C40F529A0
:1011CB0071E91200311202DC6008400671E9F52F5B
:1011DB00B1FE0529E529B404E7D14F9000101206A2
:1011EB005490001471F8120031120041D127E4FF22
:1011FB00FEFDFC51BE500A90001471F8FFD158D17E
:10120B002790001471F8FF122A15120136D127D13D
:10121B002D7F2411F550037F0222D16DB1FC1200FA
:10122B0032E4FFFE7D807C45120041A804A905AA8B
:10123B0006AB07D14F12023F7B007A40791C7846F0
:10124B00B1F97F907E467DF57C491200321202DCAB
:10125B00600250107F007E407D607C451200321290
:10126B0002DC500BE4900018F090001AF0801CD1B7
:10127B004FF1F6120041B1FC1203937B017A007916
:10128B001A1223AFEF24FD900018F0900019E0FF25
:10129B00D3648094FD5008C3EF6480946C500AE4CF
:1012AB0090001AF080037F01227F0022E4FFFE7D75
:1012BB00487C43900014E0F8A3E0F9A3E0FAA3E024
:1012CB00FB0202DCD178900035E014601E14604EF6
:1012DB0014607D147002618D2404600261AD121FD5
:1012EB00DE51BE6002500261AD805D51B7600840B7
:1012FB00069000357402F0E4FFFE7D967C4251BEF1
:10130B00400261AD7F9A7E997D397C4090001051EF
:10131B00C16002500261ADE4900035F061ADE4FFB5
:10132B00FE7DAF51BC600840069000357403F0E4BD
:10133B00FFFE7D2051BC506A7433FFFEFD7C409054
:10134B00001051C1605C405A9000357401F080521E
:10135B00E4FFFE7D167C4451BE60054003121E5017
:10136B00E4FFFE7D8751BC50397FCD7ECC7D2C7C3C
:10137B004090001051C1602A40289000357402F053
:10138B008020E4FFFE7DC851BC50177F667E667DD2
:10139B00267C4090001051C16008400690003574C7
:1013AB0003F0E50D1460161460272402702FE4FF80
:1013BB00FE7D5C7C4251BE60244022801D51B76093
:1013CB00054003750D02122A1D51BE5010E4F50D98
:1013DB0022E4FFFE7D1651BC5003750D0122E52959
:1013EB0025E025E02400F582E43400F583E0FCA33E
:1013FB00E0FDA3E0FEA3E022900032E0147002A116
:10140B001B147002A1A1147002A1BA24FE7002A1D8
:10141B00C5147002A1E224026002A1EA300902A104
:10142B00EAE4F528F527F526F525F522D134B1EBBD
:10143B00121E7A120045D1460522E522B404ED12A4
:10144B001FC6D13412023F8F308E2F8D2E8C2DE480
:10145B00F528F5277526207525C1F52CF52B752A52
:10146B0020752941F523F524F522B1EB71F6FFD157
:10147B0062600D400B852223B1EB71F6F52CD13F49
:10148B00B1EB71F6FF1229B0500B852224B1EB7131
:10149B00F6F528D1480522E522640470CDE523B189
:1014AB00ED121E7AAF30AE2FAD2EAC2D120041D106
:1014BB003DE524B1ED71F6FFAB30AA2FA92EA82D77
:1014CB00120041D146E4FFFEFDFCD1625007122A07
:1014DB0003D158D13DE4FFFEFDFC1229B05006D1DB
:1014EB0034D158D146D134D16260064004E5238013
:1014FB0002E52404900037F0E50D9000377003F0FF
:10150B008007E025E025E014F09000327401F02212
:10151B00122A1D90002B51C15005E4F5318029E4AE
:10152B00FFFE7D167C4390002B51C1500575310198
:10153B008016E4FFFE7D967C4390002B51C1500535
:10154B007531028003753103E4FFFE7D7A7C449094
:10155B00002B51C15004F1F680127F007E607D8616
:10156B007C4590002B51C15010122A1590002B7105
:10157B00F8FF12023FD13D800D75170975080C90CD
:10158B0000327406F022122A03853136121F349072
:10159B0000327402F022900033E07043900037E089
:1015AB006003750808E4F5179000327403F022E528
:1015BB0008702C9000327405F022900037E0600A1E
:1015CB007F0030E1027F028F17229000327406F009
:1015DB0075080CE4F51722E5087004900032F02230
:1015EB00E52225E025E0241BF582E43400221201DC
:1015FB00368F2F8E2E8D2D8C2C22EF14600F1460B6
:10160B001114601324037013EDF452AC22EDF45259
:10161B00AD22EDF452AE22EDF452AF229000140243
:10162B0006547B007A00792A22AF28AE27AD26AC70
:10163B0025228F2C8E2B8D2A8C29228F288E278D5D
:10164B00268C2522AF2FAE2EAD2DAC2C22E4FBFA2F
:10165B00798078BF020136AB2CAA2BA92AA82902C4
:10166B0002DC532A0FAC2AAD2BE402035AE4FBEB4A
:10167B0071EBFFEBB1EDF5831206540BBB04F0904D
:10168B00001471F8FF90002B020654752264752428
:10169B0014F154D1E8600BB40203120D70F102D5B2
:1016AB0022F1E5227002F109D178752264E4F52369
:1016BB00D1E8701390001AE0600405238003E4F571
:1016CB0023E523640A6015E525B40208D52402F14D
:1016DB0009120D70F102D522D7121F7E22D1F131E2
:1016EB00138F25E52522C2AF007596AA7596554333
:1016FB0097010000D2AF227F0A7E00020E87121ED6
:10170B005E751705E4F529F102120028400405293E
:10171B008003E4F529E529B46403121FB03006E712
:10172B00D3300A01C3920A300A0312098DC2068014
:10173B00D6110C500122F1B96002D322AB31AA327F
:10174B00A933E53712047CC322E4F526E4F527E53B
:10175B0027C3943250470527122942122955FD12EF
:10176B000DE15002800D1229427B007A007928F19D
:10177B003C5005120D70801CE52675F003A424184F
:10178B00F582E43409F583E493FF52281229555F5F
:10179B00652860097F0F7E00120E8780B2E527B4A3
:1017AB003202F1090526E526C3940C409F227534BD
:1017BB0036853035E53404F5367B007A0079347D97
:1017CB0005F1D2EF653922E4FF12043662077E0879
:1017DB00EF30E70725E06407FF8004EF25E0FFDE2D
:1017EB00EF740129F9E43AFADDDF22E4FBFA79C858
:1017FB00784222EBD394035055EF146015146023F9
:10180B0014603124037047EDD394055041ED2480CF
:10181B00802BEDD394075036EDC394034030ED2469
:10182B0088801AEDD394065025EDC39401401FED2B
:10183B0024908009EDD394065014ED2498F526E4FA
:10184B0034F0F525EB5403852682852583F022752C
:10185B002201E4F523F524FB7D05FF311A7D2012CF
:10186B000AA87D20E4FF120E657B027D051217FE90
:10187B0043B90190004474FFF0E4F511F512F5142F
:10188B00F515F516227D20E4FF120FC740379000A7
:10189B0044E025E0F0308503E004F0900044E0FFE5
:1018AB00F46003EF701FE4F5B4BFFF03C38001D3F3
:1018BB00920B7B01BFFF027B027D05E4FF1217FE3B
:1018CB007D20120E65300B08E51230E70375128090
:1018DB00300B25E511B48520D3E51464809480404A
:1018EB000BAF14EF3395E0FE31228009E4F514754C
:1018FB001601751301E4F511200B13E512B4850ED7
:10190B00E4F512E513700475150122E4F5132212A8
:10191B000F457A00792222E4F512F515F514F5132B
:10192B00EF04F51622752203E4F523752401C28218
:10193B00C284FB7D02FF120F457D04311A120AA8E7
:10194B007B007D10E4FF120AA8E4900043F0F5172A
:10195B0022EF14602214603D14605824037076ED5E
:10196B00D394054002806EED248031F58002C333A1
:10197B00D8FC55ACFC8062EDD394075006EDC394B4
:10198B000350028050ED248831F58002C333D8FC1C
:10199B0055ADFC8044EDD394065006EDC394015035
:1019AB00028032ED249031F58002C333D8FC55AE62
:1019BB00FC8026EDD394064002801AED2498FBE4BC
:1019CB0034F0FAAF05A8077401088002C333D8FCC2
:1019DB0055AFFC8004E4FEFF22EC7003FEFF228B6C
:1019EB00828A83E05403FF7E0022FBE434F0FAA8E2
:1019FB0005740108227D05E4FF315CEF64014E7034
:101A0B002FC20BE511547FFFE4F511E5137004E5CC
:101A1B00166007E4F516F5138019EFC39405501300
:101A2B00C3E51464809488500205147512808003FA
:101A3B001223807D20E4FF12160590004474AAF057
:101A4B0022E4F52CD15E7F0A3001027F048F17E56B
:101A5B001760213006F9D3300201C3920230021015
:101A6B00300102052CE52CB41403E4F51712098D93
:101A7B00C20680DBE4F52C120028500730810405E8
:101A8B002C8003E4F52CF1BFE52CC3940A40E8C28B
:101A9B0003900035E0F52D12250EE4F5C853A8DFB1
:101AAB00513E020F15E4F527F52BF52AF529F528FC
:101ABB00C200F1E6D150E4900033F0A374A0F0D152
:101ACB00579000407432F0D138E490003DF0900014
:101ADB003AF0900037F0900039F0D131900031742A
:101AEB002CF0E4F5251212CF91A940F9E4F52574F9
:101AFB00092525F87603E4F526E5251213EBFF748B
:101B0B0009252591030526E526C3940A40EB91A0F0
:101B1B00E525D16F12004591B1E5251213EBFF7B43
:101B2B00CD7ACC790C78401202DC600D400BD200E0
:101B3B00E5277005E52504F5270525E525C3940460
:101B4B0040AD91A0F1C612023F91B1E4FFFE7D20A2
:101B5B007C40AB2BAA2AA929A8281202DC5002D25E
:101B6B0000750E03E4F5257B007A00790E91A091A8
:101B7B000791A940F2E4F510C280C2A2FB7A00796A
:101B8B00227D01FFF1CE7F02120AA87522017B0094
:101B9B007D02E4FF120AA81229225008A3E06480F8
:101BAB0094DA4005750F028010C3EF648094805067
:101BBB0005750F018003E4F50FE50F6002D28090ED
:101BCB0000417404F09000367412F0E50DB4020875
:101BDB009000327404F08005E4900032F03000176E
:101BEB00E527600FD15E75170291BAE4F51791BA2C
:101BFB00D527F1D201514C22F9E4FAFB8F328E3109
:101C0B008D308C2F8B2C8A2D892E12043614601A52
:101C1B00146039146057240370667F9A7E997D692E
:101C2B009193505C918C740180537F9A7E997D794E
:101C3B00919360084006918CE412047C7F337E33D1
:101C4B007D539193503A918C74028031E4FFFE7D69
:101C5B0060919360094007918C740112047CE4FF3E
:101C6B00FE7D4091935019918C740380107FCD7E33
:101C7B00CC7D4C919360094007918C740212047CCB
:101C8B0022AB2CAA2DA92E227C40AB32AA31A93033
:101C9B00A82F0202DCAF2BAE2AAD29AC28220525DA
:101CAB00E525C3940A228F2B8E2A8D298C2822128C
:101CBB00098D7F2C7E01020E87900034E07004D2D8
:101CCB0001514C90003BE07002A3E06009D14350FE
:101CDB0005E4D131F510900041E0700FE510600282
:101CEB008009308106900033E06004D13880129077
:101CFB00002FE07002A3E06004D1435004C20151F5
:101D0B004C12234D4002C130D138122393EF14B43F
:101D1B0008004002A1BC901D281221F473021D4043
:101D2B00021D61021D65021D69021D7B021DA702BA
:101D3B001DAD021DB4E50FB40605E4F50F807290DE
:101D4B000041E0706C308169E5107065900036746D
:101D5B0012F07F018058D18880577F01804090001E
:101D6B0032E0704DA3E070499000327404F0804172
:101D7B00308107F1D61212BE50057517098032E576
:101D8B0010700F90003B7470F0A37480F07510020C
:101D9B00801FE50D701BD131F5108015E4FFD1D5F7
:101DAB00800F75170B7F04800575170B7F031227A8
:101DBB00191221FFEF24FE601C14602514602E14F1
:101DCB006039146056240570599000001213F8FF07
:101DDB0085093680229000041213F8FF850A36809D
:101DEB00169000081213F8FF850B36800A90000C32
:101DFB001213F8FF850C36F1348027E510B401225D
:101E0B00E4FFFE7D207C4390002B1212C160074043
:101E1B0005751709800CE4F5108007E50F70037545
:101E2B000F061223A12290003BF0A3F02290002F6B
:101E3B007401F0A374E0F022E51664016002C32282
:101E4B00E4F516D3229000357404F0229000387418
:101E5B0050F022C2AF007596AA759655759700D2B1
:101E6B00AF22E52225E025E02400F582E43400F5DD
:101E7B0083E0F8A3E0F9A3E0FAA3E0FB22900033A0
:101E8B00E07029F120900042E50EF0E41229C3D155
:101E9B00C1D16D120045D1B80522E522B404F0D1B1
:101EAB00C11217F6120136D1B8D1CAF0228F268E85
:101EBB00258D248C2322AF26AE25AD24AC232212F4
:101ECB00039390003EEEF0A3EF2290001AE0603BEC
:101EDB00900033E07035F120EF6007900018E0FBC5
:101EEB008005900019E0FBEBFF3395E0FE7C007D55
:101EFB000A12048ED1CDF0EB30E70ED207F1177C2E
:101F0B00FF7DFF12048ED1CDF0D2082290003EE06F
:101F1B00FEA3E0FF229000337401F0308104E51042
:101F2B006003750808E4F517228F358E348D338CDA
:101F3B0032900033E07018F120900042E536F0F15A
:101F4B00DEAB35AA34A933A832120136D1CAF0223E
:101F5B0030810C900036E060028004E5106002C115
:101F6B0057900038E0600314F022D157900036747C
:101F7B0003F022D15E751707E4F526121702120043
:101F8B0028400405268003E4F526E526B46402F117
:101F9B00B03006E7D3300A01C3920A300A031209A4
:101FAB008DC20680D6C2AF007596AA7596557597E9
:101FBB008080FE227F057E00020E87E4FBFA79808B
:101FCB00784022120AA87B007D0422E4FFFE7DA04C
:101FDB007C4122E4FFFE7DC87C42227522037523DF
:101FEB000175240122C2AF007596AA7596555397B9
:101FFB007F2275C900B205300502D206325388EF35
:10200B00D204325388CF5389F0438901E4F58CF520
:10201B008AF5CE75CB0B75CADB75CD5D75CC66F5C8
:10202B00C975CF8075A8A2C206C20575C89122EFEB
:10203B0014600C14600F147017C282D284800AD201
:10204B0082C2848004D282D284121702C282C284DA
:10205B00228F228D23E50830E705113AE4F508E5D8
:10206B00087F0030E102AF228F17E508700BF517E0
:10207B0075080A900033E523F022900033E014B486
:10208B000B00400221E590209731F4730220B80237
:10209B0020C802210902210F02212402212A022138
:1020AB00440221930221A102214A02215AE5086030
:1020BB000221E575080F9000337402F02251298F2D
:1020CB0017E508600221E5121F17D394E7EE648031
:1020DB009483402131E6D3ED9404EC6480948040EA
:1020EB000BE0240AF090003EE03400F0121F173191
:1020FB00E6121ECDF0121F1731ED7D0380397D04E2
:10210B007F018039121F1731ED90003EECF0FEA3DA
:10211B00EDF0FF31E67D05801E7D067F02801E30CF
:10212B00080A75080A900033740AF022121F17313F
:10213B00E6AE04AF057D07410E7D087F03015CE52C
:10214B0008600221E5900033740BF075081F22E53F
:10215B0008C394195029E50854F86023900018E03F
:10216B00FFC3648094AA50057517038015C3EF64F1
:10217B008094B0500575170280087517018003E431
:10218B00F517E50870548007E508704E7508169032
:10219B0000337409F022C207C208E490003EF0A39A
:1021AB00F0E508D394044021900042E014600E1433
:1021BB00600F14601024037021751703227517022A
:1021CB00227517012275170422E5086004E4F51740
:1021DB002231FFEF7004900033F0227C007D0A0265
:1021EB0004A07C007D640204A075F003A4C58325C4
:1021FB00F0C58322E51614FFD3648094804001223E
:10220B007F0022E5087016EF4E7005750880800878
:10221B00EF25E025E014F508900033EDF022E508FA
:10222B00D394094039E50824F8C31314FF3008058B
:10223B003007020F0F200813D390003FE094E79074
:10224B00003EE06480948340020F0FEF3395E0FE75
:10225B00740E2FF58274003EF583E493FF227F000A
:10226B0022E517D394084002610E900033E0600220
:10227B000185900032E06003021403E50F604420F7
:10228B00814114601C14601914602B1460201460BD
:10229B002114706F90003DE070697428F075170B76
:1022AB002290003DE0705C7428F075170A227517B8
:1022BB0005227517072290003DE070477428F075D2
:1022CB00170922E5106018E50D14600B14600C243F
:1022DB0002703075170822751706227517042290A5
:1022EB000036E07003208118E50D14600B14600CB0
:1022FB002402700F7517032275170222751701221E
:10230B00E4F51722C0E0C0F0C083C082C0D075D006
:10231B0000C000C001C002C003C004C005C006C09D
:10232B0007121A0075B400D007D006D005D004D020
:10233B0003D002D001D000D0D0D082D083D0F0D047
:10234B00E032E5166002D322E515C36001D322E427
:10235B00FE74112EF8E630E717547FFDEE7F05ED86
:10236B00C39F50010DE65480F674112EF8E64DF61E
:10237B000EBE02DD22D20BE51230E703751280E5AB
:10238B001120E70375118022E5167004E515700323
:10239B007F0022AF1422E5156009E5146005E4F512
:1023AB0015F514228B308A3189328F368E358D3468
:1023BB008C337FD27EA87D1E7C00917CD3120620AD
:1023CB00400591857FD822E47F047E0E917AC3125B
:1023DB000620500591857F6422AB30AA31A9327457
:1023EB000112047CE47FD47EF4917AD31206204050
:1023FB002AE4F537E53725E025E02480F582E4343F
:10240B0007F583120644917CC31206204006E5377C
:10241B0024D8FF220537E537B43CD9E4F537E53747
:10242B0025E02470F582E43408F583E493FE74010F
:10243B0093FFE48F3B8E3AF539F538E53BF53BE5F9
:10244B003AF53AE4F539F538AF36AE35AD34AC3351
:10245B00AB3BAA3AA939A838D31206205006E53768
:10246B002414FF220537E537B450B39185FF22FDC5
:10247B00FCAB36AA35A934A83322AB30AA31A9322A
:10248B00E402047CE51814601514601A14601F1420
:10249B0060242404702690F1617431F0801E90F159
:1024AB0061745AF0801690F1617496F0800E90F181
:1024BB006174C8F0800690F16174FFF0E518D39455
:1024CB0001400691F8748FF022E518D3940390F134
:1024DB00317402400CF090F1307489B1037444F004
:1024EB0022F090F1307457B103742BF02290F1313C
:1024FB007403F090F130741FF090F1417401F0907F
:10250B00F14022A20C300301B3502A300310D2B297
:10251B00B15590F129E070FA90F164F0801390F1CD
:10252B00297403F090F129E070FAB1EB121FBFC2CE
:10253B00B2A203920CE518652D600EB1EBB155906C
:10254B00F129E070FA90F164F02290F126E4F07F2B
:10255B0005FE120E87852D18918F90F1267403F0CE
:10256B0090F129F022121FE6C20C751804C2B2C2F8
:10257B00B1C2B07B007A0079227D027F03120AA8D8
:10258B007B007D017F03121FCE7F03120AA890F1FF
:10259B00207412F0A37403F090F1237401F090F106
:1025AB002A74FFF090F122E4F090F1277403F0A36A
:1025BB00F090F1607401F0918F90F165E4F0B1EB64
:1025CB0090F166E4F091F8748FF0B16590F129E029
:1025DB0070FA7B127D017F03120F450B1D020F4515
:1025EB0090F1647403F022538E1F438EE0007596B6
:1025FB00AA75965575970222E4F528E5281213EB78
:10260B00FF7B667A66798678401202DC50012205E0
:10261B0028E528B404E5C322900032E0FF7008904F
:10262B000036E0600214F0E5086002150890003DEA
:10263B00E0600214F090003BE07002A3E0600E90AB
:10264B00003CE024FFF090003BE034FFF0900031C1
:10265B00E0600814F0E0B40102D209900041E07090
:10266B000690003AF08007D1B25003E004F09000DE
:10267B0039E0C394085003E004F0900034E06002AA
:10268B0014F090002FE07002A3E0600E900030E099
:10269B0024FFF090002FE034FFF0EFB4050890001A
:1026AB0037E0600214F02290003AE0C39458229075
:1026BB000041E01460101460191460451460342458
:1026CB0004704AC2A22290003AE0C394055039D25A
:1026DB00A22290003AE0FFC394045003D2A222EF4F
:1026EB00C394085003C2A222EFC3940C5003D2A28E
:1026FB0022801590003AE0C394285003D2A2228086
:10270B0007D1B25003D2A222E4900041F0229000F4
:10271B0041E0700DEF600AE490003AF0900041EF59
:10272B00F022900040E0600914F07F017E00020E61
:10273B00879000407432F0121113EF600A24FE6090
:10274B0003022919020D70E4900039F0E5106005C1
:10275B0030096360611212CFC209E4F5271229C355
:10276B00E5221213EBFF74092522121C031229FA1E
:10277B00121E6D1200451229F1E5221213EBFFE434
:10278B00FBFA792078401202DC500205230522E582
:10279B0022C3940440CAE523B5220690003474A0EA
:1027AB00F01229FA121FC612023F1229F17B007A8E
:1027BB0000790E121C07E4F522F523E5221213EB28
:1027CB00FFE4FBFAF978401202DC600440020522B8
:1027DB000523E523B404E4E50FB404028054E52299
:1027EB006002804EE51014601B14602824027045B3
:1027FB00121E50E50D6402703CE50E6403603675E5
:10280B0010018031E50EB40303E4F510E50D7025DE
:10281B00F5108021E50EB40303E4F51090003BE0C6
:10282B007002A3E0600C121FD61212BE5007E50D0A
:10283B007003E4F510E5106005E50FB40207C20361
:10284B00752D04802F900031E07003742CF0311A39
:10285B0094B25008A3E0648094C64003121E5090BB
:10286B000031E0D394044003D38001C39203900062
:10287B0035E0F52D12250E900039E0FFB4080575F3
:10288B000F04211190001AE0FE7005750F0580767C
:10289B00E50F601D14604414604914605C24FE60F5
:1028AB000B047062EFC39408505C8057EE60578046
:1028BB005231225008A3E0648094DA4003750F0272
:1028CB00C3EF648094805003750F011226035036BA
:1028DB00E50D64027030750F03802B311A948F4015
:1028EB00258020900018E0C3648094AD5018A3E0BD
:1028FB00C3648094C6500F800A1226034008E50D6E
:10290B00B40103E4F50FE50FD37001C3928022905D
:10291B000018E0D3648022900018E0FFD364809409
:10292B00B722EDF4F58275830085832E85822F8582
:10293B008330858231ED22E52675F003A42416F54C
:10294B0082E43409F583E493FF22E52675F003A4B2
:10295B002417F582E43409F583E49322F4F58275A8
:10296B00830085833285823385833422A3E0FBE5A4
:10297B00354BFD22A3E0FBE5334BFD22900043E0FA
:10298B00FF547FFDE5177E0022E0FBE5355BFD2262
:10299B00E0FBE5335BFD22E0FBE5315BFD22E0FB79
:1029AB00E5314BFD22AB28AA27A926A8250202DC7C
:1029BB00A3E0FBE5374BFD22F526F525F524F523A2
:1029CB00F522220DEF5480900043F04DF022C3EE20
:1029DB006480F8ED64809822E0FBE5375BFD22A371
:1029EB00E0FBEF4BFD228F278E268D258C2422AF0B
:1029FB0027AE26AD25AC2422AF2CAE2BAD2AAC29AD
:102A0B00228F458E448D438C4222E4FBFA797A78EF
:0A2A1B004422E4FFFE7D207C4222ED
:00000001FF
