:090000000207981F080D08060A0A
:10000B000230134100580041005D00C11141002432
:0F001B000000010402E0FBE5305BFD220217F05C
:10002B00023008D1E290002EE0FCA3E0FDA3E0FE3D
:10003B00A3E0FF2290007BE05480FF3395E04F223A
:10004B0002302502040FE86480F8E933E8336011CD
:10005B000460F0ED33EC337009E8FCE9FDEAFEEBEC
:10006B00FF220460DED3EB9FEA9EE99DE8C2E78C9A
:10007B00F0C2F795F0400CE8CCF8E9CDF9EACEFAEE
:10008B00EBCFFB1203DA85D0F05804700320D5B305
:10009B00E80470075002B2D502041992D5EC046043
:1000AB00F7E4CCC0E0C398F8603B94186008400DAF
:1000BB00D0E0FB0203F1E4FBFAC9FC8028E830E452
:1000CB0006E4C9FBE4CAFCE830E305E4C9CACBFC8F
:1000DB00E854076010F8C3E913F9EA13FAEB13FBC2
:1000EB00EC13FCD8F130F52FC3E49CFCEF9BFFEE37
:1000FB009AFEED99FDD0E0FBEF4E4D4C701222DBDA
:10010B0003020416EC2CFCEF33FFEE33FEED33FD54
:10011B00ED30E7EB0203F1EF2BFFEE3AFEED39FD8D
:10012B00D0E0FB50130BBB0003020419ED13FDEEE3
:10013B0013FEEF13FFEC13FC0203F1EC4D6011E81F
:10014B00497017ED33EC3304600DE4FCFFFEFD2228
:10015B00E933E8330470F802040F1203DA58046031
:10016B0009E4CC24815006285009020419284003C5
:10017B00020416C0E0EB4A7044B98006D0E0FB02E3
:10018B000405EF4E701CBD8008EBFFEAFEE9FD8015
:10019B00EBE98DF0A4FEE5F002022FE9CDF9EAFEC2
:1001AB00EBFFEF89F0A4FCE5F0CE89F0A42EFFE481
:1001BB0035F0CD89F0A42DFEE435F08067EF4E705D
:1001CB0005BD80D780C3EF8BF0A4ACF0EE8BF0A411
:1001DB002CFCE435F0F8EF8AF0A42CE5F038FCE4C5
:1001EB0033CB8DF0A42CFCE5F03BF8EE8AF0A42C7D
:1001FB00FCE5F038F8E433CF89F0A42CFCE5F038BB
:10020B00CF3400CE89F0A42FFFE5F03EFEE433C9D6
:10021B008DF0A42EFEE5F039CD8AF0A42FFFE5F08A
:10022B003EFEE43DFD33D0E0FB50070BBB000F025D
:10023B000419EC2CFCEF33FFEE33FEED33FD020320
:10024B00F1020419EC5D046005E859047003020423
:10025B000F1203DA580460F6EC4860F2EC7004FD00
:10026B00FEFF22C860DB2481C85009C3986002508E
:10027B00060204169850CAF582E9294B4A7005AB61
:10028B008202040575F0007C1A7880C3EF9BEE9A0E
:10029B00ED99400DC3EF9BFFEE9AFEED99FDE84201
:1002AB00F0DC23ACF0D0E0FFD0E0FED0E0FDAB8281
:1002BB0020E7101BEB60BAEC2CFCEF33FFEE33FEA8
:1002CB00ED33FD0203F1E803F830E705C0F075F0FC
:1002DB0000EF2FFFEE33FEED33FD40B830E7C28069
:1002EB00AA74F8CC6480CCC86480C8F58204604FD3
:1002FB00C3EB9FF5F0EA9E42F0E99D42F0E89C4586
:10030B00F0603C501DE5825FFFE582D313CB5BCBE6
:10031B00F42B5582FB50280ABA002409B900200897
:10032B00801DE5825BFBE582D313CF5FCFF4C31354
:10033B002F5582FF50090EBE00050DBD00010CC3E9
:10034B00EB9FF5F0EA9E42F0E99D42F0E89C45F008
:10035B006007CC4820E701B3EC2275F020800E75C6
:10036B00F010800575F0087D007E007F003392D57C
:10037B0030D50312065AEC334010EF33FFEE33FE49
:10038B00ED33FDEC33FCD5F0ED22E5F0247EA2D568
:10039B0013CC92E7CDCEFF22EDD2E7CD33EC3392E7
:1003AB00D524814006E4FFFEFDFC22FCE4CFCECD3C
:1003BB00CC24E0501174FF80EDC3CC13CCCD13CD06
:1003CB00CE13CECF13CF0470F030D5DE02065AE930
:1003DB00D2E7C933E833F892D5EDD2E7CD33EC331E
:1003EB00FC5002B2D522EC30E7100FBF000C0EBE52
:1003FB0000080DBD00040BEB6014A2D5EB13FCED54
:10040B0092E7FD2274FFFCFDFEFF22E480F8A2D5EB
:10041B0074FF13FC7D80E480EFC2D530F707B2D5B3
:10042B0063F0FF05F030E70CB2D5F4048463F0FF02
:10043B0005F080018430D502F40422BB01068982C9
:10044B008A83E0225002E722BBFE02E32289828AE2
:10045B0083E49322BB010CE58229F582E5833AF50F
:10046B0083E0225006E92582F8E622BBFE06E92549
:10047B0082F8E222E58229F582E5833AF583E4935B
:10048B0022BB010689828A83F0225002F722BBFE2F
:10049B0001F322EF8DF0A4A8F0CF8CF0A428CE8D21
:1004AB00F0A42EFE22C2D5EC30E709B2D5E4C39DF1
:1004BB00FDE49CFCEE30E715B2D5E4C39FFFE49E50
:1004CB00FE12071FC3E49DFDE49CFC800312071F73
:1004DB0030D507C3E49FFFE49EFE22BB0110E582EB
:1004EB0029F582E5833AF583E0F5F0A3E022500984
:1004FB00E92582F886F008E622BBFE0AE92582F898
:10050B00E2F5F008E222E5832AF583E993F5F0A3FF
:10051B00E99322BB010A89828A83F0E5F0A3F022DA
:10052B005006F709A7F01922BBFE06F3E5F009F315
:10053B001922E88FF0A4CC8BF0A42CFCE98EF0A44C
:10054B002CFC8AF0EDA42CFCEA8EF0A4CDA8F08B49
:10055B00F0A42DCC3825F0FDE98FF0A42CCD35F08F
:10056B00FCEB8EF0A4FEA9F0EB8FF0A4CFC5F02E20
:10057B00CD39FEE43CFCEAA42DCE35F0FDE43CFC89
:10058B002275F008758200EF2FFFEE33FECD33CDD1
:10059B00CC33CCC58233C5829BED9AEC99E582981E
:1005AB00400CF582EE9BFEED9AFDEC99FC0FD5F01D
:1005BB00D6E4CEFBE4CDFAE4CCF9A88222B800C194
:1005CB00B90059BA002DEC8BF084CFCECDFCE5F001
:1005DB00CBF97818EF2FFFEE33FEED33FDEC33FC48
:1005EB00EB33FB10D703994004EB99FB0FD8E5E4F1
:1005FB00F9FA227818EF2FFFEE33FEED33FDEC33D3
:10060B00FCC933C910D7059BE99A4007EC9BFCE961
:10061B009AF90FD8E0E4C9FAE4CCFB2275F010EF9D
:10062B002FFFEE33FEED33FDCC33CCC833C810D7E0
:10063B00079BEC9AE899400AED9BFDEC9AFCE89934
:10064B00F80FD5F0DAE4CDFBE4CCFAE4C8F922C319
:10065B00E49FFFE49EFEE49DFDE49CFC22EB9FF5F2
:10066B00F0EA9E42F0E99D42F0EC6480C864809809
:10067B0045F022EB9FF5F0EA9E42F0E99D42F0E84F
:10068B009C45F022E8600FECC313FCED13FDEE1359
:10069B00FEEF13FFD8F122BB010DE58229F582E5B0
:1006AB00833AF5830207805007E92582F802077425
:1006BB00BBFE07E92582F802078CE58229F582E566
:1006CB00833AF5830206D2E493FC740193FD740222
:1006DB0093FE740393FF22ECF0A3EDF0A3EEF0A3D3
:1006EB00EFF022A8828583F0D083D0821207051207
:1006FB000705120705120705E473E493A3C583C529
:10070B00F0C583C8C582C8F0A3C583C5F0C583C82F
:10071B00C582C822BC000BBE0029EF8DF084FFAD53
:10072B00F022E4CCF875F008EF2FFFEE33FEEC333C
:10073B00FCEE9DEC984005FCEE9DFE0FD5F0E9E438
:10074B00CEFD22EDF8F5F0EE8420D21CFEADF07557
:10075B00F008EF2FFFED33FD4007985006D5F0F270
:10076B0022C398FD0FD5F0EA22E6FC08E6FD08E669
:10077B00FE08E6FF22E0FCA3E0FDA3E0FEA3E0FF02
:10078B0022E2FC08E2FD08E2FE08E2FF2278FFE429
:10079B00F6D8FD9000007F007E04E4F0A3DFFCDEC2
:1007AB00FA7581450207ED020A0AE493A3F8E49374
:1007BB00A34003F68001F208DFF48029E493A3F849
:1007CB005407240CC8C333C4540F4420C8834004BB
:1007DB00F456800146F6DFE4800B0102040810207A
:1007EB00408090000EE47E019360BCA3FF543F3029
:1007FB00E509541FFEE493A360010ECF54C025E01E
:10080B0060A840B8E493A3FAE493A3F8E493A3C8D5
:10081B00C582C8CAC583CAF0A3C8C582C8CAC58366
:10082B00CADFE9DEE780BEC2D5E830E70FB2D5E418
:10083B00C39BFBE49AFAE499F9E498F8EC30E717D8
:10084B00B2D51208681205C8E4C39BFBE49AFAE41C
:10085B0099F9E498F880031205C830D50DE4C39FCD
:10086B00FFE49EFEE49DFDE49CFC22000D70040061
:10087B000C9AFB000BD49E000B1BD3000A6F960047
:10088B0009CEF80009391C0008AD3800082A93007E
:10089B0007B08100073E640006D3AA00066FCD00A7
:1008AB000612510005BAC3000568B900051BD30039
:1008BB0004D3B40004900A00045087000414E3002E
:1008CB0003DCDC0003A833000376B10003482000EF
:1008DB00031C4E0002F30D0002CC340002A79B0058
:1008EB0002851C00026496000245EA000228F8000B
:1008FB00020DA60001F3D90001DB7A0001C47300DD
:10090B0001AEAE00019A19000186A00001743200FD
:10091B000162C00001523C00014296000133C2004B
:10092B000125B40001186000010BBCFFBDF45BE9AD
:10093B008CDF48D587CC42C373BB12B31AAB85A4EB
:10094B004D9D6F96E490A88AB8850F7FA97A847520
:10095B009B70EC6C74682F641C60375C7F58F1558E
:10096B008B524C4F304C37495F46A6440B418C3F62
:10097B00293CDE3AAD3892368E349F32C530FD2F8E
:10098B00492DA52C132A90291D27B826622519233A
:10099B00DC22AC00000000000000000000000001A1
:1009AB000B220C40B1999A00020200020B861940EF
:1009BB00D9999A01010301030C4E2D410800000245
:1009CB00010402040CB23841133333030105030550
:1009DB000D16464126666604010103060D7A644135
:1009EB0040000005010000070BB846412666660271
:1009FB00010000080B86644140000001020000C2A8
:100A0B000A122FDC122FCF122146F1441235181285
:100A1B00209F1221AAF18F122BBE12138E1235DCDE
:100A2B001232BDD20C122308C21512002712102F3E
:100A3B00122462121F57122E68121AD251771231DA
:100A4B00C03010E6200A131211BD1230D0122CA3A5
:100A5B001235F8122790D20A800E123592122DF908
:100A6B00121E2C12355FC20AC21080BEE545B407B8
:100A7B000040028152900A87F8282873020A9C02D0
:100A8B000ADB020AF8020B6D020B1C020B8C020C28
:100A9B002912364EF136700E900025120033EC4DB4
:100AAB004E4F700281529000731206EE0000000050
:100ABB00E4900024F0900032E0FFA3E0900071CFAF
:100ACB00F0A3EFF0D2077F013016027F028F452291
:100ADB00300702815212003090002912002E121D95
:100AEB0026D20790002474FFF075450222300702CE
:100AFB008152900024E0600314F022D2827F057EA5
:100B0B0000121133D2843016047545032275450447
:100B1B002212364EF136600C900025120033EC4D4C
:100B2B004E4F700375450630070281529000341208
:100B3B000033900029F136400B9000341200331231
:100B4B001D268037900024E0600314F022900029CA
:100B5B0012003312363D900029120033121FC4D2FB
:100B6B00072212364EF136600C900025120033EC42
:100B7B004D4E4F7003754506121FCD754505D207B7
:100B8B002212364EF136600C900025120033EC4DDC
:100B9B004E4F7003754506201702815230070281B4
:100BAB005212179164066028121FCD20160B90006D
:100BBB0034120033121D26800A9000731206EE00C9
:100BCB00000000900034120033123648D207804BDD
:100BDB00900024E0600314F02220163A90002912B2
:100BEB00003312363D900034120033900029F13659
:100BFB00600B4009900034120033123648900029E4
:100C0B00120033121FC4D20790003412003390002D
:100C1B0029F136500622121FCDD207C21722C284E9
:100C2B007F0A7E00121133C2821227C69000731204
:100C3B0006EE00000000D2079000291206EE00001D
:100C4B000000C217E4F545227D087F018F281204AE
:100C5B0046FF14601514602814603D14603A240498
:100C6B00705B1236281236578029123628F582749B
:100C7B0001F52D85822EE582F4F582752F00801308
:100C8B00123628F4F582752D0085822EEDF58274CF
:100C9B0001F52F8582308025ED123657858230ED98
:100CAB00F5827401F52985822AEFB40407EDFF74F0
:100CBB0001FE8005EDF4FF7E008E2B8F2C90000142
:100CCB0012045F7007EDFF7401FE8005EDF4FF7EEB
:100CDB00008E318F3290000212045F7007EDFF74AB
:100CEB0001FE8005EDF4FF7E00E528147002A18F54
:100CFB00147002C113147002C19724036002E12126
:100D0B00E529AB9A30E006E52A4BFD8004E52A5B2A
:100D1B00FD8D9AE52B30E00890F0091236858006A0
:100D2B0090F00912367E90F009EDF0E52D30E005DC
:100D3B0012366F800690F00A12367790F00AEDF0BB
:100D4B00E52F30E005123667800690F00B1200207D
:100D5B0090F00BEDF0EE30E00512369A800890F033
:100D6B000CE0FBEF5BFD90F00CEDF0E53130E006B5
:100D7B00123693FD800690F00D12368CAF0590F075
:100D8B000DEDF022E529ABA130E006E52A4BFD8005
:100D9B0004E52A5BFD8DA1E52B30E00890F01912DC
:100DAB003685800690F01912367E90F019EDF0E53D
:100DBB002D30E00512366F800690F01A12367790C0
:100DCB00F01AEDF0E52F30E005123667800690F053
:100DDB001B12002090F01BEDF0EE30E00512369A5E
:100DEB00800890F01CE0FBEF5BFD90F01CEDF0E554
:100DFB003130E006123693FD800690F01D12368CD2
:100E0B00AF0590F01DEDF022E529ABA230E006E531
:100E1B002A4BFD8004E52A5BFD8DA2E52B30E00813
:100E2B0090F029123685800690F02912367E90F0CC
:100E3B0029EDF0E52D30E00512366F800690F02A93
:100E4B0012367790F02AEDF0E52F30E00512366779
:100E5B00800690F02B12002090F02BEDF0EE30E09E
:100E6B000512369A800890F02CE0FBEF5BFD90F0BA
:100E7B002CEDF0E53130E006123693FD800690F054
:100E8B002D12368CAF0590F02DEDF022E529ABA39A
:100E9B0030E006E52A4BFD8004E52A5BFD8DA3E5DA
:100EAB002B30E00890F039123685800690F039121D
:100EBB00367E90F039EDF0E52D30E00512366F807F
:100ECB000690F03A12367790F03AEDF0E52F30E0DD
:100EDB0005123667800690F03B12002090F03BED38
:100EEB00F0EE30E008A3E0FDEF4DFF800890F03C02
:100EFB00E0FDEF5DFF90F03CEFF0E53130E009A352
:100F0B00E0FDE5324DFF800990F03DE0FDE5325DFF
:100F1B00FF90F03DEFF022AB41AA42A943900003B2
:100F2B0012045FFCE412036F90001BE0F8A3E0F9DE
:100F3B00A3E0FAA3E0FB0202ECE4F525F526F52786
:100F4B00FB7A0079257D027F031236A97F02915728
:100F5B007B0112219C752701E41B1DFF1220DB0D69
:100F6B009157D28075DF4075DE60E4F5E9F5D1F578
:100F7B00D375D50F75D4FF90F69274A0F012318C07
:100F8B0043DE80221222D9C284C2821227BEFF12F4
:100F9B0036A9E4FF91577525017B0091537F287E7D
:100FAB0000121133309304C2168002D2167525033A
:100FBB007B007A00792591531227B61206EE0000BA
:100FCB0000009000341206EE000000009000251285
:100FDB0006EE00000000E4F54522EF14600E1460ED
:100FEB000F1460102403700FED42AC22ED42AD22C2
:100FFB00ED42AE22ED42AF22EF14601114601514D6
:10100B0060192403701CE5AC5D6017D322E5AD5D60
:10101B006010D322E5AE5D6009D322E5AF5D6002BF
:10102B00D322C3227D087F021103403A90007CE05B
:10103B0025E0F030A303E004F090007CE0FFF460C7
:10104B0003EF7022122789E4F5B6BFFF03C38001BB
:10105B00D3921A7B01BFFF027B027D037F0212201A
:10106B00437D08120FE5301A08E51930E7037519AF
:10107B0080301A26E518B48521D3E51B6480948053
:10108B00400CAF1BEF3395E0FE1230FA8009E4F50C
:10109B001B751D01751A01E4F518201A13E519B417
:1010AB00840EE4F519E51A7004751C0122E4F51A97
:1010BB002275240C1222734387044387020000001D
:1010CB00000000123019EF6029122FDC1230BD1214
:1010DB0030AF7F017E003133112F30100AC210B2B6
:1010EB000B300B031230D0122F7D50E612225CC254
:1010FB001522E52460041524802775240B120F4458
:10110B001234301227D6C39454EE6480948B50065D
:10111B0012226D12214612216F12353DE4F51EF598
:10112B001FE51F451E6090228E2B8F2CE4F531E5B9
:10113B002C452B60760531AE2BAF2C121FB4E47B04
:10114B00A07A0FF9F812053D1219BEC007AF31ABEB
:10115B0007E4FAF9F8D0071205C81219BEE47FFFAD
:10116B007EFFFDFCAB30AA2FA92EA82DD312067E35
:10117B0050C3C374FF9530F53074FF952FF52FE4F2
:10118B00952EF52EE4952DF52D121FBB7808120622
:10119B008F8F8CE530FF8F8AC20E438810E5882035
:1011AB00E503300EF85388CFD531DE227F0A7E005F
:1011BB0031331235C4502490007AE0FF6480949050
:1011CB004004E4F08036EF640C6004EFB410079039
:1011DB00007AE004801E90007A801012354C501774
:1011EB0090007AE0C36480948C5005E004F0800C8E
:1011FB00E490007AF041FAE490007AF0E544B40B05
:10120B0000400241FE901217F82828730212380290
:10121B00124202124702126802124C0212680212A8
:10122B004E0212A60212A60212A60212A6C2A6C253
:10123B00A4E490007BF022C2A6D2A422D2A6C2A420
:10124B0022801512003F7F8060027F0090007BEFB1
:10125B00F0120043700241FAD2A6D2A422C2A4908B
:10126B00007BE0FF547FFEE5447D00B403027D0369
:10127B00C3ED1236B1500C0EEF548090007BF04E44
:10128B00F0800E12003F7F8060027F0090007BEFAA
:10129B00F012003FC36001D392A62290007BE05472
:1012AB007FF0E54464086005E544B409047F0680DB
:1012BB00027F0A90007BE0FED3EF1236B14004E4CC
:1012CB00F5442290007BE0FF04F0EF75F00212046E
:1012DB0024AFF0EF6019E544B40A05D2A4D2A622DC
:1012EB00E544B40905D2A4C2A622C2A4D2A622C246
:1012FB00A6C2A422EF14600F146011146013240310
:10130B007013EDF452AC22EDF452AD22EDF452AE6B
:10131B0022EDF452AF2230020C201609C202C20C8D
:10132B009122122899301607122F6D7C4180087F6D
:10133B00337E337D8B7C4091176020401E7F327E45
:10134B00003133E5257F0160027F008F25E5257F86
:10135B000160027F028F4431BD80E2200224910F95
:10136B006020401ED202C20C9122752528E5257FF4
:10137B000030E0027F018F447F2831B9D525EE1272
:10138B00289922E4F524120027E5177026E524148A
:10139B00600C14600E2402700F754402800D7544AE
:1013AB000480087544018003E4F5447F6431B9057A
:1013BB002480DA7524012004047121802420160571
:1013CB00300202801930020D122F6D7C4191176093
:1013DB000440028009200209910F60054003E4F5E7
:1013EB0024E524701E7F0F7E003133E5247F0160DE
:1013FB00027F008F24E5247F0160027F028F44313E
:10140B00BD80E2227F337E337D8B7C40AB12AA11F1
:10141B00A910A80F0202ECE4FFD20D91F5300301E5
:10142B000F30050343070230020343070430040364
:10143B0043070890004AEFF090001B120033900016
:10144B00421206E29000201200339000461206E290
:10145B007B017A0079427D091233C390004BEFF088
:10146B00200C0E900079E0FF90004BE0B507028056
:10147B0077200C0FC3900078E09465900077E09490
:10148B0000401D7B007A00792B7D007C027F1D12B2
:10149B003306E4FC7F1D123306E4900077F0A3F0D3
:1014AB00E4F52B900077E0FEA3E0FF7C007D0A12B1
:1014BB00049EEF252BFDEC3EFC7442252BF9E43406
:1014CB0000FA7B017F19123306052BE52BC3940A17
:1014DB0040D1900078E004F07006900077E004F0C3
:1014EB0090004BE0900079F0C20D300D07C2AF00B9
:1014FB0075FBAA2275FB5500D2AF228F25E4F52888
:10150B00F191F526F52724FA7002A1F1147002A1CE
:10151B00EA24076002C170E525B4050E20030B75A4
:10152B004408D203C20C9122C1701235B4402FE58E
:10153B00257026122F8A5002801F122F4AEF70023D
:10154B00C17024FD60080470101233F4C170E517EC
:10155B006005123448C170800075440AC170D1DD3A
:10156B00E525B4080C200409D204754409C20C917A
:10157B0022122F8A50172013091236A1D1D6948B21
:10158B0050051227DF80047F07D18FD201E525B4E8
:10159B00030ED1BF9840067F08D18F800375440797
:1015AB00E52564077022D390005AE094B8D1D69405
:1015BB008B40153005028001D392057F0230050266
:1015CB007F01F19AC20C9122E52564016002C17082
:1015DB00201307900003E0FFC16E1227DFC17012CA
:1015EB00295E8F28807FE525B40309D1BF9840750C
:1015FB007F08D18FE5256402701A900016E0601405
:10160B00900014E07002A3E0700A122B0E122B9CB8
:10161B00A3E014F090001FE030E711900019E0FFF9
:10162B00D18F90001FE0547FF04440F090001FE0FA
:10163B00FF30E53154DFF0900019E0B4071CD217EE
:10164B009000341206EE411B33339000251206EE48
:10165B00428C0000D2017F07800990001FE04440BC
:10166B00F07F05D18FF191B52605AF2512266A12B1
:10167B002F3CE52860037F0122F19165277F0060F5
:10168B00027F01228F2CF191652C6027E4F52DE56B
:10169B002D12273CB52C15E52D75F00CA4249EF9C5
:1016AB00740935F07541FFF542894322052DE52D6F
:1016BB00B409DC227F08122727EF245EFFEE3401EA
:1016CB00FED390005AE09FEE6480F8900059E064DE
:1016DB008022122F4AEF7002E18B24FE602A1460E5
:1016EB002A14602A14606024046002E190F1916076
:1016FB0002E190D390005AE09422D1D6948B40040F
:10170B007F018080754408220233F4023448F19142
:10171B00FF6407701E20016DEF6407706890002D49
:10172B00E0120F2E701E120030900020120F366048
:10173B005480111236A1D1D6948B500475440722D4
:10174B007F07D18F021FD820043BF19170373016E1
:10175B0034200031D200910F60064004D202800782
:10176B00D3300201C392022002047F02800C7F015E
:10177B00F19A7F1E7E0031337F01F19AC20C8122D8
:10178B00300002C20022AB41AA42A943020446EF39
:10179B0024FE600E24FE60102403701AC2A6D2A48D
:1017AB00800AD2A6C2A48004D2A6D2A47F147E0043
:1017BB003133C2A6C2A42220032AA204920B122FF9
:1017CB0059300B02D204C20C9122C20D91F575292E
:1017DB006475440631B7122F6A50021529E529703A
:1017EB00F312289922E508B4030C201504D21480B7
:1017FB0002C214E4F508E508146029146063147040
:10180B000201A82403600201A5D20D11C1E4F52940
:10181B00E52990000393FF11B5EFF00529E529B4F5
:10182B0003EE8071E4F52911B5E0FFF4600BEFD303
:10183B009416400CEF941F50070529E529B403E7D4
:10184B00E529C39403501511B5E0F528B40D04C276
:10185B000D11C1AF29F1ED750802804175080380A8
:10186B003C900066E0245E11B9E0F5287B007A001D
:10187B007926123108EF6025AD28AF27AE2611D699
:10188B00E4F52911B5E0B5280511B574FFF005296C
:10189B00E529B403EE7508018003E4F5083015095A
:1018AB00E508640360030217F022745E2529F582B4
:1018BB00E43400F5832253DE7F007F00200D027F8E
:1018CB00A090F692EFF00043DE80228E2A8F2B8DB4
:1018DB002C90F692E030E708E4FFFEFD7C4080029E
:1018EB0031D831BE31C7C004C005C006C007E4FB08
:1018FB00FA79807845F1BB12024FD003D002D001A8
:10190B00D0001201468F348E338D328C31E52C246E
:10191B00F8605C24FB601E24EE600221BD31C751D0
:10192B00C97F9A7E997D997C4512024F8F168E1531
:10193B008D148C13227B2D7AA67933783EAF34AE7F
:10194B0033AD32AC3112024F8F128E118D108C0FC2
:10195B002002028011E4FBFAF97840AF12AE11AD10
:10196B0010AC0F12024F8F0E8E0D8D0C8C0B223183
:10197B00CF31D8120051C004C005C006C007E4FF28
:10198B00FE7DA57C4331CF120146D003D002D0019E
:10199B00D00012024F31BEE4FBFA797A784412017F
:1019AB004631BE1203A37B007A00791731E18E0911
:1019BB008F0A228F308E2F8D2E8C2D22AC2AAD2BA1
:1019CB00EC02036AAB34AA33A932A83122AF16AEAC
:1019DB0015AD14AC13228B358A3689378F3B8E3A73
:1019EB008D398C387F047E707D0D7C0051B3D31202
:1019FB00067E400751BC7EFF7FF122E47FAC7E2246
:101A0B0051B1C312067E500651BCFE7F5622AB3538
:101A1B00AA36A937740112048CE47FBD7EFF51B145
:101A2B00D312067E402EE4F53CE53C25E025E02470
:101A3B0076F582E43408F5831206D251B3C312064D
:101A4B007E400AE53C24F1FFE434FFFE22053CE531
:101A5B003CB430D5E4F53CE53C25E02436F582E496
:101A6B003409122757E48F408E3FF53EF53DE54094
:101A7B00F540E53FF53FE4F53EF53DAF3BAE3AAD06
:101A8B0039AC38AB40AA3FA93EA83DD312067E50D5
:101A9B0009E53C2423FFE433FE22053CE53CB4344A
:101AAB00B651BCFEFF22FDFCAB3BAA3AA939A838C4
:101ABB0022AB35AA36A937E402048C120146A804DE
:101ACB00A905AA06AB0722E5177002811E20140296
:101ADB00811EC214D3E50A9431D1254004D219805A
:101AEB000E30190BC3E50A942FD1255002C21912DF
:101AFB0017916003201909F195752441F12061F3C9
:101B0B00301673F1A812036A8F2BB1FED12040154A
:101B1B00E4FFFEFDFCD10C600C400AF118AC28F17F
:101B2B009E8F2BB1FEE4FFFEFD7CC0D10C5005F166
:101B3B008D7528C07F0A7ED77D237C3CF111A828A8
:101B4B0051C69000691200331200518F2BB1FED198
:101B5B000560044002F11FE4FFFE7D20D10A500B0B
:101B6B00E4F52BF52A75292075284290006DF14C70
:101B7B00F527B11F8072F1A812036AB11DD1204065
:101B8B0012E4FFFE91281202EC60084006D117F117
:101B9B009EB11DE4FFFEFD7CC0912A1202EC5005A4
:101BAB00F1337524C07F0A7ED77DA37C3B912A51EC
:101BBB00C690006D120033120051B11DE4FFFE7D83
:101BCB00407C41912A1202EC60074005F195752487
:101BDB0041E4FFFEFD7C41912A1202EC5005F133EA
:101BEB00752441900069B1F2900069120033D10C59
:101BFB00700D90006D120033912A1202EC6014F1FB
:101C0B0018AC289000691206E2D11790006D1206ED
:101C1B00E2D21722E0FEA3E0FFEE3395E0FDFCAB32
:101C2B0027AA26A925A82422201602800CF12B9086
:101C3B000025120F36600F400DE4F527F5267525AC
:101C4B00C87524428009900025F14CF527B11F205F
:101C5B00020FD1177B9A7A997919783F120146B105
:101C6B001DF12B900069120F36600C400A90006931
:101C7B001206EE42C80000E4FFFEFDFC9000691264
:101C8B000F36500A9000691206EE00000000912AF0
:101C9B00C000C001C002C003F1859000691200337F
:101CAB0012024FD003D002D001D000120146B11D59
:101CBB00E4FFFE7DBE7C42912A1202EC600D400BCC
:101CCB00E4F527F5267525BE752442F143912A12BA
:101CDB0002EC5004F143B11DD1177B007AF079155A
:101CEB007845120146B10B7F007EF07D157C459146
:101CFB002A1202EC5005D1170203A37E097F5F2243
:101D0B008F278E268D258C24E4FBFA79C878421216
:101D1B00024F8F278E268D258C2422B11D7F147E9A
:101D2B00AE7D3F7C41912A1202EC6010400E752B68
:101D3B0014752AAE75293F75284180297F337E3370
:101D4B007DA37C40912A1202EC500E752B33752A21
:101D5B00337529A3752840800C85272B85262A856A
:101D6B00252985242890006D120033D10C50119039
:101D7B00006DB1F2120030D10C500590002EB1F273
:101D8B00E4FFFE7D807CBFF111A8281200557B7605
:101D9B007AE079DC783E1201468F2BB1FEF111A867
:101DAB00287F547E527D977C401200518F2BB1FEC1
:101DBB00AB16AA15A914A81312024F8F2BB1FEF163
:101DCB00851201468F2BB1FEE4FFFEFDFCD10C50BA
:101DDB0004F18DF528D10560044002F11FF118AC18
:101DEB00289000730206E2E0FCA3E0FDA3E0FEA353
:101DFB00E0F52B8E2A8D298C2822E4FFFE7DC87CF2
:101E0B0042AB2BAA2AA929A8280202ECAF27AE269F
:101E1B00AD25AC2422D3E50A943FE5096480948078
:101E2B0022900057E0C394285044123433B11D90D4
:101E3B000057E004F0900053F14C2527FFEE3526B8
:101E4B00FEED3525FDEC3524F10A90004F911FC3B3
:101E5B00120668500590004FF13B900051911FD333
:101E6B001206685002C1F9900051F13BC1F9900084
:101E7B0053120033C004C005C006C007900051E0E8
:101E8B00FEA3E0FBAA06EA3395E0F9F890004FE0D9
:101E9B00FEA3E0F1B3EF2BFBEE3AFAED39F9EC3898
:101EAB00F8D007D006D005D004C3EF9BFFEE9AFE07
:101EBB00ED99FDEC98F10A900053120033C006C067
:101ECB0007A3E024FEFFE434FFAB07FA3395E0F9F8
:101EDB00F8D007D006120832F10B900053A3A3E001
:101EEB00FFA3E0900059CFF0A3EFF01234F690006F
:101EFB004CE0600214F0900058E0600214F022FCF9
:101F0B009000530206E2AB2BAA2AA92922AF2BAED3
:101F1B002AAD2922E4F52BF52A7529C8752842220A
:101F2B00E4FFFE7DC87C4222E4F527F526F5252249
:101F3B00E526F0A3E527F02290002DE0FCE4020358
:101F4B006FE0FCA3E0FDA3E0FEA3E022E517602910
:101F5B00D3E50A9444D1254004D218800E30180BD7
:101F6B00C3E50A9431D1255002C21830180B121751
:101F7B00916006122FA575440A22E4FBFA79C87802
:101F8B004222E4F52BF52AF52922E4F527F52675EF
:101F9B00254022E4FBFA79207840020146E50A2429
:101FAB00CFFDE50934FFFC22FFEE3395E0FDFC226B
:101FBB00AF30AE2FAD2EAC2D22B126900024740580
:101FCB00F0229133900071EEF0A3EFF022D20112C8
:101FDB000030F1E7F14390001B0206E29000200273
:101FEB0006E2AB07EBD39402504D745E2B11B9E0B4
:101FFB00FAF46043EAD394164005EA941F403890F4
:10200B000067E070329000611206EE00000000E401
:10201B00900065F0A3EBF0A37401F0EA30E4054304
:10202B00DF80800353DF7F53DEF0EA540F42DE7A0A
:10203B00A000DAFE43DF0222EBD394035055EF14DA
:10204B00601514602314603124037047EDD394059D
:10205B005041ED2480802BEDD394075036EDC39483
:10206B00034030ED2488801AEDD394065025EDC340
:10207B009401401FED24908009EDD394065014ED8C
:10208B002498F528E434F0F527EB54038528828552
:10209B002783F022752401E4F525F526FB7D037FCC
:1020AB000211DB7A0079247D08120C577D087F0220
:1020BB00120FE57B027D03114343B904F1899000B4
:1020CB007C74FFF0E4F518F519F51BF51CF51D22D2
:1020DB00EB64026065EB64036060EB6419605BEBBF
:1020EB00D3941C5055EF14601514602314603124E5
:1020FB00037047EDD394055041ED2400802BEDD3B5
:10210B0094075036EDC394034030ED2410801AED44
:10211B00D394065025EDC39401401FED2420800974
:10212B00EDD394065014ED2430F529E434F0F52862
:10213B00EB541F852982852883F02251D9C2A6C270
:10214B00A4FB7D067F0211DB7D0411DB7A00792570
:10215B007D40120C577B007D107F02120C57E4510F
:10216B00D0F54422E4F5DE90F692F012318CE4FBCC
:10217B00319CE4F526F5277A0079257D041F120C96
:10218B00577B007D027F03120C57C2B1C2A2C280E3
:10219B00227D027F0211DB1D0F11DB7525032275DA
:1021AB002503752601752701C2B0C2857B007A0015
:1021BB0079257D017F03120C577B007D20E4FF12F4
:1021CB000C5790F120E4F0A37411F090F1237401FB
:1021DB00F090F125F090F12A74FFF090F12EF09031
:1021EB00F122E4F090F1277411F0A3F090F160E488
:1021FB00F090F165F090F1647411F090F131741F6F
:10220B00F090F130743FF090F1397409F090F1389F
:10221B00745FF090F141E4F090F149F090F140F0EF
:10222B0090F148F09000731206EE00000000F1C62A
:10223B00C209C20790F166F090F126741DF01231BD
:10224B00B17B167D05E4FF11DB7B12E4FD7F0301FF
:10225B00DB120F4431AA3146120F8F120027C20C2A
:10226B007108E4F5BDF5BC221232BDE4F5C853A8E4
:10227B00DF51AB316F51E3C2A6C2A4E4F54451D098
:10228B00C390005AE094541216D6948B401130052B
:10229B000E75250151DCF182F1BE7F02120C572223
:1022AB00E4FB7D05FF11DBE4FD7F0311DB90F128DF
:1022BB007411F090F121E4F090F126F090F125F0FB
:1022CB0090F123F02290007BF090007AF02275259C
:1022DB0003E4F52675270122C284C282F1B61206E9
:1022EB00EE000000009000341206EE00000000909B
:1022FB0000251206EE00000000E4F5452275250AC4
:10230B001234F6E490004DF0123430F1D67148D50A
:10231B0025F6300C279000587412F030021E7F0403
:10232B0012179A7FC87E001211337F0412179A7509
:10233B0025307F0A7E00121133D525F622E4FFFEED
:10234B007DA07C41900025120F36500A90003A1266
:10235B0006EE00000000E4FFFE7DA07CC19000258E
:10236B00F1E912005590003A1206E2E4FBFA79A06B
:10237B00784290003A12003312024FE4FBFA79963E
:10238B007843121AC67F007E407D677C4512005150
:10239B0090003A1206E290003A1200331203A39017
:1023AB000038EEF0A3EFF090004EE01460201460C4
:1023BB004D14607A2403600281529153E0FFC312E3
:1023CB0016CD984002815290004E7401F022915329
:1023DB00E0FF24C8FDE43EFC900059E0FAA3E0FBCB
:1023EB00D39DEC915A4005E490004EF0EF2438FF5A
:1023FB00EE34FFFEC3EB9FEE915A504B804391534B
:10240B00E0FF900059E0FCA3E0FDD39FEE6480F861
:10241B00EC648098400690004E7401F0C3ED9486F6
:10242B00EC6480948B502090004E7403F02290004B
:10243B0039E02438FF900038E034FF1216CB984077
:10244B000690004E7402F022900038E0FEA3226446
:10245B0080F8EA64809822900059E0FEA3E0FFD355
:10246B009404EE6480948B4032301311D3EF94B804
:10247B00EE6480948B4002C213C2128022D136903C
:10248B0000011204E6FFD390005AE09FE5F012160C
:10249B00D39840028001D392128004C212D21371DE
:1024AB0048E544D39406501D90004DE06002801621
:1024BB0012342250051217917006900058E06002FA
:1024CB00E161E4F5442290004DE014B40B004002AE
:1024DB00C1179024EB75F003A4C58325F0C5837356
:1024EB0002250C02251C02255F02256502257602BA
:1024FB00257C02258E0225E40225FC02259502256A
:10250B00A690004CE06002C117740FF0A37402F0A8
:10251B00221234D08F4490004CE06002C11790001F
:10252B005BE0FEA3E0FFD394E7EE64809483401E50
:10253B00D120D3ED9404EC64809480400BE0240A0A
:10254B00F090005BE03400F0D118F1AFEFF0D12741
:10255B007D03802C7D047F02802DD12790005BECC6
:10256B00F0FEA3EDF0D11F7D0580157D067F048065
:10257B0016301104F1CEF022D118AE04AF057D0751
:10258B000234B17D087F0102348490004CE0707CF2
:10259B00A3740BF090004C741FF02290004CE0FFE2
:1025AB00C394195028EF54F86023C3E50A942F12F3
:1025BB001E2550057544018017C3E50A9438121E79
:1025CB0025500575440480087544028003E4F544E6
:1025DB0090004CE07036A3801490004CE0702D12EC
:1025EB00179170069000587412F090004D7409F01A
:1025FB0022C211E490005BF0A3F0900058E060025F
:10260B00E161122F4AEF700490004DF02290005BB5
:10261B00E0FEA3E0FF7C007D0A0204B090005BE0CB
:10262B00FEA3E0FF7C007D640204B0AB41AA42A98B
:10263B004322D13690000A12045FFF6021F11EFE87
:10264B00C31216CD98500B121791640160107F01C5
:10265B008009D13690000A12045FFF12168F228F69
:10266B0029121791FFB40604C20B800AEFB40804B9
:10267B00C20B8002D20B300B4DE529640270477FF1
:10268B0006F11E1216CB984005122B408038D390C2
:10269B00005AE094221216D6948B4023752A05E536
:1026AB002AF14CC31216CD98400AE52AF13CFF12D1
:1026BB00168F8012152AE52AD3940150E280071257
:1026CB0017917002F1DF121791600B1216DDE529DD
:1026DB00B40103122FA590001FE0FF30E705547FD4
:1026EB00F0D13D90001FE030E51154DFF0D1369072
:1026FB00000B12045FFF600312168FD13690000996
:10270B0012045F600D5402FF90000812045FFD126B
:10271B002DB522F127EF2432FFE43E22E4FEEEF149
:10272B003CB50703EE801A0EBE09F3E4FEFF22E56B
:10273B002475F00CA4249EF582E43409F583E4930C
:10274B002275F00CA4249FF582E43409F583E493FD
:10275B00FE740193FF2290004EE014600E14600F84
:10276B001460102403700F75440122754404227504
:10277B004402227544032275BCFF75BDBF22751E32
:10278B0000751F28221235A1EF6002F189D3E51FD6
:10279B009400E51E94004009E51F151F7002151EDD
:1027AB00220210BC90005BEEF0A322C293C21790E2
:1027BB00002922FB7A0079257D1022E4900071F02C
:1027CB00A3F02290004C740AF0A322900059EEF073
:1027DB00A3EFF022900058E07003740EF022E0F8A3
:1027EB00A3E0F9A3E0FAA3E0FB22EF14602214604C
:1027FB003D14605824037076EDD394054002806E2F
:10280B00ED2480118E8002C333D8FC55ACFC806262
:10281B00EDD394075006EDC3940350028050ED2482
:10282B0088118E8002C333D8FC55ADFC8044EDD3A8
:10283B0094065006EDC3940150028032ED249011A2
:10284B008E8002C333D8FC55AEFC8026EDD39406A4
:10285B004002801AED2498FBE434F0FAAF05A80788
:10286B007401088002C333D8FC55AFFC8004E4FE2E
:10287B00FF22EC7003FEFF228B828A83E05403FF5E
:10288B007E0022FBE434F0FAA80574010822C2AFE3
:10289B00007596AA75965575978080FE227529FF4F
:1028AB00C20D1214F57544031529E52960051211A3
:1028BB00B780F580D97B017A0079381233349000D8
:1028CB0077EEF0A3EFF07B017A0079387D091233B4
:1028DB00C3900041E06F705C900040E0C330E301B7
:1028EB00D39204900040E0C330E201D392029000F7
:1028FB0040E0C330E101D39205900040E0C330E0EB
:10290B0001D39203900038120033315890003C12DF
:10291B000033121FE7900041E0900079F0900078AF
:10292B00E004F07006900077E004F0F16A401012BA
:10293B0017C2800BF159D203D20C12142211A8C268
:10294B000D0214F590002DE0FCE412036F90001BB8
:10295B000206E2C20B30010E711A4007F14AEF700A
:10296B0002C2017F0022C390005AE094B21216D625
:10297B00948C506420162E7135120F36602740252B
:10298B009000201200337104783D120051121FE7A2
:10299B007135120F36500A9000201206EE410800D6
:1029AB0000D20B8033301630E4FFFE7D207C4212C8
:1029BB000F336024402290001B120033712A3158D0
:1029CB00E4FFFE7D207C42120F33500A90001B1255
:1029DB0006EE42200000D20B711A507C900001E0F1
:1029EB007002A3E0600241737E003016047F058005
:1029FB00027F37712120162F710E900020120F3697
:102A0B0050259000201200337104783D12005512AE
:102A1B001FE7710E900020120F3660074005710EF4
:102A2B00121FE7D20B41F320160241F3120F224083
:102A3B000241F390001B1200337B0A7AD77923787B
:102A4B003C1200553158120F2260094007122636EE
:102A5B00D1623153D20B41F3B1AC400241EC900047
:102A6B0001E07002A3E06010900002E024FFF09000
:102A7B000001E034FFF080707E003016047F05808B
:102A8B00027F377121201632120030900020120F76
:102A9B0036602740259000201200337104783D12D8
:102AAB00005190002012002E900020120F3650067D
:102ABB00120030121FE7D20B802E30162B90002DF8
:102ACB00E0120F2E6022402090001B120033712A5F
:102ADB00315890002DE0120F2E5002314FD20B8047
:102AEB0007E4900001F0A3F0300B06900000742077
:102AFB00F07F00300B027F01227BCD7ACC794C2208
:102B0B0012168FAB41AA42A9439000040206A2E51C
:102B1B001AC36001D322900001EEF0A3EFF0227BE9
:102B2B000A7AD77923783C020051E4FFFE7D087CBA
:102B3B004190002022121791FF9000196003F08042
:102B4B00037401F0EF640770307136120F36600AB0
:102B5B0040089000201200338004F16D7C419000FE
:102B6B00081206E2B19B120F33600A400890001B5B
:102B7B001200338012B19B800E7F05710B90000801
:102B8B00D15FFCE412036F9000041206E27F067122
:102B9B000B90000C1206E290000312045FFCE4128F
:102BAB00036F9000101206E29000147403F0A374EC
:102BBB0020F0227541FF75420975439E9000037406
:102BCB0001F0C203C200E490001AF0900001F0A3E0
:102BDB00740AF0C201E4900000F09000167406F045
:102BEB00A371B6E4F52412273AFBB401139191902B
:102BFB00002DF09180F5831206D290002E1206E282
:102C0B00EBB406139180F5831206D290000C918ED3
:102C1B00FCE412036FB19512273AB405179180F5B6
:102C2B00831206D2900008918EFCE412036F900081
:102C3B00041206E20524E524640970AA11C0900071
:102C4B002DE0FFE48F28121F34AF28AE27AD26AC42
:102C5B00257B5F7A09F9F812053DB1A3E47B64FA91
:102C6B00F9F81205C8B1A3E527547FFE900032EEA8
:102C7B00F0A3EFF022E52475F00CA424A2F582E476
:102C8B003409221206E2E52475F00CA424A1F58286
:102C9B00E43409F583E493221217916406602A90B9
:102CAB000016E064067002A194A3E07002A3E0603A
:102CBB000C900018E024FFF0900017802090001774
:102CCB0071B6900016E004F022900014E07002A39D
:102CDB00E0600F900015E024FFF0900014E034FF4B
:102CEB00F022201652900008120033A3120F366008
:102CFB0012401090000C120033712A90000C120637
:102D0B00E28031900019E0B40725900008120033DF
:102D1B00A31206E290000C120033900020120F3623
:102D2B00500990000C120033121FE77F0780027FBF
:102D3B000512168FD2172290000412003390001048
:102D4B00120F36601740159000101200337B0A7A71
:102D5B00D77923783D120051B195802B900019E063
:102D6B00B4071F900004120033B1959000101200AD
:102D7B0033120F33500890001012003331587F0775
:102D8B0080027F0512168FD217229000100206E2E6
:102D9B00E4FFFE7D487C42228F288E278D268C25D2
:102DAB0022E51DB40202D322C3228D2B7E02B1ACCD
:102DBB005004D20C8004711A920C20130F7E0A302F
:102DCB001203300C07E490007DF08002F174900048
:102DDB007DE0D39E4017EF60028006300C05301368
:102DEB0002E1A5E490007DF0AF2B12168F22121793
:102DFB0091B407028008711A400BB1AC4007E49004
:102E0B00001FF080467F063016027F0EAB07900046
:102E1B001FE0FE541FFD7012EE20E60EB1AC7C805D
:102E2B0050027C20EE4C90001FF090001FE054E00D
:102E3B00F0C3EB6480F8ED6480985007E020E60364
:102E4B000D8002E4FD90001FE04DF090001AE06051
:102E5B000214F0221206E290000302045FF1978F36
:102E6B0024900003E06005D39405400690000374A2
:102E7B0001F0900019E0FF6003B40606900019748E
:102E8B0001F030034490004DE06006F13CF18A8084
:102E9B0036E524B40520754409C203D390005AE0EB
:102EAB0094221216D6948B400690001A740CF0C222
:102EBB000C1214228011F14ABF02051233F4800761
:102ECB00F17D5003754407806890001AE06011D2C1
:102EDB00171200309000341206E290002DE080466D
:102EEB00AF24121506EF6002D21712179124FA6065
:102EFB001714702B9000201200339000341206E24E
:102F0B0090001B12003380239000101200339000AE
:102F1B00251206E290000C120033900034800F71E2
:102F2B0014900034D15FFCE412036F90002502066D
:102F3B00E2E51C6009E51B6005E4F51CF51B22E5C9
:102F4B001D14FFD3648094804001227F0022120065
:102F5B0030121FE7314FC203D205C204C20222A2B4
:102F6B00A3227F9A7E997D092290007DE070020456
:102F7B00F022E51D6002D322E51CC36001D322E5DC
:102F8B001D64016002C322E4F51DD322E51D70040C
:102F9B00E51C70037F0022AF1B22121791FF6023E9
:102FAB00D394055005900003EFF09000341206EE19
:102FBB00000000009000251206EE00000000E4FF68
:102FCB0012168F22C2AF007596AA75965553977F2E
:102FDB00225388CF5389F0438901E4F58CF58AF5A8
:102FEB00CE75CB0B75CADB75CD5D75CC66F5C9752A
:102FFB00CF8075A8A2C210C20F75C8912275C900E7
:10300B00B20F300F02D210325388EFD20E3220A300
:10301B00037F0122E5B65408FF22C0E0C0F0C08355
:10302B00C082C085C084C086758600C0D075D000B4
:10303B00C000C001C002C003C004C005C006C00769
:10304B00117175B600D007D006D005D004D003D0CF
:10305B0002D001D000D0D0D086D084D085D082D001
:10306B0083D0F0D0E0327D037F021227F5EF6401AD
:10307B004E702FC21AE518547FFFE4F518E51A704D
:10308B0004E51D6007E4F51DF51A8018EFC39405E0
:10309B005012C3E51B648094885002051B75198080
:1030AB00800211BD7D087F021212FF90007C74AA72
:1030BB00F022D21AE51930E703751980E51820E7DD
:1030CB000375188022E4FE74182EF8E630E71B54C3
:1030DB007FFDEE7F0470027F05EDC39F50010DE66F
:1030EB005480F674182EF8E64DF60EBE02D922E483
:1030FB00F519F51CF51BF51AEF04F51D228B2A8A21
:10310B002B892CE5DF30E1037F0022900065E00482
:10311B00F09000611227E9AFDDEFFEADDCED121F81
:10312B00B3EB2FFFEA3EFEE93DFDE83CFC9000616E
:10313B001206E2900066E090000693FF900065E0B7
:10314B00C39F500643DF027F0022900061120033C1
:10315B00C007A3E0FBE4FAF9F8D00712083290009D
:10316B00611206E2900061A3A3E0FFA3E0AB2AAAE1
:10317B002BA92CCF8FF012051EE4900067F07F0176
:10318B00227F0390005E74FFF0A3DFFC90006112BE
:10319B0006EE00000000E4900065F0A3F0A3F0F54C
:1031AB0008C214D2152290F1297411F090F129E084
:1031BB00541170F82220070241AA30092D90F129F1
:1031CB00E05411600241AA90F164E030060554EF1F
:1031DB00F080034410F090F164E030080554FEF0E9
:1031EB0080034401F0C207C20922121F2B90007307
:1031FB00120F36600C400A9000731206EE42C800A4
:10320B000051B4120F36500A9000731206EE0000F4
:10321B00000051ABE4FCFD7B5F7A09F9F8C31206A1
:10322B0068500A9000717409F0A3745FF051B412E6
:10323B000F3660054003D38001C39208900071E004
:10324B007002A3E0C36001D39206E4FFFE7DFA7C1B
:10325B00459000731227E9120146E4FBFA79807856
:10326B00BF120055121D0B1203A3AD07AC06ECFFEA
:10327B00EF90F141F0ED90F140F051ABC3745F9FD3
:10328B00FD74099EFC4D7002C206ECFFEF90F149F4
:10329B00F0ED90F148F0D20990F129E04411F022C1
:1032AB00900071E0FEA3E0FF22E4FFFEFDFC900026
:1032BB007322439A0A43A11043A22043A3045380D1
:1032CB00F55390EF53A0DF53B0FB90F00AE054F5A9
:1032DB00F0A3E054F5F090F01AE054EFF0A3E054B3
:1032EB00EFF090F02AE054DFF0A3E054DFF090F021
:1032FB003AE054FBF0A3E054FBF0228F2FE52FB400
:10330B001905120446F5FEEDF5FCECFFEFF5FD009B
:10331B00852FFF000000000000E5FF20E0FBE52FFC
:10332B00B41105E5FE12048C228B298A2A892BE421
:10333B00F52DF52ED20D1214F5E4F52C719840FCF9
:10334B00AB29AA2AA92B7D0971C3AB29AA2AA92BC0
:10335B0090000912045FB50713052EE52E700205C8
:10336B002DC39465E52D6480948040CDD3E52E94D8
:10337B0000E52D648094804008E52E152E70021513
:10338B002DE4F52C719840FCAE2DAF2E22AE2DAF57
:10339B002E7C007D0A12049EEF252CFDEC3EFCAB2F
:1033AB00297E00E52B252CF9EE352AFA7F117106C3
:1033BB00052CE52CC3940A228B2F8A3089317FFF91
:1033CB00AB2F0531E531AA307002053014F9120428
:1033DB004662077E08EF30E70725E06407FF8004AD
:1033EB00EF25E0FFDEEFDDD82290004DE0702704E3
:1033FB00F09122500DE544600690004C7408F0E407
:10340B00F544C211121F2BAB12AA11A910A80F91D0
:10341B00421227AFEFF022E54524FD24FD50028038
:10342B0002D322C322120027E4FFFE7D7A7C44AB39
:10343B000EAA0DA90CA80B1201460203A3E51760F7
:10344B003790004DE0703104F09122500DE544604F
:10345B000690004C7408F0E4F544D211E50AAE096D
:10346B0030E707FF7CFF7DF68006AF0A7C007D0A04
:10347B0012049E1227AFEFF0228F248D2590004C63
:10348B00E030E70812179AE490004CF090004CE003
:10349B00FF7E0030E102AE248E44EF7008F544123B
:1034AB0027CEE525F02290004CE07018EF4E70050A
:1034BB007480F0800AEF25E025E01490004CF0902A
:1034CB00004DEDF02290004CE0FFD394094019EF32
:1034DB0024F8C31314FF3395E0FE741D2FF582748B
:1034EB00003EF583E493FF227F002290004F747F10
:1034FB00F0A374FEF0A37480F0A37402F0E49000C8
:10350B0057F09000531206EE00000000227524C8FD
:10351B007F0A7E00121133120027E4FFFE7D20127A
:10352B0014156002500BD524E77544021211BD80AF
:10353B00FB22900016E0C3648094865003E004F0F5
:10354B002290004DE06002C322121791B40803D3FE
:10355B008001C322121791B4072C900000E0FFD317
:10356B00648094814004E014F022EFB40118E490DD
:10357B000000F0C390005AE094B81216D6948B401A
:10358B0005C20C1214222290007DE06008C3940B3C
:10359B005003E004F02290004DE060037F01221203
:1035AB0017917F0060027F0122900068E0D394099D
:1035BB00400122D3301801C32290004DE06002C3BA
:1035CB00221217917002C322E5177002C322A219AF
:1035DB0022E4900068F0C218C219A31206EE42C88A
:1035EB00000090006D1206EE4140000022E51770BE
:1035FB0026900068E0B40A121217916006122FA5EC
:10360B00754407900068740BF022900068E0C39437
:10361B000A5009E004F022E4900068F022EDF4F582
:10362B008275830085832985822A85832B85822C4D
:10363B00ED227BCD7ACC79CC783D120055900029C8
:10364B000206E2E4FFFEFDFC90003422F4F58275E5
:10365B00830085832D85822E85832F22A3E0FBE5B6
:10366B00304BFD22A3E0FBE52E4BFD22E0FBE52ECC
:10367B005BFD22E0FBE52C5BFD22E0FBE52C4BFD2B
:10368B0022E0FBE5325BFD22A3E0FBE5324B22A3FC
:10369B00E0FBEF4BFD22C390005AE094EA22120CA0
:0E36AB00577B007D04226480F8EE6480982234
:00000001FF
