:090000000207981F080D08060A0A
:10000B0002280F4100580041005D00C1114100243E
:0F001B0000000204010402900069800C0217F239
:10002B00022804D1E290002EE0FCA3E0FDA3E0FE49
:10003B00A3E0FF22E0FBE5305BFD227E097F5F2220
:10004B000220F502040FE86480F8E933E83360110D
:10005B000460F0ED33EC337009E8FCE9FDEAFEEBEC
:10006B00FF220460DED3EB9FEA9EE99DE8C2E78C9A
:10007B00F0C2F795F0400CE8CCF8E9CDF9EACEFAEE
:10008B00EBCFFB1203DA85D0F05804700320D5B305
:10009B00E80470075002B2D502041992D5EC046043
:1000AB00F7E4CCC0E0C398F8603B94186008400DAF
:1000BB00D0E0FB0203F1E4FBFAC9FC8028E830E452
:1000CB0006E4C9FBE4CAFCE830E305E4C9CACBFC8F
:1000DB00E854076010F8C3E913F9EA13FAEB13FBC2
:1000EB00EC13FCD8F130F52FC3E49CFCEF9BFFEE37
:1000FB009AFEED99FDD0E0FBEF4E4D4C701222DBDA
:10010B0003020416EC2CFCEF33FFEE33FEED33FD54
:10011B00ED30E7EB0203F1EF2BFFEE3AFEED39FD8D
:10012B00D0E0FB50130BBB0003020419ED13FDEEE3
:10013B0013FEEF13FFEC13FC0203F1EC4D6011E81F
:10014B00497017ED33EC3304600DE4FCFFFEFD2228
:10015B00E933E8330470F802040F1203DA58046031
:10016B0009E4CC24815006285009020419284003C5
:10017B00020416C0E0EB4A7044B98006D0E0FB02E3
:10018B000405EF4E701CBD8008EBFFEAFEE9FD8015
:10019B00EBE98DF0A4FEE5F002022FE9CDF9EAFEC2
:1001AB00EBFFEF89F0A4FCE5F0CE89F0A42EFFE481
:1001BB0035F0CD89F0A42DFEE435F08067EF4E705D
:1001CB0005BD80D780C3EF8BF0A4ACF0EE8BF0A411
:1001DB002CFCE435F0F8EF8AF0A42CE5F038FCE4C5
:1001EB0033CB8DF0A42CFCE5F03BF8EE8AF0A42C7D
:1001FB00FCE5F038F8E433CF89F0A42CFCE5F038BB
:10020B00CF3400CE89F0A42FFFE5F03EFEE433C9D6
:10021B008DF0A42EFEE5F039CD8AF0A42FFFE5F08A
:10022B003EFEE43DFD33D0E0FB50070BBB000F025D
:10023B000419EC2CFCEF33FFEE33FEED33FD020320
:10024B00F1020419EC5D046005E859047003020423
:10025B000F1203DA580460F6EC4860F2EC7004FD00
:10026B00FEFF22C860DB2481C85009C3986002508E
:10027B00060204169850CAF582E9294B4A7005AB61
:10028B008202040575F0007C1A7880C3EF9BEE9A0E
:10029B00ED99400DC3EF9BFFEE9AFEED99FDE84201
:1002AB00F0DC23ACF0D0E0FFD0E0FED0E0FDAB8281
:1002BB0020E7101BEB60BAEC2CFCEF33FFEE33FEA8
:1002CB00ED33FD0203F1E803F830E705C0F075F0FC
:1002DB0000EF2FFFEE33FEED33FD40B830E7C28069
:1002EB00AA74F8CC6480CCC86480C8F58204604FD3
:1002FB00C3EB9FF5F0EA9E42F0E99D42F0E89C4586
:10030B00F0603C501DE5825FFFE582D313CB5BCBE6
:10031B00F42B5582FB50280ABA002409B900200897
:10032B00801DE5825BFBE582D313CF5FCFF4C31354
:10033B002F5582FF50090EBE00050DBD00010CC3E9
:10034B00EB9FF5F0EA9E42F0E99D42F0E89C45F008
:10035B006007CC4820E701B3EC2275F020800E75C6
:10036B00F010800575F0087D007E007F003392D57C
:10037B0030D50312065AEC334010EF33FFEE33FE49
:10038B00ED33FDEC33FCD5F0ED22E5F0247EA2D568
:10039B0013CC92E7CDCEFF22EDD2E7CD33EC3392E7
:1003AB00D524814006E4FFFEFDFC22FCE4CFCECD3C
:1003BB00CC24E0501174FF80EDC3CC13CCCD13CD06
:1003CB00CE13CECF13CF0470F030D5DE02065AE930
:1003DB00D2E7C933E833F892D5EDD2E7CD33EC331E
:1003EB00FC5002B2D522EC30E7100FBF000C0EBE52
:1003FB0000080DBD00040BEB6014A2D5EB13FCED54
:10040B0092E7FD2274FFFCFDFEFF22E480F8A2D5EB
:10041B0074FF13FC7D80E480EFC2D530F707B2D5B3
:10042B0063F0FF05F030E70CB2D5F4048463F0FF02
:10043B0005F080018430D502F40422BB01068982C9
:10044B008A83E0225002E722BBFE02E32289828AE2
:10045B0083E49322BB010CE58229F582E5833AF50F
:10046B0083E0225006E92582F8E622BBFE06E92549
:10047B0082F8E222E58229F582E5833AF583E4935B
:10048B0022BB010689828A83F0225002F722BBFE2F
:10049B0001F322EF8DF0A4A8F0CF8CF0A428CE8D21
:1004AB00F0A42EFE22C2D5EC30E709B2D5E4C39DF1
:1004BB00FDE49CFCEE30E715B2D5E4C39FFFE49E50
:1004CB00FE12071FC3E49DFDE49CFC800312071F73
:1004DB0030D507C3E49FFFE49EFE22BB0110E582EB
:1004EB0029F582E5833AF583E0F5F0A3E022500984
:1004FB00E92582F886F008E622BBFE0AE92582F898
:10050B00E2F5F008E222E5832AF583E993F5F0A3FF
:10051B00E99322BB010A89828A83F0E5F0A3F022DA
:10052B005006F709A7F01922BBFE06F3E5F009F315
:10053B001922E88FF0A4CC8BF0A42CFCE98EF0A44C
:10054B002CFC8AF0EDA42CFCEA8EF0A4CDA8F08B49
:10055B00F0A42DCC3825F0FDE98FF0A42CCD35F08F
:10056B00FCEB8EF0A4FEA9F0EB8FF0A4CFC5F02E20
:10057B00CD39FEE43CFCEAA42DCE35F0FDE43CFC89
:10058B002275F008758200EF2FFFEE33FECD33CDD1
:10059B00CC33CCC58233C5829BED9AEC99E582981E
:1005AB00400CF582EE9BFEED9AFDEC99FC0FD5F01D
:1005BB00D6E4CEFBE4CDFAE4CCF9A88222B800C194
:1005CB00B90059BA002DEC8BF084CFCECDFCE5F001
:1005DB00CBF97818EF2FFFEE33FEED33FDEC33FC48
:1005EB00EB33FB10D703994004EB99FB0FD8E5E4F1
:1005FB00F9FA227818EF2FFFEE33FEED33FDEC33D3
:10060B00FCC933C910D7059BE99A4007EC9BFCE961
:10061B009AF90FD8E0E4C9FAE4CCFB2275F010EF9D
:10062B002FFFEE33FEED33FDCC33CCC833C810D7E0
:10063B00079BEC9AE899400AED9BFDEC9AFCE89934
:10064B00F80FD5F0DAE4CDFBE4CCFAE4C8F922C319
:10065B00E49FFFE49EFEE49DFDE49CFC22EB9FF5F2
:10066B00F0EA9E42F0E99D42F0EC6480C864809809
:10067B0045F022EB9FF5F0EA9E42F0E99D42F0E84F
:10068B009C45F022E8600FECC313FCED13FDEE1359
:10069B00FEEF13FFD8F122BB010DE58229F582E5B0
:1006AB00833AF5830207805007E92582F802077425
:1006BB00BBFE07E92582F802078CE58229F582E566
:1006CB00833AF5830206D2E493FC740193FD740222
:1006DB0093FE740393FF22ECF0A3EDF0A3EEF0A3D3
:1006EB00EFF022A8828583F0D083D0821207051207
:1006FB000705120705120705E473E493A3C583C529
:10070B00F0C583C8C582C8F0A3C583C5F0C583C82F
:10071B00C582C822BC000BBE0029EF8DF084FFAD53
:10072B00F022E4CCF875F008EF2FFFEE33FEEC333C
:10073B00FCEE9DEC984005FCEE9DFE0FD5F0E9E438
:10074B00CEFD22EDF8F5F0EE8420D21CFEADF07557
:10075B00F008EF2FFFED33FD4007985006D5F0F270
:10076B0022C398FD0FD5F0EA22E6FC08E6FD08E669
:10077B00FE08E6FF22E0FCA3E0FDA3E0FEA3E0FF02
:10078B0022E2FC08E2FD08E2FE08E2FF2278FFE429
:10079B00F6D8FD9000007F007E04E4F0A3DFFCDEC2
:1007AB00FA7581430207ED020A0AE493A3F8E49376
:1007BB00A34003F68001F208DFF48029E493A3F849
:1007CB005407240CC8C333C4540F4420C8834004BB
:1007DB00F456800146F6DFE4800B0102040810207A
:1007EB00408090000EE47E019360BCA3FF543F3029
:1007FB00E509541FFEE493A360010ECF54C025E01E
:10080B0060A840B8E493A3FAE493A3F8E493A3C8D5
:10081B00C582C8CAC583CAF0A3C8C582C8CAC58366
:10082B00CADFE9DEE780BEC2D5E830E70FB2D5E418
:10083B00C39BFBE49AFAE499F9E498F8EC30E717D8
:10084B00B2D51208681205C8E4C39BFBE49AFAE41C
:10085B0099F9E498F880031205C830D50DE4C39FCD
:10086B00FFE49EFEE49DFDE49CFC22000D70040061
:10087B000C9AFB000BD49E000B1BD3000A6F960047
:10088B0009CEF80009391C0008AD3800082A93007E
:10089B0007B08100073E640006D3AA00066FCD00A7
:1008AB000612510005BAC3000568B900051BD30039
:1008BB0004D3B40004900A00045087000414E3002E
:1008CB0003DCDC0003A833000376B10003482000EF
:1008DB00031C4E0002F30D0002CC340002A79B0058
:1008EB0002851C00026496000245EA000228F8000B
:1008FB00020DA60001F3D90001DB7A0001C47300DD
:10090B0001AEAE00019A19000186A00001743200FD
:10091B000162C00001523C00014296000133C2004B
:10092B000125B40001186000010BBCFFBDF45BE9AD
:10093B008CDF48D587CC42C373BB12B31AAB85A4EB
:10094B004D9D6F96E490A88AB8850F7FA97A847520
:10095B009B70EC6C74682F641C60375C7F58F1558E
:10096B008B524C4F304C37495F46A6440B418C3F62
:10097B00293CDE3AAD3892368E349F32C530FD2F8E
:10098B00492DA52C132A90291D27B826622519233A
:10099B00DC22AC00000000000000000000000001A1
:1009AB000B220C40B1999A00020200020B861940EF
:1009BB00D9999A01010301030C4E2D410800000245
:1009CB00010402040CB23841133333030105030550
:1009DB000D16464126666604010103060D7A644135
:1009EB0040000005010000070BB846412666660271
:1009FB00010000080B86644140000001020000C2A8
:100A0B000A1228151227F712220BF1431235331253
:100A1B00284F12226FF18E122CFC1213761235FD19
:100A2B0012320BD20C1223CD1235A5C21512002790
:100A3B0012102E122FA650031235A512251D121FB0
:100A4B007A1228C3121AD5518212310E3010DE20C1
:100A5B000A131211C312288B122B7E1234C71235B4
:100A6B00AFD20A800E123596122EDD121E441235AD
:100A7B0054C20AC21080B6E51FB40700400281546D
:100A8B00900A92F8282873020AA7020AE6020B03BF
:100A9B00020B75020B27020B94020C2F123657F127
:100AAB0035700E900025120033EC4D4E4F700281C5
:100ABB00549000731206EE00000000E4900024F046
:100ACB00900032E0FFA3E0900071CFF0A3EFF0D2E3
:100ADB00077F013016027F028F1F223007028154DD
:100AEB0012003090002912002E121C4ED2079000DB
:100AFB002474FFF0751F02223007028154900024EA
:100B0B00E0600314F022D2827F057E00121139D2ED
:100B1B0084301604751F0322751F0422123657F1F9
:100B2B0035600C900025120033EC4D4E4F70037561
:100B3B001F063007028154900034120033900029B5
:100B4B00F135400B900034120033121C4E80349060
:100B5B000024E0600314F0229000291200331236B7
:100B6B0046900029120033023695123657F1356044
:100B7B000C900025120033EC4D4E4F7003751F0681
:100B8B00121FEA751F05D20722123657F135600C7A
:100B9B00900025120033EC4D4E4F7003751F06204D
:100BAB0017028154300702815412175164066028D2
:100BBB00121FEA20160B900034120033121C4E80C9
:100BCB000A9000731206EE00000000900034120031
:100BDB0033123651D2078049900024E0600314F0A1
:100BEB00222016389000291200331236469000341A
:100BFB00120033900029F135600B4009900034123C
:100C0B0000331236519000291200331236959000A2
:100C1B0034120033900029F135500622121FEAD20C
:100C2B0007C21722C284121135C28212277F90008D
:100C3B00731206EE00000000D2079000291206EE98
:100C4B0000000000C217E4F51F227D087F018F28EA
:100C5B00120446FF14601514602814603D14603AAA
:100C6B002404705B1236311236608029123631F54E
:100C7B00827401F52D85822EE582F4F582752F00A5
:100C8B008013123631F4F582752D0085822EEDF529
:100C9B00827401F52F8582308025ED1236608582B6
:100CAB0030EDF5827401F52985822AEFB40407ED46
:100CBB00FF7401FE8005EDF4FF7E008E2B8F2C90D0
:100CCB00000112045F7007EDFF7401FE8005EDF467
:100CDB00FF7E008E318F3290000212045F7007EDA1
:100CEB00FF7401FE8005EDF4FF7E00E52814700211
:100CFB00A190147002C113147002C19624036002F8
:100D0B00E120E529AB9A30E006E52A4BFD8004E5AE
:100D1B002A5BFD8D9AE52B30E00890F00912368E98
:100D2B00800690F00912368790F009EDF0E52D3032
:100D3B00E005123678800690F00A12368090F00AA1
:100D4B00EDF0E52F30E005123670800690F00B12B7
:100D5B00003F90F00BEDF0EE30E0051236B080085E
:100D6B0090F00CE0FBEF5BFD90F00CEDF0E531301B
:100D7B00E0051236A1800690F00D1236A9AF059052
:100D8B00F00DEDF022E529ABA130E006E52A4BFD95
:100D9B008004E52A5BFD8DA1E52B30E00890F0196E
:100DAB0012368E800690F01912368790F019EDF0FE
:100DBB00E52D30E005123678800690F01A12368059
:100DCB0090F01AEDF0E52F30E005123670800690AA
:100DDB00F01B12003F90F01BEDF0EE30E0051236E9
:100DEB00B0800890F01CE0FBEF5BFD90F01CEDF089
:100DFB00E53130E0051236A1800690F01D1236A9C0
:100E0B00AF0590F01DEDF022E529ABA230E006E531
:100E1B002A4BFD8004E52A5BFD8DA2E52B30E00813
:100E2B0090F02912368E800690F02912368790F0BA
:100E3B0029EDF0E52D30E005123678800690F02A8A
:100E4B0012368090F02AEDF0E52F30E00512367067
:100E5B00800690F02B12003F90F02BEDF0EE30E07F
:100E6B00051236B0800890F02CE0FBEF5BFD90F0A4
:100E7B002CEDF0E53130E0051236A1800690F02D17
:100E8B001236A9AF0590F02DEDF022E529ABA3307A
:100E9B00E006E52A4BFD8004E52A5BFD8DA3E52BDF
:100EAB0030E00890F03912368E800690F039123609
:100EBB008790F039EDF0E52D30E00512367880069D
:100ECB0090F03A12368090F03AEDF0E52F30E005D5
:100EDB00123670800690F03B12003F90F03BEDF025
:100EEB00EE30E008A3E0FDEF4DFF800890F03CE012
:100EFB00FDEF5DFF90F03CEFF0E53130E009A3E052
:100F0B00FDE5324DFF800990F03DE0FDE5325DFFE0
:100F1B0090F03DEFF022AB41AA42A943900003129F
:100F2B00045FFCE412036F90001BE0F8A3E0F9A34D
:100F3B00E0FAA3E0FB0202ECE4F525F526F527FB2E
:100F4B007A0079257D027F031236BF7F0291597B90
:100F5B0001122261752701E41B1DFF1221A00D91C7
:100F6B0059D28075DF4075DE60E4F5E9F5D1F5D334
:100F7B0075D50F75D4FF90F69274A0F01230DA434A
:100F8B00DE802212239EC284C28212278FFF12366A
:100F9B00BFE4FF91597525017B0091557F287E0099
:100FAB00121139309304C2168002D2167525037BB9
:100FBB00007A00792591551227871206EE00000062
:100FCB00009000341206EE0000000090002512067F
:100FDB00EE00000000E4F51F22EF14600E14600F0A
:100FEB001460102403700FED42AC22ED42AD22EDE4
:100FFB0042AE22ED42AF22EF146011146015146063
:10100B00192403701CE5AC5D6017D322E5AD5D6060
:10101B0010D322E5AE5D6009D322E5AF5D6002D34C
:10102B0022C3227D087F021102403790007EE0250B
:10103B00E0F030A303E004F090007EE0FFF46003E7
:10104B00EF701FE4F5B6BFFF03C38001D3921A7B89
:10105B0001BFFF027B027D037F02121FF57D081289
:10106B000FE4301A08E51930E703751980301A269A
:10107B00E518B48521D3E51B64809480400CAF1B2D
:10108B00EF3395E0FE1228418009E4F51B751D0135
:10109B00751A01E4F518201A13E519B4840EE4F55A
:1010AB0019E51A7004751C0122E4F51A2275240C3B
:1010BB00122338438704438702000000000000120C
:1010CB002FF3EF602912281512218D12217F7F013A
:1010DB007E003139112E30100AC210B20B300B03C7
:1010EB0012288B122FA650E6122321C21522E524BB
:1010FB0060041524802975240B120F431236191224
:10110B0027D4C39454EE6480948B5006122332126E
:10111B00220B122234123587E490007CF0A3F0905E
:10112B00007CE07002A3E0608A227F0A7E008E2B97
:10113B008F2CE4F531E52C452B60760531AE2BAFCA
:10114B002C121FD2E47BA07A0FF9F812053D12196D
:10115B00C1C007AF31AB07E4FAF9F8D0071205C8E5
:10116B001219C1E47FFF7EFFFDFCAB30AA2FA92E25
:10117B00A82DD312067E50C3C374FF9530F530747F
:10118B00FF952FF52FE4952EF52EE4952DF52D12C9
:10119B001FE1780812068F8F8CE530FF8F8AC20E05
:1011AB00438810E58820E503300EF85388CFD531FE
:1011BB00DE227F0A7E0031391235E6502490007A08
:1011CB00E0FF648094904004E4F08036EF640C60A0
:1011DB0004EFB4100790007AE004801E90007A8030
:1011EB0010122FD1501790007AE0C36480948C506A
:1011FB0005E004F0800CE490007AF041FCE49000F0
:10120B007AF0E51EB40B004002610090121DF82825
:10121B00287302123E02124802124D02126C021285
:10122B005202126C0212540212A80212A80212A845
:10123B000212A8C2A6C2A4E490007BF022C2A6D2DE
:10124B00A422D2A6C2A422801371017F8060027FE8
:10125B000090007BEFF07105700241FCD2A6D2A486
:10126B0022C2A490007BE0FF547FFEE51E7D00B4FC
:10127B0003027D03C3ED1236C7500C0EEF54809062
:10128B00007BF04EF0800D71017F8060027F00903B
:10129B00007BEFF07101C36001D392A62290007B1B
:1012AB00E0547FF0E51E64086005E51EB409047F79
:1012BB000680027F0A90007BE0FED3EF1236C74018
:1012CB0004E4F51E2290007BE0FF04F0EF75F002C2
:1012DB00120424AFF0EF6019E51EB40A05D2A4D2B4
:1012EB00A622E51EB40905D2A4C2A622C2A4D2A688
:1012FB0022C2A6C2A42290007BE05480FF3395E06B
:10130B004F2230020B201608C202C20C9108F1CDFD
:10131B00301605122F9D80087F337E337D8B7C40EA
:10132B0071FD6020401E7F327E003139E5257F0143
:10133B0060027F008F25E5257F0160027F028F1EF3
:10134B0031C380E220022371F5601F401DD202C21F
:10135B000C9108752528E5257F0030E0027F018F71
:10136B001E7F2831BFD525EEF1CD22E4F5241200E6
:10137B0027E5177026E52414600C14600E24027008
:10138B000F751E02800D751E048008751E018003EB
:10139B00E4F51E7F6431BF052480DA752401200437
:1013AB0004710D8022201605300202801730020BCB
:1013BB00122F9D71FD60044002800920020971F516
:1013CB0060054003E4F524E524701E7F0F7E003199
:1013DB0039E5247F0160027F008F24E5247F0160C3
:1013EB00027F028F1E31C380E2227F337E337D8BDF
:1013FB007C40AB12AA11A910A80F0202ECE4FFD299
:10140B000D91D73003010F30050343070230020360
:10141B0043070430040343070890004AEFF09000A1
:10142B001B1200339000421206E290002012003390
:10143B009000461206E27B017A0079427D09123355
:10144B001190004BEFF0200C0E900079E0FF900014
:10145B004BE0B507028073200C0FC3900078E0942B
:10146B0065900077E09400401D7B007A00792B7D1E
:10147B00007C027F1D123254E4FC7F1D123254E4B7
:10148B00900077F0A3F0E4F52B9000771226E77D20
:10149B000A12049EEF252BFDEC3EFC7442252BF922
:1014AB00E43400FA7B017F19123254052BE52BC370
:1014BB00940A40D5900078E004F07006900077E035
:1014CB0004F090004BE0900079F0C20D300D07C294
:1014DB00AF0075FBAA2275FB5500D2AF228F25E416
:1014EB00F528F151F526F52724FA7002A1D31470D3
:1014FB0002A1CC24076002C152E525B4050E2003DE
:10150B000B751E08D203C20C9108C1521235D6407E
:10151B002FE525702612298F5002801F122F43EFC3
:10152B007002C15224FD6008047010122F52C15278
:10153B00E51760051234F6C1528000751E0AC152C0
:10154B00D1A1E525B4080C200409D204751E09C2EB
:10155B000C910812298F50172013091236B7F1710D
:10156B00948B50051233CA80047F07D171D201E5E9
:10157B0025B4030EF15A9840067F08D1718003758C
:10158B001E07E52564077022D390005AE094B8F14A
:10159B0071948B40153005028001D392057F023088
:1015AB0005027F01F178C20C9108E5256401600208
:1015BB00C152201307900003E0FFC1501233CAC180
:1015CB00521229AB8F28807FE525B40309F15A9875
:1015DB0040757F08D171E5256402701A900016E002
:1015EB006014900014E07002A3E0700A12299F129D
:1015FB002CDAA3E014F090001FE030E711900019F3
:10160B00E0FFD17190001FE0547FF04440F0900058
:10161B001FE0FF30E53154DFF0900019E0B4071CF8
:10162B00D2179000341206EE411B33339000251273
:10163B0006EE428C0000D2017F07800990001FE06C
:10164B004440F07F05D171F151B52605AF2512331A
:10165B00D41228B5E52860037F0122F15165277F5D
:10166B000060027F01228F2CF151652C6027E4F57D
:10167B002DE52D122747B52C15E52D75F00CA4245F
:10168B009EF9740935F07541FFF542894322052D0A
:10169B00E52DB409DC22122F43EF7002E14B24FE3F
:1016AB00602614602614602614605C24046002E13A
:1016BB0050F1516002E150122F83F171948B400471
:1016CB007F0180A2751E0822022F520234F6F151BF
:1016DB00FF6407701E20016DEF6407706890002D8A
:1016EB00E0120F2D701E120030900020120F35608B
:1016FB005480111236B7F171948B5004751E07226A
:10170B007F07D171022FC120043BF1517037301686
:10171B0034200031D20071F560064004D2028007FC
:10172B00D3300201C392022002047F02800C7F019E
:10173B00F1787F1E7E0031397F01F178C20C810870
:10174B00300002C20022AB41AA42A9430204467FE9
:10175B0008122731EF245EFFEE3401FED390005ABE
:10176B00E09FEE6480F8900059E0648022EF24FE45
:10177B00600E24FE60102403701AC2A6D2A4800A45
:10178B00D2A6C2A48004D2A6D2A47F147E00313983
:10179B00C2A6C2A422200329A204920B122E7F30D0
:1017AB000B02D204C20C9108C20D91D77529647536
:1017BB001E0631BD122F8050021529E52970F3F159
:1017CB00CD22C2AF007596AA75965575978080FE8F
:1017DB00227529FFC20D91D7751E031529E52960C6
:1017EB000431BD80F680DBE508B4030C201504D270
:1017FB00148002C214E4F508E5081460291460642F
:10180B0014700201AB2403600201A8D20D11C4E4D1
:10181B00F529E52990000393FF11B8EFF00529E5B1
:10182B0029B403EE8072E4F52911B8E0FFF4600BE4
:10183B00EFD39416400CEF941F50070529E529B4FC
:10184B0003E7E529C39403501611B8E0F528B40D4E
:10185B0004C20D11C4AF29122FFF75080280417508
:10186B000803803C900066E0245E11BCE0F5287B09
:10187B00007A007926123056EF6025AD28AF27AEDF
:10188B002611D9E4F52911B8E0B5280511B874FF74
:10189B00F00529E529B403EE7508018003E4F5088A
:1018AB00301509E508640360030217F222745E2504
:1018BB0029F582E43400F5832253DE7F007F00207C
:1018CB000D027FA090F692EFF00043DE80228E2A6D
:1018DB008F2B8D2C90F692E030E708E4FFFEFD7C19
:1018EB0040800231DB31C131CAC004C005C006C023
:1018FB0007E4FBFA79807845F1E112024FD003D06F
:10190B0002D001D0001201468F348E338D328C31D0
:10191B00E52C24F8605C24FB601E24EE600221C0E1
:10192B0031CA51CC7F9A7E997D997C4512024F8F9B
:10193B00168E158D148C13227B2D7AA67933783E57
:10194B00AF34AE33AD32AC3112024F8F128E118DDC
:10195B00108C0F2002028011E4FBFAF97840AF12D1
:10196B00AE11AD10AC0F12024F8F0E8E0D8D0C8C75
:10197B000B2231D231DB120051C004C005C006C0AE
:10198B0007E4FFFE7DA57C4331D2120146D003D084
:10199B0002D001D00012024F31C1E4FBFA797A7800
:1019AB004412014631C11203A37B007A007917312F
:1019BB00E48E098F0A228F308E2F8D2E8C2D22AC28
:1019CB002AAD2BEC02036AAB34AA33A932A831221D
:1019DB00AF16AE15AD14AC13228B358A3689378F03
:1019EB003B8E3A8D398C387F047E707D0D7C005197
:1019FB00B6D312067E400751BF7EFF7FF122E47FF4
:101A0B00AC7E2251B4C312067E500651BFFE7F56E8
:101A1B0022AB35AA36A937740112048CE47FBD7E44
:101A2B00FF51B4D312067E402EE4F53CE53C25E095
:101A3B0025E02476F582E43408F5831206D251B6FC
:101A4B00C312067E400AE53C24F1FFE434FFFE227C
:101A5B00053CE53CB430D5E4F53CE53C25E02436CB
:101A6B00F582E43409123493E48F408E3FF53EF552
:101A7B003DE540F540E53FF53FE4F53EF53DAF3B39
:101A8B00AE3AAD39AC38AB40AA3FA93EA83DD31214
:101A9B00067E5009E53C2423FFE433FE22053CE59A
:101AAB003CB434B651BFFEFF22FDFCAB3BAA3AA9B6
:101ABB0039A83822AB35AA36A937E402048C1201B7
:101ACB0046A804A905AA06AB0722E51770028119DF
:101ADB002014028119C214D3E50A9431B1F14004E8
:101AEB00D219800E30190BC3E50A942FB1F15002B5
:101AFB00C2191217516003201906F1B8D11661F300
:101B0B00301678F1C4B110B1EC4011E4FFFEFDFCCE
:101B1B00912960084006D101F1B0B10DE4FFFEFD43
:101B2B007CC09129500CE4F52BF52AF5297528C0BA
:101B3B00800BE4FFFEFDFC91295002F15B7F0A7ED6
:101B4B00D77DA37C3BD121A82851C99000691200F5
:101B5B0033120051911A60044002D115E4FFFE7D4F
:101B6B00209127500BE4F52BF52A75292075284277
:101B7B0090006DD10AF527B1E5806DF1C4B1E3B1E9
:101B8B00EC4014E4FFFEFDFC9143600B4009B1F8FF
:101B9B00F1B0120146B1E3E4FFFEFD7CC09143506E
:101BAB0007D1287524C0800DE4FFFEFDFC91435046
:101BBB0004D128F5247F6F7E127D037C3BD13B51F2
:101BCB00C990006D12003312005191346004400231
:101BDB00F1B8E4FFFEFD91415005D12875244190E9
:101BEB000069D10AF52BB1129000691200339129CB
:101BFB00700A90006D12003391436012D101900076
:101C0B00691206E2B1F890006D1206E2D217228F2C
:101C1B002B8E2A8D298C28E4FFFE7DC87C42AB2BB2
:101C2B00AA2AA929A8280202EC8F278E268D258C9B
:101C3B0024E4FFFE7D407C41AB27AA26A925A824DE
:101C4B000202EC9134600C400AE4F52BF52A75295D
:101C5B004080157F147EAE7D3F91416010400E7524
:101C6B002B14752AAE75293F75284180267F337E4C
:101C7B00337DA37C409143500E752B33752A3375FE
:101C8B0029A3752840800C85272B85262A85252995
:101C9B00852428F14491295014F144B110120030DD
:101CAB009129500990002ED10AF52BB112E4FFFEB9
:101CBB007D807CBFD121A8281200557B767AE079F4
:101CCB00DC783EB10DD121A8287F547E527D977CC4
:101CDB0040120051B110AB16AA15A914A813120289
:101CEB004FB110F1A8B10DE4FFFEFDFC912950029C
:101CFB00F15B912260044002D115D1019000730277
:101D0B0006E21201468F2B8E2A8D298C2822201653
:101D1B0002800CF1D9900025120F35600F400DE4B5
:101D2B00F527F5267525C87524428009900025D125
:101D3B000AF527B1E520020FB1F87B9A7A99791948
:101D4B00783F120146B1E3120022911A600440025F
:101D5B00D115E4FFFEFDFC91295002F15BD13BC094
:101D6B0000C001C002C003F1A8D10112024FD00381
:101D7B00D002D001D000120146B1E3E4FFFE7DBEDC
:101D8B007C429143600D400BE4F527F5267525BE8B
:101D9B00752442F15291435004F152B1E3D13BC04F
:101DAB0000C001C002C003F16FD003D002D001D03C
:101DBB0000120146B1D1F16F91435005B1F8020306
:101DCB00A37E007F46228F278E268D258C24E4FB55
:101DDB00FA79C8784212024F8F278E268D258C24D4
:101DEB0022D3E50A943FE5096480948022AF27AEA5
:101DFB0026AD25AC2422AF2BAE2AAD29AC2822E090
:101E0B00FCA3E0FDA3E0FEA3E022E4F52BF52A758D
:101E1B0029C875284222AB2BAA2AA92922E4F52727
:101E2B00F526F52522E0FEA3E0FFEE3395E0FDFC61
:101E3B00AB27AA26A925A82422900057E0C39428F3
:101E4B00504912361CB1E3900057E004F090005358
:101E5B00D10A2527FFEE3526FEED3525FDEC352481
:101E6B00FC9000531206E290004FD130C31206686B
:101E7B00500590004FF14A900051D130D3120668B3
:101E8B005002E111900051F14A807B9000531200F7
:101E9B0033C004C005C006C007900051E0FEA3E0AC
:101EAB00FBAA06EA3395E0F9F890004FE0FEA3E0B9
:101EBB00F1D1EF2BFBEE3AFAED39F9EC38F8D0070C
:101ECB00D006D005D004C3EF9BFFEE9AFEED99FD33
:101EDB00EC98FCF165120033C006C007A3E024FEAA
:101EEB00FFE434FFAB07FA3395E0F9F8D007D006DF
:101EFB00120832F165A3A3E0FFA3E0900059CFF0E5
:101F0B00A3EFF012334290004CE0600214F090000B
:101F1B0058E0600214F022EF14600F14601114608B
:101F2B001324037013EDF452AC22EDF452AD22EDF9
:101F3B00F452AE22EDF452AF2290006D020033E565
:101F4B0026F0A3E527F02290002DE0FCE402036FBE
:101F5B00E4F52BF52AF529F528229000531206E219
:101F6B0090005322120046AC06AD07EC02036AE563
:101F7B00176029D3E50A9444B1F14004D218800EBE
:101F8B0030180BC3E50A9431B1F15002C218301866
:101F9B000B121751600612349D751E0A22E4FBFAD0
:101FAB0079C8784222E4FBFA7920784022E4F527BD
:101FBB00F52675254075244122E50A24CFFDE50958
:101FCB0034FFFC02036AFFEE3395E0FDFC22E4FFD5
:101FDB00FE7DC87C4222AF30AE2FAD2EAC2D22B190
:101FEB0019900071EEF0A3EFF022EBD39403505550
:101FFB00EF14601514602314603124037047EDD384
:10200B0094055041ED2480802BEDD394075036ED91
:10201B00C394034030ED2488801AEDD394065025E9
:10202B00EDC39401401FED24908009EDD39406502D
:10203B0014ED2498F528E434F0F527EB54038528A8
:10204B0082852783F022EF14602214603D146058C0
:10205B0024037076EDD394054002806EED2480113D
:10206B00EA8002C333D8FC55ACFC8062EDD39407F5
:10207B005006EDC3940350028050ED248811EA8082
:10208B0002C333D8FC55ADFC8044EDD39406500607
:10209B00EDC3940150028032ED249011EA8002C30B
:1020AB0033D8FC55AEFC8026EDD394064002801A43
:1020BB00ED2498FBE434F0FAAF05A807740108800F
:1020CB0002C333D8FC55AFFC8004E4FEFF22EC7056
:1020DB0003FEFF228B828A83E05403FF7E0022FBE8
:1020EB00E434F0FAA80574010822C0E0C0F0C08304
:1020FB00C082C085C084C086758600C0D075D000F4
:10210B00C000C001C002C003C004C005C006C007A8
:10211B007D037F021151EF64014E7030C21AE51836
:10212B00547FFF751800E51A7004E51D6008751DD6
:10213B0000751A008018EFC394055012C3E51B6499
:10214B008094885002051B7519808002318D317F78
:10215B0075B600D007D006D005D004D003D002D07E
:10216B0001D000D0D0D086D084D085D082D083D07F
:10217B00F0D0E0327D087F02121F2290007E74AAFD
:10218B00F022D21AE51930E703751980E51820E71C
:10219B000375188022EB64026065EB64036060EBEF
:1021AB006419605BEBD3941C5055EF1460151460ED
:1021BB002314603124037047EDD394055041ED2473
:1021CB0000802BEDD394075036EDC394034030EDD4
:1021DB002410801AEDD394065025EDC39401401FB3
:1021EB00ED24208009EDD394065014ED2430F5290D
:1021FB00E434F0F528EB541F852982852883F022DF
:10220B00719EC2A6C2A4FB7D067F0231A07D043164
:10221B00A07A0079257D40120C597B007D107F023E
:10222B00120C59E47195F51E22E4F5DE90F692F04E
:10223B001230DAE4FB5161E4F526F5277A007925B3
:10224B007D041F120C597B007D027F03120C59C2B7
:10225B00B1C2A2C280227D027F0231A01D0F31A02C
:10226B0075250322752503752601752701C2B0C29A
:10227B00857B007A0079257D017F03120C597B0049
:10228B007D20E4FF120C5990F120E4F0A37411F0BF
:10229B0090F1237401F090F125F090F12A74FFF086
:1022AB0090F12EF090F122E4F090F1277411F0A34D
:1022BB00F090F160E4F090F165F090F1647411F03E
:1022CB0090F131741FF090F130743FF090F139744C
:1022DB0009F090F138745FF090F141E4F090F1491E
:1022EB00F090F140F090F148F09000731206EE0080
:1022FB00000000F17FC209C20790F166F090F12651
:10230B007411F01230FF7B167D05E4FF31A07B12B8
:10231B00E4FD7F0321A0120F43516F510B120F8E5F
:10232B00120027C20C71CDE4F5BDF5BC2212320BA5
:10233B00E4F5C853A8DF7170513471A8C2A6C2A4CA
:10234B00E4F51E7195C390005AE0945412177194E2
:10235B008B401130050E75250171A1F178F18F7F3E
:10236B0002120C5922E4FB7D05FF31A0E4FD7F0333
:10237B0031A090F1287411F090F121E4F090F12646
:10238B00F090F125F090F123F02290007BF090007B
:10239B007AF022752503E4F52675270122C284C243
:1023AB0082F1871206EE000000009000341206EE58
:1023BB00000000009000251206EE00000000E4F57E
:1023CB001F2275250A123342E490004DF012361984
:1023DB00F1D49109D525F6300C239000587412F0E6
:1023EB0030021A7F041217787FC87E001211397FD2
:1023FB0004121778752530121135D525FA22E4FF12
:10240B00FE7DA07C41900025120F35500A90003ABA
:10241B001206EE00000000E4FFFE7DA07CC19000E0
:10242B0025F1DD12005590003A1206E2E4FBFA7931
:10243B00A0784290003A12003312024FE4FBFA7973
:10244B00967843121AC97F007E407D677C45120047
:10245B005190003A1206E290003A1200331203A395
:10246B00900038EEF0A3EFF090004EE014601C14D7
:10247B00604714607224036002A10BB10CC31217E6
:10248B006898507C90004E7401F022B10C24C8FD6A
:10249B00E43EFC900059E0FAA3E0FBD39DECB115B0
:1024AB004005E490004EF0EF2438FFEE34FFFEC3FE
:1024BB00EB9FEEB11550498041B10C900059E0FCF7
:1024CB00A3E0FDD39FEE6480F8EC64809840069007
:1024DB00004E7401F0C3ED9486EC6480948B502015
:1024EB0090004E7403F022900039E02438FF9000E6
:1024FB0038E034FF12176698400690004E7402F0D5
:10250B0022900038E0FEA3E0FF226480F8EA6480AA
:10251B009822900059E0FEA3E0FFD39404EE648070
:10252B00948B4032301311D3EF94B8EE6480948BBC
:10253B004002C213C2128022D1F69000011204E6AF
:10254B00FFD390005AE09FE5F012176E984002807F
:10255B0001D392128004C212D2139109E51ED394B7
:10256B0006501C90004DE060028015F1E9500512F9
:10257B0017517006900058E06002E157E4F51E22F7
:10258B0090004DE014B40B004002C1E39025A575FB
:10259B00F003A4C58325F0C583730225C60225D697
:1025AB0002262102262702263E02264402265B0231
:1025BB0026B00226C802266102267290004CE0600B
:1025CB0002C1E3740FF0A37402F0221233648F1E66
:1025DB0090004CE06002C1E390005BE0FEA3E0FFE3
:1025EB00D394E7EE648094834021D1EFD3ED940430
:1025FB00EC64809480400BE0240AF090005BE034A4
:10260B0000F0D1E47D0A1204B0F1CBD1E47D641269
:10261B0004B07D0380377D047F028038D1E47D6474
:10262B001204B090005BECF0FEA3EDF0FFD1EF7D58
:10263B0005801A7D067F04801B301104F197F02270
:10264B00D1E47D0A1204B0AE04AF057D070233ABB3
:10265B007D087F01E19F90004CE0707CA3740BF030
:10266B0090004C741FF02290004CE0FFC394195063
:10267B0028EF54F86023C3E50A942F121DF150057F
:10268B00751E018017C3E50A9438121DF1500575AC
:10269B001E048008751E028003E4F51E90004CE0BA
:1026AB007036A3801490004CE0702D1217517006F9
:1026BB009000587412F090004D7409F022C211E48E
:1026CB0090005BF0A3F0900058E06002807E122F28
:1026DB0043EF700490004DF02290005BE0FEA3E00E
:1026EB00FF7C00227C007D0A0204B0AB41AA42A908
:1026FB004322D1F6F120601CF128FEC31217689813
:10270B00500B1217516401600B7F018004D1F6F15D
:10271B00201216712290000A12045FFF22F131EF92
:10272B002432FFE43E22E4FEEEF147B50704EE024D
:10273B0034880EBE09F2E4FEFF22E52475F00CA4EA
:10274B00249EF582E43409F583E4932290004EE055
:10275B0014600E14600F1460102403700F751E01AB
:10276B0022751E0422751E0222751E032275BCFFE4
:10277B0075BDBF22E4900071F0A3F022C293C21783
:10278B0090002922FB7A0079257D102290004C7451
:10279B000AF0A3228F248D2590004CE030E708121D
:1027AB001778E490004CF090004CE0FF7E0030E195
:1027BB0002AE248E1EEF7007F51EF197E525F02271
:1027CB0090005BEEF0A3EFF022900059EEF0A3EF38
:1027DB00F022E0F8A3E0F9A3E0FAA3E0FB22E51F67
:1027EB0024FD24FD50028002D322C322C2AF007508
:1027FB0096AA75965553977F2275C900B20F300F65
:10280B0002D210325388EFD20E325388CF5389F055
:10281B00438901E4F58CF58AF5CE75CB0B75CADBD4
:10282B0075CD5D75CC66F5C975CF8075A8A2C21044
:10283B00C20F75C89122E4F519F51CF51BF51AEFBB
:10284B0004F51D22752401E4F525F526FB7D037F98
:10285B00021221A07A0079247D08120C597D087F81
:10286B0002120FE47B027D03121FF543B9049000A3
:10287B007E74FFF0E4F518F519F51BF51CF51D2218
:10288B00E4FE74182EF8E630E71B547FFDEE7F0450
:10289B0070027F05EDC39F50010DE65480F674184E
:1028AB002EF8E64DF60EBE02D922E51C6009E51B9B
:1028BB006005E4F51CF51B22F1B38F24900003E0B7
:1028CB006005D3940540069000037401F090001945
:1028DB00E0FF6003B406069000197401F030033C6E
:1028EB00F18B500611B5318F8030E524B4051B7583
:1028FB001E09C203F183121771948B400690001AC4
:10290B00740CF0C20C1214088010F143BF0204F1D6
:10291B00528007F1A65003751E07808E90001AE0B7
:10292B006011D2171200309000341206E290002D85
:10293B00E08046AF241214E8EF6002D21712175151
:10294B0024FA601714702B9000201200339000347F
:10295B001206E290001B120033802390001012002D
:10296B00339000251206E290000C120033900034D5
:10297B00800F31A5900034D16DFCE412036F9000F1
:10298B00250206E2E51D64016002C322E4F51DD3B6
:10299B0022121671AB41AA42A9439000040206A26F
:1029AB00C20B30010E715B4007F143EF7002C201A5
:1029BB007F0022C390005AE094B2121771948C508E
:1029CB005720162B9175120F356024402290002052
:1029DB001200337152120051714C9175120F355018
:1029EB000A9000201206EE41080000D20B8029301D
:1029FB0016267162120F32601F401D90001B1200D1
:102A0B0033717371467162120F32500A90001B12B0
:102A1B0006EE42200000D20B715B5078900001E073
:102A2B007002A3E06002807C7E003016047F05807C
:102A3B00027F37716A20162B319F900020120F35C1
:102A4B0050219000201200337152120055714C31FD
:102A5B009F900020120F3560064004319F714CD2BD
:102A6B000B612C201602612C120F214002612C905D
:102A7B00001B1200337B0A7AD77923783C1200555E
:102A8B007146120F21600940071226F6D170714171
:102A9B00D20B612CD18F40026125900001E07002B6
:102AAB00A3E06010900002E024FFF0900001E034FE
:102ABB00FFF0806D7E003016047F0580027F37713A
:102ACB006A20162F120030900020120F3560244020
:102ADB0022900020120033715212005190002012EC
:102AEB00002E900020120F355005120030714CD281
:102AFB000B802E30162B90002DE0120F2D602240F4
:102B0B002090001B1200337173714690002DE01260
:102B1B000F2D5002713DD20B8007E4900001F0A302
:102B2B00F0300B069000007420F07F00300B027F1A
:102B3B00012290002DE0FCE412036F90001B0206B3
:102B4B00E29000200206E27BCD7ACC794C783D22D4
:102B5B00E51AC36001D322E4FFFE7D207C42229064
:102B6B000001EEF0A3EFF0227B0A7AD77923783CB1
:102B7B000200511217516406602A900016E0640699
:102B8B007002816EA3E07002A3E0600C900018E06D
:102B9B0024FFF0900017802090001791F4900016FE
:102BAB00E004F022900014E07002A3E0600F9000AC
:102BBB0015E024FFF0900014E034FFF022201651B2
:102BCB00900008120033A3120F35601240109000D2
:102BDB000C120033717390000C1206E280309000DF
:102BEB0019E0B40724900008120033A31206E290F8
:102BFB00000C120033900020120F35500890000C7F
:102C0B00120033714C7F0780027F05121671D217A9
:102C1B0022900004120033900010120F3560174001
:102C2B00159000101200337B0A7AD77923783D1266
:102C3B000051916F802B900019E0B4071F90000496
:102C4B00120033916F900010120033120F325008A4
:102C5B0090001012003371467F0780027F05121619
:102C6B0071D217229000100206E2E4FFFE7D087C71
:102C7B004190002022121751FF9000196003F08041
:102C8B00037401F0EF6407702E9176120F35600A12
:102C9B0040089000201200338002F19D9000081232
:102CAB0006E2D165120F32600A400890001B120039
:102CBB00338012D165800E7F05319C900008D16D59
:102CCB00FCE412036F9000041206E27F06319C9025
:102CDB00000C1206E290000312045FFCE412036F77
:102CEB009000101206E29000147403F0A37420F00D
:102CFB00227541FF75420975439E9000037401F0E4
:102D0B00C203C200E490001AF0900001F0A3740A11
:102D1B00F0C201E4900000F09000167406F0A3914D
:102D2B00F4E4F524122745FBB4010EB1C490002D39
:102D3B00F0B1AF90002E1206E2EBB4060EB1AF90DD
:102D4B00000CB1C1FCE412036F916F122745B4055F
:102D5B0012B1AF900008B1C1FCE412036F900004F4
:102D6B001206E20524E524640970B9B1D690002D52
:102D7B00E0FFE48F28121E29AB28AA27A926A82535
:102D8B00120046121FD212053DD176E47B64FAF98C
:102D9B00F81205C8D176E527547FFE900032EEF08D
:102DAB00A3EFF022E52475F00CA424A2F582E43401
:102DBB0009F5830206D21206E2E52475F00CA42471
:102DCB00A1F582E43409F583E493227B017A00793F
:102DDB0038123282900077EEF0A3EFF07B017A008D
:102DEB0079387D09123311900041E06F705B9000D0
:102DFB0040E0C330E301D39204900040E0C330E2E3
:102E0B0001D39202900040E0C330E101D3920590D0
:102E1B000040E0C330E001D392039000381200333E
:102E2B00714690003C120033714C900041E09000D1
:102E3B0079F0900078E004F07006900077E004F0F1
:102E4B00F18040111217A0800CD17FD203D20C124B
:102E5B0014081217DCC20D0214D7E4FFFE7D487C68
:102E6B0042221206E290000302045F8F288E278D08
:102E7B00268C2522120030714C713DC203D205C243
:102E8B0004C20222E51DB40202D322C3228D2B7E83
:102E9B0002D18F5004D20C8004715B920C20130F63
:102EAB007E0A301203300C07E490007FF08002F1B1
:102EBB009490007FE0D39E4018EF60028006300CA8
:102ECB000630130302349DE490007FF0AF2B1216F3
:102EDB007122121751B407028008715B400BD18F1E
:102EEB004007E490001FF080467F063016027F0EED
:102EFB00AB0790001FE0FE541FFD7012EE20E60E94
:102F0B00D18F7C8050027C20EE4C90001FF0900003
:102F1B001FE054E0F0C3EB6480F8ED648098500739
:102F2B00E020E6030D8002E4FD90001FE04DF090E1
:102F3B00001AE0600214F022E51D14FFD3648094A4
:102F4B00804001227F002290004DE0702704F01298
:102F5B0027E9500DE51E600690004C7408F0E4F56F
:102F6B001EC211121FD9AB12AA11A910A80F12362B
:102F7B002B1227CB22A2A322D390005AE094222219
:102F8B0090004DE0C36001D32290007FE0700204FB
:102F9B00F0227F9A7E997D097C4122E51D6002D348
:102FAB0022E51CC36001D322E51D7004E51C7003F0
:102FBB007F0022AF1B22D201120030714C121F5224
:102FCB0090001B0206E2F18B5002C322121751B480
:102FDB000803D38001C322F18B50037F0122121708
:102FEB00517F0060027F012220A3037F0122E5B6FF
:102FFB005408FF22AB07EBD39402504E745E2B1296
:10300B0018BCE0FAF46043EAD394164005EA941F27
:10301B004038900067E070329000611206EE0000BD
:10302B000000E4900065F0A3EBF0A37401F0EA302C
:10303B00E40543DF80800353DF7F53DEF0EA540F58
:10304B0042DE7AA000DAFE43DF02228B2A8A2B892A
:10305B002CE5DF30E1037F0022900065E004F09067
:10306B0000611227DDAFDDEFFEADDCED121FD1EB02
:10307B002FFFEA3EFEE93DFDE83CFC9000611206A5
:10308B00E2900066E090000693FF900065E0C39F1E
:10309B00500643DF027F0022900061120033C0070D
:1030AB00A3E0FBE4FAF9F8D00712083290006112A2
:1030BB0006E2900061A3A3E0FFA3E0AB2AAA2BA931
:1030CB002CCF8FF012051EE4900067F07F01227F5A
:1030DB000390005E74FFF0A3DFFC9000611206EE1C
:1030EB0000000000E4900065F0A3F0A3F0F508C227
:1030FB0014D2152290F1297411F090F129E054119A
:10310B0070F82220070221F830092D90F129E054A4
:10311B0011600221F890F164E030060554EFF08065
:10312B00034410F090F164E030080554FEF0800386
:10313B004401F0C207C20922121FD9900073120F6B
:10314B0035600C400A9000731206EE42C800005125
:10315B0002120F35500A9000731206EE00000000A9
:10316B0031F9E4FCFD7B5F7A09F9F8C3120668506C
:10317B000A9000717409F0A3745FF05102120F35BD
:10318B0060054003D38001C39208900071E0700288
:10319B00A3E0C36001D39206E4FFFE7DFA7C459069
:1031AB0000731227DD120146E4FBFA798078BF1217
:1031BB000055121DD11203A3AD07AC06ECFFEF9027
:1031CB00F141F0ED90F140F031F9C3745F9FFD7464
:1031DB00099EFC4D7002C206ECFFEF90F149F0ED39
:1031EB0090F148F0D20990F129E04411F0229000BF
:1031FB0071E0FEA3E0FF22E4FFFEFDFC90007322D2
:10320B00439A0A43A11043A22043A3045380F553CE
:10321B0090EF53A0DF53B0FB90F00AE054F5F0A30E
:10322B00E054F5F090F01AE054EFF0A3E054EFF017
:10323B0090F02AE054DFF0A3E054DFF090F03AE096
:10324B0054FBF0A3E054FBF0228F2FE52FB41905AC
:10325B00120446F5FEEDF5FCECFFEFF5FD00852FB6
:10326B00FF000000000000E5FF20E0FBE52FB4119C
:10327B0005E5FE12048C228B298A2A892BE4F52D75
:10328B00F52ED20D1214D7E4F52C51E640FCAB29E8
:10329B00AA2AA92B7D097111AB29AA2AA92B900067
:1032AB000912045FB50713052EE52E7002052DC319
:1032BB009465E52D6480948040CDD3E52E9400E594
:1032CB002D648094804008E52E152E7002152DE498
:1032DB00F52C51E640FCAE2DAF2E22AE2DAF2E7C41
:1032EB00007D0A12049EEF252CFDEC3EFCAB297EE3
:1032FB0000E52B252CF9EE352AFA7F115154052CBC
:10330B00E52CC3940A228B2F8A3089317FFFAB2F98
:10331B000531E531AA307002053014F9120446620A
:10332B00077E08EF30E70725E06407FF8004EF25F1
:10333B00E0FFDEEFDDD82290004F747FF0A374FE28
:10334B00F0A37480F0A37402F0E4900057F09000A7
:10335B00531206EE000000002290004CE0FFD394C5
:10336B0009403AEF24F8C31314FF301107E5092085
:10337B00E7020F0F201113D390005CE094E790004D
:10338B005BE06480948340020F0FEF3395E0FE7493
:10339B001D2FF58274003EF583E493FF227F0022FC
:1033AB0090004CE07018EF4E70057480F0800AEFBF
:1033BB0025E025E01490004CF090004DEDF02290AC
:1033CB000058E07003740EF0228F29121751FFB4CE
:1033DB000604C20B800AEFB40804C20B8002D20BA6
:1033EB00300B4BE529640270457F06122728121714
:1033FB0066984005122C808035122F83121771941A
:10340B008B4024752A05E52A9188C31217689840CA
:10341B000BE52A122747FF1216718012152AE52A8F
:10342B00D3940150E18007121751700271CA121721
:10343B0051600A1216A1E529B40102919D90001F5B
:10344B00E0FF30E706547FF01226FD90001FE030BE
:10345B00E51254DFF01226F690000B12045FFF60AA
:10346B00031216711226F690000912045F600D54B8
:10347B0002FF90000812045FFD122E982275F00CCB
:10348B00A4249FF582E43409F583E493FE7401933D
:10349B00FF22121751FF6023D394055005900003B0
:1034AB00EFF09000341206EE0000000090002512A1
:1034BB0006EE00000000E4FF12167122E5177025DE
:1034CB00900068E0B40A111217516005919D751EAA
:1034DB0007900068740BF022900068E0C3940A50C8
:1034EB0009E004F022E4900068F022E517603890C0
:1034FB00004DE0703204F01227E9500DE51E600616
:10350B0090004C7408F0E4F51ED211E50930E70980
:10351B00FEAF0A7CFF7DF68008AE09AF0A7C007D0A
:10352B000A12049E1227CB227524C81211351200E1
:10353B0027E4FFFE7D201213FB6002500BD524EB1A
:10354B00751E021211C380FB22121751B4072C9067
:10355B000000E0FFD3648094814004E014F022EF7C
:10356B00B40118E4900000F0C390005AE094B81234
:10357B001771948B4005C20C12140822900016E0B0
:10358B00C3648094865003E004F02290007FE060D7
:10359B0008C3940B5003E004F02290007CE4F0A3EA
:1035AB007428F022122FE2EF6002B1A5D390007DB8
:1035BB00E0940090007CE09400400DA3E024FFF029
:1035CB0090007CE034FFF0220210B8900068E0D34A
:1035DB009409400122D3301801C322122F8B5002C1
:1035EB00C3221217517002C322E5177002C322A225
:1035FB001922E4900068F0C218C219A31206EE4219
:10360B00C8000090006D1206EE414000002212002F
:10361B0027E4FFFE7D7A7C44AB0EAA0DA90CA80B08
:10362B001201460203A3EDF4F5827583008583290D
:10363B0085822A85832B85822CED227BCD7ACC79D2
:10364B00CC783D1200559000290206E2E4FFFEFD06
:10365B00FC90003422F4F58275830085832D8582DE
:10366B002E85832F22A3E0FBE5304BFD22A3E0FB4D
:10367B00E52E4BFD22E0FBE52E5BFD22E0FBE52C6E
:10368B005BFD22E0FBE52C4BFD22121C4E9000242F
:10369B007405F0D20722A3E0FBE5324BFD22E0FBE1
:1036AB00E5325BFD22A3E0FBEF4BFD22C390005AFA
:1036BB00E094EA22120C597B007D04226480F8EE20
:0436CB00648098225D
:00000001FF
