:090000000207981F080D08060A0A
:10000B0002280C4100580041005D00C11141002441
:0F001B0000000204010402900069800CA2A322DD
:10002B00022801D1E290002EE0FCA3E0FDA3E0FE4C
:10003B00A3E0FF22E0FBE5305BFD227E097F5F2220
:10004B000220CE02040FE86480F8E933E833601134
:10005B000460F0ED33EC337009E8FCE9FDEAFEEBEC
:10006B00FF220460DED3EB9FEA9EE99DE8C2E78C9A
:10007B00F0C2F795F0400CE8CCF8E9CDF9EACEFAEE
:10008B00EBCFFB1203DA85D0F05804700320D5B305
:10009B00E80470075002B2D502041992D5EC046043
:1000AB00F7E4CCC0E0C398F8603B94186008400DAF
:1000BB00D0E0FB0203F1E4FBFAC9FC8028E830E452
:1000CB0006E4C9FBE4CAFCE830E305E4C9CACBFC8F
:1000DB00E854076010F8C3E913F9EA13FAEB13FBC2
:1000EB00EC13FCD8F130F52FC3E49CFCEF9BFFEE37
:1000FB009AFEED99FDD0E0FBEF4E4D4C701222DBDA
:10010B0003020416EC2CFCEF33FFEE33FEED33FD54
:10011B00ED30E7EB0203F1EF2BFFEE3AFEED39FD8D
:10012B00D0E0FB50130BBB0003020419ED13FDEEE3
:10013B0013FEEF13FFEC13FC0203F1EC4D6011E81F
:10014B00497017ED33EC3304600DE4FCFFFEFD2228
:10015B00E933E8330470F802040F1203DA58046031
:10016B0009E4CC24815006285009020419284003C5
:10017B00020416C0E0EB4A7044B98006D0E0FB02E3
:10018B000405EF4E701CBD8008EBFFEAFEE9FD8015
:10019B00EBE98DF0A4FEE5F002022FE9CDF9EAFEC2
:1001AB00EBFFEF89F0A4FCE5F0CE89F0A42EFFE481
:1001BB0035F0CD89F0A42DFEE435F08067EF4E705D
:1001CB0005BD80D780C3EF8BF0A4ACF0EE8BF0A411
:1001DB002CFCE435F0F8EF8AF0A42CE5F038FCE4C5
:1001EB0033CB8DF0A42CFCE5F03BF8EE8AF0A42C7D
:1001FB00FCE5F038F8E433CF89F0A42CFCE5F038BB
:10020B00CF3400CE89F0A42FFFE5F03EFEE433C9D6
:10021B008DF0A42EFEE5F039CD8AF0A42FFFE5F08A
:10022B003EFEE43DFD33D0E0FB50070BBB000F025D
:10023B000419EC2CFCEF33FFEE33FEED33FD020320
:10024B00F1020419EC5D046005E859047003020423
:10025B000F1203DA580460F6EC4860F2EC7004FD00
:10026B00FEFF22C860DB2481C85009C3986002508E
:10027B00060204169850CAF582E9294B4A7005AB61
:10028B008202040575F0007C1A7880C3EF9BEE9A0E
:10029B00ED99400DC3EF9BFFEE9AFEED99FDE84201
:1002AB00F0DC23ACF0D0E0FFD0E0FED0E0FDAB8281
:1002BB0020E7101BEB60BAEC2CFCEF33FFEE33FEA8
:1002CB00ED33FD0203F1E803F830E705C0F075F0FC
:1002DB0000EF2FFFEE33FEED33FD40B830E7C28069
:1002EB00AA74F8CC6480CCC86480C8F58204604FD3
:1002FB00C3EB9FF5F0EA9E42F0E99D42F0E89C4586
:10030B00F0603C501DE5825FFFE582D313CB5BCBE6
:10031B00F42B5582FB50280ABA002409B900200897
:10032B00801DE5825BFBE582D313CF5FCFF4C31354
:10033B002F5582FF50090EBE00050DBD00010CC3E9
:10034B00EB9FF5F0EA9E42F0E99D42F0E89C45F008
:10035B006007CC4820E701B3EC2275F020800E75C6
:10036B00F010800575F0087D007E007F003392D57C
:10037B0030D50312065AEC334010EF33FFEE33FE49
:10038B00ED33FDEC33FCD5F0ED22E5F0247EA2D568
:10039B0013CC92E7CDCEFF22EDD2E7CD33EC3392E7
:1003AB00D524814006E4FFFEFDFC22FCE4CFCECD3C
:1003BB00CC24E0501174FF80EDC3CC13CCCD13CD06
:1003CB00CE13CECF13CF0470F030D5DE02065AE930
:1003DB00D2E7C933E833F892D5EDD2E7CD33EC331E
:1003EB00FC5002B2D522EC30E7100FBF000C0EBE52
:1003FB0000080DBD00040BEB6014A2D5EB13FCED54
:10040B0092E7FD2274FFFCFDFEFF22E480F8A2D5EB
:10041B0074FF13FC7D80E480EFC2D530F707B2D5B3
:10042B0063F0FF05F030E70CB2D5F4048463F0FF02
:10043B0005F080018430D502F40422BB01068982C9
:10044B008A83E0225002E722BBFE02E32289828AE2
:10045B0083E49322BB010CE58229F582E5833AF50F
:10046B0083E0225006E92582F8E622BBFE06E92549
:10047B0082F8E222E58229F582E5833AF583E4935B
:10048B0022BB010689828A83F0225002F722BBFE2F
:10049B0001F322EF8DF0A4A8F0CF8CF0A428CE8D21
:1004AB00F0A42EFE22C2D5EC30E709B2D5E4C39DF1
:1004BB00FDE49CFCEE30E715B2D5E4C39FFFE49E50
:1004CB00FE12071FC3E49DFDE49CFC800312071F73
:1004DB0030D507C3E49FFFE49EFE22BB0110E582EB
:1004EB0029F582E5833AF583E0F5F0A3E022500984
:1004FB00E92582F886F008E622BBFE0AE92582F898
:10050B00E2F5F008E222E5832AF583E993F5F0A3FF
:10051B00E99322BB010A89828A83F0E5F0A3F022DA
:10052B005006F709A7F01922BBFE06F3E5F009F315
:10053B001922E88FF0A4CC8BF0A42CFCE98EF0A44C
:10054B002CFC8AF0EDA42CFCEA8EF0A4CDA8F08B49
:10055B00F0A42DCC3825F0FDE98FF0A42CCD35F08F
:10056B00FCEB8EF0A4FEA9F0EB8FF0A4CFC5F02E20
:10057B00CD39FEE43CFCEAA42DCE35F0FDE43CFC89
:10058B002275F008758200EF2FFFEE33FECD33CDD1
:10059B00CC33CCC58233C5829BED9AEC99E582981E
:1005AB00400CF582EE9BFEED9AFDEC99FC0FD5F01D
:1005BB00D6E4CEFBE4CDFAE4CCF9A88222B800C194
:1005CB00B90059BA002DEC8BF084CFCECDFCE5F001
:1005DB00CBF97818EF2FFFEE33FEED33FDEC33FC48
:1005EB00EB33FB10D703994004EB99FB0FD8E5E4F1
:1005FB00F9FA227818EF2FFFEE33FEED33FDEC33D3
:10060B00FCC933C910D7059BE99A4007EC9BFCE961
:10061B009AF90FD8E0E4C9FAE4CCFB2275F010EF9D
:10062B002FFFEE33FEED33FDCC33CCC833C810D7E0
:10063B00079BEC9AE899400AED9BFDEC9AFCE89934
:10064B00F80FD5F0DAE4CDFBE4CCFAE4C8F922C319
:10065B00E49FFFE49EFEE49DFDE49CFC22EB9FF5F2
:10066B00F0EA9E42F0E99D42F0EC6480C864809809
:10067B0045F022EB9FF5F0EA9E42F0E99D42F0E84F
:10068B009C45F022E8600FECC313FCED13FDEE1359
:10069B00FEEF13FFD8F122BB010DE58229F582E5B0
:1006AB00833AF5830207805007E92582F802077425
:1006BB00BBFE07E92582F802078CE58229F582E566
:1006CB00833AF5830206D2E493FC740193FD740222
:1006DB0093FE740393FF22ECF0A3EDF0A3EEF0A3D3
:1006EB00EFF022A8828583F0D083D0821207051207
:1006FB000705120705120705E473E493A3C583C529
:10070B00F0C583C8C582C8F0A3C583C5F0C583C82F
:10071B00C582C822BC000BBE0029EF8DF084FFAD53
:10072B00F022E4CCF875F008EF2FFFEE33FEEC333C
:10073B00FCEE9DEC984005FCEE9DFE0FD5F0E9E438
:10074B00CEFD22EDF8F5F0EE8420D21CFEADF07557
:10075B00F008EF2FFFED33FD4007985006D5F0F270
:10076B0022C398FD0FD5F0EA22E6FC08E6FD08E669
:10077B00FE08E6FF22E0FCA3E0FDA3E0FEA3E0FF02
:10078B0022E2FC08E2FD08E2FE08E2FF2278FFE429
:10079B00F6D8FD9000007F007E04E4F0A3DFFCDEC2
:1007AB00FA7581430207ED020A0AE493A3F8E49376
:1007BB00A34003F68001F208DFF48029E493A3F849
:1007CB005407240CC8C333C4540F4420C8834004BB
:1007DB00F456800146F6DFE4800B0102040810207A
:1007EB00408090000EE47E019360BCA3FF543F3029
:1007FB00E509541FFEE493A360010ECF54C025E01E
:10080B0060A840B8E493A3FAE493A3F8E493A3C8D5
:10081B00C582C8CAC583CAF0A3C8C582C8CAC58366
:10082B00CADFE9DEE780BEC2D5E830E70FB2D5E418
:10083B00C39BFBE49AFAE499F9E498F8EC30E717D8
:10084B00B2D51208681205C8E4C39BFBE49AFAE41C
:10085B0099F9E498F880031205C830D50DE4C39FCD
:10086B00FFE49EFEE49DFDE49CFC22000D70040061
:10087B000C9AFB000BD49E000B1BD3000A6F960047
:10088B0009CEF80009391C0008AD3800082A93007E
:10089B0007B08100073E640006D3AA00066FCD00A7
:1008AB000612510005BAC3000568B900051BD30039
:1008BB0004D3B40004900A00045087000414E3002E
:1008CB0003DCDC0003A833000376B10003482000EF
:1008DB00031C4E0002F30D0002CC340002A79B0058
:1008EB0002851C00026496000245EA000228F8000B
:1008FB00020DA60001F3D90001DB7A0001C47300DD
:10090B0001AEAE00019A19000186A00001743200FD
:10091B000162C00001523C00014296000133C2004B
:10092B000125B40001186000010BBCFFBDF45BE9AD
:10093B008CDF48D587CC42C373BB12B31AAB85A4EB
:10094B004D9D6F96E490A88AB8850F7FA97A847520
:10095B009B70EC6C74682F641C60375C7F58F1558E
:10096B008B524C4F304C37495F46A6440B418C3F62
:10097B00293CDE3AAD3892368E349F32C530FD2F8E
:10098B00492DA52C132A90291D27B826622519233A
:10099B00DC22AC00000000000000000000000001A1
:1009AB000B220C40B1999A00020200020B861940EF
:1009BB00D9999A01010301030C4E2D410800000245
:1009CB00010402040CB23841133333030105030550
:1009DB000D16464126666604010103060D7A644135
:1009EB0040000005010000070BB846412666660271
:1009FB00010000080B86644140000001020000C2A8
:100A0B000A1228121227F41221E4F1431223A8121E
:100A1B00284C122248F18E12180E1223DA12354886
:100A2B0012320ED20C1213AF12347DC2151223A543
:100A3B0012102E1228BE500312347D122F171229BA
:100A4B00C61225121229FF51821230E43010DE201B
:100A5B000A13121E5E1228881219341235641234CE
:100A6B0057D20A800E1234F812292D122600123496
:100A7B00B6C20AC21080B6E51FB40700400281540B
:100A8B00900A92F8282873020AA7020AE6020B03BF
:100A9B00020B75020B27020B94020C2F1235C6F1B9
:100AAB0035700E900025120033EC4D4E4F700281C5
:100ABB00549000731206EE00000000E4900024F046
:100ACB00900032E0FFA3E0900071CFF0A3EFF0D2E3
:100ADB00077F013016027F028F1F223007028154DD
:100AEB0012003090002912002E122B63D2079000B7
:100AFB002474FFF0751F02223007028154900024EA
:100B0B00E0600314F022D2827F057E00121139D2ED
:100B1B0084301604751F0322751F04221235C6F18B
:100B2B0035600C900025120033EC4D4E4F70037561
:100B3B001F063007028154900034120033900029B5
:100B4B00F135400B900034120033122B638034903C
:100B5B000024E0600314F0229000291200331235B8
:100B6B00A99000291200330236181235C6F13560F0
:100B7B000C900025120033EC4D4E4F7003751F0681
:100B8B001235BA751F05D207221235C6F135600C26
:100B9B00900025120033EC4D4E4F7003751F06204D
:100BAB0017028154300702815412167D64066028A7
:100BBB001235BA20160B900034120033122B6380BF
:100BCB000A9000731206EE00000000900034120031
:100BDB00331235B4D2078049900024E0600314F03F
:100BEB00222016389000291200331235A9900034B8
:100BFB00120033900029F135600B4009900034123C
:100C0B0000331235B49000291200331236189000BD
:100C1B0034120033900029F1355006221235BAD226
:100C2B0007C21722C284121135C28212249F900070
:100C3B00731206EE00000000D2079000291206EE98
:100C4B0000000000C217E4F51F227D087F018F28EA
:100C5B00120446FF14601514602814603D14603AAA
:100C6B002404705B1235941235DA8029123594F511
:100C7B00827401F52D85822EE582F4F582752F00A5
:100C8B008013123594F4F582752D0085822EEDF5C7
:100C9B00827401F52F8582308025ED1235DA85823D
:100CAB0030EDF5827401F52985822AEFB40407ED46
:100CBB00FF7401FE8005EDF4FF7E008E2B8F2C90D0
:100CCB00000112045F7007EDFF7401FE8005EDF467
:100CDB00FF7E008E318F3290000212045F7007EDA1
:100CEB00FF7401FE8005EDF4FF7E00E52814700211
:100CFB00A190147002C113147002C19624036002F8
:100D0B00E120E529AB9A30E006E52A4BFD8004E5AE
:100D1B002A5BFD8D9AE52B30E00890F00912361115
:100D2B00800690F00912360A90F009EDF0E52D30AF
:100D3B00E0051235F2800690F00A12360390F00AA5
:100D4B00EDF0E52F30E0051235EA800690F00B123E
:100D5B00003F90F00BEDF0EE30E0051236508008BE
:100D6B0090F00CE0FBEF5BFD90F00CEDF0E531301B
:100D7B00E005123637800690F00D123649AF05901C
:100D8B00F00DEDF022E529ABA130E006E52A4BFD95
:100D9B008004E52A5BFD8DA1E52B30E00890F0196E
:100DAB00123611800690F01912360A90F019EDF0F8
:100DBB00E52D30E0051235F2800690F01A1236035D
:100DCB0090F01AEDF0E52F30E0051235EA80069031
:100DDB00F01B12003F90F01BEDF0EE30E0051236E9
:100DEB0050800890F01CE0FBEF5BFD90F01CEDF0E9
:100DFB00E53130E005123637800690F01D1236498A
:100E0B00AF0590F01DEDF022E529ABA230E006E531
:100E1B002A4BFD8004E52A5BFD8DA2E52B30E00813
:100E2B0090F029123611800690F02912360A90F0B4
:100E3B0029EDF0E52D30E0051235F2800690F02A11
:100E4B0012360390F02AEDF0E52F30E0051235EA6B
:100E5B00800690F02B12003F90F02BEDF0EE30E07F
:100E6B0005123650800890F02CE0FBEF5BFD90F004
:100E7B002CEDF0E53130E005123637800690F02D81
:100E8B00123649AF0590F02DEDF022E529ABA330DA
:100E9B00E006E52A4BFD8004E52A5BFD8DA3E52BDF
:100EAB0030E00890F039123611800690F039123686
:100EBB000A90F039EDF0E52D30E0051235F28006A1
:100ECB0090F03A12360390F03AEDF0E52F30E00552
:100EDB001235EA800690F03B12003F90F03BEDF0AC
:100EEB00EE30E008A3E0FDEF4DFF800890F03CE012
:100EFB00FDEF5DFF90F03CEFF0E53130E009A3E052
:100F0B00FDE5324DFF800990F03DE0FDE5325DFFE0
:100F1B0090F03DEFF022AB41AA42A943900003129F
:100F2B00045FFCE412036F90001BE0F8A3E0F9A34D
:100F3B00E0FAA3E0FB0202ECE4F525F526F527FB2E
:100F4B007A0079257D027F031236927F0291597BBD
:100F5B000112223A752701E41B1DFF1221790D9115
:100F6B0059D28075DF4075DE60E4F5E9F5D1F5D334
:100F7B0075D50F75D4FF90F69274A0F01231E9433A
:100F8B00DE8022122376C284C2821224AFFF123675
:100F9B0092E4FF91597525017B0091557F287E00C6
:100FAB00121139309304C2168002D2167525037BB9
:100FBB00007A00792591551224A71206EE00000045
:100FCB00009000341206EE0000000090002512067F
:100FDB00EE00000000E4F51F22EF14600E14600F0A
:100FEB001460102403700FED42AC22ED42AD22EDE4
:100FFB0042AE22ED42AF22EF146011146015146063
:10100B00192403701CE5AC5D6017D322E5AD5D6060
:10101B0010D322E5AE5D6009D322E5AF5D6002D34C
:10102B0022C3227D087F021102403790007EE0250B
:10103B00E0F030A303E004F090007EE0FFF46003E7
:10104B00EF701FE4F5B6BFFF03C38001D3921A7B89
:10105B0001BFFF027B027D037F02121FCE7D0812B0
:10106B000FE4301A08E51930E703751980301A269A
:10107B00E518B48521D3E51B64809480400CAF1B2D
:10108B00EF3395E0FE12283E8009E4F51B751D0138
:10109B00751A01E4F518201A13E519B4840EE4F55A
:1010AB0019E51A7004751C0122E4F51A2275240C3B
:1010BB001223104387044387020000000000001234
:1010CB0028B2EF60291228121221661221587F01D3
:1010DB007E003139112E30100AC210B20B300B03C7
:1010EB001228881228BE50E61222F9C21522E524D6
:1010FB0060041524802975240B120F431224CF1280
:10110B003657C39454EE6480948B500612230A1204
:10111B0021E412220D1234E9E490007CF0A3F0904C
:10112B00007CE07002A3E0608A227F0A7E008E2B97
:10113B008F2CE4F531E52C452B60740531AE2BAFCC
:10114B002C1227EDE47BA07A0FF9F812053D31BB89
:10115B00C007AF31AB07E4FAF9F8D0071205C83175
:10116B00BBE47FFF7EFFFDFCAB30AA2FA92EA82D81
:10117B00D312067E50C5C374FF9530F53074FF95BE
:10118B002FF52FE4952EF52EE4952DF52D123669BE
:10119B00780812068F8F8CE530FF8F8AC20E43883A
:1011AB0010E58820E503300EF85388CFD531DE22C9
:1011BB008F308E2F8D2E8C2D228E2A8F2B8D2C9057
:1011CB00F692E030E708E4FFFEFD7C40800271916F
:1011DB0031BB7180C004C005C006C007E4FBFA79BF
:1011EB0080784512366912024FD003D002D001D05D
:1011FB00001201468F348E338D328C31E52C24F85E
:10120B00605D24FB601F24EE600241AE7180122DE5
:10121B00E17F9A7E997D997C4512024F8F168E1530
:10122B008D148C13227B2D7AA67933783EAF34AE96
:10123B0033AD32AC3112024F8F128E118D108C0FD9
:10124B002002028011E4FBFAF97840AF12AE11AD27
:10125B0010AC0F12024F8F0E8E0D8D0C8C0B22715A
:10126B00887191120051C004C005C006C007E4FF8D
:10127B00FE7DA57C437188120146D003D002D001BC
:10128B00D00012024F31BBE4FBFA797A7844120199
:10129B004631BB1203A37B007A0079171232578EAB
:1012AB00098F0A22E508B4030C201504D21480021E
:1012BB00C214E4F508E50814602914606414700284
:1012CB006168240360026165D20D719AE4F529E52A
:1012DB002990000393FF7174EFF00529E529B403FE
:1012EB00EE8072E4F5297174E0FFF4600BEFD39498
:1012FB0016400CEF941F50070529E529B403E7E5C9
:10130B0029C3940350167174E0F528B40D04C20D73
:10131B00719AAF29122FFE75080280417508038060
:10132B003C900066E0245E7178E0F5287B007A0043
:10133B007926123055EF6025AD28AF27AE2631C484
:10134B00E4F5297174E0B52805717474FFF0052973
:10135B00E529B403EE7508018003E4F508301508A0
:10136B00E5086403600241AF22745E2529F582E42F
:10137B003400F58322AC2AAD2BEC02036AAB34AA02
:10138B0033A932A83122AF16AE15AD14AC132253CC
:10139B00DE7F007F00200D027FA090F692EFF00021
:1013AB0043DE802275250A123350E490004DF01273
:1013BB0024CF123657122E03D525F4300C1F900074
:1013CB00587412F03002167F0471E97FC87E003129
:1013DB00397F0471E97525303135D525FB22EF2492
:1013EB00FE600E24FE60102403701AC2A6D2A480E5
:1013FB000AD2A6C2A48004D2A6D2A47F147E003146
:10140B0039C2A6C2A422122FEFEF700281BD24FEB7
:10141B00602614602614602614605C24046002812C
:10142B00C2D17D600281C2123624D19C948B4004C0
:10143B007F0181C3751E08220224E60233E2D17DAF
:10144B00FF6407701E20016FEF6407706A90002D18
:10145B00E0120F2D701E120030900020120F35601D
:10146B00568011123682D19C948B5004751E072224
:10147B007F0791C302349D20043DD17D7039301616
:10148B0036200033D2001223C760064004D20280FC
:10149B0007D3300201C392022002047F02800C7F2B
:1014AB000171E97F1E7E0031397F0171E9C20C02A7
:1014BB001C94300002C200228F2CD17D652C60273A
:1014CB00E4F52DE52D1218FCB52C15E52D75F00C5A
:1014DB00A4249EF9740935F07541FFF54289432226
:1014EB00052DE52DB409DC228F25E4F528D17DF5FA
:1014FB0026F52724FA7002A1E1147002A1DA240761
:10150B006002C15FE525B4050F20030C751E08D2E0
:10151B0003C20C121C94C15F123538402FE52570A5
:10152B00261225F35002801F122FEFEF7002C15FBE
:10153B0024FD60080470101224E6C15FE5176005F6
:10154B001233E2C15F8000751E0AC15F9111E52560
:10155B00B4080D20040AD204751E09C20C121C9487
:10156B001225F35017201309123682D19C948B50FD
:10157B00051233D880047F0791C3D201E525B4034C
:10158B000ED1869840067F0891C38003751E07E530
:10159B002564077023D390005AE094B8D19C948BA8
:1015AB0040163005028001D392057F023005027F81
:1015BB000171E9C20C121C94E52564016002C15F44
:1015CB00201307900003E0FFC15D1233D8C15F12F7
:1015DB001A2B8F28807EE525B40309D18698407499
:1015EB007F0891C3E52564027019900016E0601323
:1015FB00900014E07002A3E07009121BEEF1ECA353
:10160B00E014F090001FE030E711900019E0FF911B
:10161B00C390001FE0547FF04440F090001FE0FFA8
:10162B0030E53154DFF0900019E0B4071CD217906D
:10163B0000341206EE411B33339000251206EE42A6
:10164B008C0000D2017F07800990001FE04440F01E
:10165B007F0591C3D17DB52604AF25D1A31225E516
:10166B00E52860037F0122D17D65277F0060027F23
:10167B000122AB41AA42A9430204467F08F177EF4E
:10168B00245EFFEE3401FED390005AE09FEE64809F
:10169B00F8900059E06480228F29D17DFFB40604B5
:1016AB00C20B800AEFB40804C20B8002D20B300BC2
:1016BB0047E529640270417F0612363FD19198406D
:1016CB0004F18C8033123624D19C948B4023752AE1
:1016DB0005E52A12333BC3D19398400AE52A121829
:1016EB00FCFF91C38012152AE52AD3940150E280A6
:1016FB0007D17D70031233D8D17D600A9111E52992
:10170B00B4010312299C90001FE0FF30E705547FC2
:10171B00F0F14D90001FE030E51054DFF0F17090C8
:10172B00000B12045FFF600291C3F170900009126D
:10173B00045F600D5402FF90000812045FFD122835
:10174B00E022F17012367A601B12363FFEC3D19342
:10175B0098500AD17D6401600B7F018005F17012F6
:10176B00367A91C322AB41AA42A94322E4FEEE1280
:10177B0018FCB50704EE02333B0EBE09F1E4FEFF85
:10178B0022D17DFF9000196003F080037401F0EF0C
:10179B00640770321235D0120F35600A4008900082
:1017AB002012003380031224B79000081206E212B5
:1017BB00368A120F32600A400890001B12003380E9
:1017CB001512368A80107F05121BEB90000812351C
:1017DB00FAFCE412036F9000041206E27F06121B60
:1017EB00EB90000C1206E290000312045FFCE41273
:1017FB00036F9000101206E29000147403F0A374B0
:10180B0020F0227541FF75420975439E90000374C9
:10181B0001F0C203C200E490001AF0900001F0A3A3
:10182B00740AF0C201E4900000F09000167406F008
:10183B00A31106E4F52411FAFBB4011311DF900098
:10184B002DF011CEF5831206D290002E1206E2EB8C
:10185B00B4061311CEF5831206D290000C11DCFCEA
:10186B00E412036F312E11FAB4051711CEF5831262
:10187B0006D290000811DCFCE412036F90000412F6
:10188B0006E20524E524640970AC71FA90002DE0A2
:10189B00FFE48F28122C2FAB28AA27A926A82512E4
:1018AB0000461227ED12053D11F1E47B64FAF9F8BD
:1018BB001205C811F1E527547FFE900032EEF0A31C
:1018CB00EFF022E52475F00CA424A2F582E4340990
:1018DB00221206E2E52475F00CA424A1F582E4346F
:1018EB0009F583E493228F288E278D268C2522E5FC
:1018FB002475F00CA4249EF582E43409F583E4935B
:10190B0022EF14600F14601114601324037013ED95
:10191B00F452AC22EDF452AD22EDF452AE22EDF4C2
:10192B0052AF229000100206E212167D6406602A66
:10193B00900016E0640670024124A3E07002A3E05D
:10194B00600C900018E024FFF090001780209000AE
:10195B00171106900016E004F022900014E07002BC
:10196B00A3E0600F900015E024FFF0900014E0342A
:10197B00FFF022201651900008120033A3120F35EE
:10198B006012401090000C12003371E090000C12AA
:10199B0006E28030900019E0B40724900008120092
:1019AB0033A31206E290000C120033900020120FAA
:1019BB0035500890000C12003351257F0780027FB1
:1019CB00051214C3D217229000041200339000109A
:1019DB00120F35601740159000101200337B0A7AF6
:1019EB00D77923783D120051312E802B900019E0CE
:1019FB00B4071F900004120033312E900010120018
:101A0B0033120F32500890001012003371D17F0740
:101A1B0080027F051214C3D217229000200206E227
:101A2B00C20B3001101228D94008122FEFEF7002B1
:101A3B00C2017F0022C390005AE094B212169C940C
:101A4B008C505B20162D1235CF120F35602540239D
:101A5B0090002012003371D712005151251235CF4F
:101A6B00120F35500A9000201206EE41080000D2EA
:101A7B000B802B301628123672120F326020401E4C
:101A8B0090001B12003371E071D1123672120F32BB
:101A9B00500A90001B1206EE42200000D20B1228B7
:101AAB00D9507A900001E07002A3E06002807F7E43
:101ABB00003016047F0580027F3712366020162B0C
:101ACB0071EE900020120F35502190002012003340
:101ADB0071D7120055512571EE900020120F356011
:101AEB0006400471EE5125D20B61B720160261B787
:101AFB00120F21400261B790001B1200337B0A7A50
:101B0B00D77923783C12005571D1120F21600A400E
:101B1B00081217701235FD71CCD20B61B712292444
:101B2B00400261B0900001E07002A3E060109000F1
:101B3B0002E024FFF0900001E034FFF0806E7E00A5
:101B4B003016047F0580027F3712366020162F1265
:101B5B000030900020120F3560244022900020129C
:101B6B00003371D712005190002012002E900020EC
:101B7B00120F3550051200305125D20B802E301626
:101B8B002B90002DE0120F2D6022402090001B1295
:101B9B00003371E071D190002DE0120F2D500271C6
:101BAB00C8D20B8007E4900001F0A3F0300B069035
:101BBB0000007420F07F00300B027F012290002D7B
:101BCB00E0FCE412036F90001B0206E27BCD7ACCA3
:101BDB00794C783D227B0A7AD77923783C020051E5
:101BEB001214C3AB41AA42A9439000040206A27B84
:101BFB00017A007938B190900077EEF0A3EFF07B8B
:101C0B00017A0079387D09123507900041E06F7039
:101C1B005B900040E0C330E301D39204900040E0BE
:101C2B00C330E201D39202900040E0C330E101D314
:101C3B009205900040E0C330E001D392039000384E
:101C4B0012003371D190003C1200335125900041AA
:101C5B00E0900079F0900078E004F0700690007747
:101C6B00E004F0120027400ED11F800AD14ED203A0
:101C7B00D20C9194F1A8C20D300D07C2AF0075FBC9
:101C8B00AA2275FB5500D2AF22E4FFD20D9183300F
:101C9B0003010F30050343070230020343070430EF
:101CAB00040343070890004AEFF090001B12003327
:101CBB009000421206E29000201200339000461270
:101CCB0006E27B017A0079427D0912350790004BC1
:101CDB00EFF0200C0E900079E0FF90004BE0B50781
:101CEB00028070200C0FC3900078E0946590007711
:101CFB00E09400401B7B007A00792B7D007C027FF7
:101D0B001DB162E4FC7F1DB162E4900077F0A3F09B
:101D1B00E4F52B900077122DB87D0A12049EEF2567
:101D2B002BFDEC3EFC7442252BF9E43400FA7B01CD
:101D3B007F19B162052BE52BC3940A40D69000782E
:101D4B00E004F07006900077E004F090004BE09018
:101D5B000079F0C20D81838F2FE52FB41905120482
:101D6B0046F5FEEDF5FCECFFEFF5FD00852FFF00D2
:101D7B000000000000E5FF20E0FBE52FB41105E5B6
:101D8B00FE12048C228B298A2A892BE4F52DF52E41
:101D9B00D20D9183E4F52CB1F440FCAB29AA2AA90E
:101DAB002B7D09123507AB29AA2AA92B9000091202
:101DBB00045FB50713052EE52E7002052DC3946540
:101DCB00E52D6480948040CCD3E52E9400E52D6402
:101DDB008094804008E52E152E7002152DE4F52C0D
:101DEB00B1F440FCAE2DAF2E22AE2DAF2E7C007D7C
:101DFB000A12049EEF252CFDEC3EFCAB297E00E580
:101E0B002B252CF9EE352AFA7F11B162052CE52C26
:101E1B00C3940A2220032BA204920BD14E300B0247
:101E2B00D204C20C9194C20D9183752964751E0660
:101E3B00121135D15E12002750021529E52970F0D9
:101E4B00F1BF22120030512571C8C203D205D20452
:101E5B00C20222123487502490007AE0FF648094EF
:101E6B00904004E4F08036EF640C6004EFB410078C
:101E7B0090007AE004801E90007A80101234355066
:101E8B001790007AE0C36480948C5005E004F080D6
:101E9B000CE490007AF0E197E490007AF0E51EB440
:101EAB000B004002E19B901EB8F8282873021ED944
:101EBB00021EE3021EE8021F07021EED021F0702AD
:101ECB001EEF021F43021F43021F43021F43C2A602
:101EDB00C2A4E490007BF022C2A6D2A422D2A6C256
:101EEB00A4228013F19C7F8060027F0090007BEF27
:101EFB00F0F1A07002E197D2A6D2A422C2A4900066
:101F0B007BE0FF547FFEE51E7D00B403027D03C31F
:101F1B00ED12369A500C0EEF548090007BF04EF081
:101F2B00800DF19C7F8060027F0090007BEFF0F1D1
:101F3B009CC36001D392A62290007BE0547FF0E516
:101F4B001E64086005E51EB409047F0680027F0A43
:101F5B0090007BE0FED3EF12369A4004E4F51E228C
:101F6B0090007BE0FF04F0EF75F002120424AFF059
:101F7B00EF6019E51EB40A05D2A4D2A622E51EB461
:101F8B000905D2A4C2A622C2A4D2A622C2A6C2A46A
:101F9B002290007BE05480FF3395E04F227529FFA0
:101FAB00C20D9183751E031529E5296007121135A2
:101FBB00D15E80F3C2AF007596AA75965575978062
:101FCB0080FE22EBD394035055EF1460151460235D
:101FDB0014603124037047EDD394055041ED2480F8
:101FEB00802BEDD394075036EDC394034030ED2492
:101FFB0088801AEDD394065025EDC39401401FED54
:10200B0024908009EDD394065014ED2498F528E420
:10201B0034F0F527EB5403852882852783F022EFD4
:10202B0014602214603D14605824037076EDD39431
:10203B00054002806EED248011C38002C333D8FCAF
:10204B0055ACFC8062EDD394075006EDC39403505E
:10205B00028050ED248811C38002C333D8FC55ADE8
:10206B00FC8044EDD394065006EDC39401500280DE
:10207B0032ED249011C38002C333D8FC55AEFC80E3
:10208B0026EDD394064002801AED2498FBE434F03D
:10209B00FAAF05A8077401088002C333D8FC55AF0B
:1020AB00FC8004E4FEFF22EC7003FEFF228B828A8D
:1020BB0083E05403FF7E0022FBE434F0FAA805749E
:1020CB00010822C0E0C0F0C083C082C085C084C0BC
:1020DB0086758600C0D075D000C000C001C002C09C
:1020EB0003C004C005C006C0077D037F02112AEFA1
:1020FB0064014E7030C21AE518547FFF751800E565
:10210B001A7004E51D6008751D00751A008018EF24
:10211B00C394055012C3E51B648094885002051BC1
:10212B0075198080023166315875B600D007D0061C
:10213B00D005D004D003D002D001D000D0D0D086AF
:10214B00D084D085D082D083D0F0D0E0327D087F90
:10215B000212190C90007E74AAF022D21AE51930E3
:10216B00E703751980E51820E70375188022EB64E7
:10217B00026065EB64036060EB6419605BEBD39406
:10218B001C5055EF14601514602314603124037038
:10219B0047EDD394055041ED2400802BEDD39407EC
:1021AB005036EDC394034030ED2410801AEDD394D8
:1021BB00065025EDC39401401FED24208009EDD37B
:1021CB0094065014ED2430F529E434F0F528EB5443
:1021DB001F852982852883F0227176C2A6C2A4FBB3
:1021EB007D067F0231797D0431797A0079257D4036
:1021FB00120C597B007D107F02120C59E4716DF5A6
:10220B001E22E4F5DE90F692F01231E9E4FB513A2E
:10221B00E4F526F5277A0079257D041F120C597BEE
:10222B00007D027F03120C59C2B1C2A2C280227D73
:10223B00027F0231791D0F31797525032275250334
:10224B00752601752701C2B0C2857B007A007925FE
:10225B007D017F03120C597B007D20E4FF120C598A
:10226B0090F120E4F0A37411F090F1237401F0903D
:10227B00F125F090F12A74FFF090F12EF090F122FD
:10228B00E4F090F1277411F0A3F090F160E4F0907A
:10229B00F165F090F1647411F090F131741FF090CE
:1022AB00F130743FF090F1397409F090F138745FAC
:1022BB00F090F141E4F090F149F090F140F090F1A1
:1022CB0048F09000731206EE00000000919FC209C7
:1022DB00C20790F166F090F1267411F091C07B1655
:1022EB007D05E4FF31797B12E4FD7F032179120F29
:1022FB0043514831E4120F8E71A5C20C1213AFE497
:10230B00F5BDF5BC2212320EE4F5C853A8DF7148B7
:10231B00510D7180C2A6C2A4E4F51E716DC390006D
:10232B005AE0945412169C948B401130050E75256F
:10233B00017179919891AF7F02120C5922E4FB7DC8
:10234B0005FF3179E4FD7F03317990F1287411F0A9
:10235B0090F121E4F090F126F090F125F090F1232B
:10236B00F02290007BF090007AF022752503E4F5C3
:10237B002675270122C284C28291A71206EE0000A5
:10238B0000009000341206EE0000000090002512B1
:10239B0006EE00000000E4F51F220212AF7524C800
:1023AB0012113571A5E4FFFE7D2071CD6002500B3B
:1023BB00D524ED751E02121E5E80FB227F337E3309
:1023CB007D8B7C40AB12AA11A910A80F0202ECE482
:1023DB00F52471A5E517702CE52414600C14600E20
:1023EB002402700F751E02800D751E048008751E69
:1023FB00018003E4F51E7F647E00121139121E5E0C
:10240B00052480D4752401200404915A80212016C0
:10241B0005300202801630020A91B771CF6004407A
:10242B0002800920020971C760054003E4F524E529
:10243B0024701B9191E5247F0160027F008F24E5BE
:10244B00247F0160027F028F1E121E5E80E522E454
:10245B00F52530040330020CD204C202C20C121C4C
:10246B0094121FBF71C7601D401B9191E5257F0121
:10247B0060027F008F25E5257F0160027F028F1EA2
:10248B00121E5E80E5227F0F7E0002113975BCFFA4
:10249B0075BDBF22E4900071F0A3F022C293C21766
:1024AB0090002922FB7A0079257D10227F9A7E9954
:1024BB007D097C412290F1297411F090F129E054AF
:1024CB001170F82271A5E4FFFE7D7A7C44AB0EAA55
:1024DB000DA90CA80B1201460203A390004DE0704E
:1024EB002504F012341E500DE51E600690004C744E
:1024FB0008F0E4F51EC211F1E4AB12AA11A910A861
:10250B000F91E0122FE6221228CB8F24900003E0CC
:10251B006005D3940540069000037401F0900019F8
:10252B00E0FF6003B406069000197401F03003401D
:10253B0012342C5006B1E5B1F38033E524B4051CFD
:10254B00751E09C20312362412169C948B400690FA
:10255B00001A740CF0C20C121C948012122FEFBFD5
:10256B00020491E680081228BE5003751E07806A8C
:10257B0090001AE06011D21712003090003412064E
:10258B00E290002DE08048AF241214F3EF6002D2EA
:10259B001712167D24FA601714702B90002012006E
:1025AB00339000341206E290001B1200338025900A
:1025BB0000101200339000251206E290000C12005E
:1025CB00339000348011121BF49000341235FAFC56
:1025DB00E412036F9000250206E2E51C6009E51B7F
:1025EB006005E4F51CF51B22E51D64016002C322A6
:1025FB00E4F51DD322900057E0C39428504991D1A4
:10260B00D1F3900057E004F0900053122C4825278B
:10261B00FFEE3526FEED3525FDEC3524FC90005301
:10262B001206E290004FF1AEC312066850059000FF
:10263B004FD1DE900051F1AED31206685002C1CDDE
:10264B00900051D1DE807B900053120033C004C048
:10265B0005C006C007900051E0FEA3E0FBAA06EA06
:10266B003395E0F9F890004FE0FEA3E0F1ECEF2B8F
:10267B00FBEE3AFAED39F9EC38F8D007D006D00575
:10268B00D004C3EF9BFFEE9AFEED99FDEC98FCD1C5
:10269B00E6120033C006C007A3E024FEFFE434FFBC
:1026AB00AB07FA3395E0F9F8D007D006120832D110
:1026BB00E6A3A3E0FFA3E0900059CFF0A3EFF01245
:1026CB00335090004CE0600214F0900058E0600230
:1026DB0014F022E526F0A3E527F022900053120612
:1026EB00E2900053221201468F278E268D258C24D3
:1026FB0022201602800CF1E4900025120F35600F9A
:10270B00400DE4F527F5267525C8752442800A90FF
:10271B000025122C48F527D1F5120022122B496007
:10272B00054003122C53E4FFFEFDFC122B58500303
:10273B00122F87F1B9C000C001C002C003F1DC1237
:10274B002C3612024FD003D002D001D000D1F0E4CE
:10275B00FFFE7DBE7C42F1D1600D400BE4F527F509
:10276B00267525BE7524421234ADF1D150051234B5
:10277B00ADD1F3F1B9C000C001C002C00312362CB9
:10278B00D003D002D001D000D1F0F1DC12024FD136
:10279B00F312362CF1D15006122DD50203A37E0075
:1027AB007F4622E0FEA3E0FFEE3395E0FDFCAB2776
:1027BB00AA26A925A824228F278E268D258C24E4D2
:1027CB00FFFE7D407C41AB27AA26A925A824020247
:1027DB00ECE4FBFA79C8784222E4FFFE7DC87C4228
:1027EB0022FFEE3395E0FDFC22C2AF007596AA7571
:1027FB00965553977F2275C900B20F300F02D21036
:10280B00325388EFD20E325388CF5389F04389016C
:10281B00E4F58CF58AF5CE75CB0B75CADB75CD5D02
:10282B0075CC66F5C975CF8075A8A2C210C20F759D
:10283B00C89122E4F519F51CF51BF51AEF04F51DEB
:10284B0022752401E4F525F526FB7D037F02122179
:10285B00797A0079247D08120C597D087F02120FBA
:10286B00E47B027D03121FCE43B90490007E74FFFC
:10287B00F0E4F518F519F51BF51CF51D22E4FE74B3
:10288B00182EF8E630E71B547FFDEE7F0470027FB5
:10289B0005EDC39F50010DE65480F674182EF8E633
:1028AB004DF60EBE02D92220A3037F0122E5B654BA
:1028BB0008FF22E51D6002D322E51CC36001D32271
:1028CB00E51D7004E51C70037F0022AF1B22E51A87
:1028DB00C36001D3228D2B7E0231245004D20C8095
:1028EB000411D9920C20130F7E0A301203300C07FF
:1028FB00E490007FF08002319390007FE0D39E4004
:10290B0017EF60028006300C05301302219CE49017
:10291B00007FF0AF2B1214C322E51DB40202D322A9
:10292B00C32212167DB40702800811D9400B312443
:10293B004007E490001FF080467F063016027F0EA2
:10294B00AB0790001FE0FE541FFD7012EE20E60E49
:10295B0031247C8050027C20EE4C90001FF09000C4
:10296B001FE054E0F0C3EB6480F8ED6480985007EF
:10297B00E020E6030D8002E4FD90001FE04DF09097
:10298B00001AE0600214F02290007FE0700204F065
:10299B002212167DFF6023D394055005900003EFA0
:1029AB00F09000341206EE00000000900025120695
:1029BB00EE00000000E4FF1214C322E5176028D3D9
:1029CB00E50A944431F84004D218800E30180BC33A
:1029DB00E50A943131F85002C21830180A12167DEC
:1029EB006005319C751E0A22D3E50A943FE5096404
:1029FB0080948022E517700261482014026148C25E
:102A0B0014D3E50A943131F84004D219800E3019F1
:102A1B000BC3E50A942F31F85002C21912167D60D0
:102A2B0003201906B1EA91546121301677B1F69162
:102A3B002531F34011E4FFFEFDFC715860084006A0
:102A4B009136B1CD9122E4FFFEFD7CC07158500C44
:102A5B00E4F52BF52AF5297528C0800BE4FFFEFD64
:102A6B00FC71585002F1877F0A7ED77DA37C3B9186
:102A7B003FB1DE90006912003312005171496004BE
:102A8B0040029153E4FFFE7D207156500BE4F52B71
:102A9B00F52A75292075284290006D9148F527126B
:102AAB0026F58072B1F61226F331F34013E4FFFEE4
:102ABB00FDFC1227D160094007B1D5B1CD1226F02C
:102ACB00E4FFFEFD7CC01227D15007912E7524C068
:102ADB00800EE4FFFEFDFC1227D15004912EF5244D
:102AEB007F6F7E127D037C3B1227B9B1DE90006DA8
:102AFB001200331200511227C260044002B1EAE403
:102B0B00FFFEFD1227CF5005912E752441900069D1
:102B1B009148F52B91279000691200337158700B77
:102B2B0090006D1200331227D1601291369000691C
:102B3B001206E2B1D590006D1206E2D217228F2B4E
:102B4B008E2A8D298C28E4FFFE7DC87C42AB2BAAF4
:102B5B002AA929A8280202EC1227C2600C400AE419
:102B6B00F52BF52A75294080167F147EAE7D3F121A
:102B7B0027CF6010400E752B14752AAE75293F7543
:102B8B00284180277F337E337DA37C401227D15091
:102B9B000E752B33752A337529A3752840800C8548
:102BAB00272B85262A852529852428B1C0715850C5
:102BBB0014B1C091251200307158500990002E911C
:102BCB0048F52B9127E4FFFE7D807CBF913F1200DF
:102BDB00557B767AE079DC783E9122913F7F547E6B
:102BEB00527D977C401200519125AB16AA15A91462
:102BFB00A81312024F91251227DC9122E4FFFEFD50
:102C0B00FC71585002F1877151600440029153914D
:102C1B00369000730206E21201468F2B8E2A8D2905
:102C2B008C2822E4F527F526F52522AF2BAE2AAD0D
:102C3B0029AC2822AB2BAA2AA929A82822E0FCA37D
:102C4B00E0FDA3E0FEA3E022E4F52BF52A7529C8ED
:102C5B007528422290004DE014B40B004002A1B441
:102C6B00902C7975F003A4C58325F0C58373022CD2
:102C7B009A022CAA022CF5022CFB022D12022D1803
:102C8B00022D2F022D82022D9A022D35022D4690F8
:102C9B00004CE06002A1B4740FF0A37402F0221296
:102CAB0033728F1E90004CE06002A1B490005BE089
:102CBB00FEA3E0FFD394E7EE648094834021B1C67A
:102CCB00D3ED9404EC64809480400BE0240AF090E4
:102CDB00005BE03400F0B1B57D0A1204B0F1E6B14F
:102CEB00B57D641204B07D0380377D047F0280388C
:102CFB00B1B57D641204B090005BECF0FEA3EDF077
:102D0B00FFB1C67D05801A7D067F04801B30110440
:102D1B00F1B2F022B1B57D0A1204B0AE04AF057D5D
:102D2B00070233B97D087F01E1BA90004CE070795E
:102D3B00A3740BF090004C741FF02290004CE0FF3A
:102D4B00C394195026EF54F86021C3E50A942F3130
:102D5B00F85005751E018016C3E50A943831F850FA
:102D6B0005751E048008751E028003E4F51E900095
:102D7B004CE07035A3801490004CE0702C12167D43
:102D8B0070069000587412F090004D7409F022C236
:102D9B0011E490005BF0A3F0900058E06002E19129
:102DAB00F1EFEF700490004DF02290005BE0FEA37A
:102DBB00E0FF7C002290006D0200337C007D0A0254
:102DCB0004B0E4FBFA7920784022AF27AE26AD257C
:102DDB00AC2422120146A804A905AA06AB0722E4DB
:102DEB00F527F52675254075244122E50A24CFFDEC
:102DFB00E50934FFFC02036AE4FFFE7DA07C4190F1
:102E0B000025120F35500A90003A1206EE00000012
:102E1B0000E4FFFE7DA07CC19000251230D812008B
:102E2B005590003A1206E2E4FBFA79A07842900042
:102E3B003A12003312024FE4FBFA79967843B1DE73
:102E4B007F007E407D677C4512005190003A120650
:102E5B00E290003A1200331203A3900038EEF0A375
:102E6B00EFF090004EE014601C1460471460722465
:102E7B00036002E105F106C312169398507C900093
:102E8B004E7401F022F10624C8FDE43EFC9000597B
:102E9B00E0FAA3E0FBD39DECF10F4005E490004E6C
:102EAB00F0EF2438FFEE34FFFEC3EB9FEEF10F5033
:102EBB00498041F106900059E0FCA3E0FDD39FEE61
:102ECB006480F8EC648098400690004E7401F0C367
:102EDB00ED9486EC6480948B502090004E7403F03C
:102EEB0022900039E02438FF900038E034FF1216AE
:102EFB009198400690004E7402F022900038E0FE4C
:102F0B00A3E0FF226480F8EA64809822900059E0E5
:102F1B00FEA3E0FFD39404EE6480948B4033301314
:102F2B0011D3EF94B8EE6480948B4002C213C2129B
:102F3B0080231217709000011204E6FFD390005A01
:102F4B00E09FE5F01216999840028001D39212800F
:102F5B0004C212D213D103E51ED39406501D900068
:102F6B004DE06002815F12341E500512167D700613
:102F7B00900058E06002800EE4F51E22E4F52BF57C
:102F8B002AF529F5282290004EE014600E14600FEC
:102F9B001460102403700F751E0122751E04227518
:102FAB001E0222751E032290004C740AF0A3228F7E
:102FBB00248D2590004CE030E7081213E9E49000D3
:102FCB004CF090004CE0FF7E0030E102AE248E1EF0
:102FDB00EF7007F51EF1B2E525F02290005BEEF0E5
:102FEB00A3EFF022E51D14FFD364809480400122EF
:102FFB007F0022AB07EBD39402504E745E2B12135F
:10300B0078E0FAF46043EAD394164005EA941F4043
:10301B0038900067E070329000611206EE000000FD
:10302B0000E4900065F0A3EBF0A37401F0EA30E448
:10303B000543DF80800353DF7F53DEF0EA540F42FA
:10304B00DE7AA000DAFE43DF02228B2A8A2B892C40
:10305B00E5DF30E1037F0022900065E004F0900093
:10306B006111D8AFDDEFFEADDCED1227ECEB2FFFDE
:10307B00EA3EFEE93DFDE83CFC9000611206E29061
:10308B000066E090000693FF900065E0C39F50063A
:10309B0043DF027F0022900061120033C007A3E0E0
:1030AB00FBE4FAF9F8D0071208329000611206E23D
:1030BB00900061A3A3E0FFA3E0AB2AAA2BA92CCF1E
:1030CB008FF012051EE4900067F07F0122E0F8A359
:1030DB00E0F9A3E0FAA3E0FB2220070221D6300996
:1030EB002D90F129E05411600221D690F164E0306B
:1030FB00060554EFF080034410F090F164E03008C3
:10310B000554FEF080034401F0C207C209221227C6
:10311B00E4900073120F35600C400A900073120696
:10312B00EE42C8000031E0120F35500A90007312C6
:10313B0006EE0000000031D7E4FCFD7B5F7A09F955
:10314B00F8C3120668500A9000717409F0A3745FFB
:10315B00F031E0120F3560054003D38001C39208B4
:10316B00900071E07002A3E0C36001D39206E4FF0C
:10317B00FE7DFA7C4590007311D8120146E4FBFAF0
:10318B00798078BF1200551226F31227DC12024FFA
:10319B001226F31203A3AD07AC06ECFFEF90F1413F
:1031AB00F0ED90F140F031D7C3745F9FFD74099E31
:1031BB00FC4D7002C206ECFFEF90F149F0ED90F17F
:1031CB0048F0D20990F129E04411F022900071E00F
:1031DB00FEA3E0FF22E4FFFEFDFC900073227F03C1
:1031EB0090005E74FFF0A3DFFC9000611206EE000E
:1031FB00000000E4900065F0A3F0A3F0F508C21402
:10320B00D21522439A0A43A11043A22043A304538D
:10321B0080F55390EF53A0DF53B0FB90F00AE054CE
:10322B00F5F0A3E054F5F090F01AE054EFF0A3E0C2
:10323B0054EFF090F02AE054DFF0A3E054DFF0906D
:10324B00F03AE054FBF0A3E054FBF0228B358A36C6
:10325B0089378F3B8E3A8D398C387F047E707D0D8C
:10326B007C007128D312067E400771317EFF7FF1FF
:10327B0022E47FAC7E227126C312067E500671318A
:10328B00FE7F5622AB35AA36A937740112048CE4A3
:10329B007FBD7EFF7126D312067E402EE4F53CE502
:1032AB003C25E025E02476F582E43408F58312060C
:1032BB00D27128C312067E400AE53C24F1FFE434A8
:1032CB00FFFE22053CE53CB430D5E4F53CE53C255E
:1032DB00E02436F582E434097146E48F408E3FF5E5
:1032EB003EF53DE540F540E53FF53FE4F53EF53D68
:1032FB00AF3BAE3AAD39AC38AB40AA3FA93EA83D87
:10330B00D312067E5009E53C2423FFE433FE22054D
:10331B003CE53CB434B77131FEFF22FDFCAB3BAA5C
:10332B003AA939A83822AB35AA36A937E402048C5E
:10333B0075F00CA4249FF582E43409F583E493FE25
:10334B00740193FF2290004F747FF0A374FEF0A3DF
:10335B007480F0A37402F0E4900057F090005312C5
:10336B0006EE000000002290004CE0FFD3940940D1
:10337B003AEF24F8C31314FF301107E50920E702D5
:10338B000F0F201113D390005CE094E790005BE0EB
:10339B006480948340020F0FEF3395E0FE741D2F72
:1033AB00F58274003EF583E493FF227F00229000A8
:1033BB004CE07018EF4E70057480F0800AEF25E03A
:1033CB0025E01490004CF090004DEDF02290005849
:1033DB00E07003740EF022E517603790004DE0703B
:1033EB003104F0911E500DE51E600690004C7408E0
:1033FB00F0E4F51ED211E50930E709FEAF0A7CFFB8
:10340B007DF68008AE09AF0A7C007D0A12049E127D
:10341B002FE622E51F24FD24FD50028002D322C398
:10342B002290004DE0C36001D322912C5002C322A5
:10343B0012167DB40803D38001C322912C50037F55
:10344B00012212167D7F0060027F01229146EF6000
:10345B0002917DD390007DE0940090007CE094007D
:10346B00400DA3E024FFF090007CE034FFF022023B
:10347B0010B890007CE4F0A37428F022912C500239
:10348B00C32212167D7002C322E5177002C322A25B
:10349B001922D201120030121A2591AD90001B0295
:1034AB0006E290002DE0FCE402036F12167DB407D8
:1034BB002C900000E0FFD3648094814004E014F072
:1034CB0022EFB40118E4900000F0C390005AE0948E
:1034DB00B812169C948B4005C20C121C94229000BF
:1034EB0016E0C3648094865003E004F02290007FC2
:1034FB00E06008C3940B5003E004F0228B2F8A305A
:10350B0089317FFFAB2F0531E531AA3070020530D1
:10351B0014F912044662077E08EF30E70725E064D2
:10352B0007FF8004EF25E0FFDEEFDDD82290006877
:10353B00E0D39409400122D3301801C322E4900058
:10354B0068F0C218C219A31206EE42C80000900020
:10355B006D1206EE4140000022E5177026900068C0
:10356B00E0B40A1212167D600612299C751E079094
:10357B000068740BF022900068E0C3940A5009E0D5
:10358B0004F022E4900068F022EDF4F582758300DC
:10359B0085832985822A85832B85822CED227BCD01
:1035AB007ACC79CC783D1200559000290206E212B4
:1035BB0026FC900071EEF0A3EFF022E4FFFEFDFC81
:1035CB0090003422E4FFFE7D087C4190002022F421
:1035DB00F58275830085832D85822E85832F22A30B
:1035EB00E0FBE5304BFD22A3E0FBE52E4BFD221269
:1035FB0006E290000302045FE0FBE52E5BFD22E098
:10360B00FBE52C5BFD22E0FBE52C4BFD22122B6333
:10361B009000247405F0D20722D390005AE0942234
:10362B0022120046AC06AD07EC02036AA3E0FBE5F1
:10363B00324BFD22121777EF2432FFE43E22E0FBE0
:10364B00E5325BFD22A3E0FBEF4BFD22900059EE30
:10365B00F0A3EFF022900001EEF0A3EFF022AF30D9
:10366B00AE2FAD2EAC2D22E4FFFE7D207C422290AE
:10367B00000A12045FFF22C390005AE094EA22E48E
:10368B00FFFE7D487C4222120C597B007D04226494
:07369B0080F8EE6480982224
:00000001FF
