:090000000207981F080D08060A0A
:10000B00022846010402D1E290002EE0FCA3E0FDA1
:0D001B00A3E0FEA3E0FF22020FFBA2A32240
:10002B0002283B745E2529F582E43400F583E02237
:0F003B00745E2529F582E422AC2AAD2BEC616AB4
:10004B0002285802040FE86480F8E933E8336011A2
:10005B000460F0ED33EC337009E8FCE9FDEAFEEBEC
:10006B00FF220460DED3EB9FEA9EE99DE8C2E78C9A
:10007B00F0C2F795F0400CE8CCF8E9CDF9EACEFAEE
:10008B00EBCFFB1203DA85D0F05804700320D5B305
:10009B00E80470075002B2D502041992D5EC046043
:1000AB00F7E4CCC0E0C398F8603B94186008400DAF
:1000BB00D0E0FB0203F1E4FBFAC9FC8028E830E452
:1000CB0006E4C9FBE4CAFCE830E305E4C9CACBFC8F
:1000DB00E854076010F8C3E913F9EA13FAEB13FBC2
:1000EB00EC13FCD8F130F52FC3E49CFCEF9BFFEE37
:1000FB009AFEED99FDD0E0FBEF4E4D4C701222DBDA
:10010B0003020416EC2CFCEF33FFEE33FEED33FD54
:10011B00ED30E7EB0203F1EF2BFFEE3AFEED39FD8D
:10012B00D0E0FB50130BBB0003020419ED13FDEEE3
:10013B0013FEEF13FFEC13FC0203F1EC4D6011E81F
:10014B00497017ED33EC3304600DE4FCFFFEFD2228
:10015B00E933E8330470F802040F1203DA58046031
:10016B0009E4CC24815006285009020419284003C5
:10017B00020416C0E0EB4A7044B98006D0E0FB02E3
:10018B000405EF4E701CBD8008EBFFEAFEE9FD8015
:10019B00EBE98DF0A4FEE5F002022FE9CDF9EAFEC2
:1001AB00EBFFEF89F0A4FCE5F0CE89F0A42EFFE481
:1001BB0035F0CD89F0A42DFEE435F08067EF4E705D
:1001CB0005BD80D780C3EF8BF0A4ACF0EE8BF0A411
:1001DB002CFCE435F0F8EF8AF0A42CE5F038FCE4C5
:1001EB0033CB8DF0A42CFCE5F03BF8EE8AF0A42C7D
:1001FB00FCE5F038F8E433CF89F0A42CFCE5F038BB
:10020B00CF3400CE89F0A42FFFE5F03EFEE433C9D6
:10021B008DF0A42EFEE5F039CD8AF0A42FFFE5F08A
:10022B003EFEE43DFD33D0E0FB50070BBB000F025D
:10023B000419EC2CFCEF33FFEE33FEED33FD020320
:10024B00F1020419EC5D046005E859047003020423
:10025B000F1203DA580460F6EC4860F2EC7004FD00
:10026B00FEFF22C860DB2481C85009C3986002508E
:10027B00060204169850CAF582E9294B4A7005AB61
:10028B008202040575F0007C1A7880C3EF9BEE9A0E
:10029B00ED99400DC3EF9BFFEE9AFEED99FDE84201
:1002AB00F0DC23ACF0D0E0FFD0E0FED0E0FDAB8281
:1002BB0020E7101BEB60BAEC2CFCEF33FFEE33FEA8
:1002CB00ED33FD0203F1E803F830E705C0F075F0FC
:1002DB0000EF2FFFEE33FEED33FD40B830E7C28069
:1002EB00AA74F8CC6480CCC86480C8F58204604FD3
:1002FB00C3EB9FF5F0EA9E42F0E99D42F0E89C4586
:10030B00F0603C501DE5825FFFE582D313CB5BCBE6
:10031B00F42B5582FB50280ABA002409B900200897
:10032B00801DE5825BFBE582D313CF5FCFF4C31354
:10033B002F5582FF50090EBE00050DBD00010CC3E9
:10034B00EB9FF5F0EA9E42F0E99D42F0E89C45F008
:10035B006007CC4820E701B3EC2275F020800E75C6
:10036B00F010800575F0087D007E007F003392D57C
:10037B0030D50312065AEC334010EF33FFEE33FE49
:10038B00ED33FDEC33FCD5F0ED22E5F0247EA2D568
:10039B0013CC92E7CDCEFF22EDD2E7CD33EC3392E7
:1003AB00D524814006E4FFFEFDFC22FCE4CFCECD3C
:1003BB00CC24E0501174FF80EDC3CC13CCCD13CD06
:1003CB00CE13CECF13CF0470F030D5DE02065AE930
:1003DB00D2E7C933E833F892D5EDD2E7CD33EC331E
:1003EB00FC5002B2D522EC30E7100FBF000C0EBE52
:1003FB0000080DBD00040BEB6014A2D5EB13FCED54
:10040B0092E7FD2274FFFCFDFEFF22E480F8A2D5EB
:10041B0074FF13FC7D80E480EFC2D530F707B2D5B3
:10042B0063F0FF05F030E70CB2D5F4048463F0FF02
:10043B0005F080018430D502F40422BB01068982C9
:10044B008A83E0225002E722BBFE02E32289828AE2
:10045B0083E49322BB010CE58229F582E5833AF50F
:10046B0083E0225006E92582F8E622BBFE06E92549
:10047B0082F8E222E58229F582E5833AF583E4935B
:10048B0022BB010689828A83F0225002F722BBFE2F
:10049B0001F322EF8DF0A4A8F0CF8CF0A428CE8D21
:1004AB00F0A42EFE22C2D5EC30E709B2D5E4C39DF1
:1004BB00FDE49CFCEE30E715B2D5E4C39FFFE49E50
:1004CB00FE12071FC3E49DFDE49CFC800312071F73
:1004DB0030D507C3E49FFFE49EFE22BB0110E582EB
:1004EB0029F582E5833AF583E0F5F0A3E022500984
:1004FB00E92582F886F008E622BBFE0AE92582F898
:10050B00E2F5F008E222E5832AF583E993F5F0A3FF
:10051B00E99322BB010A89828A83F0E5F0A3F022DA
:10052B005006F709A7F01922BBFE06F3E5F009F315
:10053B001922E88FF0A4CC8BF0A42CFCE98EF0A44C
:10054B002CFC8AF0EDA42CFCEA8EF0A4CDA8F08B49
:10055B00F0A42DCC3825F0FDE98FF0A42CCD35F08F
:10056B00FCEB8EF0A4FEA9F0EB8FF0A4CFC5F02E20
:10057B00CD39FEE43CFCEAA42DCE35F0FDE43CFC89
:10058B002275F008758200EF2FFFEE33FECD33CDD1
:10059B00CC33CCC58233C5829BED9AEC99E582981E
:1005AB00400CF582EE9BFEED9AFDEC99FC0FD5F01D
:1005BB00D6E4CEFBE4CDFAE4CCF9A88222B800C194
:1005CB00B90059BA002DEC8BF084CFCECDFCE5F001
:1005DB00CBF97818EF2FFFEE33FEED33FDEC33FC48
:1005EB00EB33FB10D703994004EB99FB0FD8E5E4F1
:1005FB00F9FA227818EF2FFFEE33FEED33FDEC33D3
:10060B00FCC933C910D7059BE99A4007EC9BFCE961
:10061B009AF90FD8E0E4C9FAE4CCFB2275F010EF9D
:10062B002FFFEE33FEED33FDCC33CCC833C810D7E0
:10063B00079BEC9AE899400AED9BFDEC9AFCE89934
:10064B00F80FD5F0DAE4CDFBE4CCFAE4C8F922C319
:10065B00E49FFFE49EFEE49DFDE49CFC22EB9FF5F2
:10066B00F0EA9E42F0E99D42F0EC6480C864809809
:10067B0045F022EB9FF5F0EA9E42F0E99D42F0E84F
:10068B009C45F022E8600FECC313FCED13FDEE1359
:10069B00FEEF13FFD8F122BB010DE58229F582E5B0
:1006AB00833AF5830207805007E92582F802077425
:1006BB00BBFE07E92582F802078CE58229F582E566
:1006CB00833AF5830206D2E493FC740193FD740222
:1006DB0093FE740393FF22ECF0A3EDF0A3EEF0A3D3
:1006EB00EFF022A8828583F0D083D0821207051207
:1006FB000705120705120705E473E493A3C583C529
:10070B00F0C583C8C582C8F0A3C583C5F0C583C82F
:10071B00C582C822BC000BBE0029EF8DF084FFAD53
:10072B00F022E4CCF875F008EF2FFFEE33FEEC333C
:10073B00FCEE9DEC984005FCEE9DFE0FD5F0E9E438
:10074B00CEFD22EDF8F5F0EE8420D21CFEADF07557
:10075B00F008EF2FFFED33FD4007985006D5F0F270
:10076B0022C398FD0FD5F0EA22E6FC08E6FD08E669
:10077B00FE08E6FF22E0FCA3E0FDA3E0FEA3E0FF02
:10078B0022E2FC08E2FD08E2FE08E2FF2278FFE429
:10079B00F6D8FD9000007F007E04E4F0A3DFFCDEC2
:1007AB00FA7581450207ED020A2FE493A3F8E4934F
:1007BB00A34003F68001F208DFF48029E493A3F849
:1007CB005407240CC8C333C4540F4420C8834004BB
:1007DB00F456800146F6DFE4800B0102040810207A
:1007EB004080900876E47E019360BCA3FF543F30B9
:1007FB00E509541FFEE493A360010ECF54C025E01E
:10080B0060A840B8E493A3FAE493A3F8E493A3C8D5
:10081B00C582C8CAC583CAF0A3C8C582C8CAC58366
:10082B00CADFE9DEE780BEC2D5E830E70FB2D5E418
:10083B00C39BFBE49AFAE499F9E498F8EC30E717D8
:10084B00B2D51208681205C8E4C39BFBE49AFAE41C
:10085B0099F9E498F880031205C830D50DE4C39FCD
:10086B00FFE49EFEE49DFDE49CFC22410058004108
:10087B00005D00C1114100240041006800C118C196
:10088B001944006942C8000044006D41400000005B
:10089B00000D7004000C9AFB000BD49E000B1BD3B5
:1008AB00000A6F960009CEF80009391C0008AD3814
:1008BB0000082A930007B08100073E640006D3AA04
:1008CB0000066FCD000612510005BAC3000568B9CA
:1008DB0000051BD30004D3B40004900A0004508716
:1008EB00000414E30003DCDC0003A833000376B13F
:1008FB000003482000031C4E0002F30D0002CC3411
:10090B000002A79B0002851C00026496000245EAC8
:10091B00000228F800020DA60001F3D90001DB7AD2
:10092B000001C4730001AEAE00019A19000186A04C
:10093B0000017432000162C00001523C000142967A
:10094B00000133C2000125B40001186000010BBC8B
:10095B00FFBDF45BE98CDF48D587CC42C373BB1278
:10096B00B31AAB85A44D9D6F96E490A88AB8850FFA
:10097B007FA97A84759B70EC6C74682F641C60374C
:10098B005C7F58F1558B524C4F304C37495F46A624
:10099B00440B418C3F293CDE3AAD3892368E349F66
:1009AB0032C530FD2F492DA52C132A90291D27B8B0
:1009BB002662251923DC22AC000000000000000099
:1009CB0000000000010B220C40B1999A00020200BA
:1009DB00020B861940D9999A01010301030C4E2D84
:1009EB004108000002010402040CB23841133333F6
:1009FB0003010503050D1646412666660401010336
:100A0B00060D7A644140000005010000070BB84653
:100A1B004126666602010000080B86644140000017
:100A2B0001020000C20A12280F122802122063F1E1
:100A3B005A1217801223151220CDF1A51230F9127C
:100A4B00151C122F05D20C1221C0C2151200221236
:100A5B00112A122354122E1A1228B2122537519929
:100A6B00122BD73010E6200A13121369122CF51231
:100A7B0031F7122E4512337AD20A800E12336412DA
:100A8B002D81122A48123318C20AC21080BEE545C6
:100A9B00B407004002816B900AA9F8282873020A58
:100AAB00BE020AFD020B1A020B8C020B3E020BABB1
:100ABB00020C461234D5F14C700E90002512001624
:100ACB00EC4D4E4F7002816B9000731206EE0000DE
:100ADB000000E4900024F0900032E0FFA3E09000CF
:100AEB0071CFF0A3EFF0D2077F013016027F028F98
:100AFB004522300702816B1200139000291200115E
:100B0B001225F8D20790002474FFF07545022230AD
:100B1B000702816B900024E0600314F022D2827FE5
:100B2B00057E001212E3D28430160475450322753C
:100B3B004504221234D5F14C600C9000251200169E
:100B4B00EC4D4E4F7003754506300702816B9000DC
:100B5B0034120016900029F14C400B900034120017
:100B6B00161225F88034900024E0600314F02290D4
:100B7B0000291200161234B8900029120016023503
:100B8B00431234D5F14C600C900025120016EC4D3D
:100B9B004E4F70037545061234C9754505D20722B1
:100BAB001234D5F14C600C900025120016EC4D4E12
:100BBB004F7003754506201702816B300702816B5E
:100BCB00121C57640660281234C920160B9000348F
:100BDB001200161225F8800A9000731206EE000020
:100BEB0000009000341200161234C3D207804990D3
:100BFB000024E0600314F022201638900029120024
:100C0B00161234B8900034120016900029F14C6083
:100C1B000B40099000341200161234C390002912B5
:100C2B000016123543900034120016900029F14C37
:100C3B005006221234C9D207C21722C2841212DF05
:100C4B00C2821235D49000731206EE00000000D25F
:100C5B00079000291206EE00000000C217E4F545CC
:100C6B00227D087F018F28120446FF146015146043
:100C7B002814603D14603A2404705B12348E1234D5
:100C8B00E7802912348EF5827401F52D85822EE5CD
:100C9B0082F4F582752F00801312348EF4F5827571
:100CAB002D0085822EEDF5827401F52F8582308023
:100CBB0025ED1234E7858230EDF5827401F5298537
:100CCB00822AEFB40407EDFF7401FE8005EDF4FFFB
:100CDB007E008E2B8F2C90000112045F7007EDFFAE
:100CEB007401FE8005EDF4FF7E008E318F32900093
:100CFB000212045F7007EDFF7401FE8005EDF4FF37
:100D0B007E00E528147002A1A7147002C12A14708A
:100D1B0002C1AD24036002E137E529AB9A30E0064E
:100D2B00E52A4BFD8004E52A5BFD8D9AE52B30E02F
:100D3B000890F00912353C800690F0091235359079
:100D4B00F009EDF0E52D30E0051234FF800690F050
:100D5B000A12352E90F00AEDF0E52F30E005123433
:100D6B00F7800690F00B12352790F00BEDF0EE307C
:100D7B00E00512355E800890F00CE0FBEF5BFD9018
:100D8B00F00CEDF0E53130E00512354F800690F0B8
:100D9B000D123557AF0590F00DEDF022E529ABA103
:100DAB0030E006E52A4BFD8004E52A5BFD8DA1E5CD
:100DBB002B30E00890F01912353C800690F0191298
:100DCB00353590F019EDF0E52D30E0051234FF804C
:100DDB000690F01A12352E90F01AEDF0E52F30E058
:100DEB00051234F7800690F01B12352790F01BED9F
:100DFB00F0EE30E00512355E800890F01CE0FBEF62
:100E0B005BFD90F01CEDF0E53130E00512354F80C5
:100E1B000690F01D123557AF0590F01DEDF022E551
:100E2B0029ABA230E006E52A4BFD8004E52A5BFDE9
:100E3B008DA2E52B30E00890F02912353C8006900E
:100E4B00F02912353590F029EDF0E52D30E0051243
:100E5B0034FF800690F02A12352E90F02AEDF0E543
:100E6B002F30E0051234F7800690F02B12352790C7
:100E7B00F02BEDF0EE30E00512355E800890F02C93
:100E8B00E0FBEF5BFD90F02CEDF0E53130E005126F
:100E9B00354F800690F02D123557AF0590F02DEDA4
:100EAB00F022E529ABA330E006E52A4BFD8004E5F3
:100EBB002A5BFD8DA3E52B30E00890F03912353C11
:100ECB00800690F03912353590F039EDF0E52D3084
:100EDB00E0051234FF800690F03A12352E90F03A6E
:100EEB00EDF0E52F30E0051234F7800690F03B1261
:100EFB00352790F03BEDF0EE30E008A3E0FDEF4D31
:100F0B00FF800890F03CE0FDEF5DFF90F03CEFF0D0
:100F1B00E53130E009A3E0FDE5324DFF800990F0AB
:100F2B003DE0FDE5325DFF90F03DEFF022AB41AAD5
:100F3B0042A94390000312045FFCE412036F90007C
:100F4B001BE0F8A3E0F9A3E0FAA3E0FB0202ECE458
:100F5B00F525F526F527FB7A0079257D027F03120F
:100F6B0035C47F0291707B011220BD752701E41BF4
:100F7B001DFF121FF80D9170D28075DF4075DE607A
:100F8B00E4F5E9F5D1F5D375D50F75D4FF90F6924D
:100F9B0074A0F0122ECA43DE802212351DC284C209
:100FAB00821235CCFF1235C4E4FF91707525017B9D
:100FBB0000916C7F287E001212E3309304C21680DE
:100FCB0002D2167525037B007A007925916C1230BD
:100FDB00F11206EE000000009000341206EE000045
:100FEB0000009000251206EE00000000E4F54522FB
:100FFB00E508B4030C201504D2148002C214E4F5E6
:10100B0008E50814602E14606914700201BE2403F5
:10101B00600201BBD20D3115E4F529E529900003DF
:10102B0093FF12003B3400F583EFF00529E529B45B
:10103B0003E98077E4F52912002EFFF4600BEFD360
:10104B009416400CEF941F50070529E529B403E7CC
:10105B00E529C39403501612002EF528B40D04C2D3
:10106B000D3115AF29122E747508028046750803D1
:10107B008041900066E0245E120032F5287B007AF6
:10108B00007926122B49EF602AAD28AF27AE263107
:10109B00B5E4F52912002EB5280A12003B3400F5F1
:1010AB008374FFF00529E529B403E9750801800372
:1010BB00E4F508301509E50864036003020FFB2211
:1010CB00EF14600E14600F1460102403700FED42C8
:1010DB00AC22ED42AD22ED42AE22ED42AF22EF1437
:1010EB0060111460151460192403701CE5AC5D606D
:1010FB0017D322E5AD5D6010D322E5AE5D6009D359
:10110B0022E5AF5D6002D322C32253DE7F007F0056
:10111B00200D027FA090F692EFF00043DE80227D3F
:10112B00087F0211E9403890007CE025E0F030A305
:10113B0003E004F090007CE0FFF46003EF702012FA
:10114B003373E4F5B6BFFF03C38001D3921A7B015F
:10115B00BFFF027B027D037F02F1CC7D0811CB30F8
:10116B001A08E51930E703751980301A26E518B40B
:10117B008521D3E51B64809480400CAF1BEF339526
:10118B00E0FE122D1F8009E4F51B751D01751A0178
:10119B00E4F518201A13E519B4840EE4F519E51AD1
:1011AB007004751C0122E4F51A228E2A8F2B8D2CCC
:1011BB0090F692E030E708E4FFFEFD7C40800251A0
:1011CB00D651A2120043C004C005C006C007E4FB01
:1011DB00FA7980784512359212024FD003D002D0A3
:1011EB0001D0001201468F348E338D328C31E52CB9
:1011FB0024F8605E24FB602024EE600241A1120003
:10120B00431235897F9A7E997D997C4512024F8FC7
:10121B00168E158D148C13227B2D7AA67933783E7E
:10122B00AF34AE33AD32AC3112024F8F128E118D03
:10123B00108C0F2002028011E4FBFAF97840AF12F8
:10124B00AE11AD10AC0F12024F8F0E8E0D8D0C8C9C
:10125B000B2251CD51D6120051C004C005C006C09F
:10126B0007E4FFFE7DA57C4351CD120146D003D090
:10127B0002D001D00012024F51A2E4FBFA797A7826
:10128B004412014651A21203A37B007A0079171274
:10129B002F4E8E098F0A228F308E2F8D2E8C2D2262
:1012AB00EF14600F14601114601324037013EDF42A
:1012BB0052AC22EDF452AD22EDF452AE22EDF452CB
:1012CB00AF22AB34AA33A932A83122AF16AE15AD7B
:1012DB0014AC13227F0A7E008E2B8F2CE4F531E5A4
:1012EB002C452B60740531AE2BAF2C122B42E47BBB
:1012FB00A07A0FF9F812053D51A2C007AF31AB0729
:10130B00E4FAF9F8D0071205C851A2E47FFF7EFF7B
:10131B00FDFCAB30AA2FA92EA82DD312067E50C5EB
:10132B00C374FF9530F53074FF952FF52FE4952E90
:10133B00F52EE4952DF52D123592780812068F8F28
:10134B008CE530FF8F8AC20E438810E58820E503B9
:10135B00300EF85388CFD531DE227E0051E31234A4
:10136B007E502490007AE0FF648094944004E4F073
:10137B008036EF640E6004EFB4120790007AE0043D
:10138B00801E90007A8010123305501790007AE07F
:10139B00C36480948C5005E004F0800CE490007AD8
:1013AB00F081A2E490007AF0E544B40B0040028196
:1013BB00A69013C3F82828730213E40213EE02134A
:1013CB00F30214120213F80214120213FA02144E4F
:1013DB0002144E02144E02144EC2A6C2A4E4900094
:1013EB007BF022C2A6D2A422D2A6C2A42280139141
:1013FB00A77F8060027F0090007BEFF091AB7002C3
:10140B0081A2D2A6D2A422C2A490007BE0FF547F7B
:10141B00FEE5447D00B403027D03C3ED1235DC50C1
:10142B000C0EEF548090007BF04EF0800D91A77F57
:10143B008060027F0090007BEFF091A7C36001D327
:10144B0092A62290007BE0547FF0E544640860058F
:10145B00E544B409047F0680027F0A90007BE0FE1E
:10146B00D3EF1235DC4004E4F5442290007BE0FF1F
:10147B0004F0EF75F002120424AFF0EF6019E544AD
:10148B00B40A05D2A4D2A622E544B40905D2A4C25B
:10149B00A622C2A4D2A622C2A6C2A42290007BE09E
:1014AB005480FF3395E04F2230020B201608C20206
:1014BB00C20CB1AED1B930160512351480087F338A
:1014CB007E337D8B7C40B1A36020401E7F327E003B
:1014DB0051E3E5257F0160027F008F25E5257F0124
:1014EB0060027F028F44716980E2200223B19B600E
:1014FB001F401DD202C20CB1AE752528E5257F0019
:10150B0030E0027F018F447F287165D525EED1B97C
:10151B0022E4F524120022E51770260524E5241495
:10152B00600C14600E2402700F754402800D75441C
:10153B000480087544018003E4F5447F6471658081
:10154B00DA75240120040491B380222016053002A1
:10155B0002801730020B123514B1A36004400280D5
:10156B0009200209B19B60054003E4F524E52470D2
:10157B001E7F0F7E0051E3E5247F0160027F008F09
:10158B0024E5247F0160027F028F44716980E2228F
:10159B007F337E337D8B7C40AB12AA11A910A80F31
:1015AB000202ECE4FFD20DD17A3003010F300503B8
:1015BB00430702300203430704300203430708903A
:1015CB00004AEFF090001B1200169000421206E248
:1015DB009000201200169000461206E27B017A0062
:1015EB0079427D091233AB90004BEFF0200C0E903B
:1015FB000079E0FF90004BE0B507028070200C0FE4
:10160B00C3900078E09465900077E09400401B7BDA
:10161B00007A00792B7D007C027F1DF19EE4FC7F1C
:10162B001DF19EE4900077F0A3F0E4F52B9000778A
:10163B001225237D0A12049EEF252BFDEC3EFC7434
:10164B0042252BF9E43400FA7B017F19F19E052B1F
:10165B00E52BC3940A40D6900078E004F070069016
:10166B000077E004F090004BE0900079F0C20D3071
:10167B000D07C2AF0075FBAA2275FB5500D2AF2236
:10168B0020032AA204920BF16E300B02D204C20C7F
:10169B00B1AEC20DD17A75296475440651DF7169FB
:1016AB0012002550021529E52970F1D1B922C2AFDC
:1016BB00007596AA75965575978080FE227529FF41
:1016CB00C20DD17A7544031529E529600651DF71E6
:1016DB006980F480D97B017A0079381233DC900071
:1016EB0077EEF0A3EFF07B017A0079387D091233A6
:1016FB00AB900041E06F705D900040E0C330E301C0
:10170B00D39204900040E0C330E201D392029000E8
:10171B0040E0C330E101D39205900040E0C330E0DC
:10172B0001D39203900038120016121F7D90003CDB
:10173B00120016121F83900041E0900079F0900088
:10174B0078E004F07006900077E004F0120025407A
:10175B000ED18B800AF16ED203D20CB1AED1C8C2BE
:10176B000DC17A120013121F83121F74C203D2050C
:10177B00C204C202227524C851DF120022E4FFFE0C
:10178B007D20B1A16002500AD524ED754402716928
:10179B0080FC228F2FE52FB41905120446F5FEEDC0
:1017AB00F5FCECFFEFF5FD00852FFF0000000000BE
:1017BB0000E5FF20E0FBE52FB41105E5FE12048CDC
:1017CB0022EBD394035055EF14601514602314606F
:1017DB003124037047EDD394055041ED2480802BC9
:1017EB00EDD394075036EDC394034030ED2488803D
:1017FB001AEDD394065025EDC39401401FED2490B0
:10180B008009EDD394065014ED2498F528E434F0B8
:10181B00F527EB5403852882852783F022EF14608C
:10182B002214603D14605824037076EDD394054068
:10183B0002806EED248011C18002C333D8FC55ACFD
:10184B00FC8062EDD394075006EDC39403500280E5
:10185B0050ED248811C18002C333D8FC55ADFC80F8
:10186B0044EDD394065006EDC3940150028032ED43
:10187B00249011C18002C333D8FC55AEFC8026EDF9
:10188B00D394064002801AED2498FBE434F0FAAFAF
:10189B0005A8077401088002C333D8FC55AFFC8040
:1018AB0004E4FEFF22EC7003FEFF228B828A83E0AE
:1018BB005403FF7E0022FBE434F0FAA80574010800
:1018CB00227D037F021128EF64014E702FC21AE5AF
:1018DB0018547FFFE4F518E51A7004E51D6007E462
:1018EB00F51DF51A8018EFC394055012C3E51B6460
:1018FB008094885002051B7519808002318D7D08FC
:10190B007F021212AB90007C74AAF02275240C316A
:10191B00A043870443870200000000000012284CFC
:10192B00EF602912280F318D31097F017E001212D1
:10193B00E312112A30100AC210B20B300B03122C17
:10194B00F51228A550E4122182C21522E524600469
:10195B001524802775240B120F5A122A3012356565
:10196B00C39454EE6480948B50061221931220631F
:10197B001220901232F6E4F51EF51FE51F451E608E
:10198B009022D21AE51930E703751980E51820E784
:10199B000375188022122F05E4F5C853A8DF122116
:1019AB00991220901230CCC2A6C2A4E4F544123591
:1019BB009BC390005AE0945431F4948B401430053F
:1019CB0011752501123520122EFE1235CC7F021215
:1019DB000C70227F08B111EF245EFFEE3401FED3B1
:1019EB0090005AE09FEE6480F8900059E0648022EA
:1019FB008F25E4F5289157F526F52724FA70024137
:101A0B00E514700241DF240760026162E525B4052D
:101A1B000F20030C754408D203C20C1215AE616281
:101A2B0012346E402EE52570251229915002801E2E
:101A3B00F1E1EF7002616224FD600804701012295D
:101A4B009E6162E51760051229D2616280007544C0
:101A5B000A61629160E525B4080D20040AD2047571
:101A6B004409C20C1215AE122991501620130912FB
:101A7B0035AC31F4948B5004F1C380047F07718033
:101A8B00D201E525B4030E31DE9840067F08718044
:101A9B008003754407E52564077023D390005AE053
:101AAB0094B831F4948B40163005028001D3920523
:101ABB007F023005027F01F189C20C1215AEE525BC
:101ACB00640160026162201307900003E0FF616014
:101ADB00F1C36162B1DA8F28807DE525B40309314A
:101AEB00DE9840737F087180E525640270189000C2
:101AFB0016E06012900014E07002A3E07008B1CE03
:101B0B00B1AAA3E014F090001FE030E71190001988
:101B1B00E0FF718090001FE0547FF04440F0900094
:101B2B001FE0FF30E53154DFF0900019E0B4071CE3
:101B3B00D2179000341206EE411B3333900025125E
:101B4B0006EE428C0000D2017F07800990001FE057
:101B5B004440F07F0571809157B52604AF2571B0D5
:101B6B00122983E52860037F0122915765277F00A7
:101B7B0060027F01228F2C9157652C6027E4F52D95
:101B8B00E52D1231E1B52C15E52D75F00CA424C310
:101B9B00F9740935F07541FFF542894322052DE5AE
:101BAB002DB409DC228F299157FFB40604C20B8098
:101BBB000AEFB40804C20B8002D20B300B44E529A8
:101BCB006402703E7F06F1CD31E9984004B14D803F
:101BDB0031F1F031F4948B4023752A05E52A123448
:101BEB00A3C331EB98400AE52A1231E1FF718080E3
:101BFB0011152AE52AD3940150E280069157700201
:101C0B00F1C39157600A9160E529B40103122DF0DD
:101C1B0090001FE0FF30E705547FF0B12690001FC6
:101C2B00E030E51054DFF0B14690000B12045FFF7B
:101C3B0060027180B14690000912045F600D54027E
:101C4B00FF90000812045FFD122D3422AB41AA4213
:101C5B00A943020446F1E1EF7002A10B24FE6025BB
:101C6B0014602514602514605B24046002A110919C
:101C7B00576002A110F1F031F4948B40047F0161A5
:101C8B00807544082202299E0229D29157FF6407CE
:101C9B00701E200170EF6407706B90002DE0120F27
:101CAB0044701E120013900020120F4C60578011CD
:101CBB001235AC31F4948B5004754407227F0771B5
:101CCB008002334B20043E9157703A301637200078
:101CDB0034D20012159B60064004D2028007D33029
:101CEB000201C392022002047F02800D7F01F18961
:101CFB007F1E7E001212E37F01F189C20C0215AE2A
:101D0B00300002C20022E4FEEE1231E1B50704EE10
:101D1B000234A30EBE09F1E4FEFF22B146F1B2601C
:101D2B0019F1CDFEC331EB98500A91576401600A4B
:101D3B007F018004B146F1B2718022AB41AA42A966
:101D4B0043229157FF9000196003F080037401F058
:101D5B00EF64077031F1D7120F4C600A4008900006
:101D6B002012001680031235149000081206E2129E
:101D7B0035BC120F49600A400890001B12001680F8
:101D8B00141235BC800F7F05B1CC900008122A19B4
:101D9B00FCE412036F9000041206E27F06B1CC90B4
:101DAB00000C1206E290000312045FFCE412036FB6
:101DBB009000101206E29000147403F0A37420F04C
:101DCB00227180AB41AA42A9439000040206A2C231
:101DDB000B30010F122D2D4007F1E1EF7002C20104
:101DEB007F0022C390005AE094B231F4948C505A85
:101DFB0020162BF1D6120F4C60244022900020129B
:101E0B000016F1BA120051F183F1D6120F4C500AA1
:101E1B009000201206EE41080000D20B802C3016E9
:101E2B00291235B4120F496021401F90001B12007C
:101E3B00161232EBF17D1235B4120F49500A900095
:101E4B001B1206EE42200000D20B122D2D50799062
:101E5B000001E07002A3E06002807E7E0030160479
:101E6B007F0580027F3712358020162BB1CE900074
:101E7B0020120F4C5021900020120016F1BA1200C4
:101E8B0055F183B1CE900020120F4C60064004B187
:101E9B00CEF183D20BE163201602E163120F3840BF
:101EAB0002E16390001B1200167B0A7AD779237824
:101EBB003C120055F17D120F3860094007B14612F4
:101ECB002A1CF178D20BE163122D784002E15C9071
:101EDB000001E07002A3E06010900002E024FFF02C
:101EEB00900001E034FFF0806F7E003016047F0518
:101EFB0080027F3712358020162F1200139000209E
:101F0B00120F4C60244022900020120016F1BA12DE
:101F1B000051900020120011900020120F4C500520
:101F2B00120013F183D20B802F30162C90002DE072
:101F3B00120F446023402190001B1200161232EB4B
:101F4B00F17D90002DE0120F445002F174D20B8002
:101F5B0007E4900001F0A3F0300B06900000742012
:101F6B00F07F00300B027F012290002DE0FCE41289
:101F7B00036F90001B0206E29000200206E2EF24A2
:101F8B00FE600E24FE60102403701BC2A6D2A48038
:101F9B000AD2A6C2A48004D2A6D2A47F147E0012B9
:101FAB0012E3C2A6C2A42290000A12045FFF227B96
:101FBB00CD7ACC794C783D22900058E07003740EAA
:101FCB00F022B111EF2432FFE43E22E4FFFE7D0844
:101FDB007C4190002022E51D14FFD3648094804047
:101FEB0001227F0022D390005AE0942222EB64025C
:101FFB006065EB64036060EB6419605BEBD3941C6E
:10200B005055EF146015146023146031240370478E
:10201B00EDD394055041ED2400802BEDD394075064
:10202B0036EDC394034030ED2410801AEDD39406A3
:10203B005025EDC39401401FED24208009EDD3946E
:10204B00065014ED2430F529E434F0F528EB541F39
:10205B00852982852883F02212351DC2A6C2A4FBD6
:10206B007D067F02121FF87D04121FF87A00792576
:10207B007D40120C707B007D107F02120C70E412FD
:10208B00359BF54422E4F5DE90F692F0122ECAE46D
:10209B00FB11BDE4F526F5277A0079257D041F1287
:1020AB000C707B007D027F03120C70C2B1C2A2C206
:1020BB0080227D027F02121FF81D0F121FF875255B
:1020CB000322752503752601752701C2B0C2857BD6
:1020DB00007A0079257D017F03120C707B007D2037
:1020EB00E4FF120C7090F120E4F0A37411F090F166
:1020FB00237401F090F125F090F12A74FFF090F128
:10210B002EF090F122E4F090F1277411F0A3F090EF
:10211B00F160E4F090F165F090F1647411F090F1DE
:10212B0031741FF090F130743FF090F1397409F075
:10213B0090F138745FF090F141E4F090F149F09038
:10214B00F140F090F148F09000731206EE000000A1
:10215B00001235D4C209C20790F166F090F12674D3
:10216B001DF0122EEF7B167D05E4FF121FF87B127C
:10217B00E4FD7F03021FF8120F5A11CD1163120FEA
:10218B00A5120022C20C31C0E4F5BDF5BC22E4FB64
:10219B007D05FF121FF8E4FD7F03121FF890F12855
:1021AB007411F090F121E4F090F126F090F125F00C
:1021BB0090F123F02275250A122CD3E490004DF0F8
:1021CB00122A3012356531FDD525F5300C239000E0
:1021DB00587412F030021A7F04121F897FC87E00D8
:1021EB001212E37F04121F897525301212DFD525D9
:1021FB00FA22E4FFFE7DA07C41900025120F4C508B
:10220B000A90003A1206EE00000000E4FFFE7DA0EB
:10221B007CC1900025122BCB12005590003A120670
:10222B00E2E4FBFA79A0784290003A12001612020F
:10223B004FE4FBFA799678431201461235897F00F9
:10224B007E407D677C4512005190003A1206E29069
:10225B00003A1200161203A3900038EEF0A3EFF031
:10226B0090004EE014601C146047146072240360ED
:10227B000261037104C31219EB98507C90004E74E9
:10228B0001F022710424C8FDE43EFC900059E0FAF1
:10229B00A3E0FBD39DEC710D4005E490004EF0EFF5
:1022AB002438FFEE34FFFEC3EB9FEE710D504980D7
:1022BB00417104900059E0FCA3E0FDD39FEE6480D4
:1022CB00F8EC648098400690004E7401F0C3ED94D6
:1022DB0086EC6480948B502090004E7403F0229017
:1022EB000039E02438FF900038E034FF1219E998E8
:1022FB00400690004E7402F022900038E0FEA3E0FE
:10230B00FF226480F8EA64809822752401E4F525A5
:10231B00F526FB7D037F02121FF87A0079247D08D6
:10232B00120C707D087F021210CB7B027D031217FB
:10233B00CC43B90412337390007C74FFF0E4F518AE
:10234B00F519F51BF51CF51D22900059E0FEA3E0D5
:10235B00FFD39404EE6480948B4033301311D3EF8E
:10236B0094B8EE6480948B4002C213C21280231285
:10237B001D469000011204E6FFD390005AE09FE542
:10238B00F01219F19840028001D392128004C2120C
:10239B00D21331FDE544D39406501E90004DE060FE
:1023AB00028017122A0B5005121C5770069000580A
:1023BB00E06003023085E4F5442290004DE014B454
:1023CB000B004002A11F9023DF75F003A4C58325EA
:1023DB00F0C5837302240002241002245C022462E1
:1023EB0002247902247F0224970224EB02250302A4
:1023FB00249E0224AF90004CE06002A11F740FF0EA
:10240B00A37402F0221230A68F4490004CE06002BD
:10241B00A11F90005BE0FEA3E0FFD394E7EE648086
:10242B0094834022F1F3D3ED9404EC6480948040C8
:10243B000BE0240AF090005BE03400F0B1207D0A41
:10244B001204B01229C9B1207D641204B07D03803F
:10245B00387D047F028039B1207D641204B0900076
:10246B005BECF0FEA3EDF0FFF1F37D05801B7D0629
:10247B007F04801C30110512305EF022B1207D0AE2
:10248B001204B0AE04AF057D070230667D087F01F4
:10249B0002303290004CE0707BA3740BF090004C38
:1024AB00741FF02290004CE0FFC394195026EF5498
:1024BB00F86021C3E50A942FB130500575440180B3
:1024CB0016C3E50A9438B13050057544048008757D
:1024DB0044028003E4F54490004CE07037A3801471
:1024EB0090004CE0702E121C57700690005874121E
:1024FB00F090004D7409F022C211E490005BF0A340
:10250B00F0900058E06003023085121FE1EF700479
:10251B0090004DF02290005BE0FEA3E0FF7C0022D8
:10252B00D3E50A9432E5096480948022E5177002A2
:10253B00A1EB201402A1EBC214B12B4004D21980E1
:10254B000E30190BC3E50A9430B1305002C2191288
:10255B001C576004B12B5010E4F527F52675254068
:10256B001235A47529C88016C3E50A9441B13040D1
:10257B0012E4F527F526F5251235A475294875289B
:10258B004280331235077B897A88798878BE1201AD
:10259B0046D1FEE4FBFAF97841120055D1FE123513
:1025AB00077455FBFAF978C0B1ECE4FBFA7948787B
:1025BB0042120055B1EF900069120016D1CD700D8B
:1025CB0090006D120016D1E31202EC6013123577F6
:1025DB009000691206E2F1E290006D1206E2D2174A
:1025EB00221201468F2B8E2A8D298C2822D1FE7F19
:1025FB00147EAE7D3F7C41D1E31202EC6010400EA5
:10260B00752B14752AAE75293F75284180297F33A8
:10261B007E337DA37C40D1E31202EC500E752B333D
:10262B00752A337529A3752840800C85272B8526A1
:10263B002A85252985242890006D120016D1CD50AE
:10264B001B90006D122B36F52BB1F1120013D1CD6F
:10265B00500A90002E122B36F52BB1F1E4FFFE7DC4
:10266B00807CBF12356E1200557B767AE079DC7870
:10267B003EB1EC12356E7F547E527D977C4012003A
:10268B0051B1EFAB16AA15A914A81312024FB1EF53
:10269B00F1FAB1ECE4FFFEFDFCD1CD5009E4F52BD2
:1026AB00F52AF529F528F1EBD1CD600D400BE4F5BA
:1026BB002BF52A7529C875284212357790007302BD
:1026CB0006E2AB2BAA2AA929A8280202ECE0FEA35A
:1026DB00E0FFEE3395E0FDFCAB27AA26A925A82445
:1026EB00228F278E268D258C24E4FBFA79C878421D
:1026FB0012024F8F278E268D258C242220160280C6
:10270B000CF1EB900025120F4C600F400DE4F527F8
:10271B00F5267525C8752442800A900025122B36A4
:10272B00F527F10020020FF1E27B9A7A997919785B
:10273B003F120146D1FEF1EB900069120F4C600C79
:10274B00400A9000691206EE42C80000E4FFFEFD4D
:10275B00FC900069120F4C500A9000691206EE00B3
:10276B00000000D1E3C000C001C002C003F1FA9029
:10277B00006912001612024FD003D002D001D00014
:10278B00120146D1FEE4FFFE7DBE7C42D1E3120274
:10279B00EC600D400BE4F527F5267525BE7524423C
:1027AB0012335BD1E31202EC500512335BD1FEF115
:1027BB00E27B007AF079157845120146D1EC7F0067
:1027CB007EF07D157C45D1E31202EC5005F1E2025F
:1027DB0003A37E097F5F22AF27AE26AD25AC242253
:1027EB00E4FFFE7DC87C42227C007D0A0204B0E43B
:1027FB00FBFA79C8784222C2AF007596AA75965536
:10280B0053977F225388CF5389F0438901E4F58C8A
:10281B00F58AF5CE75CB0B75CADB75CD5D75CC66C0
:10282B00F5C975CF8075A8A2C210C20F75C89122C9
:10283B0075C900B20F300F02D210325388EFD20E8F
:10284B003220A3037F0122E5B65408FF22C0E0C06B
:10285B00F0C083C082C085C084C086758600C0D09E
:10286B0075D000C000C001C002C003C004C005C0C9
:10287B0006C0071218CC75B600D007D006D005D00D
:10288B0004D003D002D001D000D0D0D086D084D0D9
:10289B0085D082D083D0F0D0E032E51D6002D32208
:1028AB00E51CC36001D32251228F24900003E0600A
:1028BB0005D3940540069000037401F0900019E0D5
:1028CB00FF6003B406069000197401F030034090CA
:1028DB00004DE06006318331918032E524B4051C54
:1028EB00754409C203121FF01219F4948B40069021
:1028FB00001A740CF0C20C1215AE8011121FE1BF3E
:10290B000204319E800711A550037544078069901E
:10291B00001AE06011D2171200139000341206E275
:10292B0090002DE08047AF241219FBEF6002D21705
:10293B00121C5724FA601714702B900020120016EB
:10294B009000341206E290001B12001680249000B7
:10295B00101200169000251206E290000C120016C1
:10296B009000348010121DD49000345119FCE412E5
:10297B00036F9000250206E2E51C6009E51B60056C
:10298B00E4F51CF51B22E51D64016002C322E4F58E
:10299B001DD32290004DE0702404F0510B500DE537
:1029AB0044600690004C7408F0E4F544C211122701
:1029BB00EBAB12AA11A910A80F514231C9229000FA
:1029CB005BEEF0A3EFF022E517603490004DE07062
:1029DB002E04F0510B500DE544600690004C74082A
:1029EB00F0E4F544D211E50AAE0930E707FF7CFFAE
:1029FB007DF68006AF0A7C007D0A12049E31C92247
:102A0B00E54524FD24FD50028002D322C322120689
:102A1B00E290000302045FE51D7004E51C70037F68
:102A2B000022AF1B22120022E4FFFE7D7A7C44AB16
:102A3B000EAA0DA90CA80B1201460203A390005776
:102A4B00E0C39428504651331226FE900057E00401
:102A5B00F090005371362527FFEE3526FEED352518
:102A6B00FDEC3524712790004F1226D8C31206684F
:102A7B00500590004F712E9000511226D8D312069C
:102A8B006850026116900051712E807F9000531296
:102A9B000016C004C005C006C007900051E0FEA39D
:102AAB00E0FBAA06EA3395E0F9F890004FE0FEA3AD
:102ABB00E07141EF2BFBEE3AFAED39F9EC38F8D037
:102ACB0007D006D005D004C3EF9BFFEE9AFEED991D
:102ADB00FDEC987127900053120016C006C007A397
:102AEB00E024FEFFE434FFAB07FA3395E0F9F8D0AE
:102AFB0007D0061208327128900053A3A3E0FFA35E
:102B0B00E0900059CFF0A3EFF091D390004CE06030
:102B1B000214F0900058E0600214F022FC90005375
:102B2B000206E2E526F0A3E527F022E0FCA3E0FD98
:102B3B00A3E0FEA3E022FFEE3395E0FDFC228B2AFF
:102B4B008A2B892CE5DF30E1037F0022900065E0C2
:102B5B0004F090006171CBAFDDEFFEADDCED7141A8
:102B6B00EB2FFFEA3EFEE93DFDE83CFC90006112D5
:102B7B0006E2900066E090000693FF900065E0C3CC
:102B8B009F500643DF027F0022900061120016C0A7
:102B9B0007A3E0FBE4FAF9F8D007120832900061C2
:102BAB001206E2900061A3A3E0FFA3E0AB2AAA2BDD
:102BBB00A92CCF8FF012051EE4900067F07F012245
:102BCB00E0F8A3E0F9A3E0FAA3E0FB2220070281DF
:102BDB00C030092D90F129E05411600281C090F1B1
:102BEB0064E030060554EFF080034410F090F1647C
:102BFB00E030080554FEF080034401F0C207C2091F
:102C0B00221227EB900073120F4C600C400A9000BD
:102C1B00731206EE42C8000091CA120F4C500A9074
:102C2B0000731206EE0000000091C1E4FCFD7B5F17
:102C3B007A09F9F8C3120668500A9000717409F00A
:102C4B00A3745FF091CA120F4C60054003D380014F
:102C5B00C39208900071E07002A3E0C36001D392AD
:102C6B0006E4FFFE7DFA7C4590007371CB120146A2
:102C7B00E4FBFA798078BF1200551226EC1203A3FD
:102C8B00AD07AC06ECFFEF90F141F0ED90F140F0A9
:102C9B0091C1C3745F9FFD74099EFC4D7002C20607
:102CAB00ECFFEF90F149F0ED90F148F0D20990F183
:102CBB0029E04411F022900071E0FEA3E0FF22E432
:102CCB00FFFEFDFC9000732290004F747FF0A37405
:102CDB00FEF0A37480F0A37402F0E4900057F09020
:102CEB0000531206EE0000000022E4FE74182EF8CA
:102CFB00E630E71B547FFDEE7F0470027F05EDC3CA
:102D0B009F50010DE65480F674182EF8E64DF60E22
:102D1B00BE02D922E4F519F51CF51BF51AEF04F5E3
:102D2B001D22E51AC36001D3228D2B7E02B1785090
:102D3B0004D20C8004B12D920C20130F7E0A30129A
:102D4B0003300C07E490007DF08002B1E790007D2A
:102D5B00E0D39E4017EF60028006300C0530130263
:102D6B00A1F0E490007DF0AF2B121B8022E51DB487
:102D7B000202D322C322121C57B407028008B12DC2
:102D8B00400BB1784007E490001FF080467F06307F
:102D9B0016027F0EAB0790001FE0FE541FFD701252
:102DAB00EE20E60EB1787C8050027C20EE4C900039
:102DBB001FF090001FE054E0F0C3EB6480F8ED646B
:102DCB0080985007E020E6030D8002E4FD90001F81
:102DDB00E04DF090001AE0600214F02290007DE0CC
:102DEB00700204F022121C57FF6023D39405500588
:102DFB00900003EFF09000341206EE0000000090FC
:102E0B0000251206EE00000000E4FF121B8022E5F5
:102E1B00176026D3E50A94441225304004D218805B
:102E2B000B301808C312252C5002C21830180A1286
:102E3B001C576005B1F075440A22E5177025900008
:102E4B0068E0B40A11121C576005B1F07544079085
:102E5B000068740BF022900068E0C3940A5009E0FC
:102E6B0004F022E4900068F022AB07EBD3940250FD
:102E7B004D745E2B120032FAF46043EAD394164081
:102E8B0005EA941F4038900067E0703290006112A1
:102E9B0006EE00000000E4900065F0A3EBF0A374D5
:102EAB0001F0EA30E40543DF80800353DF7F53DE1C
:102EBB00F0EA540F42DE7AA000DAFE43DF02227FF3
:102ECB000390005E74FFF0A3DFFC9000611206EE2E
:102EDB0000000000E4900065F0A3F0A3F0F508C239
:102EEB0014D2152290F1297411F090F129E05411AC
:102EFB0070F82275BCFF75BDBF22439A0A43A1101F
:102F0B0043A22043A3045380F55390EF53A0DF5308
:102F1B00B0FB90F00AE054F5F0A3E054F5F090F01C
:102F2B001AE054EFF0A3E054EFF090F02AE054DFF6
:102F3B00F0A3E054DFF090F03AE054FBF0A3E05440
:102F4B00FBF0228B358A3689378F3B8E3A8D398C45
:102F5B00387F047E707D0D7C001234DED312067E2A
:102F6B0040081230287EFF7FF122E47FAC7E22FDE9
:102F7B00FC1234DEC312067E5007123028FE7F5639
:102F8B0022AB35AA36A937740112048CE47FBD7EBF
:102F9B00FFFDFC1234DED312067E402FE4F53CE538
:102FAB003C25E025E0249BF582E43408F5831206EA
:102FBB00D21234DEC312067E400AE53C24F1FFE454
:102FCB0034FFFE22053CE53CB430D4E4F53CE53C53
:102FDB0025E0245BF582E434091234AEE48F408E95
:102FEB003FF53EF53DE540F540E53FF53FE4F53E69
:102FFB00F53DAF3BAE3AAD39AC38AB40AA3FA93E3D
:10300B00A83DD312067E5009E53C2423FFE433FE92
:10301B0022053CE53CB434B61128FEFF22AB35AAA1
:10302B0036A937E402048C8F248D2590004CE030B8
:10303B00E708121F89E490004CF090004CE0FF7EF3
:10304B000030E102AE248E44EF7007F544115EE5CB
:10305B0025F02290004C740AF0A32290004CE070F3
:10306B0018EF4E70057480F0800AEF25E025E01410
:10307B0090004CF090004DEDF02290004EE014606B
:10308B000E14600F1460102403700F754401227529
:10309B00440422754402227544032290004CE0FF45
:1030AB00D394094019EF24F8C31314FF3395E0FEB2
:1030BB00740E2FF58274003EF583E493FF227F009C
:1030CB0022C284C28211F11206EE000000009000B1
:1030DB00341206EE000000009000251206EE0000F0
:1030EB000000E4F54522C293C217900029227541D6
:1030FB00FF7542097543C39000037401F0C203C20C
:10310B0000E490001AF0900001F0A3740AF0C201E1
:10311B00E4900000F09000167406F0A3121DC4E4B6
:10312B00F52431DFFBB4010E31C490002DF031AF2B
:10313B0090002E1206E2EBB4060E31AF90000C316C
:10314B00C1FCE412036F31F131DFB4051231AF90E2
:10315B00000831C1FCE412036F9000041206E20573
:10316B0024E524640970BB1216E090002DE0FFE407
:10317B008F28F527F526F525AF28AE27AD26AC25EC
:10318B007B5F7A09F9F812053D31D6E47B64FAF9D5
:10319B00F81205C831D6E527547FFE900032EEF0C9
:1031AB00A3EFF022E52475F00CA424C7F582E434D8
:1031BB0009F5830206D21206E2E52475F00CA4246D
:1031CB00C6F582E43409F583E493228F288E278D8C
:1031DB00268C2522E52475F00CA424C3F582E43457
:1031EB0009F583E493229000100206E2121C576447
:1031FB0006602B900016E06406700241EAA3E070B3
:10320B0002A3E0600C900018E024FFF09000178000
:10321B0021900017121DC4900016E004F0229000BC
:10322B0014E07002A3E0600F900015E024FFF09013
:10323B000014E034FFF02220165290000812001602
:10324B00A3120F4C6012401090000C12001651EBA1
:10325B0090000C1206E28031900019E0B407259023
:10326B000008120016A31206E290000C1200169032
:10327B000020120F4C500990000C120016121F83E5
:10328B007F0780027F05121B80D217229000041249
:10329B000016900010120F4C601740159000101282
:1032AB0000167B0A7AD77923783D12005131F180D1
:1032BB002C900019E0B4072090000412001631F195
:1032CB00900010120016120F4950099000101200B6
:1032DB0016121F7D7F0780027F05121B80D21722DB
:1032EB007B0A7AD77923783C020051900016E0C311
:1032FB00648094865003E004F02290004DE060025D
:10330B00C322121C57B40803D38001C322121C57CB
:10331B00B4072C900000E0FFD3648094814004E05C
:10332B0014F022EFB40118E4900000F0C390005A9F
:10333B00E094B81219F4948B4005C20C1215AE220E
:10334B00D201120013121F83715B90001B0206E265
:10335B0090002DE0FCE402036F90007DE06008C359
:10336B00940B5003E004F022751E00751F28227188
:10337B0098EF60027173D3E51F9400E51E94004033
:10338B0009E51F151F7002151E2202191790004D1B
:10339B00E060037F0122121C577F0060027F012235
:1033AB008B2F8A3089317FFFAB2F0531E531AA3066
:1033BB007002053014F912044662077E08EF30E7FD
:1033CB000725E06407FF8004EF25E0FFDEEFDDD883
:1033DB00228B298A2A892BE4F52DF52ED20D121674
:1033EB007AE4F52C9144940A40FAAB29AA2AA92B2A
:1033FB007D0971ABAB29AA2AA92B90000912045F96
:10340B00B50713052EE52E7002052DC39465E52D2A
:10341B006480948040CBD3E52E9400E52D6480949A
:10342B00804008E52E152E7002152DE4F52C9144E5
:10343B00940A40FAAE2DAF2E22AE2DAF2E7C007D1E
:10344B000A12049EEF252CFDEC3EFCAB297E00E519
:10345B002B252CF9EE352AFA7F1112179E052CE538
:10346B002CC322900068E0D39409400122D330187A
:10347B0001C322121C577002C322E5177002C3222C
:10348B00A21922EDF4F58275830085832985822AA2
:10349B0085832B85822CED2275F00CA424C4F58238
:1034AB00E43409F583E493FE740193FF227BCD7A18
:1034BB00CC79CC783D1200559000290206E21227F8
:1034CB0007900071EEF0A3EFF022E4FFFEFDFC90FD
:1034DB00003422AB3BAA3AA939A83822F4F58275FD
:1034EB00830085832D85822E85832F22A3E0FBE528
:1034FB00304BFD22A3E0FBE52E4BFD22C37441951F
:10350B000AFDE49509FC02036A7F9A7E997D097C8A
:10351B004122752503E4F52675270122E0FBE530F2
:10352B005BFD22E0FBE52E5BFD22E0FBE52C5BFD6A
:10353B0022E0FBE52C4BFD221225F89000247405AC
:10354B00F0D20722A3E0FBE5324BFD22E0FBE53294
:10355B005BFD22A3E0FBEF4BFD22900059EEF0A3A5
:10356B00EFF022AB2BAA2AA929A82822AF2BAE2A2F
:10357B00AD29AC2822900001EEF0A3EFF022A804B5
:10358B00A905AA06AB0722AF30AE2FAD2EAC2D226C
:10359B0090007BF090007AF022752441F52BF52AF0
:1035AB0022C390005AE094EA22E4FFFE7D207C4285
:1035BB0022E4FFFE7D487C4222120C707B007D04CE
:1035CB0022FB7A0079257D1022E4900071F0A3F0A4
:0935DB00226480F8EE648098225D
:00000001FF
