:090000000207981F080D08060A0A
:10000B0002204F4100580041005D00C11141002406
:0F001B000000010402E0FBE5305BFD2202132F21
:10002B00022044D1E290002EE0FCA3E0FDA3E0FE11
:0F003B00A3E0FF22120C537B007D0422A2A3221C
:10004B0002206102040FE86480F8E933E8336011A1
:10005B000460F0ED33EC337009E8FCE9FDEAFEEBEC
:10006B00FF220460DED3EB9FEA9EE99DE8C2E78C9A
:10007B00F0C2F795F0400CE8CCF8E9CDF9EACEFAEE
:10008B00EBCFFB1203DA85D0F05804700320D5B305
:10009B00E80470075002B2D502041992D5EC046043
:1000AB00F7E4CCC0E0C398F8603B94186008400DAF
:1000BB00D0E0FB0203F1E4FBFAC9FC8028E830E452
:1000CB0006E4C9FBE4CAFCE830E305E4C9CACBFC8F
:1000DB00E854076010F8C3E913F9EA13FAEB13FBC2
:1000EB00EC13FCD8F130F52FC3E49CFCEF9BFFEE37
:1000FB009AFEED99FDD0E0FBEF4E4D4C701222DBDA
:10010B0003020416EC2CFCEF33FFEE33FEED33FD54
:10011B00ED30E7EB0203F1EF2BFFEE3AFEED39FD8D
:10012B00D0E0FB50130BBB0003020419ED13FDEEE3
:10013B0013FEEF13FFEC13FC0203F1EC4D6011E81F
:10014B00497017ED33EC3304600DE4FCFFFEFD2228
:10015B00E933E8330470F802040F1203DA58046031
:10016B0009E4CC24815006285009020419284003C5
:10017B00020416C0E0EB4A7044B98006D0E0FB02E3
:10018B000405EF4E701CBD8008EBFFEAFEE9FD8015
:10019B00EBE98DF0A4FEE5F002022FE9CDF9EAFEC2
:1001AB00EBFFEF89F0A4FCE5F0CE89F0A42EFFE481
:1001BB0035F0CD89F0A42DFEE435F08067EF4E705D
:1001CB0005BD80D780C3EF8BF0A4ACF0EE8BF0A411
:1001DB002CFCE435F0F8EF8AF0A42CE5F038FCE4C5
:1001EB0033CB8DF0A42CFCE5F03BF8EE8AF0A42C7D
:1001FB00FCE5F038F8E433CF89F0A42CFCE5F038BB
:10020B00CF3400CE89F0A42FFFE5F03EFEE433C9D6
:10021B008DF0A42EFEE5F039CD8AF0A42FFFE5F08A
:10022B003EFEE43DFD33D0E0FB50070BBB000F025D
:10023B000419EC2CFCEF33FFEE33FEED33FD020320
:10024B00F1020419EC5D046005E859047003020423
:10025B000F1203DA580460F6EC4860F2EC7004FD00
:10026B00FEFF22C860DB2481C85009C3986002508E
:10027B00060204169850CAF582E9294B4A7005AB61
:10028B008202040575F0007C1A7880C3EF9BEE9A0E
:10029B00ED99400DC3EF9BFFEE9AFEED99FDE84201
:1002AB00F0DC23ACF0D0E0FFD0E0FED0E0FDAB8281
:1002BB0020E7101BEB60BAEC2CFCEF33FFEE33FEA8
:1002CB00ED33FD0203F1E803F830E705C0F075F0FC
:1002DB0000EF2FFFEE33FEED33FD40B830E7C28069
:1002EB00AA74F8CC6480CCC86480C8F58204604FD3
:1002FB00C3EB9FF5F0EA9E42F0E99D42F0E89C4586
:10030B00F0603C501DE5825FFFE582D313CB5BCBE6
:10031B00F42B5582FB50280ABA002409B900200897
:10032B00801DE5825BFBE582D313CF5FCFF4C31354
:10033B002F5582FF50090EBE00050DBD00010CC3E9
:10034B00EB9FF5F0EA9E42F0E99D42F0E89C45F008
:10035B006007CC4820E701B3EC2275F020800E75C6
:10036B00F010800575F0087D007E007F003392D57C
:10037B0030D50312065AEC334010EF33FFEE33FE49
:10038B00ED33FDEC33FCD5F0ED22E5F0247EA2D568
:10039B0013CC92E7CDCEFF22EDD2E7CD33EC3392E7
:1003AB00D524814006E4FFFEFDFC22FCE4CFCECD3C
:1003BB00CC24E0501174FF80EDC3CC13CCCD13CD06
:1003CB00CE13CECF13CF0470F030D5DE02065AE930
:1003DB00D2E7C933E833F892D5EDD2E7CD33EC331E
:1003EB00FC5002B2D522EC30E7100FBF000C0EBE52
:1003FB0000080DBD00040BEB6014A2D5EB13FCED54
:10040B0092E7FD2274FFFCFDFEFF22E480F8A2D5EB
:10041B0074FF13FC7D80E480EFC2D530F707B2D5B3
:10042B0063F0FF05F030E70CB2D5F4048463F0FF02
:10043B0005F080018430D502F40422BB01068982C9
:10044B008A83E0225002E722BBFE02E32289828AE2
:10045B0083E49322BB010CE58229F582E5833AF50F
:10046B0083E0225006E92582F8E622BBFE06E92549
:10047B0082F8E222E58229F582E5833AF583E4935B
:10048B0022BB010689828A83F0225002F722BBFE2F
:10049B0001F322EF8DF0A4A8F0CF8CF0A428CE8D21
:1004AB00F0A42EFE22C2D5EC30E709B2D5E4C39DF1
:1004BB00FDE49CFCEE30E715B2D5E4C39FFFE49E50
:1004CB00FE12071FC3E49DFDE49CFC800312071F73
:1004DB0030D507C3E49FFFE49EFE22BB0110E582EB
:1004EB0029F582E5833AF583E0F5F0A3E022500984
:1004FB00E92582F886F008E622BBFE0AE92582F898
:10050B00E2F5F008E222E5832AF583E993F5F0A3FF
:10051B00E99322BB010A89828A83F0E5F0A3F022DA
:10052B005006F709A7F01922BBFE06F3E5F009F315
:10053B001922E88FF0A4CC8BF0A42CFCE98EF0A44C
:10054B002CFC8AF0EDA42CFCEA8EF0A4CDA8F08B49
:10055B00F0A42DCC3825F0FDE98FF0A42CCD35F08F
:10056B00FCEB8EF0A4FEA9F0EB8FF0A4CFC5F02E20
:10057B00CD39FEE43CFCEAA42DCE35F0FDE43CFC89
:10058B002275F008758200EF2FFFEE33FECD33CDD1
:10059B00CC33CCC58233C5829BED9AEC99E582981E
:1005AB00400CF582EE9BFEED9AFDEC99FC0FD5F01D
:1005BB00D6E4CEFBE4CDFAE4CCF9A88222B800C194
:1005CB00B90059BA002DEC8BF084CFCECDFCE5F001
:1005DB00CBF97818EF2FFFEE33FEED33FDEC33FC48
:1005EB00EB33FB10D703994004EB99FB0FD8E5E4F1
:1005FB00F9FA227818EF2FFFEE33FEED33FDEC33D3
:10060B00FCC933C910D7059BE99A4007EC9BFCE961
:10061B009AF90FD8E0E4C9FAE4CCFB2275F010EF9D
:10062B002FFFEE33FEED33FDCC33CCC833C810D7E0
:10063B00079BEC9AE899400AED9BFDEC9AFCE89934
:10064B00F80FD5F0DAE4CDFBE4CCFAE4C8F922C319
:10065B00E49FFFE49EFEE49DFDE49CFC22EB9FF5F2
:10066B00F0EA9E42F0E99D42F0EC6480C864809809
:10067B0045F022EB9FF5F0EA9E42F0E99D42F0E84F
:10068B009C45F022E8600FECC313FCED13FDEE1359
:10069B00FEEF13FFD8F122BB010DE58229F582E5B0
:1006AB00833AF5830207805007E92582F802077425
:1006BB00BBFE07E92582F802078CE58229F582E566
:1006CB00833AF5830206D2E493FC740193FD740222
:1006DB0093FE740393FF22ECF0A3EDF0A3EEF0A3D3
:1006EB00EFF022A8828583F0D083D0821207051207
:1006FB000705120705120705E473E493A3C583C529
:10070B00F0C583C8C582C8F0A3C583C5F0C583C82F
:10071B00C582C822BC000BBE0029EF8DF084FFAD53
:10072B00F022E4CCF875F008EF2FFFEE33FEEC333C
:10073B00FCEE9DEC984005FCEE9DFE0FD5F0E9E438
:10074B00CEFD22EDF8F5F0EE8420D21CFEADF07557
:10075B00F008EF2FFFED33FD4007985006D5F0F270
:10076B0022C398FD0FD5F0EA22E6FC08E6FD08E669
:10077B00FE08E6FF22E0FCA3E0FDA3E0FEA3E0FF02
:10078B0022E2FC08E2FD08E2FE08E2FF2278FFE429
:10079B00F6D8FD9000007F007E04E4F0A3DFFCDEC2
:1007AB00FA7581450207ED020A0AE493A3F8E49374
:1007BB00A34003F68001F208DFF48029E493A3F849
:1007CB005407240CC8C333C4540F4420C8834004BB
:1007DB00F456800146F6DFE4800B0102040810207A
:1007EB00408090000EE47E019360BCA3FF543F3029
:1007FB00E509541FFEE493A360010ECF54C025E01E
:10080B0060A840B8E493A3FAE493A3F8E493A3C8D5
:10081B00C582C8CAC583CAF0A3C8C582C8CAC58366
:10082B00CADFE9DEE780BEC2D5E830E70FB2D5E418
:10083B00C39BFBE49AFAE499F9E498F8EC30E717D8
:10084B00B2D51208681205C8E4C39BFBE49AFAE41C
:10085B0099F9E498F880031205C830D50DE4C39FCD
:10086B00FFE49EFEE49DFDE49CFC22000D70040061
:10087B000C9AFB000BD49E000B1BD3000A6F960047
:10088B0009CEF80009391C0008AD3800082A93007E
:10089B0007B08100073E640006D3AA00066FCD00A7
:1008AB000612510005BAC3000568B900051BD30039
:1008BB0004D3B40004900A00045087000414E3002E
:1008CB0003DCDC0003A833000376B10003482000EF
:1008DB00031C4E0002F30D0002CC340002A79B0058
:1008EB0002851C00026496000245EA000228F8000B
:1008FB00020DA60001F3D90001DB7A0001C47300DD
:10090B0001AEAE00019A19000186A00001743200FD
:10091B000162C00001523C00014296000133C2004B
:10092B000125B40001186000010BBCFFBDF45BE9AD
:10093B008CDF48D587CC42C373BB12B31AAB85A4EB
:10094B004D9D6F96E490A88AB8850F7FA97A847520
:10095B009B70EC6C74682F641C60375C7F58F1558E
:10096B008B524C4F304C37495F46A6440B418C3F62
:10097B00293CDE3AAD3892368E349F32C530FD2F8E
:10098B00492DA52C132A90291D27B826622519233A
:10099B00DC22AC00000000000000000000000001A1
:1009AB000B220C40B1999A00020200020B861940EF
:1009BB00D9999A01010301030C4E2D410800000245
:1009CB00010402040CB23841133333030105030550
:1009DB000D16464126666604010103060D7A644135
:1009EB0040000005010000070BB846412666660271
:1009FB00010000080B86644140000001020000C2A8
:100A0B000A122018121FA61218B6F1401233D61272
:100A1B001A76121919F18B12241D1234091235AAE8
:100A2B00121BD8D20C12142FC215120027121ADF68
:100A3B00122748122E9B1220BB122A065177122D19
:100A4B005E3010E6200A13121C491227EA12251BEE
:100A5B00122F54121AC1D20A800E1234E212269EA1
:100A6B001229161234AFC20AC21080BEE545B40774
:100A7B00004002814E900A87F8282873020A9C02D4
:100A8B000ADB020AF8020B6D020B1C020B8C020C28
:100A9B00291235F7F132700E900025120033EC4D10
:100AAB004E4F7002814E9000731206EE0000000054
:100ABB00E4900024F0900032E0FFA3E0900071CFAF
:100ACB00F0A3EFF0D2077F013016027F028F452291
:100ADB00300702814E12003090002912002E122C8A
:100AEB002FD20790002474FFF075450222300702C5
:100AFB00814E900024E0600314F022D2827F057EA9
:100B0B00001211B9D28430160475450322754504C1
:100B1B00221235F7F132600C900025120033EC4DA8
:100B2B004E4F7003754506300702814E900034120C
:100B3B000033900029F132400B9000341200331235
:100B4B002C2F8037900024E0600314F022900029B2
:100B5B001200331235DB900029120033122ED0D243
:100B6B0007221235F7F132600C900025120033EC9E
:100B7B004D4E4F7003754506122EE5754505D20790
:100B8B00221235F7F132600C900025120033EC4D38
:100B9B004E4F7003754506201702814E30070281B8
:100BAB004E12170264066028122EE520160B9000D9
:100BBB0034120033122C2F800A9000731206EE00B1
:100BCB000000009000341200331235E6D207804B40
:100BDB00900024E0600314F02220163A90002912B2
:100BEB0000331235DB900034120033900029F132C0
:100BFB00600B40099000341200331235E690002947
:100C0B00120033122ED0D207900034120033900012
:100C1B0029F132500622122EE5D207C21722C284C6
:100C2B001211B5C282121B7B9000731206EE0000EC
:100C3B000000D2079000291206EE00000000C21738
:100C4B00E4F545227D087F018F28120446FF1460CE
:100C5B001514602814603D14603A2404705B12353F
:100C6B00C612360080291235C6F5827401F52D8522
:100C7B00822EE582F4F582752F0080131235C6F4AF
:100C8B00F582752D0085822EEDF5827401F52F8589
:100C9B0082308025ED123600858230EDF5827401AD
:100CAB00F52985822AEFB40407EDFF7401FE800558
:100CBB00EDF4FF7E008E2B8F2C90000112045F70E1
:100CCB0007EDFF7401FE8005EDF4FF7E008E318F82
:100CDB003290000212045F7007EDFF7401FE800575
:100CEB00EDF4FF7E00E528147002A18B147002C195
:100CFB000F147002C19324036002E11DE529AB9A26
:100D0B0030E006E52A4BFD8004E52A5BFD8D9AE574
:100D1B002B30E00890F00912362E800690F0091265
:100D2B00362790F009EDF0E52D30E00512361880EE
:100D3B000690F00A12362090F00AEDF0E52F30E025
:100D4B0005123610800690F00B12002090F00BED80
:100D5B00F0EE30E005123643800890F00CE0FBEF2C
:100D6B005BFD90F00CEDF0E53130E00612363CFD0A
:100D7B00800690F00D123635AF0590F00DEDF02298
:100D8B00E529ABA130E006E52A4BFD8004E52A5BA3
:100D9B00FD8DA1E52B30E00890F01912362E800660
:100DAB0090F01912362790F019EDF0E52D30E00593
:100DBB00123618800690F01A12362090F01AEDF0C9
:100DCB00E52F30E005123610800690F01B12002044
:100DDB0090F01BEDF0EE30E005123643800890F0FA
:100DEB001CE0FBEF5BFD90F01CEDF0E53130E00615
:100DFB0012363CFD800690F01D123635AF0590F093
:100E0B001DEDF022E529ABA230E006E52A4BFD8073
:100E1B0004E52A5BFD8DA2E52B30E00890F029124A
:100E2B00362E800690F02912362790F029EDF0E54A
:100E3B002D30E005123618800690F02A12362090DD
:100E4B00F02AEDF0E52F30E005123610800690F019
:100E5B002B12002090F02BEDF0EE30E00512364314
:100E6B00800890F02CE0FBEF5BFD90F02CEDF0E5B3
:100E7B003130E00612363CFD800690F02D123635EF
:100E8B00AF0590F02DEDF022E529ABA330E006E5A0
:100E9B002A4BFD8004E52A5BFD8DA3E52B30E00892
:100EAB0090F03912362E800690F03912362790F0DA
:100EBB0039EDF0E52D30E005123618800690F03A4A
:100ECB0012362090F03AEDF0E52F30E00512361097
:100EDB00800690F03B12002090F03BEDF0EE30E0FE
:100EEB0008A3E0FDEF4DFF800890F03CE0FDEF5DC7
:100EFB00FF90F03CEFF0E53130E009A3E0FDE53287
:100F0B004DFF800990F03DE0FDE5325DFF90F03D37
:100F1B00EFF022AB41AA42A94390000312045FFCFD
:100F2B00E412036F90001BE0F8A3E0F9A3E0FAA32F
:100F3B00E0FB0202ECE4F525F526F527FB7A0079B8
:100F4B00257D027F0312003F7F0291537B01121913
:100F5B000B752701E41B1DFF12184B0D9153D2800B
:100F6B0075DF4075DE60E4F5E9F5D1F5D375D50F86
:100F7B0075D4FF90F69274A0F0121BB343DE80225F
:100F8B00121A47C284C282121B73FF12003FE4FF86
:100F9B0091537525017B00914F7F287E001211B96B
:100FAB00309304C2168002D2167525037B007A009B
:100FBB007925914F121B6B1206EE0000000090007A
:100FCB00341206EE000000009000251206EE000021
:100FDB000000E4F54522EF14600E14600F1460104E
:100FEB002403700FED42AC22ED42AD22ED42AE2256
:100FFB00ED42AF22EF146011146015146019240335
:10100B00701CE5AC5D6017D322E5AD5D6010D3229B
:10101B00E5AE5D6009D322E5AF5D6002D322C3224A
:10102B00EF14600F14601114601324037013EDF4AC
:10103B0052AC22EDF452AD22EDF452AE22EDF4524D
:10104B00AF227D087F02112B90007C74AAF0227DC9
:10105B00037F02119AEF64014E702FC21AE51854E8
:10106B007FFFE4F518E51A7004E51D6007E4F51D34
:10107B00F51A8019EFC394055013C3E51B648094D4
:10108B00885002051B751980800312281480B3EF5A
:10109B0014602214603D14605824037076EDD394D1
:1010AB00054002806EED248031338002C333D8FCBF
:1010BB0055ACFC8062EDD394075006EDC3940350FE
:1010CB00028050ED248831338002C333D8FC55ADF8
:1010DB00FC8044EDD394065006EDC394015002807E
:1010EB0032ED249031338002C333D8FC55AEFC80F3
:1010FB0026EDD394064002801AED2498FBE434F0DD
:10110B00FAAF05A8077401088002C333D8FC55AFAA
:10111B00FC8004E4FEFF22EC7003FEFF228B828A2C
:10112B0083E05403FF7E0022FBE434F0FAA805743D
:10113B0001082275240C1219E2438704438702002D
:10114B000000000000122055EF6029122018122811
:10115B0014114D7F017E0031B9121ADF30100AC213
:10116B0010B20B300B031227EA1220AE50E5121906
:10117B00CAC21522E52460041524802775240B129E
:10118B000F40122EF012364AC39454EE6480948BA7
:10119B0050061219DC1218B61218DF12348DE4F552
:1011AB001EF51FE51F451E6090227F0A7E008E2BC9
:1011BB008F2CE4F531E52C452B60740531AE2BAF4C
:1011CB002C12290FE47BA07A0FF9F812053D513B45
:1011DB00C007AF31AB07E4FAF9F8D0071205C851D5
:1011EB003BE47FFF7EFFFDFCAB30AA2FA92EA82D81
:1011FB00D312067E50C5C374FF9530F53074FF953E
:10120B002FF52FE4952EF52EE4952DF52D12365353
:10121B00780812068F8F8CE530FF8F8AC20E4388B9
:10122B0010E58820E503300EF85388CFD531DE2248
:10123B008F308E2F8D2E8C2D228E2A8F2B8D2C90D6
:10124B00F692E030E708E4FFFEFD7C40800291114E
:10125B00513B9100C004C005C006C007E4FBFA79FE
:10126B0080784512365312024FD003D002D001D0F2
:10127B00001201468F348E338D328C31E52C24F8DD
:10128B00605D24FB601F24EE6002612E9100122E24
:10129B00927F9A7E997D997C4512024F8F168E15FF
:1012AB008D148C13227B2D7AA67933783EAF34AE16
:1012BB0033AD32AC3112024F8F128E118D108C0F59
:1012CB002002028011E4FBFAF97840AF12AE11ADA7
:1012DB0010AC0F12024F8F0E8E0D8D0C8C0B2291BA
:1012EB00089111120051C004C005C006C007E4FFED
:1012FB00FE7DA57C439108120146D003D002D0019C
:10130B00D00012024F513BE4FBFA797A7844120178
:10131B0046513B1203A37B007A007917122F838E61
:10132B00098F0A22E508B4030C201504D21480029D
:10133B00C214E4F508E50814602914606414700203
:10134B0061E82403600261E5D20D911AE4F529E509
:10135B002990000393FF71F4EFF00529E529B403FD
:10136B00EE8072E4F52971F4E0FFF4600BEFD39497
:10137B0016400CEF941F50070529E529B403E7E548
:10138B0029C39403501671F4E0F528B40D04C20D73
:10139B00911AAF2912283575080280417508038010
:1013AB003C900066E0245E71F8E0F5287B007A0043
:1013BB00792612288CEF6025AD28AF27AE26514435
:1013CB00E4F52971F4E0B5280571F474FFF00529F3
:1013DB00E529B403EE7508018003E4F50830150820
:1013EB00E50864036002612F22745E2529F582E40F
:1013FB003400F58322AC2AAD2BEC02036AAB34AA82
:10140B0033A932A83122AF16AE15AD14AC1322534B
:10141B00DE7F007F00200D027FA090F692EFF000A0
:10142B0043DE802275250A122F08E490004DF0123E
:10143B002EF012364A1232B1D525F4300C1F900023
:10144B00587412F03002167F0491697FC87E003108
:10145B00B97F04916975253031B5D525FB22EF2471
:10146B00FE600E24FE60102403701AC2A6D2A48064
:10147B000AD2A6C2A48004D2A6D2A47F147E0031C5
:10148B00B9C2A6C2A422122704EF7002A14124FE06
:10149B00602A14602A14602A14606024046002A17C
:1014AB0046F1026002A146D390005AE09422F1214A
:1014BB00948B40047F01A147754408220227130235
:1014CB003077F102FF6407701E20016FEF64077025
:1014DB006A90002DE0120F2A701E1200309000202F
:1014EB00120F326056801112365CF121948B50042E
:1014FB00754407227F07B147021FCF20043DF1023D
:10150B007039301636200033D2001233F6600640A5
:10151B0004D2028007D3300201C392022002047F5F
:10152B0002800C7F0191697F1E7E0031B97F019192
:10153B0069C20C021DC8300002C200228F2CF102BE
:10154B00652C6027E4F52DE52D12250BB52C15E543
:10155B002D75F00CA4249EF9740935F07541FFF537
:10156B0042894322052DE52DB409DC228F25E4F5B4
:10157B0028F102F526F52724FA7002C165147002D2
:10158B00C15E24076002C1E4E525B4050F20030CFE
:10159B00754408D203C20C121DC8C1E41235824037
:1015AB002FE525702612219D5002801F122704EF74
:1015BB007002C1E424FD6008047010122713C1E40B
:1015CB00E5176005123077C1E4800075440AC1E469
:1015DB009191E525B4080D20040AD204754409C283
:1015EB000C121DC812219D501720130912365CF1E5
:1015FB0021948B50051233CC80047F07B147D20165
:10160B00E525B4030EF10B9840067F08B147800324
:10161B00754407E52564077023D390005AE094B80E
:10162B00F121948B40163005028001D392057F0285
:10163B003005027F019169C20C121DC8E5256401BA
:10164B006002C1E4201307900003E0FFC1E21233F4
:10165B00CCC1E41221B98F28807FE525B40309F1B1
:10166B000B9840757F08B147E5256402701A90000E
:10167B0016E06014900014E07002A3E0700A1221CF
:10168B00AD1223EAA3E014F090001FE030E71190B5
:10169B000019E0FFB14790001FE0547FF04440F089
:1016AB0090001FE0FF30E53154DFF0900019E0B4FB
:1016BB00071CD2179000341206EE411B33339000F7
:1016CB00251206EE428C0000D2017F0780099000A4
:1016DB001FE04440F07F05B147F102B52604AF256A
:1016EB00F12812218FE52860037F0122F102652783
:1016FB007F0060027F0122AB41AA42A9430204464C
:10170B007F08F1DAEF245EFFEE3401FED390005A2E
:10171B00E09FEE6480F8900059E06480228F29F1FD
:10172B0002FFB40604C20B800AEFB40804C20B809C
:10173B0002D20B300B4CE529640270467F06122750
:10174B00E0F1169840051223908037D390005AE0B1
:10175B009422F121948B4023752A05E52A123062DD
:10176B00C3F11898400AE52A12250BFFB1478012E6
:10177B00152AE52AD3940150E28007F10270031277
:10178B0033CCF102600A9191E529B40103122F2A9F
:10179B0090001FE0FF30E706547FF012261B9000ED
:1017AB001FE030E51154DFF012261490000B1204E9
:1017BB005FFF6002B14712261490000912045F60AC
:1017CB000D5402FF90000812045FFD12265922E40B
:1017DB00FEEE12250BB50704EE0230620EBE09F1C8
:1017EB00E4FEFF22EBD394035055EF146015146005
:1017FB002314603124037047EDD394055041ED243D
:10180B0080802BEDD394075036EDC394034030ED1D
:10181B002488801AEDD394065025EDC39401401F04
:10182B00ED24908009EDD394065014ED2498F528FF
:10183B00E434F0F527EB5403852882852783F022C7
:10184B00EB64026065EB64036060EB6419605BEB57
:10185B00D3941C5055EF146015146023146031247D
:10186B00037047EDD394055041ED2400802BEDD34D
:10187B0094075036EDC394034030ED2410801AEDDD
:10188B00D394065025EDC39401401FED242080090D
:10189B00EDD394065014ED2430F529E434F0F528FB
:1018AB00EB541F852982852883F0225147C2A6C29B
:1018BB00A4FB7D067F02114B7D04114B7A00792529
:1018CB007D40120C537B007D107F02120C53E451B0
:1018DB003EF54422E4F5DE90F692F071B3E4FB3171
:1018EB000BE4F526F5277A0079257D041F120C539E
:1018FB007B007D027F03120C53C2B1C2A2C28022B5
:10190B007D027F02114B1D0F114B7525032275258F
:10191B0003752601752701C2B0C2857B007A007959
:10192B00257D017F03120C537B007D20E4FF120CFD
:10193B005390F120E4F0A37411F090F1237401F0B3
:10194B0090F125F090F12A74FFF090F12EF090F1C8
:10195B0022E4F090F1277411F0A3F090F160E4F021
:10196B0090F165F090F1647411F090F131741FF007
:10197B0090F130743FF090F1397409F090F13874B4
:10198B005FF090F141E4F090F149F090F140F0906C
:10199B00F148F09000731206EE00000000717BC25C
:1019AB0009C20790F166F090F126741DF071917BDE
:1019BB00167D05E4FF114B7B12E4FD7F03014B12F7
:1019CB000F40311911B6120F8B120027C20C1214D3
:1019DB002FE4F5BDF5BC2271D8E4F5C853A8DF514F
:1019EB001911DF5151C2A6C2A4E4F544513EC39074
:1019FB00005AE09454121721948B401130050E7548
:101A0B002501514A51B371737F02120C5322E4FB2F
:101A1B007D05FF114BE4FD7F03114B90F1287411F1
:101A2B00F090F121E4F090F126F090F125F090F197
:101A3B0023F02290007BF090007AF022752503E4CE
:101A4B00F52675270122C284C282716B1206EE0045
:101A5B000000009000341206EE00000000900025FC
:101A6B001206EE00000000E4F54522752401E4F5B2
:101A7B0025F526FB7D037F02114B7A0079247D0827
:101A8B00120C537D087F02120FE17B027D031217AC
:101A9B00EF43B90451BA90007C74FFF0E4F518F5EC
:101AAB0019F51BF51CF51D2275BCFF75BDBF227505
:101ABB001E00751F282271A0EF600251BAD3E51FDB
:101ACB009400E51E94004009E51F151F7002151EBA
:101ADB002202113E7D087F02120FFF403990007CDD
:101AEB00E025E0F030A303E004F090007CE0FFF48D
:101AFB006003EF702151BAE4F5B6BFFF03C3800159
:101B0B00D3921A7B01BFFF027B027D037F02121768
:101B1B00EF7D08120FE1301A08E51930E70375194C
:101B2B0080301A25E518B48520D3E51B648094809A
:101B3B00400BAF1BEF3395E0FE71838009E4F51B7F
:101B4B00751D01751A01E4F518201A13E519B484F3
:101B5B000EE4F519E51A7004751C0122E4F51A223E
:101B6B00C293C21790002922FB7A0079257D10229F
:101B7B00E4900071F0A3F022E4F519F51CF51BF5C8
:101B8B001AEF04F51D2290F1297411F090F129E060
:101B9B00541170F82290004DE060037F0122121760
:101BAB00027F0060027F01227F0390005E74FFF0D2
:101BBB00A3DFFC9000611206EE00000000E4900031
:101BCB0065F0A3F0A3F0F508C214D21522439A0ACC
:101BDB0043A11043A22043A3045380F55390EF532A
:101BEB00A0DF53B0FB90F00AE054F5F0A3E054F5FE
:101BFB00F090F01AE054EFF0A3E054EFF090F02ADD
:101C0B00E054DFF0A3E054DFF090F03AE054FBF047
:101C1B00A3E054FBF022C2AF007596AA75965575DA
:101C2B00978080FE227529FFC20DD197754403154D
:101C3B0029E52960071211B5914980F380D8123537
:101C4B0092502490007AE0FF648094904004E4F07A
:101C5B008036EF640C6004EFB4100790007AE00458
:101C6B00801E90007A801012349C501790007AE0FE
:101C7B00C36480948C5005E004F0800CE490007AEF
:101C8B00F0A180E490007AF0E544B40B004002A18F
:101C9B0084901CA3F8282873021CC4021CCE021CBF
:101CAB00D3021CF2021CD8021CF2021CDA021D2DFC
:101CBB00021D2D021D2D021D2DC2A6C2A4E49000F3
:101CCB007BF022C2A6D2A422D2A6C2A4228013B138
:101CDB00857F8060027F0090007BEFF0B1897002FE
:101CEB00A180D2A6D2A422C2A490007BE0FF547F95
:101CFB00FEE5447D00B403027D03C3EDB191500CAE
:101D0B000EEF548090007BF04EF0800DB1857F80FC
:101D1B0060027F0090007BEFF0B185C36001D3922E
:101D2B00A62290007BE0547FF0E54464086005E553
:101D3B0044B409047F0680027F0A90007BE0FED347
:101D4B00EFB1914004E4F5442290007BE0FF04F0F6
:101D5B00EF75F002120424AFF0EF6019E544B40AFA
:101D6B0005D2A4D2A622E544B40905D2A4C2A62268
:101D7B00C2A4D2A622C2A6C2A42290007BE05480A9
:101D8B00FF3395E04F226480F8EE648098222003A5
:101D9B002BA204920BF196300B02D204C20CB1C8E9
:101DAB00C20DD1977529647544061211B59149126C
:101DBB00004750021529E52970F0912122E4FFD24A
:101DCB000DD1973003010F30050343070230020397
:101DDB0043070430040343070890004AEFF09000D8
:101DEB001B1200339000421206E2900020120033C7
:101DFB009000461206E27B017A0079427D09F1E7F9
:101E0B0090004BEFF0200C0E900079E0FF90004B10
:101E1B00E0B507028074200C0FC3900078E0946546
:101E2B00900077E09400401B7B007A00792B7D00BB
:101E3B007C027F1DF133E4FC7F1DF133E4900077CE
:101E4B00F0A3F0E4F52B900077E0FEA3E0FF7C001D
:101E5B007D0A12049EEF252BFDEC3EFC7442252BD4
:101E6B00F9E43400FA7B017F19F133052BE52BC321
:101E7B00940A40D2900078E004F07006900077E06E
:101E8B0004F090004BE0900079F0C20D300D07C2CA
:101E9B00AF0075FBAA2275FB5500D2AF227B017AEE
:101EAB000079381234F1900077EEF0A3EFF07B015C
:101EBB007A0079387D09F1E7900041E06F705B9013
:101ECB000040E0C330E301D39204900040E0C33004
:101EDB00E201D39202900040E0C330E101D39205BE
:101EEB00900040E0C330E001D39203900038120021
:101EFB0033F1C290003C120033F1B3900041E090FB
:101F0B000079F0900078E004F07006900077E00420
:101F1B00F0120047400EB199800AF196D203D20C11
:101F2B00B1C89130C20DC1978F2FE52FB41905128F
:101F3B000446F5FEEDF5FCECFFEFF5FD00852FFFFC
:101F4B00000000000000E5FF20E0FBE52FB41105C9
:101F5B00E5FE12048C22E4F52530040330020AD28C
:101F6B0004C202C20CB1C891211233F6601C401A94
:101F7B00F1C8E5257F0160027F008F25E5257F01F4
:101F8B0060027F028F44914980E622120030F1B348
:101F9B00F1B9C203D205D204C20222C2AF007596B8
:101FAB00AA75965553977F229000200206E2900067
:101FBB002DE0FCE412036F90001B0206E27F0F7E04
:101FCB00000211B9D201120030F1B3F1DE90001B07
:101FDB000206E290002DE0FCE402036F8B2F8A30A7
:101FEB0089317FFFAB2F0531E531AA307002053007
:101FFB0014F912044662077E08EF30E70725E06408
:10200B0007FF8004EF25E0FFDEEFDDD8225388CFFA
:10201B005389F0438901E4F58CF58AF5CE75CB0B2A
:10202B0075CADB75CD5D75CC66F5C975CF8075A8A6
:10203B00A2C210C20F75C8912275C900B20F300F22
:10204B0002D210325388EFD20E3220A3037F01222B
:10205B00E5B65408FF22C0E0C0F0C083C082C08543
:10206B00C084C086758600C0D075D000C000C0018A
:10207B00C002C003C004C005C006C00712105A75C9
:10208B00B600D007D006D005D004D003D002D001C3
:10209B00D000D0D0D086D084D085D082D083D0F061
:1020AB00D0E032E51D6002D322E51CC36001D322D0
:1020BB001228278F24900003E06005D39405400677
:1020CB009000037401F0900019E0FF6003B4060662
:1020DB009000197401F030034390004DE06006311D
:1020EB008F319D8035E524B40520754409C203D397
:1020FB0090005AE09422121721948B400690001AFC
:10210B00740CF0C20C121DC88010F104BF0204F154
:10211B0013800711AE5003754407806890001AE0D6
:10212B006011D2171200309000341206E290002D8D
:10213B00E08046AF24121577EF6002D21712170218
:10214B0024FA601714702B90002012003390003487
:10215B001206E290001B1200338023900010120035
:10216B00339000251206E290000C120033900034DD
:10217B00800F31B39000349114FCE412036F900084
:10218B00250206E2E51C6009E51B6005E4F51CF57C
:10219B001B22E51D64016002C322E4F51DD322124C
:1021AB001547AB41AA42A9439000040206A2C20BF9
:1021BB0030010E716A4007F104EF7002C2017F001B
:1021CB0022C390005AE094B2121721948C506520D0
:1021DB00162E7185120F32602740259000201200B9
:1021EB00337163783D120051121FB37185120F3298
:1021FB00500A9000201206EE41080000D20B8034EA
:10220B00301631E4FFFE7D207C42120F2F602540FB
:10221B002390001B120033717A121FC2E4FFFE7D64
:10222B00207C42120F2F500A90001B1206EE422008
:10223B000000D20B716A507D900001E07002A3E0A8
:10224B00600241D07E003016047F0580027F37711B
:10225B007120162F31AD900020120F3250259000B7
:10226B00201200337163783D120055121FB331AD4C
:10227B00900020120F326007400531AD121FB3D210
:10228B000B61522016026152120F1E4002615290D6
:10229B00001B1200337B0A7AD77923783C12005546
:1022AB00121FC2120F1E60094007D1149117121F83
:1022BB00BDD20B6152D1504002614B900001E070D6
:1022CB0002A3E06010900002E024FFF0900001E018
:1022DB0034FFF080727E003016047F0580027F375A
:1022EB007171201632120030900020120F326027CD
:1022FB0040259000201200337163783D12005190FD
:10230B00002012002E900020120F325006120030C7
:10231B00121FB3D20B803030162D90002DE0120F10
:10232B002A6024402290001B120033717A121FC2C4
:10233B0090002DE0120F2A5003121FB9D20B800709
:10234B00E4900001F0A3F0300B069000007420F035
:10235B007F00300B027F01227BCD7ACC794C22E5BA
:10236B001AC36001D322900001EEF0A3EFF0227BA1
:10237B000A7AD77923783C020051E4FFFE7D087C72
:10238B004190002022121702FF9000196003F08089
:10239B00037401F0EF6407702E7186120F32600A1E
:1023AB0040089000201200338002F1D790000812F1
:1023BB0006E2910C120F2F600A400890001B1200CE
:1023CB00338012910C800E7F0531AA900008911476
:1023DB00FCE412036F9000041206E27F0631AA9010
:1023EB00000C1206E290000312045FFCE412036F70
:1023FB009000101206E29000147403F0A37420F006
:10240B0022E4FFFE7D487C42221206E2900003028A
:10241B00045F7541FF75420975439E90000374017B
:10242B00F0C203C200E490001AF0900001F0A37414
:10243B000AF0C201E4900000F09000167406F0A3BD
:10244B009104E4F524B109FBB4011391EE90002D36
:10245B00F091DDF5831206D290002E1206E2EBB45A
:10246B00061391DDF5831206D290000C91EBFCE480
:10247B0012036FD10EB109B4051791DDF583120666
:10248B00D290000891EBFCE412036F90000412064B
:10249B00E20524E524640970AC121EA890002DE01F
:1024AB00FFE48F28D149AF28AE27AD26AC257B5F43
:1024BB007A09F9F812053DB100E47B64FAF9F812D8
:1024CB0005C8B100E527547FFE900032EEF0A3EF74
:1024DB00F022E52475F00CA424A2F582E434092241
:1024EB001206E2E52475F00CA424A1F582E434096C
:1024FB00F583E493228F288E278D268C2522E524C5
:10250B0075F00CA4249EF582E43409F583E4932240
:10251B001217026406602A900016E064067002C16E
:10252B000DA3E07002A3E0600C900018E024FFF014
:10253B0090001780209000179104900016E004F093
:10254B0022900014E07002A3E0600F900015E024CD
:10255B00FFF0900014E034FFF02220165290000898
:10256B00120033A3120F326012401090000C1200B5
:10257B0033717A90000C1206E28031900019E0B4AE
:10258B000725900008120033A31206E290000C12EC
:10259B000033900020120F32500990000C120033C0
:1025AB00121FB37F0780027F05121547D2172290A7
:1025BB000004120033900010120F32601740159078
:1025CB0000101200337B0A7AD77923783D12005121
:1025DB00D10E802C900019E0B4072090000412005B
:1025EB0033D10E900010120033120F2F50099000B0
:1025FB0010120033121FC27F0780027F051215478E
:10260B00D217229000100206E2AB41AA42A9432244
:10261B00D11490000A12045FFF6021F1E0FEC31297
:10262B00171898500B121702640160107F01800974
:10263B00D11490000A12045FFF12154722E4F5270C
:10264B00F526F52522E51DB40202D322C3228D2BDC
:10265B007E02D1505004D20C8004716A920C20136C
:10266B000F7E0A301203300C07E490007DF08002DD
:10267B00F1CE90007DE0D39E4018EF6002800630D3
:10268B000C06301303022F2AE490007DF0AF2B12BF
:10269B00154722121702B407028008716A400BD14A
:1026AB00504007E490001FF080467F063016027FF3
:1026BB000EAB0790001FE0FE541FFD7012EE20E6DC
:1026CB000ED1507C8050027C20EE4C90001FF0907D
:1026DB00001FE054E0F0C3EB6480F8ED6480985089
:1026EB0007E020E6030D8002E4FD90001FE04DF0B3
:1026FB0090001AE0600214F022E51D14FFD36480F1
:10270B0094804001227F002290004DE0702604F05F
:10271B00F1B9500DE544600690004C7408F0E4F5F7
:10272B0044C211F140AB12AA11A910A80F122F022B
:10273B00F1C7EFF022E4FFFE7DC87C4222900059E6
:10274B00E0FEA3E0FFD39404EE6480948B40323020
:10275B001311D3EF94B8EE6480948B4002C213C272
:10276B00128022D1149000011204E6FFD390005A7C
:10277B00E09FE5F012171E9840028001D392128061
:10278B0004C212D2131232B1E544D39406501E90F8
:10279B00004DE060030230E0F1B9500512170270F2
:1027AB0006900058E0600302326AE4F54422E545E6
:1027BB0024FD24FD50028002D322C32290005BEE45
:1027CB00F0A32290007DE0700204F0227F9A7E99A4
:1027DB007D097C41221217DAEF2432FFE43E22E41A
:1027EB00FE74182EF8E630E71B547FFDEE7F047065
:1027FB00027F05EDC39F50010DE65480F674182E31
:10280B00F8E64DF60EBE02D922D21AE51930E703CF
:10281B00751980E51820E70375188022E51D7004F3
:10282B00E51C70037F0022AF1B22AB07EBD3940296
:10283B00504E745E2B1213F8E0FAF46043EAD39413
:10284B00164005EA941F4038900067E07032900004
:10285B00611206EE00000000E4900065F0A3EBF0BF
:10286B00A37401F0EA30E40543DF80800353DF7F7C
:10287B0053DEF0EA540F42DE7AA000DAFE43DF02A9
:10288B00228B2A8A2B892CE5DF30E1037F002290F3
:10289B000065E004F0900061D1D9AFDDEFFEADDC57
:1028AB00ED310EEB2FFFEA3EFEE93DFDE83CFC90DF
:1028BB0000611206E2900066E090000693FF900024
:1028CB0065E0C39F500643DF027F00229000611238
:1028DB000033C007A3E0FBE4FAF9F8D00712083283
:1028EB009000611206E2900061A3A3E0FFA3E0ABAE
:1028FB002AAA2BA92CCF8FF012051EE4900067F0AB
:10290B007F0122FFEE3395E0FDFC22900057E0C3E0
:10291B0094285043D1F39126900057E004F0900097
:10292B0053D1792527FFEE3526FEED3525FDEC3508
:10293B0024B13590004F31F2C31206685005900058
:10294B004FD15690005131F2D3120668500221E15B
:10295B00900051D156807F900053120033C004C0B9
:10296B0005C006C007900051E0FEA3E0FBAA06EAF3
:10297B003395E0F9F890004FE0FEA3E0310EEF2B1A
:10298B00FBEE3AFAED39F9EC38F8D007D006D00562
:10299B00D004C3EF9BFFEE9AFEED99FDEC98B13599
:1029AB00900053120033C006C007A3E024FEFFE4DF
:1029BB0034FFAB07FA3395E0F9F8D007D0061208CD
:1029CB0032B136900053A3A3E0FFA3E0900059CFA0
:1029DB00F0A3EFF0F10890004CE0600214F09000CF
:1029EB0058E0600214F022E0FEA3E0FFEE3395E026
:1029FB00FDFCAB27AA26A925A82422E517700261A6
:102A0B00572014026157C214D3E50A9431B1254003
:102A1B0004D219800E30190BC3E50A942FB125503F
:102A2B0002C2191217026003201909D15E752441E5
:102A3B00B153612C301676D18412036A8F2BB107F8
:102A4B00B1204018E4FFFEFDFCB115600F400DB145
:102A5B0043AC28D14E1201468F2BB107E4FFFEFD8C
:102A6B007CC0B1155005D1C87528C07F0A7ED77DB3
:102A7B00237C3CB13CA828D18F9000691200331203
:102A8B0000518F2BB107B10E60044002B152E4FF2D
:102A9B00FE7D20B113500BE4F52BF52A752920751B
:102AAB00284290006DD179F52791288074D184123A
:102ABB00036A9126B1204012E4FFFE31FB1202ECB7
:102ACB0060084006B12CD14E9123E4FFFEFD7CC083
:102ADB0031FD1202EC50061226487524C07F0A7E87
:102AEB00D77DA37C3B31FDD18F90006D120033124B
:102AFB0000519126E4FFFE7D407C4131FD1202EC3A
:102B0B0060074005D15E752441E4FFFEFD7C413139
:102B1B00FD1202EC50061226487524419000699173
:102B2B00FB900069120033B115700D90006D12000F
:102B3B003331FD1202EC6014B143AC2890006912E2
:102B4B0006E2B12C90006D1206E2D217222016027B
:102B5B00800D122740900025120F32600F400DE4BC
:102B6B00F527F5267525C87524428009900025D1D7
:102B7B0079F5279128122740900069120F32600CCB
:102B8B00400A9000691206EE42C80000E4FFFEFD09
:102B9B00FC900069120F32500A9000691206EE0089
:102BAB0000000031FDC000C001C002C003B14A905B
:102BBB00006912003312024FD003D002D001D000B3
:102BCB009123E4FFFE7DBE7C4231FD1202EC600DD1
:102BDB00400BE4F527F5267525BE752442121FDE42
:102BEB0031FD1202EC5005121FDE9126B12C7B0039
:102BFB007AF0791578459123B14A12024F91267FCD
:102C0B00007EF07D157C4531FD1202EC5005B12C98
:102C1B000203A37E097F5F221201468F278E268D2A
:102C2B00258C242291267F147EAE7D3F7C4131FD85
:102C3B001202EC6010400E752B14752AAE75293FED
:102C4B0075284180297F337E337DA37C4031FD1273
:102C5B0002EC500E752B33752A337529A37528405A
:102C6B00800C85272B85262A8525298524289000ED
:102C7B006D120033B115501190006D91FB120030A5
:102C8B00B115500590002E91FBE4FFFE7D807CBFBB
:102C9B00B13CA8281200557B767AE079DC783E129D
:102CAB0001468F2BB107B13CA8287F547E527D97EC
:102CBB007C401200518F2BB107AB16AA15A914A893
:102CCB001312024F8F2BB107B14A1201468F2BB152
:102CDB0007E4FFFEFDFCB1155004D1C8F528B10E79
:102CEB0060044002B152B143AC289000730206E27B
:102CFB00E0FCA3E0FDA3E0FEA3E0F52B8E2A8D29DB
:102D0B008C2822E4FFFE7DC87C42AB2BAA2AA92982
:102D1B00A8280202ECD3E50A943FE509648094806D
:102D2B0022AF27AE26AD25AC2422FC900053020621
:102D3B00E2AB2BAA2AA92922AF2BAE2AAD2922E47A
:102D4B00FBFA79C8784222E4F52BF52A7529C87568
:102D5B00284222200702C14D30092D90F129E05461
:102D6B00116002C14D90F164E030060554EFF08024
:102D7B00034410F090F164E030080554FEF080033A
:102D8B004401F0C207C20922122740900073120FB0
:102D9B0032600C400A9000731206EE42C80000D15C
:102DAB0070120F32500A9000731206EE00000000F2
:102DBB00D167E4FCFD7B5F7A09F9F8C31206685012
:102DCB000A9000717409F0A3745FF0D170120F3286
:102DDB0060054003D38001C39208900071E070023C
:102DEB00A3E0C36001D39206E4FFFE7DFA7C45901D
:102DFB000073D1D9120146E4FBFA798078BF120037
:102E0B00559126B14A12024F91261203A3AD07AC7E
:102E1B0006ECFFEF90F141F0ED90F140F0D167C37C
:102E2B00745F9FFD74099EFC4D7002C206ECFFEFB0
:102E3B0090F149F0ED90F148F0D20990F129E0447E
:102E4B0011F022E4FBFA7920784022E526F0A3E585
:102E5B0027F022E4F527F52675254022900071E036
:102E6B00FEA3E0FF22E4FFFEFDFC90007322E0FCDA
:102E7B00A3E0FDA3E0FEA3E022E50A24CFFDE509D4
:102E8B0034FFFC22120146A804A905AA06AB0722AF
:102E9B00E5176028D3E50A9444B1254004D2188085
:102EAB000E30180BC3E50A9431B1255002C218300D
:102EBB00180A1217026005F12A75440A22E4F52B51
:102ECB00F52AF52922912F9000247405F022E0F8C1
:102EDB00A3E0F9A3E0FAA3E0FB227158900071EE96
:102EEB00F0A3EFF022120027E4FFFE7D7A7C44ABC7
:102EFB000EAA0DA90CA80B1201460203A390004FBA
:102F0B00747FF0A374FEF0A37480F0A37402F0E45A
:102F1B00900057F09000531206EE000000002212B2
:102F2B001702FF6023D394055005900003EFF09038
:102F3B0000341206EE000000009000251206EE0091
:102F4B00000000E4FF12154722E51770259000687A
:102F5B00E0B40A111217026005F12A7544079000BC
:102F6B0068740BF022900068E0C3940A5009E004E7
:102F7B00F022E4900068F0228B358A3689378F3B3C
:102F8B008E3A8D398C387F047E707D0D7C00123526
:102F9B00EED312067E40081230587EFF7FF122E4FA
:102FAB007FAC7E221235ECC312067E5007123058CE
:102FBB00FE7F5622AB35AA36A937740112048CE476
:102FCB007FBD7EFF1235ECD312067E402FE4F53C1D
:102FDB00E53C25E025E02476F582E43408F5831200
:102FEB0006D21235EEC312067E400AE53C24F1FFF1
:102FFB00E434FFFE22053CE53CB430D4E4F53CE57B
:10300B003C25E02436F582E43409116DE48F408EC3
:10301B003FF53EF53DE540F540E53FF53FE4F53E38
:10302B00F53DAF3BAE3AAD39AC38AB40AA3FA93E0C
:10303B00A83DD312067E5009E53C2423FFE433FE62
:10304B0022053CE53CB434B71158FEFF22AB35AA40
:10305B0036A937E402048C75F00CA4249FF582E4A6
:10306B003409F583E493FE740193FF22E51760386E
:10307B0090004DE0703204F01227B9500DE544601A
:10308B000690004C7408F0E4F544D211E50AAE0941
:10309B0030E707FF7CFF7DF68006AF0A7C007D0AD8
:1030AB0012049E1227C7EFF0228F248D2590004C1F
:1030BB00E030E708121469E490004CF090004CE00B
:1030CB00FF7E0030E102AE248E44EF7007F54451D1
:1030DB0043E525F02290004DE014B40B0040024173
:1030EB00249030FA75F003A4C58325F0C5837302D1
:1030FB00311B02312B02316E0231740231850231E8
:10310B008B02319C0231F10232090231A20231B33E
:10311B0090004CE060024124740FF0A37402F02283
:10312B00518B8F4490004CE06002412490005BE097
:10313B00FEA3E0FFD394E7EE64809483401F512DF0
:10314B00D3ED9404EC64809480400BE0240AF0905F
:10315B00005BE03400F051251227C7EFF051347DAE
:10316B0003802C7D047F02802C513490005BECF0AB
:10317B00FEA3EDF0512C7D0580157D067F04801597
:10318B003011045143F0225125AE04AF057D0741A8
:10319B004B7D087F0101B490004CE0707CA3740B55
:1031AB00F090004C741FF02290004CE0FFC3941978
:1031BB005028EF54F86023C3E50A942F122D2550A5
:1031CB00057544018017C3E50A9438122D25500567
:1031DB0075440480087544028003E4F54490004C68
:1031EB00E07036A3801490004CE0702D1217027023
:1031FB00069000587412F090004D7409F022C21121
:10320B00E490005BF0A3F0900058E0600280501255
:10321B002704EF700490004DF02290005BE0FEA3BA
:10322B00E0FF7C007D0A0204B090005BE0FEA3E0AF
:10323B00FF7C007D640204B090004C740AF0A32262
:10324B0090004CE07018EF4E70057480F0800AEF20
:10325B0025E025E01490004CF090004DEDF022900D
:10326B00004EE014600E14600F1460102403700FF6
:10327B0075440122754404227544022275440322CD
:10328B0090004CE0FFD394094019EF24F8C31314BA
:10329B00FF3395E0FE741D2FF58274003EF583E439
:1032AB0093FF227F0022E4FFFE7DA07C419000254E
:1032BB00120F32500A90003A1206EE00000000E4A2
:1032CB00FFFE7DA07CC1900025122ED912005590D7
:1032DB00003A1206E2E4FBFA79A0784290003A1227
:1032EB00003312024FE4FBFA79967843122E8F7F4C
:1032FB00007E407D677C4512005190003A1206E239
:10330B0090003A1200331203A3900038EEF0A3EFB3
:10331B00F090004EE014602014604D14607A24038A
:10332B00600261BC71BDE0FFC312171898400261C7
:10333B00BC90004E7401F02271BDE0FF24C8FDE487
:10334B003EFC900059E0FAA3E0FBD39DEC71C44026
:10335B0005E490004EF0EF2438FFEE34FFFEC3EB94
:10336B009FEE71C4504B804371BDE0FF900059E05C
:10337B00FCA3E0FDD39FEE6480F8EC6480984006DC
:10338B0090004E7401F0C3ED9486EC6480948B50E6
:10339B002090004E7403F022900039E02438FF9007
:1033AB000038E034FF12171698400690004E740256
:1033BB00F022900038E0FEA3226480F8EA64809843
:1033CB0022900058E07003740EF0227524C812117D
:1033DB00B5120027E4FFFE7D2071FC6002500BD577
:1033EB0024EC754402121C4980FB227F337E337D13
:1033FB008B7C40AB12AA11A910A80F0202ECE4F5CA
:10340B0024120027E517702CE52414600C14600EB1
:10341B002402700F754402800D75440480087544B6
:10342B00018003E4F5447F647E001211B9121C493C
:10343B00052480D4752401200405121F61802220ED
:10344B001605300202801730020B1227D771FE606F
:10345B00044002800920020971F660054003E4F57F
:10346B0024E524701C121FC8E5247F0160027F0035
:10347B008F24E5247F0160027F028F44121C498058
:10348B00E422900016E0C3648094865003E004F0BD
:10349B002290004DE06002C322121702B40803D33E
:1034AB008001C322121702B4072C900000E0FFD357
:1034BB00648094814004E014F022EFB40118E4908E
:1034CB000000F0C390005AE094B8121721948B407F
:1034DB0005C20C121DC82290007DE06008C3940B3E
:1034EB005003E004F0228B298A2A892BE4F52DF571
:1034FB002ED20D121E97E4F52CB15640FCAB29AA27
:10350B002AA92B7D09121FE7AB29AA2AA92B900008
:10351B000912045FB50713052EE52E7002052DC3A6
:10352B009465E52D6480948040CCD3E52E9400E522
:10353B002D648094804008E52E152E7002152DE425
:10354B00F52CB15640FCAE2DAF2E22AE2DAF2E7CFE
:10355B00007D0A12049EEF252CFDEC3EFCAB297E70
:10356B0000E52B252CF9EE352AFA7F11121F3305B6
:10357B002CE52CC3940A22900068E0D394094001F7
:10358B0022D3301801C32290004DE06002C32212F7
:10359B0017027002C322E5177002C322A21922E49C
:1035AB00900068F0C218C219A31206EE42C80000C0
:1035BB0090006D1206EE4140000022EDF4F582758D
:1035CB00830085832985822A85832B85822CED2296
:1035DB007BCD7ACC79CC783D120055900029020630
:1035EB00E2FDFCAB3BAA3AA939A83822E4FFFEFD69
:1035FB00FC90003422F4F58275830085832D85823F
:10360B002E85832F22A3E0FBE5304BFD22A3E0FBAD
:10361B00E52E4BFD22E0FBE52E5BFD22E0FBE52CCE
:10362B005BFD22E0FBE52C4BFD22E0FBE5325BFD75
:10363B0022A3E0FBE5324B22A3E0FBEF4BFD2290F4
:10364B000059EEF0A3EFF022AF30AE2FAD2EAC2D24
:09365B0022C390005AE094EA2217
:00000001FF
