:090000000207981F080D08060A0A
:10000B000222F6010402D1E290002EE0FCA3E0FDF7
:10001B00A3E0FEA3E0FF22020FFBE4F5BDF5BC223B
:10002B000222EB745E2529F582E43400F583E0228D
:0F003B00745E2529F582E422AC2AAD2BEC616AB4
:10004B000222FC02040FE86480F8E933E833601104
:10005B000460F0ED33EC337009E8FCE9FDEAFEEBEC
:10006B00FF220460DED3EB9FEA9EE99DE8C2E78C9A
:10007B00F0C2F795F0400CE8CCF8E9CDF9EACEFAEE
:10008B00EBCFFB1203DA85D0F05804700320D5B305
:10009B00E80470075002B2D502041992D5EC046043
:1000AB00F7E4CCC0E0C398F8603B94186008400DAF
:1000BB00D0E0FB0203F1E4FBFAC9FC8028E830E452
:1000CB0006E4C9FBE4CAFCE830E305E4C9CACBFC8F
:1000DB00E854076010F8C3E913F9EA13FAEB13FBC2
:1000EB00EC13FCD8F130F52FC3E49CFCEF9BFFEE37
:1000FB009AFEED99FDD0E0FBEF4E4D4C701222DBDA
:10010B0003020416EC2CFCEF33FFEE33FEED33FD54
:10011B00ED30E7EB0203F1EF2BFFEE3AFEED39FD8D
:10012B00D0E0FB50130BBB0003020419ED13FDEEE3
:10013B0013FEEF13FFEC13FC0203F1EC4D6011E81F
:10014B00497017ED33EC3304600DE4FCFFFEFD2228
:10015B00E933E8330470F802040F1203DA58046031
:10016B0009E4CC24815006285009020419284003C5
:10017B00020416C0E0EB4A7044B98006D0E0FB02E3
:10018B000405EF4E701CBD8008EBFFEAFEE9FD8015
:10019B00EBE98DF0A4FEE5F002022FE9CDF9EAFEC2
:1001AB00EBFFEF89F0A4FCE5F0CE89F0A42EFFE481
:1001BB0035F0CD89F0A42DFEE435F08067EF4E705D
:1001CB0005BD80D780C3EF8BF0A4ACF0EE8BF0A411
:1001DB002CFCE435F0F8EF8AF0A42CE5F038FCE4C5
:1001EB0033CB8DF0A42CFCE5F03BF8EE8AF0A42C7D
:1001FB00FCE5F038F8E433CF89F0A42CFCE5F038BB
:10020B00CF3400CE89F0A42FFFE5F03EFEE433C9D6
:10021B008DF0A42EFEE5F039CD8AF0A42FFFE5F08A
:10022B003EFEE43DFD33D0E0FB50070BBB000F025D
:10023B000419EC2CFCEF33FFEE33FEED33FD020320
:10024B00F1020419EC5D046005E859047003020423
:10025B000F1203DA580460F6EC4860F2EC7004FD00
:10026B00FEFF22C860DB2481C85009C3986002508E
:10027B00060204169850CAF582E9294B4A7005AB61
:10028B008202040575F0007C1A7880C3EF9BEE9A0E
:10029B00ED99400DC3EF9BFFEE9AFEED99FDE84201
:1002AB00F0DC23ACF0D0E0FFD0E0FED0E0FDAB8281
:1002BB0020E7101BEB60BAEC2CFCEF33FFEE33FEA8
:1002CB00ED33FD0203F1E803F830E705C0F075F0FC
:1002DB0000EF2FFFEE33FEED33FD40B830E7C28069
:1002EB00AA74F8CC6480CCC86480C8F58204604FD3
:1002FB00C3EB9FF5F0EA9E42F0E99D42F0E89C4586
:10030B00F0603C501DE5825FFFE582D313CB5BCBE6
:10031B00F42B5582FB50280ABA002409B900200897
:10032B00801DE5825BFBE582D313CF5FCFF4C31354
:10033B002F5582FF50090EBE00050DBD00010CC3E9
:10034B00EB9FF5F0EA9E42F0E99D42F0E89C45F008
:10035B006007CC4820E701B3EC2275F020800E75C6
:10036B00F010800575F0087D007E007F003392D57C
:10037B0030D50312065AEC334010EF33FFEE33FE49
:10038B00ED33FDEC33FCD5F0ED22E5F0247EA2D568
:10039B0013CC92E7CDCEFF22EDD2E7CD33EC3392E7
:1003AB00D524814006E4FFFEFDFC22FCE4CFCECD3C
:1003BB00CC24E0501174FF80EDC3CC13CCCD13CD06
:1003CB00CE13CECF13CF0470F030D5DE02065AE930
:1003DB00D2E7C933E833F892D5EDD2E7CD33EC331E
:1003EB00FC5002B2D522EC30E7100FBF000C0EBE52
:1003FB0000080DBD00040BEB6014A2D5EB13FCED54
:10040B0092E7FD2274FFFCFDFEFF22E480F8A2D5EB
:10041B0074FF13FC7D80E480EFC2D530F707B2D5B3
:10042B0063F0FF05F030E70CB2D5F4048463F0FF02
:10043B0005F080018430D502F40422BB01068982C9
:10044B008A83E0225002E722BBFE02E32289828AE2
:10045B0083E49322BB010CE58229F582E5833AF50F
:10046B0083E0225006E92582F8E622BBFE06E92549
:10047B0082F8E222E58229F582E5833AF583E4935B
:10048B0022BB010689828A83F0225002F722BBFE2F
:10049B0001F322EF8DF0A4A8F0CF8CF0A428CE8D21
:1004AB00F0A42EFE22C2D5EC30E709B2D5E4C39DF1
:1004BB00FDE49CFCEE30E715B2D5E4C39FFFE49E50
:1004CB00FE12071FC3E49DFDE49CFC800312071F73
:1004DB0030D507C3E49FFFE49EFE22BB0110E582EB
:1004EB0029F582E5833AF583E0F5F0A3E022500984
:1004FB00E92582F886F008E622BBFE0AE92582F898
:10050B00E2F5F008E222E5832AF583E993F5F0A3FF
:10051B00E99322BB010A89828A83F0E5F0A3F022DA
:10052B005006F709A7F01922BBFE06F3E5F009F315
:10053B001922E88FF0A4CC8BF0A42CFCE98EF0A44C
:10054B002CFC8AF0EDA42CFCEA8EF0A4CDA8F08B49
:10055B00F0A42DCC3825F0FDE98FF0A42CCD35F08F
:10056B00FCEB8EF0A4FEA9F0EB8FF0A4CFC5F02E20
:10057B00CD39FEE43CFCEAA42DCE35F0FDE43CFC89
:10058B002275F008758200EF2FFFEE33FECD33CDD1
:10059B00CC33CCC58233C5829BED9AEC99E582981E
:1005AB00400CF582EE9BFEED9AFDEC99FC0FD5F01D
:1005BB00D6E4CEFBE4CDFAE4CCF9A88222B800C194
:1005CB00B90059BA002DEC8BF084CFCECDFCE5F001
:1005DB00CBF97818EF2FFFEE33FEED33FDEC33FC48
:1005EB00EB33FB10D703994004EB99FB0FD8E5E4F1
:1005FB00F9FA227818EF2FFFEE33FEED33FDEC33D3
:10060B00FCC933C910D7059BE99A4007EC9BFCE961
:10061B009AF90FD8E0E4C9FAE4CCFB2275F010EF9D
:10062B002FFFEE33FEED33FDCC33CCC833C810D7E0
:10063B00079BEC9AE899400AED9BFDEC9AFCE89934
:10064B00F80FD5F0DAE4CDFBE4CCFAE4C8F922C319
:10065B00E49FFFE49EFEE49DFDE49CFC22EB9FF5F2
:10066B00F0EA9E42F0E99D42F0EC6480C864809809
:10067B0045F022EB9FF5F0EA9E42F0E99D42F0E84F
:10068B009C45F022E8600FECC313FCED13FDEE1359
:10069B00FEEF13FFD8F122BB010DE58229F582E5B0
:1006AB00833AF5830207805007E92582F802077425
:1006BB00BBFE07E92582F802078CE58229F582E566
:1006CB00833AF5830206D2E493FC740193FD740222
:1006DB0093FE740393FF22ECF0A3EDF0A3EEF0A3D3
:1006EB00EFF022A8828583F0D083D0821207051207
:1006FB000705120705120705E473E493A3C583C529
:10070B00F0C583C8C582C8F0A3C583C5F0C583C82F
:10071B00C582C822BC000BBE0029EF8DF084FFAD53
:10072B00F022E4CCF875F008EF2FFFEE33FEEC333C
:10073B00FCEE9DEC984005FCEE9DFE0FD5F0E9E438
:10074B00CEFD22EDF8F5F0EE8420D21CFEADF07557
:10075B00F008EF2FFFED33FD4007985006D5F0F270
:10076B0022C398FD0FD5F0EA22E6FC08E6FD08E669
:10077B00FE08E6FF22E0FCA3E0FDA3E0FEA3E0FF02
:10078B0022E2FC08E2FD08E2FE08E2FF2278FFE429
:10079B00F6D8FD9000007F007E04E4F0A3DFFCDEC2
:1007AB00FA7581450207ED020A2FE493A3F8E4934F
:1007BB00A34003F68001F208DFF48029E493A3F849
:1007CB005407240CC8C333C4540F4420C8834004BB
:1007DB00F456800146F6DFE4800B0102040810207A
:1007EB004080900876E47E019360BCA3FF543F30B9
:1007FB00E509541FFEE493A360010ECF54C025E01E
:10080B0060A840B8E493A3FAE493A3F8E493A3C8D5
:10081B00C582C8CAC583CAF0A3C8C582C8CAC58366
:10082B00CADFE9DEE780BEC2D5E830E70FB2D5E418
:10083B00C39BFBE49AFAE499F9E498F8EC30E717D8
:10084B00B2D51208681205C8E4C39BFBE49AFAE41C
:10085B0099F9E498F880031205C830D50DE4C39FCD
:10086B00FFE49EFEE49DFDE49CFC22410058004108
:10087B00005D00C1114100240041006800C118C196
:10088B001944006942C8000044006D41400000005B
:10089B00000D7004000C9AFB000BD49E000B1BD3B5
:1008AB00000A6F960009CEF80009391C0008AD3814
:1008BB0000082A930007B08100073E640006D3AA04
:1008CB0000066FCD000612510005BAC3000568B9CA
:1008DB0000051BD30004D3B40004900A0004508716
:1008EB00000414E30003DCDC0003A833000376B13F
:1008FB000003482000031C4E0002F30D0002CC3411
:10090B000002A79B0002851C00026496000245EAC8
:10091B00000228F800020DA60001F3D90001DB7AD2
:10092B000001C4730001AEAE00019A19000186A04C
:10093B0000017432000162C00001523C000142967A
:10094B00000133C2000125B40001186000010BBC8B
:10095B00FFBDF45BE98CDF48D587CC42C373BB1278
:10096B00B31AAB85A44D9D6F96E490A88AB8850FFA
:10097B007FA97A84759B70EC6C74682F641C60374C
:10098B005C7F58F1558B524C4F304C37495F46A624
:10099B00440B418C3F293CDE3AAD3892368E349F66
:1009AB0032C530FD2F492DA52C132A90291D27B8B0
:1009BB002662251923DC22AC000000000000000099
:1009CB0000000000010B220C40B1999A00020200BA
:1009DB00020B861940D9999A01010301030C4E2D84
:1009EB004108000002010402040CB23841133333F6
:1009FB0003010503050D1646412666660401010336
:100A0B00060D7A644140000005010000070BB84653
:100A1B004126666602010000080B86644140000017
:100A2B0001020000C20A1222BF1222B2121902F1F5
:100A3B005A12226712185A121AC7F1A512267512EA
:100A4B0021CE123016D20C121365C21512002212CF
:100A5B00112A1231D5122C9B121C9A122B895199E7
:100A6B00122CC53010E6200A1312204B1223491208
:100A7B002572123469121BB1D20A800E12349812ED
:100A8B0027661228D41233BDC20AC21080BEE545B8
:100A9B00B407004002816B900AA9F8282873020A58
:100AAB00BE020AFD020B1A020B8C020B3E020BABB1
:100ABB00020C461234F0F14C700E90002512001609
:100ACB00EC4D4E4F7002816B9000731206EE0000DE
:100ADB000000E4900024F0900032E0FFA3E09000CF
:100AEB0071CFF0A3EFF0D2077F013016027F028F98
:100AFB004522300702816B1200139000291200115E
:100B0B00122AADD20790002474FFF07545022230F3
:100B1B000702816B900024E0600314F022D2827FE5
:100B2B00057E001212E3D28430160475450322753C
:100B3B004504221234F0F14C600C90002512001683
:100B4B00EC4D4E4F7003754506300702816B9000DC
:100B5B0034120016900029F14C400B900034120017
:100B6B0016122AAD8034900024E0600314F022901A
:100B7B0000291200161234DF900029120016022FE2
:100B8B00C91234F0F14C600C900025120016EC4D9C
:100B9B004E4F7003754506122FBE754505D20722C1
:100BAB001234F0F14C600C900025120016EC4D4EF7
:100BBB004F7003754506201702816B300702816B5E
:100BCB0012162C64066028122FBE20160B900034D0
:100BDB00120016122AAD800A9000731206EE000066
:100BEB0000009000341200161234EAD207804990AC
:100BFB000024E0600314F022201638900029120024
:100C0B00161234DF900034120016900029F14C605C
:100C1B000B40099000341200161234EA900029128E
:100C2B000016122FC9900034120016900029F14CB7
:100C3B00500622122FBED207C21722C2841212DF15
:100C4B00C282121C709000731206EE00000000D2DC
:100C5B00079000291206EE00000000C217E4F545CC
:100C6B00227D087F018F28120446FF146015146043
:100C7B002814603D14603A2404705B1234CA123499
:100C8B00F980291234CAF5827401F52D85822EE57F
:100C9B0082F4F582752F0080131234CAF4F5827535
:100CAB002D0085822EEDF5827401F52F8582308023
:100CBB0025ED1234F9858230EDF5827401F5298525
:100CCB00822AEFB40407EDFF7401FE8005EDF4FFFB
:100CDB007E008E2B8F2C90000112045F7007EDFFAE
:100CEB007401FE8005EDF4FF7E008E318F32900093
:100CFB000212045F7007EDFF7401FE8005EDF4FF37
:100D0B007E00E528147002A1A7147002C12A14708A
:100D1B0002C1AD24036002E137E529AB9A30E0064E
:100D2B00E52A4BFD8004E52A5BFD8D9AE52B30E02F
:100D3B000890F00912352E800690F0091235279095
:100D4B00F009EDF0E52D30E005123511800690F03D
:100D5B000A12352090F00AEDF0E52F30E005123540
:100D6B0009800690F00B12351990F00BEDF0EE3078
:100D7B00E005123544800890F00CE0FBEF5BFD9032
:100D8B00F00CEDF0E53130E005123535800690F0D2
:100D9B000D12353DAF0590F00DEDF022E529ABA11D
:100DAB0030E006E52A4BFD8004E52A5BFD8DA1E5CD
:100DBB002B30E00890F01912352E800690F01912A6
:100DCB00352790F019EDF0E52D30E0051235118047
:100DDB000690F01A12352090F01AEDF0E52F30E066
:100DEB0005123509800690F01B12351990F01BED9A
:100DFB00F0EE30E005123544800890F01CE0FBEF7C
:100E0B005BFD90F01CEDF0E53130E00512353580DF
:100E1B000690F01D12353DAF0590F01DEDF022E56B
:100E2B0029ABA230E006E52A4BFD8004E52A5BFDE9
:100E3B008DA2E52B30E00890F02912352E8006901C
:100E4B00F02912352790F029EDF0E52D30E0051251
:100E5B003511800690F02A12352090F02AEDF0E53E
:100E6B002F30E005123509800690F02B12351990C2
:100E7B00F02BEDF0EE30E005123544800890F02CAD
:100E8B00E0FBEF5BFD90F02CEDF0E53130E005126F
:100E9B003535800690F02D12353DAF0590F02DEDD8
:100EAB00F022E529ABA330E006E52A4BFD8004E5F3
:100EBB002A5BFD8DA3E52B30E00890F03912352E1F
:100ECB00800690F03912352790F039EDF0E52D3092
:100EDB00E005123511800690F03A12352090F03A69
:100EEB00EDF0E52F30E005123509800690F03B124E
:100EFB00351990F03BEDF0EE30E008A3E0FDEF4D3F
:100F0B00FF800890F03CE0FDEF5DFF90F03CEFF0D0
:100F1B00E53130E009A3E0FDE5324DFF800990F0AB
:100F2B003DE0FDE5325DFF90F03DEFF022AB41AAD5
:100F3B0042A94390000312045FFCE412036F90007C
:100F4B001BE0F8A3E0F9A3E0FAA3E0FB0202ECE458
:100F5B00F525F526F527FB7A0079257D027F03120F
:100F6B00355C7F0291707B01121958752701E41BC8
:100F7B001DFF1218970D9170D28075DF4075DE60E2
:100F8B00E4F5E9F5D1F5D375D50F75D4FF90F6924D
:100F9B0074A0F0122FE243DE8022121BA7C284C280
:100FAB0082121C68FF12355CE4FF91707525017B82
:100FBB0000916C7F287E001212E3309304C21680DE
:100FCB0002D2167525037B007A007925916C121CD1
:100FDB00601206EE000000009000341206EE0000D6
:100FEB0000009000251206EE00000000E4F54522FB
:100FFB00E508B4030C201504D2148002C214E4F5E6
:10100B0008E50814602E14606914700201BE2403F5
:10101B00600201BBD20D3115E4F529E529900003DF
:10102B0093FF12003B3400F583EFF00529E529B45B
:10103B0003E98077E4F52912002EFFF4600BEFD360
:10104B009416400CEF941F50070529E529B403E7CC
:10105B00E529C39403501612002EF528B40D04C2D3
:10106B000D3115AF291227F4750802804675080358
:10107B008041900066E0245E120032F5287B007AF6
:10108B0000792612284AEF602AAD28AF27AE263109
:10109B00B5E4F52912002EB5280A12003B3400F5F1
:1010AB008374FFF00529E529B403E9750801800372
:1010BB00E4F508301509E50864036003020FFB2211
:1010CB00EF14600E14600F1460102403700FED42C8
:1010DB00AC22ED42AD22ED42AE22ED42AF22EF1437
:1010EB0060111460151460192403701CE5AC5D606D
:1010FB0017D322E5AD5D6010D322E5AE5D6009D359
:10110B0022E5AF5D6002D322C32253DE7F007F0056
:10111B00200D027FA090F692EFF00043DE80227D3F
:10112B00087F0211E9403890007CE025E0F030A305
:10113B0003E004F090007CE0FFF46003EF702012FA
:10114B001BCFE4F5B6BFFF03C38001D3921A7B011B
:10115B00BFFF027B027D037F02F1FE7D0811CB30C6
:10116B001A08E51930E703751980301A26E518B40B
:10117B008521D3E51B64809480400CAF1BEF339526
:10118B00E0FE1223738009E4F51B751D01751A012E
:10119B00E4F518201A13E519B4840EE4F519E51AD1
:1011AB007004751C0122E4F51A228E2A8F2B8D2CCC
:1011BB0090F692E030E708E4FFFEFD7C40800251A0
:1011CB00D651A2120043C004C005C006C007E4FB01
:1011DB00FA7980784512354B12024FD003D002D0EA
:1011EB0001D0001201468F348E338D328C31E52CB9
:1011FB0024F8605E24FB602024EE600241A1120003
:10120B004312335D7F9A7E997D997C4512024F8FF5
:10121B00168E158D148C13227B2D7AA67933783E7E
:10122B00AF34AE33AD32AC3112024F8F128E118D03
:10123B00108C0F2002028011E4FBFAF97840AF12F8
:10124B00AE11AD10AC0F12024F8F0E8E0D8D0C8C9C
:10125B000B2251CD51D6120051C004C005C006C09F
:10126B0007E4FFFE7DA57C4351CD120146D003D090
:10127B0002D001D00012024F51A2E4FBFA797A7826
:10128B004412014651A21203A37B007A0079171274
:10129B00305F8E098F0A228F308E2F8D2E8C2D2250
:1012AB00EF14600F14601114601324037013EDF42A
:1012BB0052AC22EDF452AD22EDF452AE22EDF452CB
:1012CB00AF22AB34AA33A932A83122AF16AE15AD7B
:1012DB0014AC13227F0A7E008E2B8F2CE4F531E5A4
:1012EB002C452B60740531AE2BAF2C1228CDE47B33
:1012FB00A07A0FF9F812053D51A2C007AF31AB0729
:10130B00E4FAF9F8D0071205C851A2E47FFF7EFF7B
:10131B00FDFCAB30AA2FA92EA82DD312067E50C5EB
:10132B00C374FF9530F53074FF952FF52FE4952E90
:10133B00F52EE4952DF52D12354B780812068F8F6F
:10134B008CE530FF8F8AC20E438810E58820E503B9
:10135B00300EF85388CFD531DE2275250A12338C27
:10136B00E490004DF0122F72121C78123246D525E4
:10137B00F4300C1F9000587412F03002167F047179
:10138B009F7FC87E0051E37F04719F75253051DF2D
:10139B00D525FB22EF24FE600E24FE601024037083
:1013AB001AC2A6D2A4800AD2A6C2A48004D2A6D204
:1013BB00A47F147E0051E3C2A6C2A4221227D5EF4C
:1013CB007002817124FE6025146025146025146061
:1013DB005A240460028176D12C60028176F1EED121
:1013EB00F1948B40047F01817775440822022F3FD3
:1013FB0002315AD12CFF6407701E20016EEF640777
:10140B00706990002DE0120F44701D1200139000B4
:10141B0020120F4C60558010F1F6D1F1948B5004D3
:10142B00754407227F0791770227E420043DD12CD6
:10143B007039301636200033D20012224D60064030
:10144B0004D2028007D3300201C392022002047F30
:10145B0002800C7F01719F7F1E7E0051E37F017123
:10146B009FC20C021D6E300002C200228F2CD12CA9
:10147B00652C6026E4F52DE52DF135B52C15E52D04
:10148B0075F00CA424C3F9740935F07541FFF542CE
:10149B00894322052DE52DB409DD228F25E4F5289E
:1014AB00D12CF526F52724FA7002A191147002A114
:1014BB008A24076002C10EE525B4050F20030C75C5
:1014CB004408D203C20C121D6EC10E1234BA402F47
:1014DB00E525702612238F5002801F1227D5EF703F
:1014EB0002C10E24FD6008047010122F3FC10EE5DF
:1014FB0017600512315AC10E800075440AC10E7176
:10150B00C7E525B4080D20040AD204754409C20CA2
:10151B00121D6E12238F5015201308F1F6D1F19482
:10152B008B5004F1DB80047F079177D201E525B462
:10153B00030ED1DB9840067F089177800375440733
:10154B00E52564077023D390005AE094B8D1F19449
:10155B008B40163005028001D392057F02300502C5
:10156B007F01719FC20C121D6EE52564016002C1E3
:10157B000E201307900003E0FFC10CF1DBC10E122C
:10158B0023A38F28807DE525B40309D1DB98407315
:10159B007F089177E52564027018900016E06012C1
:1015AB00900014E07002A3E07008F1C7F1A3A3E070
:1015BB0014F090001FE030E711900019E0FF9177D5
:1015CB0090001FE0547FF04440F090001FE0FF308C
:1015DB00E53154DFF0900019E0B4071CD2179000EE
:1015EB00341206EE411B33339000251206EE428C6B
:1015FB000000D2017F07800990001FE04440F07F7C
:10160B00059177D12CB52604AF25D135121F12E5E4
:10161B002860037F0122D12C65277F0060027F01A8
:10162B0022AB41AA42A9430204468F29D12CFFB415
:10163B000604C20B800AEFB40804C20B8002D20B63
:10164B00300B43E5296402703D7F06F1E5D1E69846
:10165B004004F1458030F1EED1F1948B4022752A94
:10166B0005E52A123145C3D1E8984009E52AF13541
:10167B00FF91778011152AE52AD3940150E3800658
:10168B00D12C7002F1DBD12C600A71C7E529B401B2
:10169B00031233F090001FE0FF30E705547FF0F1A9
:1016AB000C90001FE030E51054DFF0F12C90000B94
:1016BB0012045FFF60029177F12C90000912045F16
:1016CB00600D5402FF90000812045FFD12341A22C1
:1016DB007F08D1F8EF245EFFEE3401FED390005A61
:1016EB00E09FEE6480F8900059E0648022E4FEEE07
:1016FB00F135B50704EE0231450EBE09F2E4FEFFEB
:10170B0022F12CF1D36019F1E5FEC3D1E898500A10
:10171B00D12C6401600A7F018004F12CF1D3917705
:10172B0022AB41AA42A94322E52475F00CA424C3A1
:10173B00F582E43409F583E49322D12CFF90001950
:10174B006003F080037401F0EF6407703212266BB4
:10175B00120F4C600A4008900020120016800312F2
:10176B0022869000081206E2123554120F49600AC5
:10177B00400890001B1200168014123554800F7F06
:10178B0005F1C59000081227CCFCE412036F900002
:10179B00041206E27F06F1C590000C1206E29000DF
:1017AB000312045FFCE412036F9000101206E29028
:1017BB0000147403F0A37420F0229177AB41AA427A
:1017CB00A9439000040206A290000A12045FFF22B4
:1017DB00900058E07003740EF022D1F8EF2432FF22
:1017EB00E43E22D390005AE0942222C390005AE0A8
:1017FB0094EA22EBD394035055EF14601514602335
:10180B0014603124037047EDD394055041ED2480CF
:10181B00802BEDD394075036EDC394034030ED2469
:10182B0088801AEDD394065025EDC39401401FED2B
:10183B0024908009EDD394065014ED2498F528E4F8
:10184B0034F0F527EB5403852882852783F0227526
:10185B002401E4F525F526FB7D037F0211977A0021
:10186B0079247D08120C707D087F021210CB7B024D
:10187B007D031217FE43B90471CF90007C74FFF007
:10188B00E4F518F519F51BF51CF51D22EB64026048
:10189B0065EB64036060EB6419605BEBD3941C50E5
:1018AB0055EF14601514602314603124037047ED59
:1018BB00D394055041ED2400802BEDD39407503683
:1018CB00EDC394034030ED2410801AEDD3940650F1
:1018DB0025EDC39401401FED24208009EDD3940620
:1018EB005014ED2430F529E434F0F528EB541F8522
:1018FB002982852883F02271A7C2A6C2A4FB7D068C
:10190B007F0211977D0411977A0079257D40120C87
:10191B00707B007D107F02120C70E4719EF54422E7
:10192B00E4F5DE90F692F0122FE2E4FB3158E4F589
:10193B0026F5277A0079257D041F120C707B007D1C
:10194B00027F03120C70C2B1C2A2C280227D027F41
:10195B000211971D0F11977525032275240C31D693
:10196B004387044387020000000000009181EF6071
:10197B00271222BF914691387F017E001212E3128B
:10198B00112A30100AC210B20B300B0312234991EB
:10199B008D50E5510EC21522E524600415248024D8
:1019AB0075240B120F5A122F729178C39454EE6454
:1019BB0080948B50051200253102312B1233AEE48B
:1019CB00F51EF51FE51F451E609622123016E4F535
:1019DB00C853A8DF7179312B71D6C2A6C2A4E4F526
:1019EB0044719EC390005AE094541216F1948B40AC
:1019FB001130050E75250171AA915991687F02125C
:101A0B000C7022120F5A51C73102120FA51200226D
:101A1B00C20C121365020025EF14602214603D14F2
:101A2B00605824037076EDD394054002806EED244C
:101A3B008051BC8002C333D8FC55ACFC8062EDD323
:101A4B0094075006EDC3940350028050ED24885147
:101A5B00BC8002C333D8FC55ADFC8044EDD3940657
:101A6B005006EDC3940150028032ED249051BC809E
:101A7B0002C333D8FC55AEFC8026EDD3940640024E
:101A8B00801AED2498FBE434F0FAAF05A807740133
:101A9B00088002C333D8FC55AFFC8004E4FEFF2260
:101AAB00EC7003FEFF228B828A83E05403FF7E00DF
:101ABB0022FBE434F0FAA80574010822752503759E
:101ACB002601752701C2B0C2857B007A0079257D7E
:101ADB00017F03120C707B007D20E4FF120C7090D1
:101AEB00F120E4F0A37411F090F1237401F090F164
:101AFB0025F090F12A74FFF090F12EF090F122E492
:101B0B00F090F1277411F0A3F090F160E4F090F1F4
:101B1B0065F090F1647411F090F131741FF090F155
:101B2B0030743FF090F1397409F090F138745FF034
:101B3B0090F141E4F090F149F090F140F090F148D0
:101B4B00F09000731206EE000000009170C209C203
:101B5B000790F166F090F126741DF01230077B169A
:101B6B007D05E4FF11977B12E4FD7F030197E4FBF6
:101B7B007D05FF1197E4FD7F03119790F1287411F8
:101B8B00F090F121E4F090F126F090F125F090F136
:101B9B0023F02290007BF090007AF022752503E46D
:101BAB00F526752701221234A7EF600271CFD3E51A
:101BBB001F9400E51E94004009E51F151F700215C8
:101BCB001E222166751E00751F2822C284C28291B7
:101BDB00601206EE000000009000341206EE0000CA
:101BEB0000009000251206EE00000000E4F54522EF
:101BFB007D037F025123EF64014E702FC21AE5184B
:101C0B00547FFFE4F518E51A7004E51D6007E4F551
:101C1B001DF51A8018EFC394055012C3E51B6480A1
:101C2B0094885002051B751980800291467D087FB0
:101C3B00021212AB90007C74AAF022D21AE5193072
:101C4B00E703751980E51820E7037518802275BC2A
:101C5B00FF75BDBF22C293C21790002922FB7A00E9
:101C6B0079257D1022E4900071F0A3F022900059A9
:101C7B00EEF0A3EFF02220A3037F0122E5B6540878
:101C8B00FF22E51D6002D322E51CC36001D32212A3
:101C9B0023818F24900003E06005D39405400690C8
:101CAB0000037401F0900019E0FF6003B406069086
:101CBB0000197401F030034190004DE06007F11200
:101CCB0012238F8032E524B4051B754409C203121D
:101CDB0017EE1216F1948B400690001A740CF0C29A
:101CEB000CB16E80121227D5BF0205122F3F800751
:101CFB00918D5003754407E11290001AE06011D2E8
:101D0B00171200139000341206E290002DE0804869
:101D1B00AF241214A6EF6002D21712162C24FA600D
:101D2B001714702B9000201200169000341206E24C
:101D3B0090001B12001680259000101200169000C8
:101D4B00251206E290000C1200169000348011123E
:101D5B0017CD9000341227CCFCE412036F900025B2
:101D6B000206E2E4FFD20DD1383003010F30050338
:101D7B004307023002034307043002034307089072
:101D8B00004AEFF090001B1200169000421206E280
:101D9B009000201200169000461206E27B017A009A
:101DAB0079427D09F1F190004BEFF0200C0E900081
:101DBB0079E0FF90004BE0B50702806F200C0FC35A
:101DCB00900078E09465900077E09400401B7B00D6
:101DDB007A00792B7D007C027F1DD149E4FC7F1DAD
:101DEB00D149E4900077F0A3F0E4F52B900077F164
:101DFB000A7D0A12049EEF252BFDEC3EFC74422556
:101E0B002BF9E43400FA7B017F19D149052BE52B23
:101E1B00C3940A40D7900078E004F07006900077E6
:101E2B00E004F090004BE0900079F0C20D300D070C
:101E3B00C2AF0075FBAA2275FB5500D2AF228F2FC4
:101E4B00E52FB41905120446F5FEEDF5FCECFFEF9A
:101E5B00F5FD00852FFF000000000000E5FF20E0EE
:101E6B00FBE52FB41105E5FE12048C228B298A2A7F
:101E7B00892BE4F52DF52ED20DD138E4F52CD1DEDE
:101E8B00940A40FAAB29AA2AA92B7D09F1F1AB29B7
:101E9B00AA2AA92B90000912045FB50713052EE59A
:101EAB002E7002052DC39465E52D6480948040CB84
:101EBB00D3E52E9400E52D648094804008E52E1523
:101ECB002E7002152DE4F52CD1DE940A40FAAE2DBE
:101EDB00AF2E22AE2DAF2E7C007D0A12049EEF2575
:101EEB002CFDEC3EFCAB297E00E52B252CF9EE35C9
:101EFB002AFA7F11D149052CE52CC32290005BE017
:101F0B00FEA3E0FF7C0022E51C6009E51B6005E4F5
:101F1B00F51CF51B2220032CA204920BF1DF300BD6
:101F2B0002D204C20CB16EC20DD13875296475444E
:101F3B00061212DF12204BF1DC50021529E5297035
:101F4B00F0122022227B017A007938D1779000772A
:101F5B00EEF0A3EFF07B017A0079387D09F1F19077
:101F6B000041E06F705C900040E0C330E301D3921E
:101F7B0004900040E0C330E201D39202900040E0B5
:101F8B00C330E101D39205900040E0C330E001D3B0
:101F9B00920390003812001612254190003C12005B
:101FAB0016122547900041E0900079F0900078E000
:101FBB0004F07006900077E004F0F1DC400FF120A4
:101FCB00800BF1DFD203D20CB16E122031C20DC1E6
:101FDB0038A2A322120013122547122538C203D2AE
:101FEB0005D204C202228B2F8A3089317FFFAB2F9F
:101FFB000531E531AA307002053014F9120446623E
:10200B00077E08EF30E70725E06407FF8004EF2524
:10201B00E0FFDEEFDDD822C2AF007596AA759655AC
:10202B0075978080FE227529FFC20D121E387544EC
:10203B00031529E52960071212DF114B80F380D7B6
:10204B00518F502490007AE0FF648094944004E414
:10205B00F08035EF640E6004EFB4120790007AE065
:10206B0004801D90007A800F519F501790007AE0EA
:10207B00C36480948C5005E004F0800CE490007AEB
:10208B00F02180E490007AF0E544B40B004002218B
:10209B00849020A3F82828730220C40220CE0220AB
:1020AB00D30220F20220D80220F20220DA02212DE4
:1020BB0002212D02212D02212DC2A6C2A4E49000E3
:1020CB007BF022C2A6D2A422D2A6C2A422801331B4
:1020DB00857F8060027F0090007BEFF0318970027A
:1020EB002180D2A6D2A422C2A490007BE0FF547F11
:1020FB00FEE5447D00B403027D03C3ED3191500C2A
:10210B000EEF548090007BF04EF0800D31857F8078
:10211B0060027F0090007BEFF03185C36001D392AA
:10212B00A62290007BE0547FF0E54464086005E54F
:10213B0044B409047F0680027F0A90007BE0FED343
:10214B00EF31914004E4F5442290007BE0FF04F072
:10215B00EF75F002120424AFF0EF6019E544B40AF6
:10216B0005D2A4D2A622E544B40905D2A4C2A62264
:10217B00C2A4D2A622C2A6C2A42290007BE05480A5
:10218B00FF3395E04F226480F8EE64809822E4F5EB
:10219B002530040330020BD204C202C20C121D6E96
:1021AB001122514D601C401A5160E5257F016002E0
:1021BB007F008F25E5257F0160027F028F44114B45
:1021CB0080E622E4F524120022E517702B0524E5A6
:1021DB002414600C14600E2402700F754402800DE1
:1021EB0075440480087544018003E4F5447F647EE4
:1021FB00001212E3114B80D5752401200404319990
:10220B008021201605300202801630020A518651B9
:10221B0055600440028009200209514D60054003BE
:10222B00E4F524E524701A5160E5247F0160027FF8
:10223B00008F24E5247F0160027F028F44114B80C5
:10224B00E6227F337E337D8B7C40AB12AA11A91023
:10225B00A80F0202EC7F0F7E000212E37524C81256
:10226B0012DF120022E4FFFE7D2051536002500A60
:10227B00D524EC754402114B80FC227F9A7E997D0C
:10228B00097C412212162C7002C322E5177002C37F
:10229B0022A2192290004DE06002C32212162CB428
:1022AB000803D38001C322C2AF007596AA75965559
:1022BB0053977F225388CF5389F0438901E4F58CE0
:1022CB00F58AF5CE75CB0B75CADB75CD5D75CC6616
:1022DB00F5C975CF8075A8A2C210C20F75C891221F
:1022EB0075C900B20F300F02D210325388EFD20EE5
:1022FB0032C0E0C0F0C083C082C085C084C0867588
:10230B008600C0D075D000C000C001C002C003C0A1
:10231B0004C005C006C007121BFB75B600D007D062
:10232B0006D005D004D003D002D001D000D0D0D03D
:10233B0086D084D085D082D083D0F0D0E032E4FE3A
:10234B0074182EF8E630E71B547FFDEE7F04700205
:10235B007F05EDC39F50010DE65480F674182EF8DF
:10236B00E64DF60EBE02D922E4F519F51CF51BF568
:10237B001AEF04F51D22E51D7004E51C70037F00A8
:10238B0022AF1B22E51D64016002C322E4F51DD3BD
:10239B0022E51AC36001D322C20B30010E719C409F
:1023AB0007F1D5EF7002C2017F0022C390005AE003
:1023BB0094B21216F1948C505720162BD16A120F2F
:1023CB004C60244022900020120016B14D12005197
:1023DB00B147D16A120F4C500A9000201206EE4101
:1023EB00080000D20B8029301626B156120F496017
:1023FB001F401D90001B120016B167B141B1561260
:10240B000F49500A90001B1206EE42200000D20B1F
:10241B00719C507B900001E07002A3E06002807F12
:10242B007E003016047F0580027F37B15E20162EAA
:10243B001217C7900020120F4C502390002012004F
:10244B0016B14D120055B1471217C7900020120F4D
:10245B004C600740051217C7B147D20BA1272016B6
:10246B0002A127120F384002A12790001B12001661
:10247B007B0A7AD77923783C120055B141120F3879
:10248B006009400712172CF1CFB13CD20BA127F1F9
:10249B005D4002A120900001E07002A3E06010906B
:1024AB000002E024FFF0900001E034FFF0806D7E2D
:1024BB00003016047F0580027F37B15E20162F1285
:1024CB000013900020120F4C602440229000201229
:1024DB000016B14D120051900020120011900020F7
:1024EB00120F4C5005120013B147D20B802E301631
:1024FB002B90002DE0120F446022402090001B1205
:10250B000016B167B14190002DE0120F445002B19B
:10251B0038D20B8007E4900001F0A3F0300B06904B
:10252B0000007420F07F00300B027F012290002D01
:10253B00E0FCE412036F90001B0206E29000200205
:10254B0006E27BCD7ACC794C783D22E4FFFE7D20F0
:10255B007C4222900001EEF0A3EFF0227B0A7AD7A7
:10256B007923783C02005112162C6406602B9000E4
:10257B0016E064067002C163A3E07002A3E0600C76
:10258B00900018E024FFF0900017802190001712A4
:10259B0017BD900016E004F022900014E07002A327
:1025AB00E0600F900015E024FFF0900014E034FF82
:1025BB00F022201651900008120016A3120F4C6047
:1025CB0012401090000C120016B16790000C12060E
:1025DB00E28030900019E0B4072490000812001636
:1025EB00A31206E290000C120016900020120F4C62
:1025FB00500890000C120016B1477F0780027F0530
:10260B00121477D2172290000412001690001012A9
:10261B000F4C601740159000101200167B0A7AD7EA
:10262B007923783D120051D164802B900019E0B4CE
:10263B00071F900004120016D164900010120016B0
:10264B00120F495008900010120016B1417F0780FD
:10265B00027F05121477D217229000100206E2E4D3
:10266B00FFFE7D087C41900020227541FF754209D9
:10267B007543C39000037401F0C203C200E49000E1
:10268B001AF0900001F0A3740AF0C201E49000006C
:10269B00F09000167406F0A31217BDE4F524121780
:1026AB0033FBB4010EF14290002DF0F12D90002E72
:1026BB001206E2EBB4060EF12D90000CF13FFCE498
:1026CB0012036FD164121733B40512F12D90000869
:1026DB00F13FFCE412036F9000041206E20524E5BF
:1026EB0024640970B9121F5090002DE0FFE48F286D
:1026FB00F527F526F525AF28AE27AD26AC257B5F54
:10270B007A09F9F812053DF154E47B64FAF9F812F1
:10271B0005C8F154E527547FFE900032EEF0A3EF8D
:10272B00F022E52475F00CA424C7F582E43409F5F6
:10273B00830206D21206E2E52475F00CA424C6F53A
:10274B0082E43409F583E493228F288E278D268C1F
:10275B002522E51DB40202D322C32212162CB40784
:10276B00028008719C400BF15D4007E490001FF064
:10277B0080467F063016027F0EAB0790001FE0FEEF
:10278B00541FFD7012EE20E60EF15D7C8050027C32
:10279B0020EE4C90001FF090001FE054E0F0C3EBD4
:1027AB006480F8ED6480985007E020E6030D80020A
:1027BB00E4FD90001FE04DF090001AE0600214F071
:1027CB00221206E290000302045FE51D14FFD3649E
:1027DB008094804001227F0022D201120013B14766
:1027EB00122C7C90001B0206E2AB07EBD394025039
:1027FB004D745E2B120032FAF46043EAD394164008
:10280B0005EA941F4038900067E070329000611227
:10281B0006EE00000000E4900065F0A3EBF0A3745B
:10282B0001F0EA30E40543DF80800353DF7F53DEA2
:10283B00F0EA540F42DE7AA000DAFE43DF02228B6D
:10284B002A8A2B892CE5DF30E1037F00229000657B
:10285B00E004F0900061F133AFDDEFFEADDCED1184
:10286B00CCEB2FFFEA3EFEE93DFDE83CFC9000611E
:10287B001206E2900066E090000693FF900065E080
:10288B00C39F500643DF027F0022900061120016A7
:10289B00C007A3E0FBE4FAF9F8D007120832900066
:1028AB00611206E2900061A3A3E0FFA3E0AB2AAAAA
:1028BB002BA92CCF8FF012051EE4900067F07F013F
:1028CB0022FFEE3395E0FDFC22900057E0C39428E5
:1028DB005043F17551A4900057E004F090005391D0
:1028EB00502527FFEE3526FEED3525FDEC35243141
:1028FB00B190004F31B8C3120668500590004F914C
:10290B007490005131B8D3120668500221A0900088
:10291B0051917421A0900053120016C004C005C041
:10292B0006C007900051E0FEA3E0FBAA06EA339530
:10293B00E0F9F890004FE0FEA3E011CCEF2BFBEE9B
:10294B003AFAED39F9EC38F8D007D006D005D004B7
:10295B00C3EF9BFFEE9AFEED99FDEC9831B1900021
:10296B0053120016C006C007A3E024FEFFE434FF99
:10297B00AB07FA3395E0F9F8D007D00612083231DD
:10298B00B2900053A3A3E0FFA3E0900059CFF0A3B4
:10299B00EFF012338C90004CE0600214F090005872
:1029AB00E0600214F022FC9000530206E2E0FEA36A
:1029BB00E0FFEE3395E0FDFCAB27AA26A925A82462
:1029CB0022201602800C915B900025120F4C600F99
:1029DB00400DE4F527F5267525C87524428009902E
:1029EB0000259150F52751A6915B900069120F4C71
:1029FB00600C400A9000691206EE42C80000E4FF2A
:102A0B00FEFDFC900069120F4C500A9000691206F3
:102A1B00EE0000000031C3C000C001C002C003F1D2
:102A2B002290006912001612024FD003D002D0017F
:102A3B00D00012014651A4E4FFFE7DBE7C4231C39F
:102A4B001202EC600D400BE4F527F5267525BE75DB
:102A5B002442917C31C31202EC5004917C51A4911D
:102A6B00637B007AF07915784512014651927F000D
:102A7B007EF07D157C4531C31202EC50059163024B
:102A8B0003A37E097F5F228F278E268D258C24E45E
:102A9B00FBFA79C8784212024F8F278E268D258C30
:102AAB00242251A47F147EAE7D3F7C4131C31202A0
:102ABB00EC6010400E752B14752AAE75293F7528E6
:102ACB004180297F337E337DA37C4031C31202ECDE
:102ADB00500E752B33752A337529A3752840800C3E
:102AEB0085272B85262A85252985242890006D127C
:102AFB0000169139501990006D9150F52B7182127F
:102B0B0000139139500990002E9150F52B7182E4EE
:102B1B00FFFE7D807CBF91851200557B767AE07934
:102B2B00DC783E717D91857F547E527D977C40127F
:102B3B0000517180AB16AA15A914A81312024F717C
:102B4B0080F122717DE4FFFEFDFC91395009E4F523
:102B5B002BF52AF529F528915B9139600D400BE493
:102B6B00F52BF52A7529C8752842F12A90007302B6
:102B7B0006E21201468F2B8E2A8D298C2822E5170F
:102B8B00700281382014028138C21491444004D25F
:102B9B0019800E30190BC3E50A943091495002C2CB
:102BAB001912162C60049144500FE4F527F5267585
:102BBB002540916C7529C88015C3E50A944191494C
:102BCB004011E4F527F526F525916C7529487528F4
:102BDB00428031918E7B897A88798878BE12014642
:102BEB0051A4E4FBFAF9784112005551A4918E746B
:102BFB0055FBFAF978C0717DE4FBFA7948784212FB
:102C0B00005571809000691200169139700D90007B
:102C1B006D12001631C31202EC6012F12A9000699A
:102C2B001206E2916390006D1206E2D21722AB2BD3
:102C3B00AA2AA929A8280202ECD3E50A9432E509AD
:102C4B006480948022E0FCA3E0FDA3E0FEA3E022DD
:102C5B00E4FFFE7DC87C4222AF27AE26AD25AC2417
:102C6B0022752441F52BF52A22E526F0A3E527F062
:102C7B002290002DE0FCE402036FAB2BAA2AA929BA
:102C8B00A82822C37441950AFDE49509FC02036A46
:102C9B00E5176025D3E50A944491494004D2188086
:102CAB000A301807C391455002C21830180B121680
:102CBB002C60061233F075440A22200702A1AC30B7
:102CCB00092D90F129E054116002A1AC90F164E060
:102CDB0030060554EFF080034410F090F164E030BF
:102CEB00080554FEF080034401F0C207C20922918B
:102CFB005B900073120F4C600C400A90007312062D
:102D0B00EE42C80000B1B6120F4C500A900073127D
:102D1B0006EE00000000B1ADE4FCFD7B5F7A09F923
:102D2B00F8C3120668500A9000717409F0A3745F1F
:102D3B00F0B1B6120F4C60054003D38001C392086B
:102D4B00900071E07002A3E0C36001D39206E4FF30
:102D5B00FE7DFA7C45900073F133120146E4FBFAD9
:102D6B00798078BF12005551921203A3AD07AC06C0
:102D7B00ECFFEF90F141F0ED90F140F0B1ADC37489
:102D8B005F9FFD74099EFC4D7002C206ECFFEF9035
:102D9B00F149F0ED90F148F0D20990F129E044119E
:102DAB00F022900071E0FEA3E0FF22E4FFFEFDFCA9
:102DBB009000732290004DE014B40B004002E11A16
:102DCB00902DD975F003A4C58325F0C58373022D0F
:102DDB00FA022E0A022E57022E5D022E75022E7B50
:102DEB00022E93022EE6022EFE022E99022EAA909E
:102DFB00004CE06002E11A740FF0A37402F022128F
:102E0B0033668F4490004CE06002E11A90005BE067
:102E1B00FEA3E0FFD394E7EE648094834022F11B82
:102E2B00D3ED9404EC64809480400BE0240AF09082
:102E3B00005BE03400F0121F077D0A1204B0F16949
:102E4B00121F077D641204B07D0380397D047F025D
:102E5B00803A121F077D641204B090005BECF0FE09
:102E6B00A3EDF0FFF11B7D05801B7D067F04801C0D
:102E7B00301104F18AF022121F077D0A1204B0AE42
:102E8B0004AF057D070231957D087F01E19290002B
:102E9B004CE0707BA3740BF090004C741FF02290ED
:102EAB00004CE0FFC394195026EF54F86021C3E5A2
:102EBB000A942F914950057544018016C3E50A9475
:102ECB00389149500575440480087544028003E429
:102EDB00F54490004CE07037A3801490004CE070E8
:102EEB002E12162C70069000587412F090004D7430
:102EFB0009F022C211E490005BF0A3F0900058E0BF
:102F0B0060030231B41227D5EF700490004DF0220C
:102F1B007C007D0A0204B0E4FBFA79C8784222AF48
:102F2B002BAE2AAD29AC2822E0F8A3E0F9A3E0FAF6
:102F3B00A3E0FB2290004DE0702304F0F1D4500D80
:102F4B00E544600690004C7408F0E4F544C211911E
:102F5B005BAB12AA11A910A80FF184F169229000A2
:102F6B005BEEF0A3EFF022120022E4FFFE7D7A7CF1
:102F7B0044AB0EAA0DA90CA80B1201460203A39099
:102F8B00004C740AF0A3228F248D2590004CE03066
:102F9B00E70812139FE490004CF090004CE0FF7E8A
:102FAB000030E102AE248E44EF7007F544F18AE560
:102FBB0025F02231CC900071EEF0A3EFF02251AD51
:102FCB009000247405F0D20722E54524FD24FD5022
:102FDB00028002D322C3227F0390005E74FFF0A312
:102FEB00DFFC9000611206EE00000000E49000652B
:102FFB00F0A3F0A3F0F508C214D2152290F12974B6
:10300B0011F090F129E0541170F822439A0A43A170
:10301B001043A22043A3045380F55390EF53A0DF3A
:10302B0053B0FB90F00AE054F5F0A3E054F5F090A8
:10303B00F01AE054EFF0A3E054EFF090F02AE054D4
:10304B00DFF0A3E054DFF090F03AE054FBF0A3E0A4
:10305B0054FBF0228B358A3689378F3B8E3A8D396C
:10306B008C387F047E707D0D7C003132D312067E4E
:10307B004007313B7EFF7FF122E47FAC7E22FDFCDB
:10308B003132C312067E5006313BFE7F5622AB35E2
:10309B00AA36A937740112048CE47FBD7EFFFDFCB8
:1030AB003132D312067E402EE4F53CE53C25E0257B
:1030BB00E0249BF582E43408F5831206D23132C347
:1030CB0012067E400AE53C24F1FFE434FFFE2205A4
:1030DB003CE53CB430D5E4F53CE53C25E0245BF520
:1030EB0082E434093150E48F408E3FF53EF53DE5E7
:1030FB0040F540E53FF53FE4F53EF53DAF3BAE3ADD
:10310B00AD39AC38AB40AA3FA93EA83DD312067EE1
:10311B005009E53C2423FFE433FE22053CE53CB497
:10312B0034B7313BFEFF22AB3BAA3AA939A8382270
:10313B00AB35AA36A937E402048C75F00CA424C471
:10314B00F582E43409F583E493FE740193FF22E5E1
:10315B0017603690004DE0703004F0122FD4500DF4
:10316B00E544600690004C7408F0E4F544D211E598
:10317B000AAE0930E707FF7CFF7DF68006AF0A7CBD
:10318B00007D0A12049E122F692290004CE07018E9
:10319B00EF4E70057480F0800AEF25E025E0149067
:1031AB00004CF090004DEDF02290004EE014600EBC
:1031BB0014600F1460102403700F754401227544C2
:1031CB0004227544022275440322900059E0FEA3A9
:1031DB00E0FFD39404EE6480948B4033301311D30F
:1031EB00EF94B8EE6480948B4002C213C21280231A
:1031FB0012172C9000011204E6FFD390005AE09FA7
:10320B00E5F01216EE9840028001D392128004C2B0
:10321B0012D2135146E544D39406501E90004DE054
:10322B006003022DBF122FD4500512162C7006907E
:10323B000058E0600221B4E4F54422E4FFFE7DA0D7
:10324B007C41900025120F4C500A90003A1206EE6A
:10325B0000000000E4FFFE7DA07CC1900025122F32
:10326B003312005590003A1206E2E4FBFA79A0788B
:10327B004290003A12001612024FE4FBFA7996784C
:10328B0043120146715D7F007E407D677C451200D5
:10329B005190003A1206E290003A1200161203A364
:1032AB00900038EEF0A3EFF090004EE014601C1489
:1032BB00604714607224036002614B714CC3121699
:1032CB00E898507C90004E7401F022714C24C8FD9C
:1032DB00E43EFC900059E0FAA3E0FBD39DEC715562
:1032EB004005E490004EF0EF2438FFEE34FFFEC3B0
:1032FB00EB9FEE715550498041714C900059E0FCA9
:10330B00A3E0FDD39FEE6480F8EC648098400690B8
:10331B00004E7401F0C3ED9486EC6480948B5020C6
:10332B0090004E7403F022900039E02438FF900097
:10333B0038E034FF1216E698400690004E7402F007
:10334B0022900038E0FEA3E0FF226480F8EA64805C
:10335B009822A804A905AA06AB072290004CE0FF0F
:10336B00D394094019EF24F8C31314FF3395E0FEEF
:10337B00740E2FF58274003EF583E493FF227F00D9
:10338B002290004F747FF0A374FEF0A37480F0A31F
:10339B007402F0E4900057F09000531206EE000018
:1033AB00000022900016E0C3648094865003E00472
:1033BB00F02212162CB4072C900000E0FFD364808F
:1033CB0094814004E014F022EFB40118E490000063
:1033DB00F0C390005AE094B81216F1948B4005C2DA
:1033EB000C121D6E2212162CFF6023D39405500570
:1033FB00900003EFF09000341206EE0000000090F6
:10340B0000251206EE00000000E4FF121477228D57
:10341B002B7E0212275D5004D20C800512239C9246
:10342B000C20130F7E0A301203300C07E490007D42
:10343B00F08002916090007DE0D39E4017EF600218
:10344B008006300C05301302809BE490007DF0AFBA
:10345B002B1214772290007DE0700204F022E51706
:10346B007025900068E0B40A1112162C600571F0FB
:10347B00754407900068740BF022900068E0C394C9
:10348B000A5009E004F022E4900068F02290007DDD
:10349B00E06008C3940B5003E004F02290004DE071
:1034AB0060037F012212162C7F0060027F012290A5
:1034BB000068E0D39409400122D3301801C322EDF8
:1034CB00F4F58275830085832985822A85832B8574
:1034DB00822CED227BCD7ACC79CC783D12005590A5
:1034EB0000290206E2E4FFFEFDFC90003422F4F515
:1034FB008275830085832D85822E85832F22A3E001
:10350B00FBE5304BFD22A3E0FBE52E4BFD22E0FB60
:10351B00E5305BFD22E0FBE52E5BFD22E0FBE52CBD
:10352B005BFD22E0FBE52C4BFD22A3E0FBE5324BE0
:10353B00FD22E0FBE5325BFD22A3E0FBEF4BFD221E
:10354B00AF30AE2FAD2EAC2D22E4FFFE7D487C427A
:09355B0022120C707B007D042299
:00000001FF
