:09000000020779010402A2A22208
:10000B000227B74100580041005D00410024000069
:0D001B0090002DE0FCE4716F90001BC1C34C
:10002B000227ACD1C390002EE0FCA3E0FDA3E0FEC1
:10003B00A3E0FF22900020C1C3AB2FAA30A931222D
:10004B0002214C02040FE86480F8E933E8336011B5
:10005B000460F0ED33EC337009E8FCE9FDEAFEEBEC
:10006B00FF220460DED3EB9FEA9EE99DE8C2E78C9A
:10007B00F0C2F795F0400CE8CCF8E9CDF9EACEFAEE
:10008B00EBCFFB1203DA85D0F05804700320D5B305
:10009B00E80470075002B2D502041992D5EC046043
:1000AB00F7E4CCC0E0C398F8603B94186008400DAF
:1000BB00D0E0FB0203F1E4FBFAC9FC8028E830E452
:1000CB0006E4C9FBE4CAFCE830E305E4C9CACBFC8F
:1000DB00E854076010F8C3E913F9EA13FAEB13FBC2
:1000EB00EC13FCD8F130F52FC3E49CFCEF9BFFEE37
:1000FB009AFEED99FDD0E0FBEF4E4D4C701222DBDA
:10010B0003020416EC2CFCEF33FFEE33FEED33FD54
:10011B00ED30E7EB0203F1EF2BFFEE3AFEED39FD8D
:10012B00D0E0FB50130BBB0003020419ED13FDEEE3
:10013B0013FEEF13FFEC13FC0203F1EC4D6011E81F
:10014B00497017ED33EC3304600DE4FCFFFEFD2228
:10015B00E933E8330470F802040F1203DA58046031
:10016B0009E4CC24815006285009020419284003C5
:10017B00020416C0E0EB4A7044B98006D0E0FB02E3
:10018B000405EF4E701CBD8008EBFFEAFEE9FD8015
:10019B00EBE98DF0A4FEE5F002022FE9CDF9EAFEC2
:1001AB00EBFFEF89F0A4FCE5F0CE89F0A42EFFE481
:1001BB0035F0CD89F0A42DFEE435F08067EF4E705D
:1001CB0005BD80D780C3EF8BF0A4ACF0EE8BF0A411
:1001DB002CFCE435F0F8EF8AF0A42CE5F038FCE4C5
:1001EB0033CB8DF0A42CFCE5F03BF8EE8AF0A42C7D
:1001FB00FCE5F038F8E433CF89F0A42CFCE5F038BB
:10020B00CF3400CE89F0A42FFFE5F03EFEE433C9D6
:10021B008DF0A42EFEE5F039CD8AF0A42FFFE5F08A
:10022B003EFEE43DFD33D0E0FB50070BBB000F025D
:10023B000419EC2CFCEF33FFEE33FEED33FD020320
:10024B00F1020419EC5D046005E859047003020423
:10025B000F1203DA580460F6EC4860F2EC7004FD00
:10026B00FEFF22C860DB2481C85009C3986002508E
:10027B00060204169850CAF582E9294B4A7005AB61
:10028B008202040575F0007C1A7880C3EF9BEE9A0E
:10029B00ED99400DC3EF9BFFEE9AFEED99FDE84201
:1002AB00F0DC23ACF0D0E0FFD0E0FED0E0FDAB8281
:1002BB0020E7101BEB60BAEC2CFCEF33FFEE33FEA8
:1002CB00ED33FD0203F1E803F830E705C0F075F0FC
:1002DB0000EF2FFFEE33FEED33FD40B830E7C28069
:1002EB00AA74F8CC6480CCC86480C8F58204604FD3
:1002FB00C3EB9FF5F0EA9E42F0E99D42F0E89C4586
:10030B00F0603C501DE5825FFFE582D313CB5BCBE6
:10031B00F42B5582FB50280ABA002409B900200897
:10032B00801DE5825BFBE582D313CF5FCFF4C31354
:10033B002F5582FF50090EBE00050DBD00010CC3E9
:10034B00EB9FF5F0EA9E42F0E99D42F0E89C45F008
:10035B006007CC4820E701B3EC2275F020800E75C6
:10036B00F010800575F0087D007E007F003392D57C
:10037B0030D50312063BEC334010EF33FFEE33FE68
:10038B00ED33FDEC33FCD5F0ED22E5F0247EA2D568
:10039B0013CC92E7CDCEFF22EDD2E7CD33EC3392E7
:1003AB00D524814006E4FFFEFDFC22FCE4CFCECD3C
:1003BB00CC24E0501174FF80EDC3CC13CCCD13CD06
:1003CB00CE13CECF13CF0470F030D5DE02063BE94F
:1003DB00D2E7C933E833F892D5EDD2E7CD33EC331E
:1003EB00FC5002B2D522EC30E7100FBF000C0EBE52
:1003FB0000080DBD00040BEB6014A2D5EB13FCED54
:10040B0092E7FD2274FFFCFDFEFF22E480F8A2D5EB
:10041B0074FF13FC7D80E480EFC2D530F707B2D5B3
:10042B0063F0FF05F030E70CB2D5F4048463F0FF02
:10043B0005F080018430D502F40422BB01068982C9
:10044B008A83E0225002E722BBFE02E32289828AE2
:10045B0083E49322BB010CE58229F582E5833AF50F
:10046B0083E0225006E92582F8E622BBFE06E92549
:10047B0082F8E222E58229F582E5833AF583E4935B
:10048B0022BB010689828A83F0225002F722BBFE2F
:10049B0001F322EF8DF0A4A8F0CF8CF0A428CE8D21
:1004AB00F0A42EFE22C2D5EC30E709B2D5E4C39DF1
:1004BB00FDE49CFCEE30E715B2D5E4C39FFFE49E50
:1004CB00FE120700C3E49DFDE49CFC8003120700B1
:1004DB0030D507C3E49FFFE49EFE22BB0110E582EB
:1004EB0029F582E5833AF583E0F5F0A3E022500984
:1004FB00E92582F886F008E622BBFE0AE92582F898
:10050B00E2F5F008E222E5832AF583E993F5F0A3FF
:10051B00E99322E88FF0A4CC8BF0A42CFCE98EF0AD
:10052B00A42CFC8AF0EDA42CFCEA8EF0A4CDA8F050
:10053B008BF0A42DCC3825F0FDE98FF0A42CCD3514
:10054B00F0FCEB8EF0A4FEA9F0EB8FF0A4CFC5F07E
:10055B002ECD39FEE43CFCEAA42DCE35F0FDE43C77
:10056B00FC2275F008758200EF2FFFEE33FECD33C2
:10057B00CDCC33CCC58233C5829BED9AEC99E58209
:10058B0098400CF582EE9BFEED9AFDEC99FC0FD595
:10059B00F0D6E4CEFBE4CDFAE4CCF9A88222B80085
:1005AB00C1B90059BA002DEC8BF084CFCECDFCE550
:1005BB00F0CBF97818EF2FFFEE33FEED33FDEC3374
:1005CB00FCEB33FB10D703994004EB99FB0FD8E5F9
:1005DB00E4F9FA227818EF2FFFEE33FEED33FDEC42
:1005EB0033FCC933C910D7059BE99A4007EC9BFC38
:1005FB00E99AF90FD8E0E4C9FAE4CCFB2275F010C4
:10060B00EF2FFFEE33FEED33FDCC33CCC833C810E8
:10061B00D7079BEC9AE899400AED9BFDEC9AFCE816
:10062B0099F80FD5F0DAE4CDFBE4CCFAE4C8F92263
:10063B00C3E49FFFE49EFEE49DFDE49CFC22EB9F44
:10064B00F5F0EA9E42F0E99D42F0EC6480C86480CC
:10065B009845F022EB9FF5F0EA9E42F0E99D42F0BF
:10066B00E89C45F022E8600FECC313FCED13FDEEA4
:10067B0013FEEF13FFD8F122BB010DE58229F582A2
:10068B00E5833AF5830207615007E92582F80207F3
:10069B0055BBFE07E92582F802076DE58229F58235
:1006AB00E5833AF5830206B3E493FC740193FD747E
:1006BB000293FE740393FF22ECF0A3EDF0A3EEF094
:1006CB00A3EFF022A8828583F0D083D0821206E6B6
:1006DB001206E61206E61206E6E473E493A3C5835C
:1006EB00C5F0C583C8C582C8F0A3C583C5F0C58353
:1006FB00C8C582C822BC000BBE0029EF8DF084FF59
:10070B00ADF022E4CCF875F008EF2FFFEE33FEECE2
:10071B0033FCEE9DEC984005FCEE9DFE0FD5F0E909
:10072B00E4CEFD22EDF8F5F0EE8420D21CFEADF008
:10073B0075F008EF2FFFED33FD4007985006D5F00D
:10074B00F222C398FD0FD5F0EA22E6FC08E6FD087D
:10075B00E6FE08E6FF22E0FCA3E0FDA3E0FEA3E03B
:10076B00FF22E2FC08E2FD08E2FE08E2FF2278FF2E
:10077B00E4F6D8FD9000007F007E04E4F0A3DFFCDC
:10078B00DEFA7581330207CE0208C3E493A3F8E4C3
:10079B0093A34003F68001F208DFF48029E493A3CE
:1007AB00F85407240CC8C333C4540F4420C88340E7
:1007BB0004F456800146F6DFE4800B0102040810B6
:1007CB0020408090000EE47E019360BCA3FF543F59
:1007DB0030E509541FFEE493A360010ECF54C025EE
:1007EB00E060A840B8E493A3FAE493A3F8E493A3DE
:1007FB00C8C582C8CAC583CAF0A3C8C582C8CAC542
:10080B0083CADFE9DEE780BEC2D5E830E70FB2D599
:10081B00E4C39BFBE49AFAE499F9E498F8EC30E72B
:10082B0017B2D51208491205A9E4C39BFBE49AFA47
:10083B00E499F9E498F880031205A930D50DE4C3C7
:10084B009FFFE49EFEE49DFDE49CFC220000000063
:10085B000000000000000000010B220C40B1999A2F
:10086B0000020200020B861940D9999A010103017B
:10087B00030C4E2D4108000002010402040CB23897
:10088B004113333303010503050D164641266666F6
:10089B0004010103060D7A644140000005010000CC
:1008AB00070BB8464126666602010000080B8664FA
:1008BB004140000001020000C20A12278012256687
:1008CB001219A1121A8B121F8E1227C91219CEF1EF
:1008DB00A612246D12233A122CB9D20C1211CC127F
:1008EB001AB2121035122A3B1216E93123121D7C53
:1008FB003010EC200A101222121228151225791230
:10090B002D8CD20A800E122D761228BC121C0A12C4
:10091B002D2CC20AC21080C7E533B4070040024138
:10092B00F5900933F8282873020948020987020950
:10093B00A4020A160209C8020A35020AD0122E04B2
:10094B00B1D6700E900025120033EC4D4E4F700255
:10095B0041F59000601206CF00000000E4900024E7
:10096B00F0900032E0FFA3E090005ECFF0A3EFF039
:10097B00D2077F013013027F028F332230070241EF
:10098B00F512003090002912002E121B2AD207906C
:10099B00002474FFF07533022230070241F59000FA
:1009AB0024E0600314F022D2A37F057E00121139DC
:1009BB00D2853013047533032275330422122E04AF
:1009CB00B1D6600C900025120033EC4D4E4F7003E6
:1009DB0075330630070241F5900034120033900056
:1009EB0029B1D6400B900034120033121B2A8034ED
:1009FB00900024E0600314F02290002912003312BF
:100A0B002DD2900029120033022E5D122E04B1D686
:100A1B00600C900025120033EC4D4E4F7003753374
:100A2B0006122DF8753305D20722122E04B1D660AB
:100A3B000C900025120033EC4D4E4F7003753306AE
:100A4B0020140241F530070241F51214546406607C
:100A5B0028122DF820130B900034120033121B2A8E
:100A6B00800A9000601206CF000000009000341244
:100A7B000033122DDDD2078049900024E06003146F
:100A8B00F022201338900029120033122DD290003F
:100A9B0034120033900029B1D6600B40099000341A
:100AAB00120033122DDD900029120033122E5D90AF
:100ABB000034120033900029B1D6500622122DF8C3
:100ACB00D207C21422C285121135C2A3121FE290A3
:100ADB0000601206CF00000000D20790002912061A
:100AEB00CF00000000C214E4F533227D01E4FF8F38
:100AFB000C120446FF14601514602814603D14603A
:100B0B003A2404705B122DBD122E188029122DBDB4
:100B1B00F5827401F511858212E582F4F582751365
:100B2B00008013122DBDF4F582751100858212ED34
:100B3B00F5827401F5138582148025ED122E18852C
:100B4B008214EDF5827401F50D85820EEFB4040766
:100B5B00EDFF7401FE8005EDF4FF7E008E0F8F100C
:100B6B0090000112045F7007EDFF7401FE8005ED2C
:100B7B00F4FF7E008E158F1690000212045F700733
:100B8B00EDFF7401FE8005EDF4FF7E00E50C1470A3
:100B9B0002813114700281B4147002A137240360F6
:100BAB0002A1C1E50DAB9A30E006E50E4BFD8004CA
:100BBB00E50E5BFD8D9AE50F30E00890F009122EE3
:100BCB0056800690F009122E4F90F009EDF0E511CA
:100BDB0030E005122E30800690F00A122E4890F06D
:100BEB000AEDF0E51330E005122E28800690F00B8D
:100BFB00122E4190F00BEDF0EE30E005122E7880C6
:100C0B000890F00CE0FBEF5BFD90F00CEDF0E515C0
:100C1B0030E005122E69800690F00D122E71AF0593
:100C2B0090F00DEDF022E50DABA130E006E50E4B9B
:100C3B00FD8004E50E5BFD8DA1E50F30E00890F023
:100C4B0019122E56800690F019122E4F90F019EDB6
:100C5B00F0E51130E005122E30800690F01A122EBE
:100C6B004890F01AEDF0E51330E005122E288006BF
:100C7B0090F01B122E4190F01BEDF0EE30E00512C0
:100C8B002E78800890F01CE0FBEF5BFD90F01CEDE4
:100C9B00F0E51530E005122E69800690F01D122E3E
:100CAB0071AF0590F01DEDF022E50DABA230E00623
:100CBB00E50E4BFD8004E50E5BFD8DA2E50F30E0EC
:100CCB000890F029122E56800690F029122E4F9084
:100CDB00F029EDF0E51130E005122E30800690F092
:100CEB002A122E4890F02AEDF0E51330E005122E73
:100CFB0028800690F02B122E4190F02BEDF0EE3069
:100D0B00E005122E78800890F02CE0FBEF5BFD9055
:100D1B00F02CEDF0E51530E005122E69800690F011
:100D2B002D122E71AF0590F02DEDF022E50DABA33A
:100D3B0030E006E50E4BFD8004E50E5BFD8DA3E573
:100D4B000F30E00890F039122E56800690F03912D1
:100D5B002E4F90F039EDF0E51130E005122E30807A
:100D6B000690F03A122E4890F03AEDF0E51330E091
:100D7B0005122E28800690F03B122E4190F03BED91
:100D8B00F0EE30E008A3E0FDEF4DFF800890F03C63
:100D9B00E0FDEF5DFF90F03CEFF0E51530E009A3CF
:100DAB00E0FDE5164DFF800990F03DE0FDE5165D99
:100DBB00FF90F03DEFF022AB2FAA30A9319000034A
:100DCB0012045FFCE412036F90001BE0F8A3E0F940
:100DDB00A3E0FAA3E0FB0202ECC20B3001101228D5
:100DEB00684008122955EF7002C2017F0022C390A0
:100DFB00005AE094B212151C948C505B20132D12E8
:100E0B002E0DB1D660264024900020120033122EF6
:100E1B003812005112003F122E0DB1D6500A90001D
:100E2B00201206CF41080000D20B802B3013281262
:100E3B002E9AB1D36021401F90001B120033122653
:100E4B006D120023122E9AB1D3500A90001B12067A
:100E5B00CF42200000D20B1228684002C1E790005D
:100E6B0001E07002A3E06002C1F87E003013047F42
:100E7B000580027F37122E8820132F1216DD90006B
:100E8B0020B1D65025900020120033122E381200BC
:100E9B005512003F1216DD900020B1D660084006B7
:100EAB001216DD12003FD20BE177201302E177B16E
:100EBB00C24002E17790001B1200337B0A7AD7798C
:100ECB0023783C120055120023B1C2600B4009126B
:100EDB0000441217FA12001FD20BE1771228B3400D
:100EEB0002E170900001E07002A3E060109000023C
:100EFB00E024FFF0900001E034FFF0806F7E0030C3
:100F0B0013047F0580027F37122E8820132F1200C7
:100F1B0030900020B1D66025402390002012003382
:100F2B00122E3812005190002012002E900020B18A
:100F3B00D6500612003012003FD20B802F30132CEC
:100F4B0090002DE0B1CE6024402290001B120033A4
:100F5B0012266D12002390002DE0B1CE500312002B
:100F6B001BD20B8007E4900001F0A3F0300B06902E
:100F7B0000007420F07F00300B027F0122EF146021
:100F8B000E14600F1460102403700FED42AC22EDB1
:100F9B0042AD22ED42AE22ED42AF22121E84C2853B
:100FAB00C2A3121E73122E917F0251FA7509017B97
:100FBB000051F6122766308004C2138002D21375DB
:100FCB0009037B007A00790951F6121FDA1206CF5A
:100FDB00000000009000341206CF000000009000CB
:100FEB00251206CF00000000E4F533221200301268
:100FFB00003F12001BC203D205C204C20222EF142F
:10100B0060111460151460192403701CE5AC5D604D
:10101B0017D322E5AD5D6010D322E5AE5D6009D339
:10102B0022E5AF5D6002D322C3227D047F0211094A
:10103B00403A900069E025E0F030A203E004F09024
:10104B000069E0FFF46003EF7022122D85E4F5B622
:10105B00BFFF03C38001D392157B01BFFF027B024D
:10106B007D027F02121FF27D04120F88301508E5F6
:10107B001930E703751980301526E518B48521D38F
:10108B00E51B64809480400CAF1BEF3395E0FE12A0
:10109B00283F8009E4F51B751D01751A01E4F5184D
:1010AB00201513E519B4840EE4F519E51A700475CF
:1010BB001C0122E4F51A2275080C1218D44387047C
:1010CB004387020000000000001227BDEF602612CC
:1010DB00278012213912212B7F017E0031391135E6
:1010EB0030100AC210B20B300B031228151228084D
:1010FB0050E6021A78E50860041508802675080B7F
:10110B00121A8B121F77122E7FC39454EE648094A5
:10111B008B5005F1F11219A11218B5122D1DE4F522
:10112B001EF51FE51F451E6094227F0A7E008E0F61
:10113B008F10E4F515E510450F607C0515AE0FAF6C
:10114B0010EE3395E0FDFCE47BA07A0FF9F8120565
:10115B001E31C3C007AF15AB07E4FAF9F8D007127D
:10116B0005A931C3E47FFF7EFFFDFCAB14AA13A9D5
:10117B0012A811D312065F50C2C374FF9514F51455
:10118B0074FF9513F513E49512F512E49511F5110F
:10119B00AF14AE13AD12AC1178081206708F8CE53C
:1011AB0014FF8F8AC20E438810E58820E503300EAA
:1011BB00F85388CFD515D9228F148E138D128C111D
:1011CB002275090A122CFBE490004DF0121F7712C6
:1011DB002E7F122AAAD509F4300C1F9000587412D6
:1011EB00F03002167F0451067FC87E0031397F0430
:1011FB0051067509303135D509FB22EF24FE600EFF
:10120B0024FE60102403701AC2A4D281800AD2A4D7
:10121B00C2818004D2A4D2817F147E003139C2A452
:10122B00C28122122955EF700241D224FE60231491
:10123B00602324FE60572404600241D7915460025E
:10124B0041D7F1B8B11C948B40047F01807F75327C
:10125B000822022C499154FF6407701E20016DEF88
:10126B006407706890002DE0120DCE701D120030D7
:10127B00900020120DD660548010F1E9B11C948BB4
:10128B005004753207227F0751D8022D5F20043C92
:10129B0091547038301335200032D200122327605E
:1012AB00064004D2028007D3300201C3920220020F
:1012BB00047F02800C7F0151067F1E7E0031397F37
:1012CB00015106C20CA123300002C200228F1091E3
:1012DB005465106027E4F511E511122556B510156C
:1012EB00E51175F00CA42457F9740835F0752FFF30
:1012FB00F5308931220511E511B409DC228F09E49F
:10130B00F50C9154F50AF50B24FA700261BA1470BE
:10131B000261B3240760028137512EE509B4080C32
:10132B00200409D204753209C20CB123E509B405B6
:10133B000C200309753208D203C20CB12312285BAF
:10134B005015201208F1E9B11C948B5004F1C880A0
:10135B00047F0751D8D201E509B4030EB1069840BA
:10136B00067F0851D88003753207E50964077022A0
:10137B00D390005AE094B8B11C948B401530050201
:10138B008001D392057F023005027F015106C20C0A
:10139B00B123E50964016002813720120790000335
:1013AB00E0FF8135F1C88137120DE48F0C807DE5AC
:1013BB0009B40309B1069840737F0851D8E5096455
:1013CB00027018900016E06012900014E07002A3F7
:1013DB00E07008D1DDD1B9A3E014F090001FE0302C
:1013EB00E711900019E0FF51D890001FE0547FF0F7
:1013FB004440F090001FE0FF30E53154DFF09000E7
:10140B0019E0B4071CD2149000341206CF411B33E1
:10141B00339000251206CF428C0000D2017F07804B
:10142B000990001FE04440F07F0551D89154B50A54
:10143B0004AF09915DF1DBE50C60037F0122915450
:10144B00650B7F0060027F0122AB2FAA30A931020E
:10145B0004468F0D9154FFB40604C20B800AEFB4FF
:10146B000804C20B8002D20B300B44E50D640270F2
:10147B003E7F06F1D2B111984004D15C8031F1B8B6
:10148B00B11C948B4023750E05E50E122DE3C3B1F1
:10149B001398400AE50E122556FF51D88011150EF0
:1014AB00E50ED3940150E2800691547002F1C8917D
:1014BB0054600A512EE50DB4010312292B90001F25
:1014CB00E0FF30E705547FF0D11890001FE030E5C6
:1014DB001154DFF012004490000B12045FFF600206
:1014EB0051D812004490000912045F600D5402FFA2
:1014FB0090000812045FFD12286F227F08D103EFC2
:10150B00245EFFEE3401FED390005AE09FEE648020
:10151B00F8900059E0648022E4FFD20DB1F2300361
:10152B00010F300503430702300203430704300267
:10153B000343070890004AEFF090001B1200339012
:10154B0000421206C3900020120033900046120690
:10155B00C37B017A0079427D0912273590004BEF4E
:10156B00F0200C0E900066E0FF90004BE0B50702F8
:10157B008073200C0FC3900065E09465900064E0CD
:10158B009400401D7B007A00790F7D007C027F1D4B
:10159B00122707E4FC7F1D122707E4900064F0A3D9
:1015AB00F0E4F50F900064122A337D0A12049EEFCB
:1015BB00250FFDEC3EFC7442250FF9E43400FA7B59
:1015CB00017F19122707050FE50FC3940A40D59029
:1015DB000065E004F07006900064E004F090004BAE
:1015EB00E0900066F0C20D300D07C2AF0075FBAA8C
:1015FB002275FB5500D2AF22E4FEEE122556B5073D
:10160B0004EE022DE30EBE09F1E4FEFF22120044AC
:10161B00F1C0601AF1D2FEC3B11398500A91546411
:10162B0001600B7F018005120044F1C051D822EFFD
:10163B0014600F14601114601324037013EDF45233
:10164B00AC22EDF452AD22EDF452AE22EDF452AFDA
:10165B00229154FF9000196003F080037401F0EFA6
:10166B0064077032122E0E120DD6600A40089000DD
:10167B002012003380031223BB9000081206C31202
:10168B002EA2120DD3600A400890001B120033806B
:10169B0013122EA2800E7F05D1DB900008F1F7FC10
:1016AB00E412036F9000041206C37F06D1DB900097
:1016BB000C1206C390000312045FFCE412036F903C
:1016CB0000101206C39000147403F0A37420F022D0
:1016DB0051D8AB2FAA30A9319000040206831228EF
:1016EB004D8F08900003E06005D3940540069000F1
:1016FB00037401F0900019E0FF6003B4060690003C
:10170B00197401F030034090004DE06007F1DB12DB
:10171B00285B8031E508B40519753209C203F1B8AD
:10172B00B11C948B400690001A740CF0C20CB123C0
:10173B008013122955BF0205122C49800812280864
:10174B005003753207E1DB90001AE06011D21412DE
:10175B0000309000341206C390002DE08044AF0897
:10176B007108EF6002D214915424FA601714702B95
:10177B009000201200339000341206C390001B120D
:10178B00003380239000101200339000251206C303
:10179B0090000C120033900034800FD1E390003492
:1017AB00F1F7FCE412036F9000250206C3D39000FF
:1017BB005AE094222290000A12045FFF22900058F4
:1017CB00E07003740EF022D103EF2432FFE43E22CB
:1017DB00E51C6009E51B6005E4F51CF51B22C390B5
:1017EB00005AE094EA22E4F5BDF5BC221206C39040
:1017FB00000302045FEF14603614605F1470020183
:10180B00922403600201B4EDD39405400201B4307D
:10181B000C0EA8057401088002C333D8FC42802249
:10182B00A8057401088002C333D8FCF4528022ED62
:10183B00D394075074EDC39403406E300C0EA8057F
:10184B007401088002C333D8FC429022A8057401AE
:10185B00088002C333D8FCF4529022EDD394065087
:10186B0048EDC394014042300C0EA805740108806A
:10187B0002C333D8FC42A022A8057401088002C31E
:10188B0033D8FCF452A022EDD39406501C300C0E2E
:10189B00A8057401088002C333D8FC42B022F1EAD8
:1018AB008002C333D8FCF452B022E4F5DE90F692FA
:1018BB00F0FB3132750903E4F50AF50BD174120A0A
:1018CB00FAC20C7D057F020100122CB9E4F5C85356
:1018DB00A8DF311011B5F1AEC2A4C281E4F532D14B
:1018EB007BC390005AE0945412151C948B40153016
:1018FB000512750901D187F1D3FB7A0079097D02B5
:10190B00FF120AFA22E4FB7D03FF31360D313690CC
:10191B00F1287411F090F121E4F090F126F090F1A0
:10192B0025F090F123F0227D057F02EB64026065C8
:10193B00EB64036060EB6419605BEBD3941C505554
:10194B00EF14601514602314603124037047EDD33A
:10195B0094055041ED2400802BEDD394075036EDC8
:10196B00C394034030ED2410801AEDD39406502518
:10197B00EDC39401401FED24208009EDD394065054
:10198B0014ED2430F50DE434F0F50CEB541F850DFC
:10199B0082850C83F022D184C2A4C281FB7D047F9B
:1019AB00023136E47D01FF31367A0079097D107FF3
:1019BB0002120AFA7B007D02E4FF120AFAE4D17BE1
:1019CB00F53222750903750A01750B01C284C283B6
:1019DB007B007A0079097D10E4122E91E4FF120A44
:1019EB00FA90F120E4F0A37411F090F1237401F05C
:1019FB0090F125F090F12A74FFF090F12EF090F118
:101A0B0022E4F090F1277411F0A3F090F160E4F070
:101A1B0090F165F090F1647411F090F131741FF056
:101A2B0090F130743FF090F1397409F090F1387403
:101A3B005FF090F141E4F090F149F090F140F090BB
:101A4B00F148F09000601206CF00000000F1E2C2F6
:101A5B0009C20790F166F090F126741DF0122CAAC2
:101A6B007B167D03E4FF31367B120D2136518B3112
:101A7B00CE31A1120FA651B2C20C1211CC0217F12A
:101A8B00E4F509F50AF50BD1737F02120AFA7B0113
:101A9B00313275DF4075DE60E4F5E9F5D1F5D375CC
:101AAB00D50F75D4FF7117750F2D750EA6750D33E8
:101ABB00750C3E7F0BD198712112024F8F268E250C
:101ACB008D248C232002028011E4FBFAF97840AFBD
:101ADB0026AE25AD24AC2312024F8F2A8E298D28DA
:101AEB008C2753DE7F90F692E4F043DE807F1FD18C
:101AFB008E122BEF7F9A7E997D997C4512024F7146
:101B0B00ED8F2E8E2D8D2C8C2B53DE7F90F69274B9
:101B1B00A0F043DE8022AB0FAA0EA90DA80C22B1B8
:101B2B006D8C087F147EAE7D3F7C4191011202ECDF
:101B3B006010400E750F14750EAE750D3F750C4190
:101B4B0080297F337E337DA37C4091011202EC50C0
:101B5B000E750F33750E33750DA3750C40800C8508
:101B6B000B0F850A0E85090D85080CE4FFFE7D80A1
:101B7B007CBF71211200557B767AE079DC783E715F
:101B8B00EA71217F547E527D977C4012005171ED9A
:101B9B00AB2EAA2DA92CA82B12024F71EDE4FBFA48
:101BAB0079C8784271EAE4FFFEFDFC71211202EC68
:101BBB005009E4F50FF50EF50DF50CB1747121120A
:101BCB0002EC600D400BE4F50FF50E750DC8750CAE
:101BDB0042AF0FAE0EAD0DAC0C9000600206C312FF
:101BEB0001468F0F8E0E8D0D8C0C22E0FEA3E0FFB5
:101BFB00EE3395E0FDFCAB0BAA0AA909A8082290CD
:101C0B000057E0C394285045F179B16D8C089000D2
:101C1B0057E004F0900053F16C250BFFEE350AFEF4
:101C2B00ED3509FDEC350891EE90004F71F6C312BE
:101C3B000649500590004F91F590005171F6D31263
:101C4B000649500281DD90005191F581DD900053E2
:101C5B00120033C004C005C006C007900051E0FE5F
:101C6B00A3E0FBAA06EA3395E0F9F890004FE0FEFB
:101C7B00A3E0FFEE3395E0FDFCEF2BFBEE3AFAED24
:101C8B0039F9EC38F8D007D006D005D004C3EF9B58
:101C9B00FFEE9AFEED99FDEC9891EE900053120039
:101CAB0033C006C007A3E024FEFFE434FFAB07FA02
:101CBB003395E0F9F8D007D00612081391EF900096
:101CCB0053A3A3E0FFA3E0900059CFF0A3EFF012D2
:101CDB002CFB90004CE0600214F0900058E0600286
:101CEB0014F022FC9000530206C3E50AF0A3E50BA7
:101CFB00F022201302800CB174900025120DD660D7
:101D0B000F400DE4F50BF50A7509C8750842800DF7
:101D1B00900025F16CF50B8E0A8D098C08B1527B66
:101D2B00007AF079157845120146B15B8C087F007B
:101D3B007EF07D157C4591011202EC5005B15202EB
:101D4B0003A37E097F5F22AF0BAE0AAD09AC08225D
:101D5B008F0B8E0A8D098C08E4FBFA79C878421236
:101D6B00024F8F0B8E0A8D0922E4FFFE7DC87C4249
:101D7B0022200702C16030092D90F129E054116037
:101D8B0002C16090F164E030060554EFF08003442B
:101D9B0010F090F164E030080554FEF0800344012C
:101DAB00F0C207C20922B174900060120DD6600C0C
:101DBB00400A9000601206CF42C80000D16A120D93
:101DCB00D6500A9000601206CF00000000D161E4EB
:101DDB00FCFD7B5F7A09F9F8C3120649500A9000A3
:101DEB005E7409F0A3745FF0D16A120DD6600540E2
:101DFB0003D38001C3920890005EE07002A3E0C39E
:101E0B006001D39206E4FFFE7DFA7C4590006012E0
:101E1B002BF8F16378BF120055B15B8C081203A34A
:101E2B00AD07AC06ECFFEF90F141F0ED90F140F017
:101E3B00D161C3745F9FFD74099EFC4D7002C20695
:101E4B00ECFFEF90F149F0ED90F148F0D20990F1F1
:101E5B0029E04411F02290005EE0FEA3E0FF22E4B3
:101E6B00FFFEFDFC90006022FB7A0079097D2022A9
:101E7B00900068F0900067F022750903E4F50A758D
:101E8B000B0122D1CCAC06AD07EC02036AAB079079
:101E9B00F692E030E70CE4F513F512F511751040EE
:101EAB00800C852E13852D12852C11852B10AF03DD
:101EBB00D18EAB13AA12A911A810F16378450202B7
:101ECB004FAB077AFFC3EB64809480400FD3EB6476
:101EDB00809496400BEB6480949F5004E4FEFF22A9
:101EEB00E4F517F516F515F514EB30E40543DF8033
:101EFB00800353DF7F53DEF0EB540F42DEDAFEE458
:101F0B00FBFA43DF02E5DF20E1FBAFDC8F82758359
:101F1B0000AFDDEFFEEEF583AF823395E0FDFCE520
:101F2B00172FF517E5163EF516E5153DF515E514D6
:101F3B003CF5140BBB00010AEB64064A70C4AF17E7
:101F4B00AE16AD15AC14E47B06FAF9F81208138F34
:101F5B00178E168D158C1422120146E4FBFA79802C
:101F6B0022E0FCA3E0FDA3E0FEA3E02251B2E4FFDC
:101F7B00FE7D7A7C44AB2AAA29A928A82712014600
:101F8B000203A37508C812113551B2E4FFFE7D2080
:101F9B0012232D6002500BD508EC7532021222125F
:101FAB0080FB22C285C2A3F1DA1206CF000000002B
:101FBB009000341206CF000000009000251206CFCF
:101FCB0000000000E4F5332275BCFF75BDBF22C2D3
:101FDB0080C21490002922E490005EF0A3F022AF9F
:101FEB0005A80774010822EBD394035055EF146036
:101FFB001514602314603124037047EDD3940550FE
:10200B0041ED2480802BEDD394075036EDC3940320
:10201B004030ED2488801AEDD394065025EDC394FF
:10202B0001401FED24908009EDD394065014ED244C
:10203B0098F50CE434F0F50BEB5403850C82850B0F
:10204B0083F022EF14602214603D14605824037057
:10205B0072EDD394054002806AED248011E3800277
:10206B00C333D8FC55ACFC805EEDD394075006ED22
:10207B00C394035002804CED248811E38002C333D8
:10208B00D8FC55ADFC8040EDD394065006EDC394BF
:10209B00015002802EED249011E38002C333D8FC53
:1020AB0055AEFC8022EDD3940640028016ED2498A9
:1020BB00FBE434F0FA121FEA8002C333D8FC55AFAD
:1020CB00FC8004E4FEFF22EC7003FEFF228B828A6D
:1020DB0083E05403FF7E0022FBE434F0FAA805747E
:1020EB000108227D027F02114EEF64014E702FC258
:1020FB0015E518547FFFE4F518E51A7004E51D602B
:10210B0007E4F51DF51A8018EFC394055012C3E5CB
:10211B001B648094885002051B751980800231392D
:10212B007D047F0212163A90006974AAF022D21530
:10213B00E51930E703751980E51820E7037518805A
:10214B0022C0E0C0F0C083C082C085C084C0867549
:10215B008600C0D075D000C000C001C002C003C053
:10216B0004C005C006C00711EE75B600D007D00637
:10217B00D005D004D003D002D001D000D0D0D0866F
:10218B00D084D085D082D083D0F0D0E032C2AF00E3
:10219B007596AA75965575978080FE2230020C2095
:1021AB001309C202C20C121523319830130471BBF0
:1021BB0080087F337E337D8B7C40712F6021401FE5
:1021CB007F327E00121139E5087F0160027F008F9C
:1021DB0008E5087F0160027F028F32511280E120F7
:1021EB00022471276020401ED202C20C12152375E7
:1021FB000828E5087F0030E0027F018F32F166513D
:10220B0012D508EE319822F16D5017900067E0C39C
:10221B006480948C5005E004F0800CE4900067F02F
:10222B00610EE4900067F0E532B40A0040026112DF
:10223B00902242F828287302226002226A02226F3F
:10224B0002228E02227402228E0222760222C902FE
:10225B0022C90222C9C2A4C281E4900068F022C242
:10226B00A4D28122D2A4C28122801371137F8060F9
:10227B00027F00900068EFF071177002610ED2A41C
:10228B00D28122C281900068E0FF547FFEE5327D4F
:10229B0000B403027D03C3ED711F500C0EEF54808D
:1022AB00900068F04EF0800D71137F8060027F000C
:1022BB00900068EFF07113C36001D392A4229000D9
:1022CB0068E0547FF0E53264086005E532B4090438
:1022DB007F0680027F0A900068E0FED3EF711F40FB
:1022EB0004E4F53222900068E0FF04F0EF75F00291
:1022FB00120424AFF0EF600BE532B40903D2812254
:10230B00D2A422C2A4C28122900068E05480FF3381
:10231B0095E04F226480F8EE648098227F337E3301
:10232B007D8B7C40AB26AA25A924A8230202ECD2E4
:10233B000B121AB220040431A78024201307300299
:10234B0004C20B801A30020C71BB712F6006400463
:10235B00C20B800B200208712760044002C20B20C5
:10236B000B1B7F0F7E00121139D3300B01C3920B65
:10237B007F01300B027F028F32511280E522200346
:10238B002EA204920B120FF7300B02D204C20C12C6
:10239B001523C20D1215F2750D6475320612113527
:1023AB0051121200065002150DE50D70F0319822F6
:1023BB007F9A7E997D097C4122750DFFC20D121506
:1023CB00F2753203150DE50D6007121135511280B0
:1023DB00F321987B017A007938D178900064EEF084
:1023EB00A3EFF07B017A0079387D09F1359000413C
:1023FB00E06F705D900040E0C330E301D392049036
:10240B000040E0C330E201D39202900040E0C330C1
:10241B00E101D39205900040E0C330E001D3920379
:10242B0090003812003312002390003C120033123C
:10243B00003F900041E0900066F0900065E004F0F2
:10244B007006900064E004F0120006401071898061
:10245B000C120FF7D203D20C12152371C4C20D024A
:10246B0015F2752FFF753008753157900003740105
:10247B00F0C203C200E490001AF0900001F0A374C4
:10248B000AF0C201E4900000F09000167406F0A36D
:10249B001216D3E4F508E508B156FBB4010EB13BB7
:1024AB0090002DF0B12690002E1206C3EBB4060E51
:1024BB00B12690000CB138FCE412036FB173E50840
:1024CB00B156B40512B126900008B138FCE41203E2
:1024DB006F9000041206C30508E508640970B77114
:1024EB00DE90002DE0FFE48F0CF50BF50AF509AF3C
:1024FB000CAE0BAD0AAC097B5F7A09F9F812051E1D
:10250B00B14DE47B64FAF9F81205A9B14DE50B5412
:10251B007FFE900032EEF0A3EFF022E50875F00C91
:10252B00A4245BF582E43408F5830206B31206C3D8
:10253B00E50875F00CA4245AF582E43408F583E41D
:10254B0093228F0C8E0B8D0A8C092275F00CA42410
:10255B0057F582E43408F583E49322C2AF007596F5
:10256B00AA75965553977F229000100206C312143A
:10257B00546406602B900016E064067002C16CA3D5
:10258B00E07002A3E0600C900018E024FFF09000D4
:10259B001780219000171216D3900016E004F0223A
:1025AB00900014E07002A3E0600F900015E024FF90
:1025BB00F0900014E034FFF0222013529000081228
:1025CB000033A3120DD66012401090000C12003392
:1025DB00D16D90000C1206C38031900019E0B40746
:1025EB0025900008120033A31206C390000C1200B2
:1025FB0033900020120DD6500990000C12003312AC
:10260B00003F7F0780027F051212D8D21422900060
:10261B0004120033900010120DD660174015900075
:10262B00101200337B0A7AD77923783D120051B10F
:10263B0073802C900019E0B4072090000412003333
:10264B00B173900010120033120DD350099000108B
:10265B001200331200237F0780027F051212D8D29B
:10266B0014227B0A7AD77923783C0200518B0D8A8E
:10267B000E890FE4F511F512D20D1215F2E4F510D7
:10268B00D1DC40FCAB0DAA0EA90F7D09F135AB0DCA
:10269B00AA0EA90F90000912045FB507130512E5E6
:1026AB001270020511C39465E5116480948040CDCE
:1026BB00D3E5129400E511648094804008E512156F
:1026CB001270021511E4F510D1DC40FCAE11AF1203
:1026DB0022AE11AF127C007D0A12049EEF2510FD75
:1026EB00EC3EFCAB0D7E00E50F2510F9EE350EFA36
:1026FB007F11F1070510E510C3940A228F13E51320
:10270B00B41905120446F5FEEDF5FCECFFEFF5FDF3
:10271B00008513FF000000000000E5FF20E0FBE553
:10272B0013B41105E5FE12048C228B138A14891540
:10273B007FFFAB130515E515AA147002051414F9E8
:10274B0012044662077E08EF30E70725E06407FFB7
:10275B008004EF25E0FFDEEFDDD8227F287E00022C
:10276B00113990004DE06002C322121454B40803D7
:10277B00D38001C3225388CF5389F0438901E4F5F9
:10278B008CF58AF5CE75CB0B75CADB75CD5D75CC2B
:10279B0066F5C975CF8075A8A2C210C20F75C89116
:1027AB002275C900B20F300F02D210325388EFD20C
:1027BB000E3220A2037F0122E5B65404FF227508D6
:1027CB0001E4F509F50AFB7D027F021219367A0046
:1027DB0079087D04120AFA7D047F02120F887B02AE
:1027EB007D02121FF243B904122D8590006974FF0C
:1027FB00F0E4F518F519F51BF51CF51D22E51D6028
:10280B0002D322E51CC36001D322E4FE74182EF818
:10281B00E630E71B547FFDEE7F0470027F05EDC3AE
:10282B009F50010DE65480F674182EF8E64DF60E07
:10283B00BE02D922E4F519F51CF51BF51AEF04F5C8
:10284B001D22E51D7004E51C70037F0022AF1B22C7
:10285B00E51D64016002C322E4F51DD322E51AC312
:10286B006001D3228D0F7E0211B35004D20C800471
:10287B001168920C20120F7E0A301103300C07E402
:10288B0090006AF08002312290006AE0D39E4017DC
:10289B00EF60028006300C05301202212BE4900011
:1028AB006AF0AF0F1212D822E51DB40202D322C375
:1028BB0022121454B4070280081168400B11B34064
:1028CB0007E490001FF080467F063013027F0EABAB
:1028DB000790001FE0FE541FFD7012EE20E60E1154
:1028EB00B37C8050027C20EE4C90001FF090001FB8
:1028FB00E054E0F0C3EB6480F8ED6480985007E09F
:10290B0020E6030D8002E4FD90001FE04DF09000E7
:10291B001AE0600214F02290006AE0700204F022C8
:10292B00121454FF6023D394055005900003EFF06D
:10293B009000341206CF000000009000251206CF45
:10294B0000000000E4FF1212D822E51D14FFD3642F
:10295B008094804001227F002290004DE014B40946
:10296B00004002412F90297E75F003A4C58325F00A
:10297B00C583730229990229A90229BE0229C4021F
:10298B0029E00229E60229F50229FB022A17900009
:10299B004CE06002412F740FF0A37402F0229123DC
:1029AB008F3290004CE0707C51307D641204B07D0E
:1029BB000380357D047F02803551307D641204B075
:1029CB0090005BECF0FEA3EDF0FF7C007D0A12049F
:1029DB00B07D0580137D067F04801351307D0A1274
:1029EB0004B0AE04AF057D0781047D087F018179BA
:1029FB0090004CE0702E71C050051214547006906C
:102A0B0000587412F090004D7409F022E490005BB2
:102A1B00F0A3F0900058E0600261CE3155EF7004E6
:102A2B0090004DF02290005BE0FEA3E0FF7C0022C3
:102A3B00900059E0FEA3E0FFD39404EE6480948BE6
:102A4B004033301211D3EF94B8EE6480948B400274
:102A5B00C212C21180231200449000011204E6FF3F
:102A6B00D390005AE09FE5F01215199840028001AF
:102A7B00D392118004C211D21251AAE532D394061B
:102A8B00501C90004DE06002216471C0500512147F
:102A9B00547006900058E0600261CEE4F53222E4F7
:102AAB00FFFE7DA07C41900025120DD6500A9000B0
:102ABB003A1206CF00000000E4FFFE7DA07CC1901F
:102ACB00002571F812005590003A1206C3E4FBFA88
:102ADB0079A0784290003A12003312024FE4FBFACD
:102AEB007996784312014671EF7F007E407D677CBB
:102AFB004512005190003A1206C390003A1200336F
:102B0B001203A3900038EEF0A3EFF090004EE01408
:102B1B00601C1460471460722403600261AE71AFD5
:102B2B00C312151398507C90004E7401F02271AFB4
:102B3B0024C8FDE43EFC900059E0FAA3E0FBD39DD2
:102B4B00EC71B84005E490004EF0EF2438FFEE3402
:102B5B00FFFEC3EB9FEE71B85049804171AF9000FF
:102B6B0059E0FCA3E0FDD39FEE6480F8EC64809801
:102B7B00400690004E7401F0C3ED9486EC64809493
:102B8B008B502090004E7403F022900039E02438D3
:102B9B00FF900038E034FF12151198400690004E5C
:102BAB007402F022900038E0FEA3E0FF226480F86C
:102BBB00EA64809822E53324FD24FD50028002D381
:102BCB0022C32290004EE014600E14600F146010AC
:102BDB002403700F753201227532042275320222E2
:102BEB0075320322A804A905AA06AB0722E0F8A3B5
:102BFB00E0F9A3E0FAA3E0FB2290004CE07018EFA1
:102C0B004E70057480F0800AEF25E025E0149000EB
:102C1B004CF090004DEDF02290004CE0FFD3940966
:102C2B004019EF24F8C31314FF3395E0FE74032F00
:102C3B00F58274003EF583E493FF227F002290001F
:102C4B004DE0702904F071C0500DE5326006900024
:102C5B004C7408F0E4F532121D74AB26AA25A92496
:102C6B00A823121F8890005BEEF0A3EFF0228F08D1
:102C7B008D0990004CE030E708121206E490004CEE
:102C8B00F090004CE0FF7E0030E102AE088E32EF98
:102C9B00700CF53290004C740AF0A3E509F0229009
:102CAB00F1297411F090F129E0541170F822439A34
:102CBB000443A11843A24043A3075380F85390E762
:102CCB0053A08053B0F890F00A91F190F01AE054B1
:102CDB00E7F0A3E054E7F090F02AE05480F0A3E093
:102CEB005480F090F03AE054F8F0A3E054F8F0225E
:102CFB0090004F747FF0A374FEF0A37480F0A37464
:102D0B0002F0E4900057F09000531206CF00000041
:102D1B000022900016E0C3648094865003E004F018
:102D2B0022121454B4072C900000E0FFD36480945B
:102D3B00814004E014F022EFB40118E4900000F09D
:102D4B00C390005AE094B812151C948B4005C20C2A
:102D5B0012152322D20112003012003F90002DE0F9
:102D6B00FCE412036F90001B0206C390006AE06044
:102D7B0008C3940B5003E004F022751E00751F2846
:102D8B0022B1AAEF6002B185D3E51F9400E51E9432
:102D9B00004009E51F151F7002151E220210C2907C
:102DAB00004DE060037F01221214547F0060027F0C
:102DBB000122EDF4F58275830085830D85820E85E6
:102DCB00830F858210ED227BCD7ACC79CC783D12A6
:102DDB0000559000290206C375F00CA42458F58207
:102DEB00E43408F583E493FE740193FF22121CFD77
:102DFB0090005EEEF0A3EFF022E4FFFEFDFC9000EE
:102E0B003422E4FFFE7D087C4190002022F4F58201
:102E1B0075830085831185821285831322A3E0FBC2
:102E2B00E5144BFD22A3E0FBE5124BFD227BCD7A93
:102E3B00CC794C783D22E0FBE5145BFD22E0FBE511
:102E4B00125BFD22E0FBE5105BFD22E0FBE5104B86
:102E5B00FD22121B2A9000247405F0D20722A3E056
:102E6B00FBE5164BFD22E0FBE5165BFD22A3E0FB29
:102E7B00EF4BFD22900059EEF0A3EFF022900001F2
:102E8B00EEF0A3EFF022FF120AFA7B007D0822E49A
:0F2E9B00FFFE7D207C4222E4FFFE7D487C422228
:00000001FF
