:10000000020712070405060B040203023027C12869
:10001000C129C12441004700C10D41003900410000
:100020002400000102030201020FE502301A1F053D
:1000300001160D0806020602A2802202308C02037D
:10004000FFE86480F8E933E83360110460F0ED33D1
:10005000EC337009E8FCE9FDEAFEEBFF220460DE08
:10006000D3EB9FEA9EE99DE8C2E78CF0C2F795F0DA
:10007000400CE8CCF8E9CDF9EACEFAEBCFFB12035D
:10008000CA85D0F05804700320D5B3E80470075037
:1000900002B2D502040992D5EC0460F7E4CCC0E0CA
:1000A000C398F8603B94186008400DD0E0FB020351
:1000B000E1E4FBFAC9FC8028E830E406E4C9FBE48B
:1000C000CAFCE830E305E4C9CACBFCE85407601079
:1000D000F8C3E913F9EA13FAEB13FBEC13FCD8F1BC
:1000E00030F52FC3E49CFCEF9BFFEE9AFEED99FDEB
:1000F000D0E0FBEF4E4D4C701222DB03020406EC05
:100100002CFCEF33FFEE33FEED33FDED30E7EB0279
:1001100003E1EF2BFFEE3AFEED39FDD0E0FB50138B
:100120000BBB0003020409ED13FDEE13FEEF13FFFA
:10013000EC13FC0203E1EC4D6011E8497017ED335C
:10014000EC3304600DE4FCFFFEFD22E933E83304E8
:1001500070F80203FF1203CA58046009E4CC24813A
:100160005006285009020409284003020406C0E092
:10017000EB4A7044B98006D0E0FB0203F5EF4E7005
:100180001CBD8008EBFFEAFEE9FD80EBE98DF0A4E1
:10019000FEE5F002021FE9CDF9EAFEEBFFEF89F080
:1001A000A4FCE5F0CE89F0A42EFFE435F0CD89F073
:1001B000A42DFEE435F08067EF4E7005BD80D7803A
:1001C000C3EF8BF0A4ACF0EE8BF0A42CFCE435F084
:1001D000F8EF8AF0A42CE5F038FCE433CB8DF0A4E2
:1001E0002CFCE5F03BF8EE8AF0A42CFCE5F038F8A6
:1001F000E433CF89F0A42CFCE5F038CF3400CE896D
:10020000F0A42FFFE5F03EFEE433C98DF0A42EFEEE
:10021000E5F039CD8AF0A42FFFE5F03EFEE43DFD88
:1002200033D0E0FB50070BBB000F020409EC2CFCA1
:10023000EF33FFEE33FEED33FD0203E1020409EC80
:100240005D046005E8590470030203FF1203CA58F5
:100250000460F6EC4860F2EC7004FDFEFF22C8601A
:10026000DB2481C85009C398600250060204069836
:1002700050CAF582E9294B4A7005AB820203F57535
:10028000F0007C1A7880C3EF9BEE9AED99400DC385
:10029000EF9BFFEE9AFEED99FDE842F0DC23ACF017
:1002A000D0E0FFD0E0FED0E0FDAB8220E7101BEBFA
:1002B00060BAEC2CFCEF33FFEE33FEED33FD0203AE
:1002C000E1E803F830E705C0F075F000EF2FFFEE2E
:1002D00033FEED33FD40B830E7C280AA74F8CC6439
:1002E00080CCC86480C8F58204604FC3EB9FF5F0F2
:1002F000EA9E42F0E99D42F0E89C45F0603C501DCA
:10030000E5825FFFE582D313CB5BCBF42B5582FBF9
:1003100050280ABA002409B9002008801DE5825B34
:10032000FBE582D313CF5FCFF4C3132F5582FF5069
:10033000090EBE00050DBD00010CC3EB9FF5F0EAF0
:100340009E42F0E99D42F0E89C45F06007CC4820D1
:10035000E701B3EC2275F020800E75F01080057572
:10036000F0087D007E007F003392D530D503120661
:1003700028EC334010EF33FFEE33FEED33FDEC336A
:10038000FCD5F0ED22E5F0247EA2D513CC92E7CD8A
:10039000CEFF22EDD2E7CD33EC3392D52481400657
:1003A000E4FFFEFDFC22FCE4CFCECDCC24E05011D6
:1003B00074FF80EDC3CC13CCCD13CDCE13CECF13B1
:1003C000CF0470F030D5DE020628E9D2E7C933E861
:1003D00033F892D5EDD2E7CD33EC33FC5002B2D5F1
:1003E00022EC30E7100FBF000C0EBE00080DBD0060
:1003F000040BEB6014A2D5EB13FCED92E7FD227425
:10040000FFFCFDFEFF22E480F8A2D574FF13FC7D03
:1004100080E480EFBB010689828A83E0225002E7F4
:1004200022BBFE02E32289828A83E49322BB010C71
:10043000E58229F582E5833AF583E0225006E92535
:1004400082F8E622BBFE06E92582F8E222E582294F
:10045000F582E5833AF583E49322BB010689828A1B
:1004600083F0225002F722BBFE01F322EF8DF0A4AD
:10047000A8F0CF8CF0A428CE8DF0A42EFE22C2D5F9
:10048000EC30E709B2D5E4C39DFDE49CFCEE30E717
:1004900015B2D5E4C39FFFE49EFE1206BDC3E49DE2
:1004A000FDE49CFC80031206BD30D507C3E49FFF2A
:1004B000E49EFE22BB0110E58229F582E5833AF530
:1004C00083E0F5F0A3E0225009E92582F886F008E0
:1004D000E622BBFE0AE92582F8E2F5F008E222E511
:1004E000832AF583E993F5F0A3E99322BB010A89F6
:1004F000828A83F0E5F0A3F0225006F709A7F019ED
:1005000022BBFE06F3E5F009F31922E88FF0A4CC34
:100510008BF0A42CFCE98EF0A42CFC8AF0EDA42C2A
:10052000FCEA8EF0A4CDA8F08BF0A42DCC3825F0F9
:10053000FDE98FF0A42CCD35F0FCEB8EF0A4FEA9E4
:10054000F0EB8FF0A4CFC5F02ECD39FEE43CFCEAF1
:10055000A42DCE35F0FDE43CFC2275F00875820038
:10056000EF2FFFEE33FECD33CDCC33CCC58233C578
:10057000829BED9AEC99E58298400CF582EE9BFE09
:10058000ED9AFDEC99FC0FD5F0D6E4CEFBE4CDFA64
:10059000E4CCF9A88222B800C1B90059BA002DEC08
:1005A0008BF084CFCECDFCE5F0CBF97818EF2FFFA0
:1005B000EE33FEED33FDEC33FCEB33FB10D7039948
:1005C0004004EB99FB0FD8E5E4F9FA227818EF2FF5
:1005D000FFEE33FEED33FDEC33FCC933C910D70514
:1005E0009BE99A4007EC9BFCE99AF90FD8E0E4C933
:1005F000FAE4CCFB2275F010EF2FFFEE33FEED3363
:10060000FDCC33CCC833C810D7079BEC9AE899408F
:100610000AED9BFDEC9AFCE899F80FD5F0DAE4CDF1
:10062000FBE4CCFAE4C8F922C3E49FFFE49EFEE4B5
:100630009DFDE49CFC22EB9FF5F0EA9E42F0E99DD3
:1006400042F0EC6480C864809845F022EB9FF5F09E
:10065000EA9E42F0E99D42F0E89C45F022E8600FF6
:10066000ECC313FCED13FDEE13FEEF13FFD8F122E4
:10067000E493FC740193FD740293FE740393FF22D0
:10068000ECF0A3EDF0A3EEF0A3EFF022A8828583B7
:10069000F0D083D0821206A31206A31206A312067C
:1006A000A3E473E493A3C583C5F0C583C8C582C81A
:1006B000F0A3C583C5F0C583C8C582C822BC000BA2
:1006C000BE0029EF8DF084FFADF022E4CCF875F088
:1006D00008EF2FFFEE33FEEC33FCEE9DEC98400567
:1006E000FCEE9DFE0FD5F0E9E4CEFD22EDF8F5F02D
:1006F000EE8420D21CFEADF075F008EF2FFFED3335
:10070000FD4007985006D5F0F222C398FD0FD5F0B2
:10071000EA2278FFE4F6D8FD9000007F007E04E432
:10072000F0A3DFFCDEFA75816A0207670209FCE4C8
:1007300093A3F8E493A34003F68001F208DFF4806A
:1007400029E493A3F85407240CC8C333C4540F44BA
:1007500020C8834004F456800146F6DFE4800B0194
:100760000204081020408090000EE47E019360BCDB
:10077000A3FF543F30E509541FFEE493A360010E2C
:10078000CF54C025E060A840B8E493A3FAE493A353
:10079000F8E493A3C8C582C8CAC583CAF0A3C8C574
:1007A00082C8CAC583CADFE9DEE780BEC2D5E830A9
:1007B000E70FB2D5E4C39BFBE49AFAE499F9E49815
:1007C000F8EC30E717B2D51207E2120596E4C39BA6
:1007D000FBE49AFAE499F9E498F88003120596305C
:1007E000D50DE4C39FFFE49EFEE49DFDE49CFC2246
:1007F000000D7004000C9AFB000BD49E000B1BD361
:10080000000A6F960009CEF80009391C0008AD38BF
:1008100000082A930007B08100073E640006D3AAAF
:1008200000066FCD000612510005BAC3000568B975
:1008300000051BD30004D3B40004900A00045087C1
:10084000000414E30003DCDC0003A833000376B1EA
:100850000003482000031C4E0002F30D0002CC34BC
:100860000002A79B0002851C00026496000245EA74
:10087000000228F800020DA60001F3D90001DB7A7E
:100880000001C4730001AEAE00019A19000186A0F8
:1008900000017432000162C00001523C0001429626
:1008A000000133C2000125B40001186000010BBC37
:1008B000FFBDF45BE98CDF48D587CC42C373BB1224
:1008C000B31AAB85A44D9D6F96E490A88AB8850FA6
:1008D0007FA97A84759B70EC6C74682F641C6037F8
:1008E0005C7F58F1558B524C4F304C37495F46A6D0
:1008F000440B418C3F293CDE3AAD3892368E349F12
:1009000032C530FD2F492DA52C132A90291D27B85B
:100910002662251923DC22AC000000000000000143
:1009200000010000000001000000000000000000C5
:100930000000000003001600000ABE0000000302D1
:100940000002020002000009C400000002000300CF
:1009500005008500000B5401000105020600060198
:10096000B100000B860100010501070507042A00FC
:10097000000BEA0100010601080608087600000CD9
:100980004E0101010701090709123A00000CB201EA
:100990000101080105080A71EE00000D3400010094
:1009A0000A0000090C708000000ABE0001000C0261
:1009B0000D0B041A0A00640C800001010400000001
:1009C0000B71EE00000ABE0001000B020C0D0D1BA6
:1009D0005800000ABE0001000D020B0C0E708002D0
:1009E000DD0B540001000E0200000F091D00C80DB0
:1009F000AC0001000F02000000010302122F2012C0
:100A00002FF05171D10D12384712219112289912ED
:100A100016CBD2261239B3C21F1200281218481260
:100A200026E81238D612193112263C121CF2123363
:100A3000B01214063017E220281C123F481223BBC4
:100A4000123B45123EE6122E271237EC123B5F1284
:100A50003054D2288017123729121514123DB012C3
:100A60003DB9123C5F122118123A8EC228C217807B
:100A7000A8123FD7121796F1A8F1177D40F1177D04
:100A8000047F0351997B007D20F1177D10E4FF80E6
:100A90000851997B007D017F038F29120414FF14F4
:100AA000601714602C14604414604124047061F1D8
:100AB000D485822D123FBC802EF1D485822DEDF598
:100AC000827401F52E85822FEDF4F5827530008059
:100AD00016F1D485822DEDF4F582752E0085822FD6
:100AE000EDF5827401F5308582318024123FBC859A
:100AF0008231EDF5827401F52A85822BEFB404076B
:100B00007401FEAF828005EDF4FF7E008E2C8F2DE8
:100B100090000112042D7007EDFF7401FE8005EDB9
:100B2000F4FF7E008E328F3390000212042D700786
:100B3000EDFF7401FE8005EDF4FF7E00E5291470E1
:100B40000261CD147002814714700281C1240360D8
:100B500002A145E52AAB9A30E006E52B4BFD800467
:100B6000E52B5BFD8D9AE52C30E00790F009F191C3
:100B7000800590F009F18A90F009EDF0E52E30E063
:100B800004F1A0800590F00AF18390F00AEDF0E501
:100B90003030E004F198800590F00BF17C90F00B80
:100BA000EDF0EE30E004F1C5800890F00CE0FBEFD2
:100BB0005BFD90F00CEDF0E53230E004F1CC800507
:100BC00090F00DF1BEAF0590F00DEDF022E52AABEF
:100BD000A130E006E52B4BFD8004E52B5BFD8DA1EC
:100BE000E52C30E00790F019F191800590F019F1B3
:100BF0008A90F019EDF0E52E30E004F1A080059028
:100C0000F01AF18390F01AEDF0E53030E004F1983D
:100C1000800590F01BF17C90F01BEDF0EE30E004CD
:100C2000F1C5800890F01CE0FBEF5BFD90F01CED3F
:100C3000F0E53230E004F1CC800590F01DF1BEAF5C
:100C40000590F01DEDF022E52AABA230E006E52B81
:100C50004BFD8004E52B5BFD8DA2E52C30E0079079
:100C6000F029F191800590F029F18A90F029EDF0BA
:100C7000E52E30E004F1A0800590F02AF18390F099
:100C80002AEDF0E53030E004F198800590F02BF18A
:100C90007C90F02BEDF0EE30E004F1C5800890F090
:100CA0002CE0FBEF5BFD90F02CEDF0E53230E00442
:100CB000F1CC800590F02DF1BEAF0590F02DEDF058
:100CC00022E52AABA330E006E52B4BFD8004E52BA3
:100CD0005BFD8DA3E52C30E00790F039F1918005A4
:100CE00090F039F18A90F039EDF0E52E30E004F122
:100CF000A0800590F03AF18390F03AEDF0E53030C5
:100D0000E004F198800590F03BF17C90F03BEDF031
:100D1000EE30E008A3E0FDEF4DFF800890F03CE0EE
:100D2000FDEF5DFF90F03CEFF0E53230E009A3E02D
:100D3000FDE5334DFF800990F03DE0FDE5335DFFBB
:100D400090F03DEFF022E4F526F527F528FBF1AA17
:100D50007F0351917B007D20E4FF51997B007D0250
:100D6000E4FF51997B017D01E4FFB1A27D05B1A2B1
:100D7000F1B1752801E41B7D03FFB1A27D085199F3
:100D8000D28375DF4075DE60E4F5E9F5D1F5D37502
:100D9000D50F75D4FF90F69274A0F012302D43DE7B
:100DA0008022EB64026065EB64036060EB641960B1
:100DB0005BEBD3941C5055EF146015146023146042
:100DC0003124037047EDD394055041ED2400802B6E
:100DD000EDD394075036EDC394034030ED241080DA
:100DE0001AEDD394065025EDC39401401FED242045
:100DF0008009EDD394065014ED2430F52AE434F044
:100E0000F529EB541F852A82852983F022B146D12A
:100E100072752603E4F527752801F56790F124041F
:100E2000F090F12C74FFF0A3F090F1357409F0907C
:100E3000F137F090F134745FF090F136F090F126D4
:100E4000E0440CF0122F5B90F129E0540C70F8C2D2
:100E500093C294FB7A0079267D107F0151997B0023
:100E60007D087F0151997B147D047F01B1A20B1D88
:100E7000A1A2123FD7C2A2C2A27B007A0079267D2E
:100E800004E4FF51997B007D047F02519990F12089
:100E9000E4F0A3741DF090F1237401F090F125F0BB
:100EA00090F12A74FFF090F12EF090F122E4F0908E
:100EB000F127741DF0A3F090F160E4F090F165F07B
:100EC00090F164741DF090F131741FF090F1307462
:100ED0003FF090F1397409F090F138745FF090F1BF
:100EE00041E4F090F149F090F140F090F148F09039
:100EF000002C12068C000000001217F6C21CC21B48
:100F000090F126741DF01233317B127D027F02B105
:100F1000A27B16E4FFA1A27F0251997B0022D10D92
:100F20005171120028C2261239B3C21F22E4F5DE25
:100F300090F692F012302DE4FBF1B1E4F527F5289C
:100F4000F1AA5191C2B0C2B1C28322752601E4F563
:100F500027752801E51330E006F1A87F015199E4D7
:100F6000FB7D037F01B1A2E51330E1087A00792609
:100F70007D105199E4FB7D047F01A1A2E0FBE531E6
:100F80005BFD22E0FBE52F5BFD22E0FBE52D5BFD39
:100F900022E0FBE52D4BFD22A3E0FBE5314BFD22DA
:100FA000A3E0FBE52F4BFD227B007A0079267D082C
:100FB000227D017F03B1A21DB1A275260322E0FBB1
:100FC000E5335BFD22A3E0FBEF4BFD22A3E0FBE555
:100FD000334BFD22EDF4F58275830085832A8582EB
:100FE0002B85832C22E563B4030C201F04D22080C0
:100FF00002C220E4F563E5631460391470020182D3
:1010000014700201C32403600201C0D22711DCE482
:10101000F52E30210BE52E7FFFB404027F0D8007F3
:10102000E52E90002E93FF11D0EFF0052EE52EB4A3
:1010300005E001BBE4F52E11D0E0FFF4600BEFD327
:101040009416400CEF941F5007052EE52EB405E7CB
:10105000E52EC39405502611D0E0F52D302106640D
:101060000D6002805BE52D64166005E52DB40D046E
:10107000C22711DCAF2E71197563028046756303B8
:101080008041900015E0241711D4E0F52D7B007A03
:1010900000792B716FEF602B852B4C852C4DAD2D7E
:1010A000AF2CAE2B11F1E4F52E11D0E0B52D0511CA
:1010B000D074FFF0052EE52EB405EE7563018003B4
:1010C000E4F563301F09E56364036003020FE52262
:1010D0007417252EF582E43400F5832253DE7F0059
:1010E0007F002027027FA090F692EFF00043DE8081
:1010F000228E2F8F308D3190F692E030E708E4FF9A
:10110000FEFD7C408002510F31F531FEC004C00568
:10111000C006C007E4FBFA79807845AF39AE38AD38
:1011200037AC3612023FD003D002D001D0001201FA
:10113000368F3D8E3C8D3B8C3AE53124FB6072242A
:10114000F8605A24F7603024F76013241E600221EF
:10115000F4853D61853C60853B5F853A5E2231FECA
:101160001237207F9A7E997D997C4512023F8F5DD0
:101170008E5C8D5B8C5A227535D375349B7533DE4E
:1011800051188F598E588D578C56E4FBFA79807818
:101190004012023F8F558E548D538C522275351557
:1011A00075344C75336651188F518E508D4F8C4E5F
:1011B000225106510F120041C004C005C006C007ED
:1011C000E4FFFE7DA57C435106120136D003D00218
:1011D000D001D00012023F31F5E4FBFA797A78446D
:1011E00012013631F51203937B007A007962512E99
:1011F0008E4A8F4B228F398E388D378C3622AC2F0A
:10120000AD30EC02035AAB3DAA3CA93BA83A22AF51
:101210005DAE5CAD5BAC5A2275323DAB35AA34A9EC
:1012200033A832AF3DAE3CAD3BAC3A02023F8B3E01
:101230008A3F89408F448E438D428C417F047E706B
:101240007D0D7C007106D312064C4007710F7EFFA6
:101250007FF122E47FAC7E227104C312064C50065B
:10126000710FFE7F5622AB3EAA3FA94074011204C3
:101270005AE47FBD7EFF7104D312064C402EE4F584
:1012800045E54525E025E024F0F582E43407F583C3
:101290001206707106C312064C400AE54524F1FFA0
:1012A000E434FFFE220545E545B430D5E4F545E5D7
:1012B0004525E024B0F582E43408F583E493FE7418
:1012C0000193FFE48F498E48F547F546E549F54916
:1012D000E548F548E4F547F546AF44AE43AD42ACCA
:1012E00041AB49AA48A947A846D312064C5009E584
:1012F000452423FFE433FE220545E545B434B071AF
:101300000FFEFF22FDFCAB44AA43A942A84122AB39
:101310003EAA3FA940E402045AAB07EBD394045021
:101320004D74172B11D4E0FAF46043EAD3941640BD
:1013300005EA941F4038900016E0703290001012B9
:10134000068C00000000E4900014F0A3EBF0A374FE
:1013500001F0EA30E40543DF80800353DF7F53DE92
:10136000F0EA540F42DE7AA000DAFE43DF02228B5D
:101370002F8A308931E5DF30E1037F0022900014AD
:10138000E004F090001071FAAFDDEFFEADDCEDD1BE
:1013900020EB2FFFEA3EFEE93DFDE83CFC9000100B
:1013A000120680900015E090003393FF900014E047
:1013B000C39F500643DF027F0022900010D10FE050
:1013C000FFC007A3E0FBE4FAF9F8D0071207AC90DE
:1013D0000010120680900010A3A3E0FFA3E0AB2F43
:1013E000AA30A931CF8FF01204ECE4900016F07F00
:1013F0000122E4FFFEFDFC90002CE0F8A3E0F9A33D
:10140000E0FAA3E0FB22201B0281E6301C2D90F1C4
:1014100029E05411600281E690F164E0301E055429
:10142000EFF080034410F090F164E0301D0554FEAD
:10143000F080034401F0C21BC21C22E4FFFE7DC801
:101440007C4271F71202DC600C400A90002C1206FC
:101450008C42C8000071F21202DC500A90002C127B
:10146000068C00000000D3900031E0945F900030C3
:10147000E0940940077409F0A3745FF071F212025E
:10148000DC60054003D38001C3921D900030E07002
:1014900002A3E0C36001D3921EE4FFFE7DFA7C4507
:1014A00071F7120136E4FBFA798078BF120045919A
:1014B000E7E4FBFA79C8784212023F91E7120393FE
:1014C000AD07AC06123717EA90F149F0EB90F148FE
:1014D000F0ECFFEF90F141F0ED90F140F0D21C9074
:1014E000F129E04411F0228F298E288D278C2622A5
:1014F000C2A3900030E07002A3E0700971F3120201
:10150000DC6010400EF1F690002C12068C000000FA
:1015100000D21B2290000CE0C39428504F1239E1F6
:10152000F1C391E790000CE004F0D10CE02529FF15
:10153000EE3528FEED3527FDEC3526D128D119D121
:101540002FC3120636500A900004E528F0A3E529BF
:10155000F0900006D11CD12FD31206365002A1E123
:10156000900006E528F0A3E529F08075D10CE0FF96
:10157000C004C005C006C007900006E0FEA3E0FB63
:10158000AA06EA3395E0F9F8D119EF2BFBEE3AFA07
:10159000ED39F9EC38F8D007D006D005D004C3EF08
:1015A0009BFFEE9AFEED99FDEC98D128D10CE0FF5F
:1015B000C006C007A3E024FEFFE434FFAB07FA3304
:1015C00095E0F9F8D007D0061207ACD129900008B1
:1015D000A3A3E0FFA3E0900000CFF0A3EFF0123947
:1015E0009190000DE0FFB478057401F08009EF6080
:1015F0000690000DE004F0E56660021566900003B9
:10160000E0600214F0E5656002156522900008E0D4
:10161000FCA3E0FDA3E0FEA322900004E0FEA3E013
:10162000FFEE3395E0FDFC22FC900008020680AB43
:1016300029AA28A927A826227F0A7E008E2E8F2F6E
:10164000E4F534E52F452E60780534AE2EAF2FD16A
:1016500021E47BA07A0FF9F812050BD1C2C007AFC5
:1016600034AB07E4FAF9F8D007120596D1C2E47F4B
:10167000FF7EFFFDFCAB33AA32A931A830D312069E
:101680004C50C6C374FF9533F53374FF9532F53271
:10169000E49531F531E49530F530AF33AE32AD310C
:1016A000AC30780812065D8F8CE533FF8F8AC21A42
:1016B000438810E58820E503301AF85388CFD534E5
:1016C000D9228F338E328D318C30227526641200F0
:1016D00028C28485512A855029854F28854E27D2D6
:1016E000A6D2A3D225F1537F327E00D13CD2B212D2
:1016F0000028E4FFFE7D8C7C41AB2AAA29A928A8FA
:10170000271202DC5011E4FFFE7DA0F18960084041
:10171000067F07F142801CE526C3945A500C7F33A4
:101720007E337D93F189600250097F057E00D13CB4
:10173000D526BCC225F153F196E52670047F01F150
:101740004222900037EF1218E5640160057F011214
:101750001AA1227F003025027FFF90F140EFF07F39
:10176000003025027F0890F149EFF07F003025021C
:101770007FF690F148EFF012333190F164E03025BC
:101780000454EEF0224411F0227C41AB51AA50A93E
:101790004FA84E0202DCF1E2C2A3C284E4F1EF9052
:1017A0000027F0A3F0C212C21690002BF090002A7E
:1017B000F022E4F5C853A8DF123340120F2D120FA8
:1017C0004B80D3120136020393900002E070121294
:1017D0002FD8E4FFFE7DC87C4212389BF1C3122F44
:1017E0008422C2B2C2A5C2A6227F147E00C13C9050
:1017F0000025F0A3F022E4900030F0A3F022EF14D3
:10180000600E14600F1460102403700FED42AC22C0
:10181000ED42AD22ED42AE22ED42AF22EF14601157
:101820001460151460192403701CE5AC5D6017D3B7
:1018300022E5AD5D6010D322E5AE5D6009D322E5FF
:10184000AF5D6002D322C3227D01E4FF111C403949
:1018500090004FE0FF25E0F0308003E004F09000BE
:101860004FE0FCF46003EC70201228DFE4F5B4BC18
:10187000FF03C38001D3922A7B01BCFF027B02E4F9
:10188000FDFF12283D0D1217FE302A08E51630E73D
:101890000375168011D4E51B4480FC302A1FB51552
:1018A0001CE518D394004009AF187E0012307E80EA
:1018B00009E4F518751A01751701E4F515202A13C6
:1018C000E516B4840EE4F516E517700475190122C7
:1018D000E4F51722E56A700511E6B40E04751B02E3
:1018E00022751B0522F0AB08AA09A90A020414906C
:1018F0000033E0FFD3900001E0945471D3948B4007
:101900000B3003047F04800051A1801CD3900001A0
:10191000E0945A71D3948A400471F8800B11E670F8
:10192000057567068002715011E6B40403123E93F8
:1019300022123836500241A0F1FC8F26900032E08E
:10194000FF940B4006EFD3940D4006900032740CC8
:10195000F0900033E0FFC394024006EFD3940D40B3
:1019600002F1EE11E6F527C22914700221F5147078
:1019700002413F1470024121147002415224FA7056
:1019800002415924FC40024178240E6002419490A7
:101990000044E060024194D1D7EF60024194AF2649
:1019A00012291AEF60024194E52624FC601224FEFD
:1019B000601314601914601B2407702F11EF802B23
:1019C00030042880032004237F0E51A1801D123F84
:1019D000AC8018D3900001E094AC71D3948D400892
:1019E0007F0F51A1C2098003756706D17250027141
:1019F000F871DA4194E4F56A123CD6501B302304A6
:101A0000C22C4194900037E0640560024194E526C1
:101A100070024194B22C807CD17250781227CC8015
:101A200073200A1BD17250177F0511F411E664036D
:101A30006062300303122DD4900036E04440F0D2AF
:101A400029C3900001E0940271D3948850467150EC
:101A50008042122214F125803B123DE4E526640207
:101A60006003300C047F0611F4E5266403702590B2
:101A70000032E0FF51A1801CE52654FE6009E526F6
:101A800054FC7003123AFBE526B4030411EF800402
:101A9000AF26718611E6B52704AF2651DE1230B6A7
:101AA000228F2B11E6652B6034F1E8F52C7B007A50
:101AB00000792D123B10E52D60238B088A09890AD5
:101AC0001238A4123DA8123ED8E52BD39401400D44
:101AD000E52B940B5007E52C6003122323228F285B
:101AE000714990000912042D6002718611E654FEBE
:101AF000601371DAE56A7007E528B401088004D143
:101B0000D040027150900036E030E70F547F7148AA
:101B100090000C12042DFF600251A1900036E030BD
:101B2000E50F54DF714890000D12042DFF60025143
:101B3000A1714990000B12042D600C5402FF90001B
:101B40000A12042DFDD17F22F0AB08AA09A90A22AE
:101B500011E6603114602E24F624FD500280051237
:101B60003AFB801BE56A70177149F1E8600F90003D
:101B700027E0FFA3E0900025CFF0A3EFF0D208917B
:101B80001EE4FF51A122EF24FD601D047044D39098
:101B90000001E0947A71D3948D4009200B06911EC8
:101BA0007F0A80297F0901F4D3900001E0948C71B1
:101BB000D3948A401A11E66010911E2001047F0C14
:101BC0008005900032E0FF8004D2057F0C41A175B2
:101BD000670622900000E0648022122F4BEF24FE63
:101BE000600F14600F2402700E11E6700A7F02412C
:101BF000A10217C9122F8D22D3900001E094F07139
:101C0000D3948A40047F03800FD3900001E0946056
:101C100071D3948940047F0241A175670622200098
:101C20000D300308122DD4C2260229F3E1EE7149CA
:101C300090000712042D6014120414FFC394054091
:101C40000BEFD394095005900033EFF02211E67F9B
:101C50000070027F01BF0A0875280E7529108006E2
:101C600075280D7529ACD3900028E0947A90002750
:101C7000E0648094B1400C749C2529F52974FF35EB
:101C800028F528E56414601F14603B146053240396
:101C9000705FC3900001E09529E5286480F871D356
:101CA00098504E75640122E52924FAD15B984003CF
:101CB000E4F564E5292438FFE52834FFFEC3EDD1BF
:101CC0006998502D8028E5292432D15B984003750E
:101CD0006401C3ED9486EC6480948B5014756403A6
:101CE00022D3900001E094E471D3948C4003756496
:101CF0000222C214900034E07003302C0B900025B7
:101D0000E4F0A37421F0C13C11E67002A19B24F51C
:101D10006038146076146057146060147002A1E794
:101D200024056002C10012230F123FE11227C4FFF5
:101D300090001CE0FCA3E0FDC3D16998500890001E
:101D400025ECF0A3EDF0C20DC13C123EEFEF24FEF6
:101D5000600B2402701274FF1217EF800E900025A2
:101D6000E4F0A37485F08003123926C20DC13C1241
:101D70003D0CEF70028008C20D801BF1D15004D2DF
:101D80000DC107D1D04004D20D805FC20DD2141214
:101D90003F8840028071123926C13CD20DE51460A3
:101DA00003200803E48062D3900026E0940DF1F54F
:101DB0009480402FAF147E007C017DAE12046CE055
:101DC000FCA3E0FDCFCDCFCECCCE12047EEF24011C
:101DD000FFE43EFEC3900026E09FF0900025E09EC9
:101DE000F08059C20880553009077149900003807E
:101DF00045C3900001E094F771D3948D5002D2094D
:101E0000C20D123A40500774FF1217EF802E11E6F0
:101E1000B40420D3E50C9510E50FF1DF90002540C8
:101E200009E50FF0A3E510F08012E50BF0A3E50C37
:101E3000F080099000011204B412391BE511601AF8
:101E40003007101227C47802CEA2E713CE13D8F8B9
:101E5000FF80047EFF7FFF123FE122FFE43528FE72
:101E6000900000E0FCA3E0FDD39FEE6480F8EC64FA
:101E70008022E51A64016002C322E4F51AD3228DA0
:101E8000297E02F1D15004D2258004D1D0922520A0
:101E9000231C7E0A900024E0600720220AE4F080E0
:101EA00006302203302507E4900022F08003122739
:101EB000D5900022E0D39E4016EF600280063025C8
:101EC000053023026150E4900022F0AF2951A12295
:101ED000E517C36001D322900047E0146039146015
:101EE0000A1460072403703A7F0022F1FCEF6003BC
:101EF000123A70900048E07007900047F07567064E
:101F0000D1D0501E9000347404F09000477401F05A
:101F1000C2261229F3800BD1D04007D172E4900081
:101F200047F07F0122D1D092F7F1D172F7922512BA
:101F300022081222F2500AAC0FAD10AE04AF058099
:101F40000012220EFDC3EF9DE5F01225A7500B30C5
:101F50002508F1DB40048E0B8F0CD1D050222006D7
:101F60001F900035E0600414F0804FF1DA500A054C
:101F70000CE50C7002050B803BD207123FCD80347C
:101F8000F1D15028200625900035E0600414F0803F
:101F90002971491227E7D3F1DB400AE50C150C70D3
:101FA00002150B8005C207123FCD800820250B309B
:101FB0000608C2069000357403F03025047512201F
:101FC00022E512B4010A1512300005C2261229F3C7
:101FD00022E51AB40202D322C322C3E50C9FEE64A9
:101FE00080F8E50B6480982290000802042D900090
:101FF000337405F022900025E0648022E51A700415
:10200000E51970037F0022AF1822EF14600F1460EF
:102010001114601324037013EDF452AC22EDF4524A
:10202000AD22EDF452AE22EDF452AF227D01E4FF79
:10203000110A90004F74AAF022E4FDFF1174EF64BE
:1020400001702DC22AE515547FFFE4F515E51770E0
:1020500004E51A6007E4F51AF5178016EFC3940536
:102060005010E518C39408500205187516808002B8
:10207000317E80B8EF14602314603F14605B24034A
:10208000707CEDD3940540037F0022ED2480310B5A
:102090008002C333D8FC55ACFE8066EDD394075064
:1020A00006EDC3940350037F0022ED2488310B809A
:1020B00002C333D8FC55ADFE8047EDD394065006DD
:1020C000EDC3940150037F0022ED2490310B800278
:1020D000C333D8FC55AEFE8028EDD3940640037F71
:1020E0000022ED2498F582E434F0F583AF05A807CB
:1020F0007401088002C333D8FC55AFFE80037F0013
:1021000022EE7002FF22E05403FF22F582E434F055
:10211000F583A80574010822123C38EF60031228E9
:10212000DF90004BE07002A3E0600F90004CE024D1
:10213000FFF090004BE034FFF022E56AD3940140B9
:1021400003E4F56A1217B243870443870200122F93
:10215000F0317E112C7F017E0012163C121848309F
:10216000170AC217B225302503123054122FCB5054
:10217000E4120F1EE4900041F0A3F0A3F022D22A53
:10218000E51630E703751680E51520E70375158021
:10219000223174121FEE900032740CF0E49000377C
:1021A000F0F511122C7A7B007A0079267F04123B1D
:1021B000108B088A09890AE52660367103F50E85B9
:1021C000F00D510EF51085F00FF1E7121FDA5004F3
:1021D0008E0B8F0CD3E50C9510E50F121FDF400618
:1021E000850F0B85100C7508FF750909750A188095
:1021F000057F08121742E4900034F0C208900044B2
:10220000F09000357403F022AB08AA09A90A9000E7
:10221000010204B420227120236EE4900022F0E534
:1022200064600241F1510851F25057900023E0FDE3
:10223000700404F08008EDC39409500241F190004D
:10224000237401F07103FDACF0D3E50E9DEC6480C6
:10225000F8E50D64809840068C0D8D0E800B74326D
:10226000250EF50EE4350DF50DD351F64008510855
:10227000F51085F00F2274FA2510F510E4350FF5EE
:102280000F22E4900023F022E4900023F020230F9B
:10229000A3E0600B202202E4F0E4900022F022F19F
:1022A000D530230C900022E0D394044003021B504D
:1022B000900022E0D3940A4038D3E510944DE50F06
:1022C00064809481400C74062510F51074FF350F5E
:1022D000F50FD3E50E94BEE50D6480948A400C742E
:1022E000E7250EF50E74FF350DF50D9000227401F3
:1022F000F022FFAEF0C3E5109FEE6480F8E50F64B6
:102300008098229000050204B47156AC06AD071205
:1023100018E6B40A082002057E417F1A22510EFFFA
:10232000AEF022121B49121FE87002801F7109D300
:10233000B1A45007E4F51EF51F800B7109C3EF9D92
:10234000F51FEE9CF51EE51E30E705E4F51EF51FB2
:10235000E4F51CF51D22201006F1C4FFC20F22AEC9
:102360001CAF1D7C007D0C12047EE51F2FFFE51EB7
:102370003EFE30E703E4FEFFC3900026E09FFF909F
:102380000025E09EFEC3EF94E8EE6480948350172E
:10239000A3E02418F51F900025E034FCF51EE4F5B9
:1023A0001CF51D7E037FE8900026E024B3FD90001D
:1023B00025E034FEB1A25002D20F2220100EC20E30
:1023C000E4F51CF51DF51EF51FC20F22300D02A10C
:1023D000841218E6B40A22300208752A1F752B40B1
:1023E0008006752A14752BD5300E1F74AE252BF57B
:1023F0002B74F1352AF52A8011200E08752A0D75E7
:102400002B058006752A05752B35F1F18E268F2751
:10241000D3E54B9527E526D114500281FED3E54B39
:102420009442F1BD4002D20EC3E54B9527F529E554
:102430004A9526F528D3E5299402E52864809480FE
:10244000406AB185406690004A743C1218E5B40AAF
:1024500011B1992002067C067D40800C7C077DD05E
:102460008006B1997C087DFC12047E8E268F27E5BC
:102470002630E705E4F526F5270527E52770020550
:1024800026E52954FC45286014AE26AF27E529240B
:1024900002FDE43528FC12046C8E268F27AC28AD93
:1024A00029AE26AF2712046CF199802790004A7458
:1024B00018F0E52954FC45287003300E047D018096
:1024C000027D00AB29AA287F01B1AFD1B4752A03E0
:1024D000752BE87156C3EF952BE52AB1A7501671FD
:1024E00056C3E52B9FFFE52A9EFEC3E51F9FF51F00
:1024F000E51E9EF51EE51E20E702A184A17FC3E52F
:102500004B9527E526D114507BC3E527954BF5293C
:10251000E526954AF52890004AE0600414F0805AB8
:10252000E52B247BFFE52A34FFFED3900028E09FB3
:10253000EEB18E4004D1B4801FE52954FE452860D9
:102540000DC3E51F9529F51FE51E9528F51EE51E0F
:1025500030E705E4F51EF51F300E127452252BF5F9
:102560002B740E352AF52AB1854002C20EE5295496
:10257000FCFDAB29AA28E4FFB1AFE51E30E705E476
:10258000F51EF51F22D3900028E0952BE52A6480E4
:10259000F8900027E064809822900027E0FEA3E0F6
:1025A000FF22FCC3EF9DEC6480F8EE648098228DDE
:1025B0002CA907F1A44006AE1CAF1D801BF1B0741E
:1025C000309BFD74759AB1A2500AE52C60067E001E
:1025D0007F0180047E007F00EF4E6016E9600A30C4
:1025E0000E0774022BFBE43AFAEB25E0FBEA33FA20
:1025F00080047A007B01E9600BEB251DF51DEA35AF
:102600001CF51C22C3E51D9BF51DE51C9AF51C223B
:10261000E54B9FEE6480F8E54A64809822AF26EF90
:102620003395E0FED3D1104002D322AF27EF33958C
:10263000E0FEC3D1105002C322A22622E562606EE2
:10264000A20C9226752646752737D11D920CA20B37
:102650009226752641752737D11D920BA21192261D
:10266000752650752728D11D92113011077F06124B
:1026700017428009900037E0B40602F1CC121B49E2
:10268000121FE87003C21022F1F18F26A2109226C9
:1026900075272BD11D9225302503D210222025131A
:1026A000E51F451E700DE51C30E708C210227F05AE
:1026B00012174222F1A44006AE1CAF1D8014F1B0E7
:1026C000EF94D0EE648094827E0050047F018002FB
:1026D0007F00EF4E7011AE1CAF1DFC7D0C12047E0E
:1026E000F199E4F51CF51D221218E6FFB4040885E3
:1026F0000D26850E2780077103F52785F026EFB498
:102700000A29900027122AE67D4312047EC3E5279A
:102710009FF527E5269EF526C3E52794B8E52664B0
:1027200080948B500675260B7527B8F1DED3945A2A
:10273000EE6480948A4013D3EF9527E526B1A74035
:10274000028001D39222C2238004C222D223121C0F
:102750004DE567D394055040900037E06006202C8B
:1027600003023C8A900002E06003022AEE900047D8
:10277000E030E106123A978F6722900044E060064D
:102780001230FA8F67221218E67007E56570033081
:102790002C03023A10E4F56722EF251FF51FEE35F2
:1027A0001EF51E22D3E51D9400E51C648094802252
:1027B000AE1CAF1D7CFF7DFF12046CC322E54A6492
:1027C00080948022900025E0FEA3E022E490003770
:1027D000F0FF021AA1900022E0700204F0229000A3
:1027E00000E0FEA3E0FF229000031204B4FFAEF06D
:1027F000221218E6640A7040300238F1DEC3948475
:10280000EE6480948D40067C007D388021EF24CCDE
:10281000FFEE34F2FE7C007D1412047EAC06AD07A0
:10282000EC30E703E4FCFD74342DFDE43CFCAF0523
:10283000AE04227E007F34227E007F3222EBD394CE
:10284000035055EF14601514602314603124037095
:1028500047EDD394055041ED2480802BEDD39407B0
:102860005036EDC394034030ED2488801AEDD394A4
:10287000065025EDC39401401FED24908009EDD34F
:1028800094065014ED2498F52AE434F0F529EB541D
:1028900003852A82852983F022752601E4F527F530
:1028A00028FBFDFF120DA27A0079260D120A997DF0
:1028B00001E4FF1217FE7B021D113D43B90111DF38
:1028C00074172FF8E4F6EF54FE700674152FF8E431
:1028D000F60FBF04EB751B0590004F74FFF022E567
:1028E0006AD39401400B90004B7412F0A374C0F0B3
:1028F000221218E690004BB40107E4F0A374F0F044
:1029000022E4F0A37428F0229000347402F0E56A07
:102910007F0070027F028F6A80C58F28E56A14608D
:102920002514607B1460782403600221D2E528B46A
:10293000050231DD7F043004027F06EF6528600266
:1029400021D2310821D2900002E0600221D2E52894
:10295000B4050775670731DD8078F14BEF14600827
:102960001470121217C9806AD22C202308900034E8
:1029700074F0F0805D202C06900034E06018E528AB
:1029800064016003302307E4900034F08044900039
:1029900034E07002C22CF1CB50387567068033E505
:1029A00028B4040531087F0222E528B40213E56A41
:1029B000B40208756A037567078006756A02756751
:1029C00008121ED0500CE56A7F02B403027F031286
:1029D0001B86E56A64016002C22CAF6A2290003453
:1029E0007408F0E56A7F0070027F018F6AC22631A9
:1029F000F301DFE4FFF12DE56AB401027F02300349
:102A00000343070130000343070430010343070871
:102A1000300203430710302D0343072030040343E3
:102A200007408F31851432851333850B2F850C3089
:102A30007B007A00792F7D05B1F68F34202609902E
:102A4000003DE0B53402806620260FC390003CE0D4
:102A500094A990003BE09400401B7B007A00792E03
:102A60007D007C027F1D51B5E4FC7F1D51B5E490D3
:102A7000003BF0A3F0E4F52E90003B51E6F1B925C0
:102A80002EFDEC3EFC742F252EF9E4FAFB7F195144
:102A9000B5052EE52EC3940640DE90003CE004F020
:102AA000700690003BE004F090003DE534F075FBCB
:102AB0005500D2AF228F35E535B41905120414F54F
:102AC000FEEDF5FCECFFEFF5FD008535FF000000A5
:102AD000000000E5FF20E0FBE535B41105E5FE123E
:102AE000045A2290000EE0FEA3E0FF7C002290003A
:102AF00002E014B40B004002814A902B00F1C07335
:102B0000022B21022B33022B83022B89022BA502DD
:102B10002BAB022BC2022C16022C31022BC8022B2B
:102B2000D9900003E06002814A740FF090000274B3
:102B300002F0221232EA8F67900003E06002814ABD
:102B400090000EE0FEA3E0FFD394E7EE6480948350
:102B500040267C007D0A12047ED3ED9404EC648050
:102B60009480400BE0240AF090000EE03400F05115
:102B7000E37D0A12047EF18451E37D6412047E7DBC
:102B800003803C7D047F01803D51E37D6412047E1F
:102B900090000EECF0FEA3EDF0FF7C007D0A120425
:102BA0007E7D05801A7D067F02801B302404F1346F
:102BB000814651E37D0A12047EAE04AF057D070213
:102BC00039727D087F03C1F2900003E0707C9000B1
:102BD00002740BF0A3741FF022900003E0FFC39473
:102BE000195028EF54F86023C3E54B94321227BDE7
:102BF00050057567038017C3E54B943E1227BD50FF
:102C00000575670280087567018003E4F567900029
:102C100003E070368014900003E0702E1218E6FF77
:102C200064026003EF70037565129000027409F08E
:102C300022C224E490000EF0A3F0E565600302399F
:102C4000F1F14BEF7004900002F022B1BCC22631CA
:102C5000F351AE752D64C229756705121638D12758
:102C60001200385002152DE52D70F0C2AF00759698
:102C7000AA75965575978080FE227B007A00792789
:102C8000B13090003BEEF0A3EFF07B007A007927A3
:102C90007D05B1F6EF652C7071E529C330E401D3F1
:102CA0009202E529C330E201D39200E529C330E363
:102CB00001D39201E529C330E001D39203E529C392
:102CC00030E501D3922DE529C330E601D39204E526
:102CD000297F0030E1027F018F6A852B13200004D9
:102CE000B1D4800685270B85280C852A1490003DD9
:102CF000E52CF090003CE004F0700690003BE0040E
:102D0000F0120038400F914B800BB1BC756A01D2B4
:102D10002631F3B11741AE752DFF51AEC22975674B
:102D200004152DE52D6007121638D12780F3816B2D
:102D30008B2D8A2E892FE4F531F532F12DE4F53013
:102D4000B19140FCAB2DAA2EA92F7D05B1F6AB2D7C
:102D5000AA2EA92F90000512042DB507130532E500
:102D60003270020531C394A9E5316480948040CD6E
:102D7000D3E5329400E531648094804008E5321553
:102D80003270021531E4F530B19140FCAE31AF3212
:102D900022AE31AF327C007D0612046CEF2530FD8F
:102DA000EC3EFCAB2D7E00E52F2530F9EE352EFAFA
:102DB0007F1151B50530E530C3940622E4F56AB1C0
:102DC000D4751301751402C203D200C201D22DC200
:102DD00002C204227B007A00792E7F04123B10E5A8
:102DE0002E600C9000031204B4F50C85F00B2275D4
:102DF0000B00750CC8228B358A3689377FFFAB35BF
:102E00000537E537AA367002053614F91204146244
:102E1000077E08EF30E70725E06407FF8004EF2511
:102E2000E0FFDEEFDDD822C225752E0CE567C394E6
:102E3000065015123EA65009D229752E04D22580BF
:102E400007123BB35002D225302502C1DAE567B440
:102E500009004002C1DA902E5DF8282873022E780E
:102E6000022E7D022E7D022E7D022E85022E8502EF
:102E70002EA6022EA6022EA6E4F568805DAF67F1AD
:102E80003B8F2E8055E56830E20854806480F568F9
:102E900080020568E56830E741E5677F08B4050210
:102EA0007F008F2E803453687FE56764086005E5F6
:102EB00067B407047F0680027F0AE568D39F400558
:102EC000E4F5678015AF680568EF30E00DE567B49D
:102ED0000705752E048003752E08F15BAF2E90F167
:102EE00064E054F34FF022F13BD1DE1217E97F0C7E
:102EF00080EC8F288D29900003E030E707D1E7E4CC
:102F0000900003F0900003E0FF7E0030E102AE2865
:102F10008E67EF700AF567F134900002E529F02220
:102F2000C2AF007596AA75965553977F22C2AF001F
:102F300075FBAA22900003740AF022A80774030804
:102F40008002C333D8FCF4540CFF22E51A54FE600F
:102F500007C3E51A9401FF227F002290F145302932
:102F600007E4F17B74FA80067405F17B7478F090C5
:102F7000F146F090F129E0440CF022F090F147F096
:102F800090F1442290000EEEF0A3EFF022E5626093
:102F900023900002E0701DF1D8D224E54BAE4A30F8
:102FA000E707FF7CFF7DF68006AF4B7C007D0A12B1
:102FB000046CF184227E007C007D0612046CEF22FA
:102FC00075F003A4C58325F0C58322E51A6002D3FA
:102FD00022E519C36001D32290000274011218E5A2
:102FE000600DE56760069000037408F0E4F5672261
:102FF000E4F588758901F58CF58AF5CE75CB0B75EE
:10300000CADB75CD0B75CCDBF5C975CF8075A8A271
:10301000C217C218C21975C8912275C900B21930F9
:103020001904D217B218325388EFD21A327F0590A2
:10303000001774FFF0A3DFFC90001012068C000054
:103040000000E4900014F0A3F0A3F0F563C220C2E6
:1030500021D21F22E4FE74152EF8E630E71B547FC0
:10306000FDEE7F047002AF1BEDC39F50010DE654CF
:1030700080F674152EF8E64DF60EBE02D922E4F560
:1030800016F519F518F517EF04F51A22C0E0C083FC
:10309000C082C0D075D000C000C005C006C00712F5
:1030A000203975B400D007D006D005D000D0D0D0DC
:1030B00082D083D0E032E5196009E5186005E4F5B7
:1030C00019F51822121FFCEF60269000467432F0AA
:1030D000900044E0B40604B22E8013900045E00452
:1030E000F0E075F00984E5F0F011F17404F011B628
:1030F00022E4900003F090004422900044E0B407E2
:10310000004002419790310CF828287302312102C7
:10311000328402312402313A0231680231830232B0
:10312000157F0022900003E0700E900045F0A3741C
:1031300064F09000447404F041EA51B4900003E05C
:10314000FF7013900046E0600214F0122F349000DC
:10315000447404F04197EF20E1024197900045E06C
:103160007F03B408027F022251B4900003E06002A2
:103170004197900045E025E025E0240311F2740317
:10318000F04197900003E0FE54F860037F0722EEC1
:1031900060024197900045E06408600A122F4BEFEF
:1031A000640170024197900045E0FF54FE6058EFC3
:1031B00024FEB4070050439031BE122FC073023179
:1031C000D30231D90231DF0231E50231EB0231F1B4
:1031D0000231F7A203922E8021A200922E801BA220
:1031E00001922E8015A202922E800FA22D922E8087
:1031F00009A204922E8003122C4B51D47432F09009
:1032000000447406F04197900045E0240290004786
:10321000F051DE807D11C4121E72504B900045E0CB
:1032200024FD601614601914601C14601F146022C1
:1032300024057022A22E9203801CA22E92008016DA
:10324000A22E92018010A22E9202800AA22E922D0E
:103250008004A22E92049000347404F0C226122935
:10326000F311F104F08030900003E0FE54FE60089A
:103270007F01302E027F0322EE701C51D4E06017D4
:1032800014F08013900003E060037F0622121ED02A
:103290004005E4900044F0900046E0701490004433
:1032A000E054FE600C9000037406F090004474013A
:1032B000F07F0022122F4BBF010E9000447405F0E6
:1032C000900003740DF0800A121E725005E4900005
:1032D00046F001C49000037414F090004622E4907C
:1032E0000003F090004874F0F022900003E0FFD358
:1032F0009409403AEF24F8C31314FF302407E54B38
:1033000020E7020F0F202413D390000FE094E790E2
:10331000000EE06480948340020F0FEF3395E0FECF
:1033200074232FF58274003EF583E493FF227F001F
:103330002290F1297411F090F129E0541170F822D3
:10334000E4FB7D027F02120DA2E4FF120DA290F1B8
:1033500021E4F090F126F090F125F090F123F02295
:10336000AD07AC06EC12035A71A77B9A7A997919CA
:10337000783E71A4C004C005C006C007E4FFFE7D0E
:103380007A7C44AB5DAA5CA95BA85A120136F12095
:10339000D007D006D005D00412023F71A7E4FBFA93
:1033A00079C878421201368F2B8E2A8D298C2822DB
:1033B000D3900026E09400121FF59480401B122346
:1033C000568E268F27C3900026E09527E526648039
:1033D000F8121FF598500C8003900025E0F526A305
:1033E000E0F527E52745267019FFEF90000393FECF
:1033F00090002AE0B506077408F0D22180040FBFC0
:1034000005E890002AE0B40D004002C1F3903414A6
:10341000F828287302343E0234590234A30234B827
:103420000234E90235400236280235EC02366902E0
:1034300036820236A50236E102343B021796121795
:10344000E2C212C215C221C2131214F0F1025002DC
:10345000C1F990002A7401F022D2A31218E6B40236
:103460000B900027E4F0A3741DF0801FD3E5279490
:10347000E8E5266480948340067E037FE88004AEFE
:1034800026AF27900027EEF0A3EFF0122599D1FA8E
:103490009000307408F0A374F6F0D21B90002A74E8
:1034A00002F022301B02C1F91217E9D2A6900029BE
:1034B0007414F0A37403F022D2B2900029E0700BD0
:1034C0007F0112174290002A740CF07F667E667DA1
:1034D0008E1217895002C1F91218E690002AB40220
:1034E000047407F0227404F022D2A5301B02C1F943
:1034F000F1174A700890002A7406F08040AE26AF9B
:10350000277C007D0812047EEF2401F527E43EF5B8
:1035100026D3E52794C8F10740067526007527C80D
:10352000C3EB9527EA952650051217F6800FC39036
:103530000031E09527F0900030E09526F0D21B2274
:10354000301B02C1F9122599C3E5279FFFE5269E8E
:10355000FED3EF9405EE6480948D4002D216E56AA6
:10356000706030165D1218E624F3602C240224FCEF
:10357000501624057032301337202B34900028E089
:10358000244BF10EC2138028900028E024D0F09044
:103590000027E03407F08018900028E02420F09005
:1035A0000027E03403F08008900028E0240FF10E9B
:1035B000C3900028E09527E52612258E400EC216FE
:1035C0008003900027E526F0A3E527F0D21B122503
:1035D00099D1FA900027E065267004A3E065276082
:1035E00002C1F9D21290002A7406F022D3E5279482
:1035F00002F107400690002A7404F0900030E0FECB
:10360000A3E0FFE4FCFD7BA67A08F9F8C312064CA0
:103610005013201B10900031E024FFF0900030E0A8
:1036200034FFF0D21BD2A522D215E527640245262D
:10363000701590002A7407F090003004F0A374BA5B
:10364000F07F1D7E00D1FAE527B4FF0BE526B4FF1D
:103650000690002A740AF0900027E065267004A303
:10366000E065277002C1F9C1ECC2B27F017E001291
:10367000163CD2A51214F09000297424F0A374090A
:10368000F0227FCD7ECC7D9C121789600840069089
:103690000029E07064C2211214F01217E2E49000D5
:1036A00029F0A3F0229000303014097407F0A374BD
:1036B00066F080077408F0A374F6F0D21BD221E400
:1036C000FFFE3014067DBC7C4180047DAC7C411241
:1036D000178B60025023C2A590002A740BF0C22100
:1036E00022F1024014D2A51217F6D21B90002A74C0
:1036F00005F02290002A740CF022716090002C02D8
:103700000680D3E5279400E5266480948022F0901B
:103710000027E03400F022900030E0FAA3E0FB2222
:10372000A804A905AA06AB07221238244006E49093
:10373000003AF02290003AE0C394035004E004F011
:1037400022900039E0540FF5267FCD7ECC7D8C7C15
:10375000401239E81202DC600740057F031217426D
:10376000E4FFFE7D98121789501C7F9A7E997D99FF
:103770007C40F1E16010400E7D02AF26123CEF8FDD
:1037800026E4F5278036E4FFFEFD7C3FF1E1501D85
:103790007F337E337D037C4212178B6010400E7D99
:1037A00001AF26123CEF8F26752701800FD3F1075A
:1037B0004006E52614FF80027F008F26E527C454CB
:1037C000F04526900039F0C3E526648094884010C7
:1037D000E0C4540F1470047F0480027F0212174269
:1037E00022AB61AA60A95FA85E0202DC1218E6B4EF
:1037F0000204C28480251238245004D284801C1212
:1038000018E66401600E90002BE0C394045005E0BC
:1038100004F08007B284E490002BF0900029E0606F
:103820000214F02290002AE0FFD394044006EF94A3
:1038300008500122C32290002AE0FF64086004EFD0
:10384000B40902D322C3227526C8D28412163812B4
:103850000028E526C330E301D39284E4FFFE7D20F7
:1038600011991202DC4021AB51AA50A94FA84EAFCA
:1038700059AE58AD57AC56120041E4FBFA79807846
:103880003E1202DC60025010D526C1756701122E6F
:10389000271217E9B28480F9227C41AB59AA58A9B2
:1038A00057A85622122208FF90001C311F12041440
:1038B000B40A2220020A90001C7441F0A3741AF08A
:1038C000C2127F667E667D467CC0119B12004590C9
:1038D000001E12068022302041C220D21390001E0A
:1038E00012160FE0FF119B1202DC40267FCD7ECC2A
:1038F0007DCC7C3D1237E1501C7F337E337D6311DC
:10390000991202DC500FE4FFFE7DB01217896005AA
:103910004003D22B22301202C22B22FF900025E559
:10392000F0F0A3EFF022E56414600A14600E146056
:10393000172403701D122208311B80169000257475
:103940001AF0A3740AF0800A900025740AF0A37498
:103950006AF0E56430E102C214200215D39000261B
:10396000E0941A121FF594C140077441F0A3741A31
:10397000F022900003E07018EF4E70057480F08024
:103980000AEF25E025E014900003F0900002EDF02E
:1039900022900004747FF0A374FEF0A37480F0A35F
:1039A0007402F0E490000CF090000812068C000005
:1039B00000002275260A3191E4F566900002F012AB
:1039C000002831E11217C3900000EEF0A3EFF012CF
:1039D0001C4DD526EA3026081218E67003756512CC
:1039E00022E4FFFE7D7A7C44AB55AA54A953A85229
:1039F00022E56414600E14600F1460102403700F2D
:103A000075670322756702227567012275670422B4
:103A10001218E664026004D225801CE564B4030435
:103A2000D2258013E5667003756652E566D394026D
:103A300040028001D3922530250280B5E4F567224B
:103A40001218E6FFB40302800BEF64026006E5641F
:103A500064036007E490000DF0801390000DE0FF18
:103A6000700404F08008EFD394744002D322C32280
:103A7000900047E0FEAF13B40302AF140FEF54FC05
:103A80006002E4FFEEB403038F14228F1322900030
:103A900048E0600214F022900047E064037023E5E0
:103AA0001454039009F893F528601A900003E0FF7E
:103AB0007009E51475F003A4F0800AEFB401067FE5
:103AC0000022851328E528C37001D39229E5281424
:103AD000601D14601D14601D2403701C900003E021
:103AE00070167F01122EE79000037405F080097FA5
:103AF00003227F01227F02227F0022300111300544
:103B000003C20522E56A70071218E6900032F0221F
:103B1000E412045AFEEE75F00EA42418F582E43483
:103B200009F583E493B50707740112045A80040E63
:103B3000BE10E2AF06EF75F00EA42418F974093533
:103B4000F0FA7BFF22E51254FE60021512E51160C7
:103B500005D51102C207900034E0600214F022E59E
:103B60006A700A121ED0400D121FD14008C20AE42A
:103B7000900036F022900036E0FF541FFE7015EFE3
:103B800020E611D20A121FD17D8050027D20EF4D18
:103B9000900036F0900036E054E0F0C3EE6480947C
:103BA000865007E020E6030E8002E4FE900036E037
:103BB0004EF022900002E06004E4FF8009300F0420
:103BC0007F0180029103EF14602914600E14600BD2
:103BD0002403702DE4900049F08026900049E0FE17
:103BE000640D6007BF030CEEB40A08900049E004BE
:103BF000F0D322900049E004F0E030E404E4F0D394
:103C000022C3221218E6640A60037F0022300206F3
:103C10007E6F7FA880047E3F7FCDC390001DE09F14
:103C2000EE6480F890001CE064809850037F0222CC
:103C30007F002002027F0322900047E0700990007D
:103C400044E07003302C037F0122900002E0600307
:103C50007F01221218E654FE7F0060027F0122904D
:103C60000037E0FF7003A3F022900038E004F01268
:103C70002FB5240FFFE43EFEE091804002E4F022E5
:103C8000C39FEE6480F874809822900038E0FFC3F0
:103C90009405500BEFC394035038EF04F56722905E
:103CA0000037E0FF122FB52405FFE43EFEA3E0FD40
:103CB0009180501EED24FBFFEC34FFFE7D031204C7
:103CC0007E7C007D0212047EED4C7004756701223B
:103CD0008000E4F56722E4FFEF90000893FE900077
:103CE00037E0FDEEB50502C3220FBF03EBD322C3BD
:103CF000EF648094885004EF2DFF227F082290000B
:103D00004EE07007EDF090004DEFF02290004DE096
:103D1000B407005066903D1CF8282873023D31021C
:103D20003D3C023D5B023D61023D70023D3C023D77
:103D300076E490004EF07D0B7F01803D3015067FCC
:103D400002B17E50037F012290004DE0B401067D58
:103D5000077F0280247D237F06801E7D237F0380D2
:103D6000187F06B17E50037F01227D077F04800902
:103D70007D0B7F058003E4FDFF91FE7F0022AB07F2
:103D8000EB3395E0FEEF25E0FDEE33FC90004EE0D6
:103D9000FF3395E0FE12047EEB14D36480F8ED64EB
:103DA00080984002D322C322E490004DF0A3F02279
:103DB00090004EE0600214F022900024E0600214B3
:103DC000F0E56960021569900023E06008C394097A
:103DD0005003E004F0900022E06008C3940B50030D
:103DE000E004F02230120A90001E12068CC120005E
:103DF0000030222230121F1227D5900022E0C394F7
:103E00000A5002C192E4F090002474A0F07F0930BF
:103E100003027F048038302B74301235E5697072EC
:103E200090001DE024DFF090001CE034FFF0756985
:103E300002D3A3E094A590001CE06480949C5052AF
:103E4000741CF0A374A5F07F093003027F04021AEA
:103E5000A1122208FFC3900028E09FE5F012258EF2
:103E60005030E4FFFE7D587C4190001E1213FA1280
:103E700002DC60044002C202756908900027E0FF7E
:103E8000A3E090001CCFF0A3EFF0D21222E4900048
:103E900022F02220220F20230CE564700812220851
:103EA000F51085F00F221218E67007E56AC3940238
:103EB0005007E4900050F0801D900050E004F0E0C6
:103EC000FFB40E07E56AB40302D322EFB41007E48F
:103ED000900050F0D322C32290003E7401F0E4A37E
:103EE000F0A37418F022900040E0600214F02290D9
:103EF000003EE0601A24FE602514603F24027045F5
:103F0000301509900040E0D3940040217F022290B8
:103F1000003F743CF090003E7402F07F012290005C
:103F20003FE014F0E0D3940040037F012290004072
:103F30007418F090003E7403F0800A900040E07026
:103F40000490003EF07F0022900043E0600314F0F4
:103F500022900042E02480F582E4342EF583E4933D
:103F6000540F900043F0E0FE654D900042F0542461
:103F70006008E06E900041F08006900041E004F09F
:103F8000900041E05403F022201502D322302D1975
:103F9000900041E024FE600604700EA21822E54C59
:103FA000454D24FF301901B322A21922900044E0AC
:103FB00070097402F0900003740FF022EDF4F582A2
:103FC00075830085832E85822F85833022751104A9
:103FD0008E0B8F0CD20622752603752701752801DA
:0A3FE00022900025EEF0A3EFF0227E
:00000001FF
