:10000000020712070405060B040203023025C1286B
:10001000C129C12441004700C10D41003900410000
:100020002400000102030201020FE50230181F053F
:1000300001160D0806020602A280220230B3020356
:10004000FFE86480F8E933E83360110460F0ED33D1
:10005000EC337009E8FCE9FDEAFEEBFF220460DE08
:10006000D3EB9FEA9EE99DE8C2E78CF0C2F795F0DA
:10007000400CE8CCF8E9CDF9EACEFAEBCFFB12035D
:10008000CA85D0F05804700320D5B3E80470075037
:1000900002B2D502040992D5EC0460F7E4CCC0E0CA
:1000A000C398F8603B94186008400DD0E0FB020351
:1000B000E1E4FBFAC9FC8028E830E406E4C9FBE48B
:1000C000CAFCE830E305E4C9CACBFCE85407601079
:1000D000F8C3E913F9EA13FAEB13FBEC13FCD8F1BC
:1000E00030F52FC3E49CFCEF9BFFEE9AFEED99FDEB
:1000F000D0E0FBEF4E4D4C701222DB03020406EC05
:100100002CFCEF33FFEE33FEED33FDED30E7EB0279
:1001100003E1EF2BFFEE3AFEED39FDD0E0FB50138B
:100120000BBB0003020409ED13FDEE13FEEF13FFFA
:10013000EC13FC0203E1EC4D6011E8497017ED335C
:10014000EC3304600DE4FCFFFEFD22E933E83304E8
:1001500070F80203FF1203CA58046009E4CC24813A
:100160005006285009020409284003020406C0E092
:10017000EB4A7044B98006D0E0FB0203F5EF4E7005
:100180001CBD8008EBFFEAFEE9FD80EBE98DF0A4E1
:10019000FEE5F002021FE9CDF9EAFEEBFFEF89F080
:1001A000A4FCE5F0CE89F0A42EFFE435F0CD89F073
:1001B000A42DFEE435F08067EF4E7005BD80D7803A
:1001C000C3EF8BF0A4ACF0EE8BF0A42CFCE435F084
:1001D000F8EF8AF0A42CE5F038FCE433CB8DF0A4E2
:1001E0002CFCE5F03BF8EE8AF0A42CFCE5F038F8A6
:1001F000E433CF89F0A42CFCE5F038CF3400CE896D
:10020000F0A42FFFE5F03EFEE433C98DF0A42EFEEE
:10021000E5F039CD8AF0A42FFFE5F03EFEE43DFD88
:1002200033D0E0FB50070BBB000F020409EC2CFCA1
:10023000EF33FFEE33FEED33FD0203E1020409EC80
:100240005D046005E8590470030203FF1203CA58F5
:100250000460F6EC4860F2EC7004FDFEFF22C8601A
:10026000DB2481C85009C398600250060204069836
:1002700050CAF582E9294B4A7005AB820203F57535
:10028000F0007C1A7880C3EF9BEE9AED99400DC385
:10029000EF9BFFEE9AFEED99FDE842F0DC23ACF017
:1002A000D0E0FFD0E0FED0E0FDAB8220E7101BEBFA
:1002B00060BAEC2CFCEF33FFEE33FEED33FD0203AE
:1002C000E1E803F830E705C0F075F000EF2FFFEE2E
:1002D00033FEED33FD40B830E7C280AA74F8CC6439
:1002E00080CCC86480C8F58204604FC3EB9FF5F0F2
:1002F000EA9E42F0E99D42F0E89C45F0603C501DCA
:10030000E5825FFFE582D313CB5BCBF42B5582FBF9
:1003100050280ABA002409B9002008801DE5825B34
:10032000FBE582D313CF5FCFF4C3132F5582FF5069
:10033000090EBE00050DBD00010CC3EB9FF5F0EAF0
:100340009E42F0E99D42F0E89C45F06007CC4820D1
:10035000E701B3EC2275F020800E75F01080057572
:10036000F0087D007E007F003392D530D503120661
:1003700028EC334010EF33FFEE33FEED33FDEC336A
:10038000FCD5F0ED22E5F0247EA2D513CC92E7CD8A
:10039000CEFF22EDD2E7CD33EC3392D52481400657
:1003A000E4FFFEFDFC22FCE4CFCECDCC24E05011D6
:1003B00074FF80EDC3CC13CCCD13CDCE13CECF13B1
:1003C000CF0470F030D5DE020628E9D2E7C933E861
:1003D00033F892D5EDD2E7CD33EC33FC5002B2D5F1
:1003E00022EC30E7100FBF000C0EBE00080DBD0060
:1003F000040BEB6014A2D5EB13FCED92E7FD227425
:10040000FFFCFDFEFF22E480F8A2D574FF13FC7D03
:1004100080E480EFBB010689828A83E0225002E7F4
:1004200022BBFE02E32289828A83E49322BB010C71
:10043000E58229F582E5833AF583E0225006E92535
:1004400082F8E622BBFE06E92582F8E222E582294F
:10045000F582E5833AF583E49322BB010689828A1B
:1004600083F0225002F722BBFE01F322EF8DF0A4AD
:10047000A8F0CF8CF0A428CE8DF0A42EFE22C2D5F9
:10048000EC30E709B2D5E4C39DFDE49CFCEE30E717
:1004900015B2D5E4C39FFFE49EFE1206BDC3E49DE2
:1004A000FDE49CFC80031206BD30D507C3E49FFF2A
:1004B000E49EFE22BB0110E58229F582E5833AF530
:1004C00083E0F5F0A3E0225009E92582F886F008E0
:1004D000E622BBFE0AE92582F8E2F5F008E222E511
:1004E000832AF583E993F5F0A3E99322BB010A89F6
:1004F000828A83F0E5F0A3F0225006F709A7F019ED
:1005000022BBFE06F3E5F009F31922E88FF0A4CC34
:100510008BF0A42CFCE98EF0A42CFC8AF0EDA42C2A
:10052000FCEA8EF0A4CDA8F08BF0A42DCC3825F0F9
:10053000FDE98FF0A42CCD35F0FCEB8EF0A4FEA9E4
:10054000F0EB8FF0A4CFC5F02ECD39FEE43CFCEAF1
:10055000A42DCE35F0FDE43CFC2275F00875820038
:10056000EF2FFFEE33FECD33CDCC33CCC58233C578
:10057000829BED9AEC99E58298400CF582EE9BFE09
:10058000ED9AFDEC99FC0FD5F0D6E4CEFBE4CDFA64
:10059000E4CCF9A88222B800C1B90059BA002DEC08
:1005A0008BF084CFCECDFCE5F0CBF97818EF2FFFA0
:1005B000EE33FEED33FDEC33FCEB33FB10D7039948
:1005C0004004EB99FB0FD8E5E4F9FA227818EF2FF5
:1005D000FFEE33FEED33FDEC33FCC933C910D70514
:1005E0009BE99A4007EC9BFCE99AF90FD8E0E4C933
:1005F000FAE4CCFB2275F010EF2FFFEE33FEED3363
:10060000FDCC33CCC833C810D7079BEC9AE899408F
:100610000AED9BFDEC9AFCE899F80FD5F0DAE4CDF1
:10062000FBE4CCFAE4C8F922C3E49FFFE49EFEE4B5
:100630009DFDE49CFC22EB9FF5F0EA9E42F0E99DD3
:1006400042F0EC6480C864809845F022EB9FF5F09E
:10065000EA9E42F0E99D42F0E89C45F022E8600FF6
:10066000ECC313FCED13FDEE13FEEF13FFD8F122E4
:10067000E493FC740193FD740293FE740393FF22D0
:10068000ECF0A3EDF0A3EEF0A3EFF022A8828583B7
:10069000F0D083D0821206A31206A31206A312067C
:1006A000A3E473E493A3C583C5F0C583C8C582C81A
:1006B000F0A3C583C5F0C583C8C582C822BC000BA2
:1006C000BE0029EF8DF084FFADF022E4CCF875F088
:1006D00008EF2FFFEE33FEEC33FCEE9DEC98400567
:1006E000FCEE9DFE0FD5F0E9E4CEFD22EDF8F5F02D
:1006F000EE8420D21CFEADF075F008EF2FFFED3335
:10070000FD4007985006D5F0F222C398FD0FD5F0B2
:10071000EA2278FFE4F6D8FD9000007F007E04E432
:10072000F0A3DFFCDEFA75816A0207670209FCE4C8
:1007300093A3F8E493A34003F68001F208DFF4806A
:1007400029E493A3F85407240CC8C333C4540F44BA
:1007500020C8834004F456800146F6DFE4800B0194
:100760000204081020408090000EE47E019360BCDB
:10077000A3FF543F30E509541FFEE493A360010E2C
:10078000CF54C025E060A840B8E493A3FAE493A353
:10079000F8E493A3C8C582C8CAC583CAF0A3C8C574
:1007A00082C8CAC583CADFE9DEE780BEC2D5E830A9
:1007B000E70FB2D5E4C39BFBE49AFAE499F9E49815
:1007C000F8EC30E717B2D51207E2120596E4C39BA6
:1007D000FBE49AFAE499F9E498F88003120596305C
:1007E000D50DE4C39FFFE49EFEE49DFDE49CFC2246
:1007F000000D7004000C9AFB000BD49E000B1BD361
:10080000000A6F960009CEF80009391C0008AD38BF
:1008100000082A930007B08100073E640006D3AAAF
:1008200000066FCD000612510005BAC3000568B975
:1008300000051BD30004D3B40004900A00045087C1
:10084000000414E30003DCDC0003A833000376B1EA
:100850000003482000031C4E0002F30D0002CC34BC
:100860000002A79B0002851C00026496000245EA74
:10087000000228F800020DA60001F3D90001DB7A7E
:100880000001C4730001AEAE00019A19000186A0F8
:1008900000017432000162C00001523C0001429626
:1008A000000133C2000125B40001186000010BBC37
:1008B000FFBDF45BE98CDF48D587CC42C373BB1224
:1008C000B31AAB85A44D9D6F96E490A88AB8850FA6
:1008D0007FA97A84759B70EC6C74682F641C6037F8
:1008E0005C7F58F1558B524C4F304C37495F46A6D0
:1008F000440B418C3F293CDE3AAD3892368E349F12
:1009000032C530FD2F492DA52C132A90291D27B85B
:100910002662251923DC22AC000000000000000143
:1009200000010000000001000000000000000000C5
:100930000000000003001600000ABE0000000302D1
:100940000002020002000009C400000002000300CF
:1009500005008500000B5401000105020600060198
:10096000B100000B860100010501070507042A00FC
:10097000000BEA0100010601080608087600000CD9
:100980004E0101010701090709123A00000CB201EA
:100990000101080105080A6C1200000D3400010075
:1009A0000A0000090C6C1200000ABE0001000C02D3
:1009B0000D0B041A0A00640C800001010400000001
:1009C0000B6C1200000ABE0001000B020C0D0D1B87
:1009D0005800000ABE0001000D020B0C0E6C120242
:1009E000DD0B540001000E0200000F091D00C80DB0
:1009F000AC0001000F02000000010302122EBF1222
:100A00002FEE5171D10D12373F12219012289F12F3
:100A100016CBD2261236A6C21F1200281218481270
:100A200026EB1235AC12192C12263F121CF2123191
:100A3000771214063017E220281C123F421223BE00
:100A4000123B4E123EE0122BDD123708123B6812A9
:100A5000307BD22880171234DE121514123DAA12F0
:100A60003DB3123C68122117123A8BC228C217807C
:100A7000A8123FD1121796F1A8F1177D40F1177D0A
:100A8000047F0351997B007D20F1177D10E4FF80E6
:100A90000851997B007D017F038F29120414FF14F4
:100AA000601714602C14604414604124047061F1D8
:100AB000D485822D123FB6802EF1D485822DEDF59E
:100AC000827401F52E85822FEDF4F5827530008059
:100AD00016F1D485822DEDF4F582752E0085822FD6
:100AE000EDF5827401F5308582318024123FB685A0
:100AF0008231EDF5827401F52A85822BEFB404076B
:100B00007401FEAF828005EDF4FF7E008E2C8F2DE8
:100B100090000112042D7007EDFF7401FE8005EDB9
:100B2000F4FF7E008E328F3390000212042D700786
:100B3000EDFF7401FE8005EDF4FF7E00E5291470E1
:100B40000261CD147002814714700281C1240360D8
:100B500002A145E52AAB9A30E006E52B4BFD800467
:100B6000E52B5BFD8D9AE52C30E00790F009F191C3
:100B7000800590F009F18A90F009EDF0E52E30E063
:100B800004F1A0800590F00AF18390F00AEDF0E501
:100B90003030E004F198800590F00BF17C90F00B80
:100BA000EDF0EE30E004F1C5800890F00CE0FBEFD2
:100BB0005BFD90F00CEDF0E53230E004F1CC800507
:100BC00090F00DF1BEAF0590F00DEDF022E52AABEF
:100BD000A130E006E52B4BFD8004E52B5BFD8DA1EC
:100BE000E52C30E00790F019F191800590F019F1B3
:100BF0008A90F019EDF0E52E30E004F1A080059028
:100C0000F01AF18390F01AEDF0E53030E004F1983D
:100C1000800590F01BF17C90F01BEDF0EE30E004CD
:100C2000F1C5800890F01CE0FBEF5BFD90F01CED3F
:100C3000F0E53230E004F1CC800590F01DF1BEAF5C
:100C40000590F01DEDF022E52AABA230E006E52B81
:100C50004BFD8004E52B5BFD8DA2E52C30E0079079
:100C6000F029F191800590F029F18A90F029EDF0BA
:100C7000E52E30E004F1A0800590F02AF18390F099
:100C80002AEDF0E53030E004F198800590F02BF18A
:100C90007C90F02BEDF0EE30E004F1C5800890F090
:100CA0002CE0FBEF5BFD90F02CEDF0E53230E00442
:100CB000F1CC800590F02DF1BEAF0590F02DEDF058
:100CC00022E52AABA330E006E52B4BFD8004E52BA3
:100CD0005BFD8DA3E52C30E00790F039F1918005A4
:100CE00090F039F18A90F039EDF0E52E30E004F122
:100CF000A0800590F03AF18390F03AEDF0E53030C5
:100D0000E004F198800590F03BF17C90F03BEDF031
:100D1000EE30E008A3E0FDEF4DFF800890F03CE0EE
:100D2000FDEF5DFF90F03CEFF0E53230E009A3E02D
:100D3000FDE5334DFF800990F03DE0FDE5335DFFBB
:100D400090F03DEFF022E4F526F527F528FBF1AA17
:100D50007F0351917B007D20E4FF51997B007D0250
:100D6000E4FF51997B017D01E4FFB1A27D05B1A2B1
:100D7000F1B1752801E41B7D03FFB1A27D085199F3
:100D8000D28375DF4075DE60E4F5E9F5D1F5D37502
:100D9000D50F75D4FF90F69274A0F012302B43DE7D
:100DA0008022EB64026065EB64036060EB641960B1
:100DB0005BEBD3941C5055EF146015146023146042
:100DC0003124037047EDD394055041ED2400802B6E
:100DD000EDD394075036EDC394034030ED241080DA
:100DE0001AEDD394065025EDC39401401FED242045
:100DF0008009EDD394065014ED2430F52AE434F044
:100E0000F529EB541F852A82852983F022B146D12A
:100E100072752603E4F527752801F56790F124041F
:100E2000F090F12C74FFF0A3F090F1357409F0907C
:100E3000F137F090F134745FF090F136F090F126D4
:100E4000E0440CF012305290F129E0540C70F8C2DA
:100E500093C294FB7A0079267D107F0151997B0023
:100E60007D087F0151997B147D047F01B1A20B1D88
:100E7000A1A2123FD1C2A2C2A27B007A0079267D34
:100E800004E4FF51997B007D047F02519990F12089
:100E9000E4F0A3741DF090F1237401F090F125F0BB
:100EA00090F12A74FFF090F12EF090F122E4F0908E
:100EB000F127741DF0A3F090F160E4F090F165F07B
:100EC00090F164741DF090F131741FF090F1307462
:100ED0003FF090F1397409F090F138745FF090F1BF
:100EE00041E4F090F149F090F140F090F148F09039
:100EF000002C12068C000000001217F6C21CC21B48
:100F000090F126741DF01230F87B127D027F02B141
:100F1000A27B16E4FFA1A27F0251997B0022D10D92
:100F20005171120028C2261236A6C21F22E4F5DE35
:100F300090F692F012302BE4FBF1B1E4F527F5289E
:100F4000F1AA5191C2B0C2B1C28322752601E4F563
:100F500027752801E51330E006F1A87F015199E4D7
:100F6000FB7D037F01B1A2E51330E1087A00792609
:100F70007D105199E4FB7D047F01A1A2E0FBE531E6
:100F80005BFD22E0FBE52F5BFD22E0FBE52D5BFD39
:100F900022E0FBE52D4BFD22A3E0FBE5314BFD22DA
:100FA000A3E0FBE52F4BFD227B007A0079267D082C
:100FB000227D017F03B1A21DB1A275260322E0FBB1
:100FC000E5335BFD22A3E0FBEF4BFD22A3E0FBE555
:100FD000334BFD22EDF4F58275830085832A8582EB
:100FE0002B85832C22E563B4030C201F04D22080C0
:100FF00002C220E4F563E5631460391470020182D3
:1010000014700201C32403600201C0D22711DCE482
:10101000F52E30210BE52E7FFFB404027F0D8007F3
:10102000E52E90002E93FF11D0EFF0052EE52EB4A3
:1010300005E001BBE4F52E11D0E0FFF4600BEFD327
:101040009416400CEF941F5007052EE52EB405E7CB
:10105000E52EC39405502611D0E0F52D302106640D
:101060000D6002805BE52D64166005E52DB40D046E
:10107000C22711DCAF2E71197563028046756303B8
:101080008041900015E0241711D4E0F52D7B007A03
:1010900000792B716FEF602B852B4C852C4DAD2D7E
:1010A000AF2CAE2B11F1E4F52E11D0E0B52D0511CA
:1010B000D074FFF0052EE52EB405EE7563018003B4
:1010C000E4F563301F09E56364036003020FE52262
:1010D0007417252EF582E43400F5832253DE7F0059
:1010E0007F002027027FA090F692EFF00043DE8081
:1010F000228E2F8F308D3190F692E030E708E4FF9A
:10110000FEFD7C408002510F31F531FEC004C00568
:10111000C006C007E4FBFA79807845AF39AE38AD38
:1011200037AC3612023FD003D002D001D0001201FA
:10113000368F3D8E3C8D3B8C3AE53124FB6072242A
:10114000F8605A24F7603024F76013241E600221EF
:10115000F4853D61853C60853B5F853A5E2231FECA
:101160001236367F9A7E997D997C4512023F8F5DBB
:101170008E5C8D5B8C5A227535D375349B7533DE4E
:1011800051188F598E588D578C56E4FBFA79807818
:101190004012023F8F558E548D538C522275351557
:1011A00075344C75336651188F518E508D4F8C4E5F
:1011B000225106510F120041C004C005C006C007ED
:1011C000E4FFFE7DA57C435106120136D003D00218
:1011D000D001D00012023F31F5E4FBFA797A78446D
:1011E00012013631F51203937B007A007962512E99
:1011F0008E4A8F4B228F398E388D378C3622AC2F0A
:10120000AD30EC02035AAB3DAA3CA93BA83A22AF51
:101210005DAE5CAD5BAC5A2275323DAB35AA34A9EC
:1012200033A832AF3DAE3CAD3BAC3A02023F8B3E01
:101230008A3F89408F448E438D428C417F047E706B
:101240007D0D7C007106D312064C4007710F7EFFA6
:101250007FF122E47FAC7E227104C312064C50065B
:10126000710FFE7F5622AB3EAA3FA94074011204C3
:101270005AE47FBD7EFF7104D312064C402EE4F584
:1012800045E54525E025E024F0F582E43407F583C3
:101290001206707106C312064C400AE54524F1FFA0
:1012A000E434FFFE220545E545B430D5E4F545E5D7
:1012B0004525E024B0F582E43408F583E493FE7418
:1012C0000193FFE48F498E48F547F546E549F54916
:1012D000E548F548E4F547F546AF44AE43AD42ACCA
:1012E00041AB49AA48A947A846D312064C5009E584
:1012F000452423FFE433FE220545E545B434B071AF
:101300000FFEFF22FDFCAB44AA43A942A84122AB39
:101310003EAA3FA940E402045AAB07EBD394045021
:101320004D74172B11D4E0FAF46043EAD3941640BD
:1013300005EA941F4038900016E0703290001012B9
:10134000068C00000000E4900014F0A3EBF0A374FE
:1013500001F0EA30E40543DF80800353DF7F53DE92
:10136000F0EA540F42DE7AA000DAFE43DF02228B5D
:101370002F8A308931E5DF30E1037F0022900014AD
:10138000E004F090001071FAAFDDEFFEADDCEDD1BE
:1013900020EB2FFFEA3EFEE93DFDE83CFC9000100B
:1013A000120680900015E090003393FF900014E047
:1013B000C39F500643DF027F0022900010D10FE050
:1013C000FFC007A3E0FBE4FAF9F8D0071207AC90DE
:1013D0000010120680900010A3A3E0FFA3E0AB2F43
:1013E000AA30A931CF8FF01204ECE4900016F07F00
:1013F0000122E4FFFEFDFC90002CE0F8A3E0F9A33D
:10140000E0FAA3E0FB22201B0281E6301C2D90F1C4
:1014100029E05411600281E690F164E0301E055429
:10142000EFF080034410F090F164E0301D0554FEAD
:10143000F080034401F0C21BC21C22E4FFFE7DC801
:101440007C4271F71202DC600C400A90002C1206FC
:101450008C42C8000071F21202DC500A90002C127B
:10146000068C00000000D3900031E0945F900030C3
:10147000E0940940077409F0A3745FF071F212025E
:10148000DC60054003D38001C3921D900030E07002
:1014900002A3E0C36001D3921EE4FFFE7DFA7C4507
:1014A00071F7120136E4FBFA798078BF120045919A
:1014B000E7E4FBFA79C8784212023F91E7120393FE
:1014C000AD07AC0612362DEA90F149F0EB90F148E9
:1014D000F0ECFFEF90F141F0ED90F140F0D21C9074
:1014E000F129E04411F0228F298E288D278C2622A5
:1014F000C2A3900030E07002A3E0700971F3120201
:10150000DC6010400EF1F690002C12068C000000FA
:1015100000D21B2290000CE0C39428504F12369644
:10152000F1C391E790000CE004F0D10CE02529FF15
:10153000EE3528FEED3527FDEC3526D128D119D121
:101540002FC3120636500A900004E528F0A3E529BF
:10155000F0900006D11CD12FD31206365002A1E123
:10156000900006E528F0A3E529F08075D10CE0FF96
:10157000C004C005C006C007900006E0FEA3E0FB63
:10158000AA06EA3395E0F9F8D119EF2BFBEE3AFA07
:10159000ED39F9EC38F8D007D006D005D004C3EF08
:1015A0009BFFEE9AFEED99FDEC98D128D10CE0FF5F
:1015B000C006C007A3E024FEFFE434FFAB07FA3304
:1015C00095E0F9F8D007D0061207ACD129900008B1
:1015D000A3A3E0FFA3E0900000CFF0A3EFF012364A
:1015E000E690000DE0FFB478057401F08009EF602B
:1015F0000690000DE004F0E56660021566900003B9
:10160000E0600214F0E5656002156522900008E0D4
:10161000FCA3E0FDA3E0FEA322900004E0FEA3E013
:10162000FFEE3395E0FDFC22FC900008020680AB43
:1016300029AA28A927A826227F0A7E008E2E8F2F6E
:10164000E4F534E52F452E60780534AE2EAF2FD16A
:1016500021E47BA07A0FF9F812050BD1C2C007AFC5
:1016600034AB07E4FAF9F8D007120596D1C2E47F4B
:10167000FF7EFFFDFCAB33AA32A931A830D312069E
:101680004C50C6C374FF9533F53374FF9532F53271
:10169000E49531F531E49530F530AF33AE32AD310C
:1016A000AC30780812065D8F8CE533FF8F8AC21A42
:1016B000438810E58820E503301AF85388CFD534E5
:1016C000D9228F338E328D318C30227526641200F0
:1016D00028C28485512A855029854F28854E27D2D6
:1016E000A6D2A3D225F1537F327E00D13CD2B212D2
:1016F0000028E4FFFE7D8C7C41AB2AAA29A928A8FA
:10170000271202DC5011E4FFFE7DA0F18960084041
:10171000067F07F142801CE526C3945A500C7F33A4
:101720007E337D93F189600250097F057E00D13CB4
:10173000D526BCC225F153F196E52670047F01F150
:101740004222900037EF1218E5640160057F011214
:101750001AB1227F003025027FFF90F140EFF07F29
:10176000003025027F0890F149EFF07F003025021C
:101770007FF690F148EFF01230F890F164E03025F8
:101780000454EEF0224411F0227C41AB51AA50A93E
:101790004FA84E0202DCF1E2C2A3C284E4F1EF9052
:1017A0000027F0A3F0C212C21690002BF090002A7E
:1017B000F022E4F5C853A8DF123107120F2D120FE3
:1017C0004B80D3120136020393900002E070121294
:1017D00037A2E4FFFE7DC87C421235F2F1C3123716
:1017E000E222C2B2C2A5C2A6227F147E00C13C90F2
:1017F0000025F0A3F022E4900030F0A3F022EF14D3
:10180000600E14600F1460102403700FED42AC22C0
:10181000ED42AD22ED42AE22ED42AF22EF14601157
:101820001460151460192403701CE5AC5D6017D3B7
:1018300022E5AD5D6010D322E5AE5D6009D322E5FF
:10184000AF5D6002D322C3227D01E4FF111C403949
:1018500090004FE0FF25E0F0308003E004F09000BE
:101860004FE0FCF46003EC70201228E5E4F5B4BC12
:10187000FF03C38001D3922A7B01BCFF027B02E4F9
:10188000FDFF1228430D1217FE302A08E51630E737
:101890000375168011D4E51B4480FC302A1FB51552
:1018A0001CE518D394004009AF187E001230A580C3
:1018B00009E4F518751A01751701E4F515202A13C6
:1018C000E516B4840EE4F516E517700475190122C7
:1018D000E4F51722E56A700511E6B40E04751B02E3
:1018E00022751B0522F0AB08AA09A90A020414D329
:1018F000900001E094549102948B400B3003047FDC
:1019000004800051B1801CD3900001E0945A9102F0
:10191000948A40049127800B11E670057567068054
:1019200002716011E6B40403123E8D221237915009
:101930000241B0F1FB8F26900032E0FF940B40068D
:10194000EFD3940D4006900032740CF0900033E019
:10195000FFC394024006EFD3940D40069000337409
:1019600005F011E6F527C229147002410014700237
:10197000414A147002412C147002415D24FA700235
:10198000416424FC40024183240E600241A4900083
:1019900044E0600241A4D1D5EF600241A4AF261219
:1019A0002F07EF600241A4E52624FC601E24FE60A0
:1019B0001F1460251460272407703B2000047F0556
:1019C0008005900033E0FF11EF802B300428800366
:1019D0002004237F0E51B1801D123FA68018D390A2
:1019E0000001E094AC9102948D40087F0F51B1C288
:1019F000098003756706D17050029127910941A4AF
:101A0000E4F56A123CDF501B302304C22C41A49041
:101A10000037E06405600241A4E526700241A4B2EB
:101A20002C41A4D170507D1227C68078200A1BD18A
:101A30007050177F0511EF11E664036067300303F0
:101A4000122B8A900036E04440F0D229C390000166
:101A5000E0940291029488504B71608047122216E4
:101A6000F1238040123DDEE52664026003300C0461
:101A70007F0611EFE5266403702A900032E0FF51E3
:101A8000B18021E52654FE6009E52654FC7003125E
:101A90003B04E526B40309900033E0FF11EF800416
:101AA000AF2671B511E6B52704AF2651EE1230EA24
:101AB000228F2B11E6652B6034F1E6F52C7B007A42
:101AC00000792D123B19E52D60238B088A09890ABC
:101AD0001235FB123DA2123ED2E52BD39401400DEC
:101AE000E52B940B5007E52C6003122325228F2849
:101AF000715990000912042D600271B511E654FE6F
:101B000060139109E56A7007E528B401088004D1E3
:101B1000CE40027160900036E030E70F547F71587C
:101B200090000C12042DFF600251B1900036E0309D
:101B3000E50F54DF715890000D12042DFF60025123
:101B4000B1715990000B12042D600C5402FF9000EB
:101B50000A12042DFDD17D22F0AB08AA09A90A22A0
:101B600011E6605014604D24F624FD5002800512E9
:101B70003B04801BE56A70177159F1E6600F900015
:101B800027E0FFA3E0900025CFF0A3EFF0D20830CC
:101B90000013715990000712042D60141204149060
:101BA0000033F0800B300308122B8AC2261229FA68
:101BB000E4FF51B122EF24FD601B047044D3900078
:101BC00001E0947A9102948D4007200B047F0A80F3
:101BD0002B7F0901EFD3900001E0948C9102948A4D
:101BE000401C11E66012900033F02001047F0C804D
:101BF00005900032E0FF8004D2057F0C41B175678B
:101C00000622900000E0648022122EE3EF24FE60A2
:101C10000F14600F2402700E11E6700A7F0241B1AA
:101C20000217C91237BA22D3900001E094F0910252
:101C3000948A40047F03800FD3900001E094609168
:101C400002948940047F0241B17567062211E67F44
:101C50000070027F01BF0A0875280E7529108006E2
:101C600075280D7529ACD3900028E0947A90002750
:101C7000E0648094B1400C749C2529F52974FF35EB
:101C800028F528E56414601F14603B146053240396
:101C9000705FC3900001E09529E5286480F8910207
:101CA00098504E75640122E52924FAD159984003D1
:101CB000E4F564E5292438FFE52834FFFEC3EDD1BF
:101CC0006798502D8028E5292432D1599840037512
:101CD0006401C3ED9486EC6480948B5014756403A6
:101CE00022D3900001E094E49102948C4003756447
:101CF0000222C214900034E07003302C0B900025B7
:101D0000E4F0A37421F0C13B11E67002A19A24F51E
:101D1000603714607514605614605F147002A1E699
:101D200024056002A1FF122311123FDBF1ECFF90AA
:101D3000001CE0FCA3E0FDC3D1679850089000258B
:101D4000ECF0A3EDF0C20DC13B123EE9EF24FE60C2
:101D50000B2402701274FF1217EF800E900025E41E
:101D6000F0A37485F0800312364AC20DC13B123DC8
:101D700006EF70028008C20D801BF1CF5004D20D17
:101D8000C106D1CE4004D20D805FC20DD214123FE5
:101D9000824002807112364AC13BD20DE5146003C5
:101DA000200803E48062D3900026E0940DF1F494BF
:101DB00080402FAF147E007C017DAE12046CE0FCED
:101DC000A3E0FDCFCDCFCECCCE12047EEF2401FF19
:101DD000E43EFEC3900026E09FF0900025E09EF0D8
:101DE0008059C20880553009077159900003804519
:101DF000C3900001E094F79102948D5002D209C281
:101E00000D123A3D500774FF1217EF802E11E6B401
:101E10000420D3E50C9510E50FF1DD900025400975
:101E2000E50FF0A3E510F08012E50BF0A3E50CF050
:101E300080099000011204B412363FE51160193098
:101E4000070FF1EC7802CEA2E713CE13D8F8FF808B
:101E5000047EFF7FFF123FDB22FFE43528FE900067
:101E600000E0FCA3E0FDD39FEE6480F8EC648022E8
:101E7000E51A64016002C322E4F51AD3228D297E9B
:101E800002F1CF5004D2258004D1CE922520231C0C
:101E90007E0A900024E0600720220AE4F0800630E9
:101EA0002203302507E4900022F080031227CF9010
:101EB0000022E0D39E4016EF6002800630250530F8
:101EC00023026160E4900022F0AF2951B122E517AE
:101ED000C36001D322900047E014603914600A14F3
:101EE00060072403703A7F0022F1FBEF6003123A8F
:101EF0006D900048E07007900047F0756706D1CEFE
:101F0000501E9000347404F09000477401F0C22613
:101F10001229FA800BD1CE4007D170E4900047F02F
:101F20007F0122D1CE92F7F1CF72F7922512220AC9
:101F30001222F4500AAC0FAD10AE04AF05800012AF
:101F40002210FDC3EF9DE5F01225AA500B302508A5
:101F5000F1D940048E0B8F0CD1CE502220061F9059
:101F60000035E0600414F0804FF1D8500A050CE50C
:101F70000C7002050B803BD207123FC78034F1CFB3
:101F80005028200625900035E0600414F080297167
:101F9000591227E1D3F1D9400AE50C150C7002154E
:101FA0000B8005C207123FC7800820250B300608AA
:101FB000C2069000357403F030250475122022E526
:101FC00012B4010A1512300005C2261229FA22E5C0
:101FD0001AB40202D322C322C3E50C9FEE6480F838
:101FE000E50B6480982290000802042D900025E003
:101FF000FEA3E022900025E0648022E51A7004E54B
:102000001970037F0022AF1822EF14600F146011C3
:1020100014601324037013EDF452AC22EDF452ADAE
:1020200022EDF452AE22EDF452AF227D01E4FF1115
:102030000990004F74AAF022E4FDFF1173EF6401D0
:10204000702DC22AE515547FFFE4F515E5177004DD
:10205000E51A6007E4F51AF5178016EFC3940550EA
:1020600010E518C3940850020518751680800231D7
:102070007D80B8EF14602314603F14605B2403700C
:102080007CEDD3940540037F0022ED2480310A804B
:1020900002C333D8FC55ACFE8066EDD394075006DE
:1020A000EDC3940350037F0022ED2488310A80029F
:1020B000C333D8FC55ADFE8047EDD394065006EDF2
:1020C000C3940150037F0022ED2490310A8002C3A3
:1020D00033D8FC55AEFE8028EDD3940640037F0034
:1020E00022ED2498F582E434F0F583AF05A8077457
:1020F00001088002C333D8FC55AFFE80037F002265
:10210000EE7002FF22E05403FF22F582E434F0F582
:1021100083A80574010822123C41EF60031228E5F0
:1021200090004BE07002A3E0600F90004CE024FFB1
:10213000F090004BE034FFF022E56AD394014003B5
:10214000E4F56A1217B243870443870200122FEEA8
:10215000317D112B7F017E0012163C12184830177A
:102160000AC217B22530250312307B1230DD50E44D
:10217000120F1EE4900041F0A3F0A3F022D22AE552
:102180001630E703751680E51520E70375158022E4
:1021900031739000337405F0900032740CF0E490C9
:1021A0000037F0F5111229587B007A0079267F0458
:1021B000123B198B088A09890AE52660367105F5F4
:1021C0000E85F00D5110F51085F00FF1E1121FD8BA
:1021D00050048E0B8F0CD3E50C9510E50F121FDD0C
:1021E0004006850F0B85100C7508FF750909750AE7
:1021F0001880057F08121742E4900034F0C208905E
:102200000044F09000357403F022AB08AA09A90A33
:102210009000010204B420227120236EE490002279
:10222000F0E564600241F3510A51F45057900023E5
:10223000E0FD700404F08008EDC39409500241F3FE
:102240009000237401F07105FDACF0D3E50E9DEC18
:102250006480F8E50D64809840068C0D8D0E800B2F
:102260007432250EF50EE4350DF50DD351F8400806
:10227000510AF51085F00F2274FA2510F510E43597
:102280000FF50F22E4900023F022E4900023F020C9
:10229000230FA3E0600B202202E4F0E4900022F080
:1022A00022F1CF30230C900022E0D39404400302AB
:1022B0001B60900022E0D3940A4038D3E510944D7F
:1022C000E50F64809481400C74062510F51074FFAE
:1022D000350FF50FD3E50E94BEE50D6480948A406A
:1022E0000C74E7250EF50E74FF350DF50D900022E8
:1022F0007401F022FFAEF0C3E5109FEE6480F8E5B4
:102300000F648098229000050204B47158AC06ADA9
:10231000071218E6B40A082002057E3B7FE5225129
:1023200010FFAEF022121B59121FE67002801F71BF
:102330000BD3B1A75007E4F51EF51F800B710BC33B
:10234000EF9DF51FEE9CF51EE51E30E705E4F51E3A
:10235000F51FE4F51CF51D22201007121FECFFC22B
:102360000F22AE1CAF1D7C007D0C12047EE51F2FDA
:10237000FFE51E3EFE30E703E4FEFFC3900026E0CB
:102380009FFF900025E09EFEC3EF94E8EE648094EA
:10239000835017A3E02418F51F900025E034FCF5C6
:1023A0001EE4F51CF51D7E037FE8900026E024B3B3
:1023B000FD900025E034FEB1A55002D20F2220107E
:1023C0000EC20EE4F51CF51DF51EF51FC20F2230DE
:1023D0000D02A1871218E6B40A22300208752A1AE3
:1023E000752B0A8006752A14752BD5300E1F74FBC9
:1023F000252BF52B74F2352AF52A8011200E08754D
:102400002A0D752B058006752A05752B35F1F68E7C
:10241000268F27D3E54B9527E526D1175002A1013A
:10242000D3E54B9442F1BF4002D20EC3E54B952752
:10243000F529E54A9526F528D3E5299402E528648F
:10244000809480406AB188406690004A743C1218BB
:10245000E5B40A11B19C2002067C067D40800C7C0C
:10246000077DD08006B19C7C087DFC12047E8E2600
:102470008F27E52630E705E4F526F5270527E5272C
:1024800070020526E52954FC45286014AE26AF27C6
:10249000E5292402FDE43528FC12046C8E268F27E2
:1024A000AC28AD29AE26AF2712046CF19B80279093
:1024B000004A7418F0E52954FC45287003300E04D6
:1024C0007D0180027D00AB29AA287F01B1B2D1B77E
:1024D000752A03752BE87158C3EF952BE52AB1AA2D
:1024E00050167158C3E52B9FFFE52A9EFEC3E51FDA
:1024F0009FF51FE51E9EF51EE51E20E702A187A1A0
:1025000082C3E54B9527E526D117507BC3E5279578
:102510004BF529E526954AF52890004AE060041419
:10252000F0805AE52B247BFFE52A34FFFED3900090
:1025300028E09FEEB1914004D1B7801FE52954FEF9
:102540004528600DC3E51F9529F51FE51E9528F563
:102550001EE51E30E705E4F51EF51F300E1274056A
:10256000252BF52B740D352AF52AB1884002C20EB1
:10257000E52954FCFDAB29AA28E4FFB1B2E51E30E1
:10258000E705E4F51EF51F22D3900028E0952BE522
:102590002A6480F8900027E064809822900027E069
:1025A000FEA3E0FF22FCC3EF9DEC6480F8EE6480A4
:1025B00098228D2CA907F1A64006AE1CAF1D801BEA
:1025C000F1B274309BFD74759AB1A5500AE52C6088
:1025D000067E007F0180047E007F00EF4E6016E9DA
:1025E000600A300E0774022BFBE43AFAEB25E0FB9D
:1025F000EA33FA80047A007B01E9600BEB251DF5D4
:102600001DEA351CF51C22C3E51D9BF51DE51C9A32
:10261000F51C22E54B9FEE6480F8E54A6480982221
:10262000AF26EF3395E0FED3D1134002D322AF277C
:10263000EF3395E0FEC3D1135002C322A22622E558
:1026400062606EA20C9226752646752737D12092BD
:102650000CA20B9226752641752737D120920BA22A
:10266000119226752650752728D120921130110716
:102670007F061217428009900037E0B40602F1C6C7
:10268000121B59121FE67003C21022F1F68F26A208
:1026900010922675272BD1209225302503D21022A7
:1026A000202513E51F451E700DE51C30E708C210FC
:1026B000227F0512174222F1A64006AE1CAF1D80F4
:1026C00014F1B2EF94D0EE648094827E0050047FC7
:1026D0000180027F00EF4E7011AE1CAF1DFC7D0C1F
:1026E00012047EF19BE4F51CF51D221218E6FFB4DE
:1026F0000408850D26850E2780077105F52785F0CE
:1027000026EFB40A28900027F1EE7D4312047EC321
:10271000E5279FF527E5269EF526C3E52794B8E52E
:10272000266480948B500675260B7527B8F1D8D394
:10273000945AEE6480948A4013D3EF9527E526B12E
:10274000AA40028001D39222C2238004C222D22353
:10275000121C4DE567D394055040900037E06006A9
:10276000202C03023C93900002E0600302383A9070
:102770000047E030E106123A948F6722900044E06F
:102780006006122CA98F67221218E67007E56570A3
:1027900003302C030239C6E4F56722EF251FF51F2D
:1027A000EE351EF51E22D3E51D9400E51C648094D1
:1027B0008022AE1CAF1D7CFF7DFF12046CC322E59E
:1027C0004A6480948022E4900037F0FF021AB190AE
:1027D0000022E0700204F022900000E0FEA3E0FF7F
:1027E000229000031204B4FFAEF02290000EE0FE2F
:1027F000A3E0FF7C00221218E6640A70413002391F
:102800001227D8C39484EE6480948D40067C007DAA
:10281000388021EF24CCFFEE34F2FE7C007D1412D0
:10282000047EAC06AD07EC30E703E4FCFD74342D08
:10283000FDE43CFCAF05AE04227E007F34227E0026
:102840007F3222EBD394035055EF146015146023AC
:1028500014603124037047EDD394055041ED24807A
:10286000802BEDD394075036EDC394034030ED2414
:1028700088801AEDD394065025EDC39401401FEDD6
:1028800024908009EDD394065014ED2498F52AE4A1
:1028900034F0F529EB5403852A82852983F02275CB
:1028A0002601E4F527F528FBFDFF120DA27A007939
:1028B000260D120A997D01E4FF1217FE7B021D11FD
:1028C0004343B90111E574172FF8E4F6EF54FE7095
:1028D0000674152FF8E4F60FBF04EB751B05900086
:1028E0004F74FFF022E56AD39401400B90004B74C3
:1028F00012F0A374C0F0221218E690004BB4010746
:10290000E4F0A374F0F022E4F0A37428F022C2AF44
:10291000007596AA75965575978080FE22752DFFD5
:1029200031F3C229756704152DE52D60071216389D
:1029300071DD80F380D87172C22631FA31F3752DC2
:1029400064C22975670512163871DD12003850020D
:10295000152DE52D70F080B67B007A00792751E6C1
:1029600090003BEEF0A3EFF07B007A0079277D0525
:1029700071ACEF652C7071E529C330E401D392028C
:10298000E529C330E201D39200E529C330E301D346
:102990009201E529C330E001D39203E529C330E574
:1029A00001D3922DE529C330E601D39204E5297FB6
:1029B0000030E1027F018F6A852B13200004718AA9
:1029C000800685270B85280C852A1490003DE52C70
:1029D000F090003CE004F0700690003BE004F01240
:1029E0000038400F3136800B7172756A01D2263182
:1029F000FA311D75FB5500D2AF22E4FFD1CCE56A58
:102A0000B401027F02300303430701300003430790
:102A100004300103430708300203430710302D033D
:102A20004307203004034307408F31851432851358
:102A300033850B2F850C307B007A00792F7D057153
:102A4000AC8F3420260990003DE0B5340280672029
:102A5000260FC390003CE094A990003BE094004016
:102A60001B7B007A00792E7D007C027F1D51B8E42B
:102A7000FC7F1D51B8E490003BF0A3F0E4F52E90EC
:102A8000003B1227EEF1E7252EFDEC3EFC742F25CE
:102A90002EF9E4FAFB7F1951B8052EE52EC39406F2
:102AA00040DD90003CE004F0700690003BE004F054
:102AB00090003DE534F021F38F35E535B41905126A
:102AC0000414F5FEEDF5FCECFFEFF5FD008535FF98
:102AD000000000000000E5FF20E0FBE535B4110533
:102AE000E5FE12045A228B2D8A2E892FE4F531F54A
:102AF00032D1CCE4F530714740FCAB2DAA2EA92F82
:102B00007D0571ACAB2DAA2EA92F90000512042DC6
:102B1000B507130532E53270020531C394A9E531DA
:102B20006480948040CDD3E5329400E53164809494
:102B3000804008E532153270021531E4F5307147F6
:102B400040FCAE31AF3222AE31AF327C007D061296
:102B5000046CEF2530FDEC3EFCAB2D7E00E52F250F
:102B600030F9EE352EFA7F1151B80530E530C394B7
:102B70000622E4F56A718A751301751402C203D244
:102B800000C201D22DC202C204227B007A00792E3B
:102B90007F04123B19E52E600C9000031204B4F57B
:102BA0000C85F00B22750B00750CC8228B358A360C
:102BB00089377FFFAB350537E537AA367002053612
:102BC00014F912041462077E08EF30E70725E06469
:102BD00007FF8004EF25E0FFDEEFDDD822C2257578
:102BE0002E0CE567C394065015123EA05009D22959
:102BF000752E04D2258007123BBC5002D225302509
:102C0000028190E567B4090040028190902C13F88E
:102C1000282873022C2E022C33022C33022C330270
:102C20002C3B022C3B022C5C022C5C022C5CE4F55D
:102C300068805DAF67D1D38F2E8055E56830E2089C
:102C400054806480F56880020568E56830E741E5F6
:102C5000677F08B405027F008F2E803453687FE5BC
:102C60006764086005E567B407047F0680027F0A91
:102C7000E568D39F4005E4F5678015AF680568EF08
:102C800030E00DE567B40705752E048003752E0846
:102C9000123052AF2E90F164E054F34FF022D1D3B2
:102CA00091951217E97F0C80EC900044E0B4070086
:102CB0004002C144902CBBF8282873022CD0022E6D
:102CC00031022CD3022CEA022D17022D32022DC321
:102CD0007F0022900003E0700E900045F0A3746422
:102CE000F09000447404F00239F6D174900003E0CF
:102CF000FF7012900046E0600214F0F1DC90004496
:102D00007404F0C144EF20E102C144900045E07F2B
:102D100003B408027F0222D174900003E06002C174
:102D200044900045E025E025E02403D1627403F0DF
:102D3000C144900003E0FE54F860037F0722EE6078
:102D400002C144900045E064086009D1E3EF6401EA
:102D50007002C144900045E0FF54FE6057EF24FE2E
:102D6000B407005042902D6C12399C73022D8102E1
:102D70002D87022D8D022D93022D99022D9F022D5C
:102D8000A5A203922E8020A200922E801AA2019268
:102D90002E8014A202922E800EA22D922E8008A2C6
:102DA00004922E80023136D16A7432F0900044745D
:102DB00006F0C144900045E02402900047F0123A2A
:102DC000F8807CD191121E70504A900045E024FD9D
:102DD000601614601914601C14601F14602224050E
:102DE0007022A22E9203801CA22E92008016A22E88
:102DF00092018010A22E9202800AA22E922D8004AF
:102E0000A22E92049000347404F0C22631FAD161EB
:102E100004F08030900003E0FE54FE60087F013033
:102E20002E027F0322EE701CD16AE0601714F0803E
:102E300013900003E060037F0622121ECE4005E4DB
:102E4000900044F0900046E07014900044E054FE7E
:102E5000600C9000037406F09000447401F07F0051
:102E600022E4900003F0900044229000037414F0D8
:102E700090004622D1E3BF010E9000447405F0900B
:102E80000003740DF0800A121E705005E490004695
:102E9000F0121FFBEF60279000467432F090004460
:102EA000E0B40604B22E8013900045E004F0E07513
:102EB000F00984E5F0F0D1617404F01230EA22C226
:102EC000AF007596AA75965553977F22C2AF0075CD
:102ED000FBAA22A8077403088002C333D8FCF45469
:102EE0000CFF22E51A54FE6007C3E51A9401FF2285
:102EF0007F00229000347408F0E56A7F0070027F42
:102F0000018F6AC22621FA8F28E56A1460251460B1
:102F10007C14607924036002E1C0E528B40502D185
:102F2000F37F043004027F06EF65286002E1C0F100
:102F3000CBE1C0900002E06002E1C0E528B40507E3
:102F4000756707D1F38079D1E3EF1460081470122C
:102F50001217C9806BD22C20230890003474F0F033
:102F6000805E202C06900034E06018E52864016043
:102F700003302307E4900034F08045900034E07083
:102F800002C22C1230DD50387567068033E528B454
:102F90000405F1CB7F0222E528B40213E56AB402EE
:102FA00008756A037567078006756A0275670812F7
:102FB0001ECE500CE56A7F02B403027F03121BB5DC
:102FC000E56A64016002C22CAF6A22900034740288
:102FD000F0E56A7F0070027F028F6A22900003741E
:102FE0000AF0227E007C007D0612046CEF22E4F5DC
:102FF00088758901F58CF58AF5CE75CB0B75CADB22
:1030000075CD0B75CCDBF5C975CF8075A8A2C2173D
:10301000C218C21975C8912275C900B219301904B5
:10302000D217B218325388EFD21A327F05900017A8
:1030300074FFF0A3DFFC90001012068C000000006B
:10304000E4900014F0A3F0A3F0F563C220C221D2F3
:103050001F2290F145302907E4117274FA8006743A
:103060000511727478F090F146F090F129E0440C6B
:10307000F022F090F147F090F14422E4FE74152E16
:10308000F8E630E71B547FFDEE7F047002AF1BEDC6
:10309000C39F50010DE65480F674152EF8E64DF6E8
:1030A0000EBE02D922E4F516F519F518F517EF044E
:1030B000F51A22C0E0C083C082C0D075D000C00025
:1030C000C005C006C00712203875B400D007D0066E
:1030D000D005D000D0D0D082D083D0E032E51A60C5
:1030E00002D322E519C36001D322E5196009E5186E
:1030F0006005E4F519F5182290F1297411F090F1AA
:1031000029E0541170F822E4FB7D027F02120DA227
:10311000E4FF120DA290F121E4F090F126F090F17D
:1031200025F090F123F022AD07AC06EC12035A31E2
:103130006E7B9A7A997919783E316BC004C005C0CC
:1031400006C007E4FFFE7D7A7C44AB5DAA5CA95B08
:10315000A85A120136D136D007D006D005D00412B5
:10316000023F316EE4FBFA79CC78421201368F2BA4
:103170008E2A8D298C2822D3900026E09400121FDD
:10318000F49480401B1223588E268F27C39000266C
:10319000E09527E5266480F8121FF498500C800310
:1031A000900025E0F526A3E0F527E52745267019D0
:1031B000FFEF90000393FE90002AE0B50607740825
:1031C000F0D22180040FBF05E890002AE0B40D0082
:1031D000400281BA9031DBF82828730232050232AE
:1031E0002002326A02327F0232B00233070233EF2A
:1031F0000233B302343002344902346C0234A80280
:1032000032020217961217E2C212C215C221C2136D
:103210001214F091C1500281C090002A7401F02272
:10322000D2A31218E6B4020B900027E4F0A3741D99
:10323000F0801FD3E52794E8E52664809483400658
:103240007E037FE88004AE26AF27900027EEF0A330
:10325000EFF012259C91CD9000307408F0A374F625
:10326000F0D21B90002A7402F022301B0281C0129F
:1032700017E9D2A69000297414F0A37403F022D2A7
:10328000B2900029E0700B7F0112174290002A745F
:103290000CF07F667E667D8E121789500281C01207
:1032A00018E690002AB402047407F0227404F02295
:1032B000D2A5301B0281C0D12D4A700890002A741B
:1032C00006F08040AE26AF277C007D0812047EEF1A
:1032D0002401F527E43EF526D3E52794C891C6409E
:1032E000067526007527C8C3EB9527EA9526500575
:1032F0001217F6800FC3900031E09527F090003050
:10330000E09526F0D21B22301B0281C012259CC3FF
:10331000E5279FFFE5269EFED3EF9405EE6480949B
:103320008D4002D216E56A706030165D1218E624F0
:10333000F3602C240224FC5016240570323013371D
:10334000202B34900028E024B491D5C2138028901B
:103350000028E024D0F0900027E03407F080189097
:103360000028E02420F0900027E03403F08008904B
:103370000028E0240F91D5C3900028E09527E5268A
:10338000122591400EC2168003900027E526F0A377
:10339000E527F0D21B12259C91CD900027E06526F1
:1033A0007004A3E06527600281C0D21290002A74E5
:1033B00006F022D3E527940291C6400690002A74B5
:1033C00004F0900030E0FEA3E0FFE4FCFD7BA67A71
:1033D00008F9F8C312064C5013201B10900031E07E
:1033E00024FFF0900030E034FFF0D21BD2A522D2AF
:1033F00015E52764024526701590002A7407F090A1
:10340000003004F0A374BAF07F1D7E0091CDE52753
:10341000B4FF0BE526B4FF0690002A740AF0900072
:1034200027E065267004A3E06527700281C081B3A0
:10343000C2B27F017E0012163CD2A51214F0900099
:10344000297424F0A37409F0227FCD7ECC7D9C12D8
:10345000178960084006900029E07064C2211214A8
:10346000F01217E2E4900029F0A3F022900030302F
:1034700014097407F0A37466F080077408F0A3744D
:10348000F6F0D21BD221E4FFFE3014067DBC7C4155
:1034900080047DAC7C4112178B60025023C2A59042
:1034A000002A740BF0C2212291C14014D2A5121738
:1034B000F6D21B90002A7405F02290002A740CF0BA
:1034C00022D3E5279400E52664809480223127905A
:1034D000002C020680F0900027E03400F022D1D4C6
:1034E0004006E490003AF02290003AE0C394035082
:1034F00004E004F022900039E0540FF5267FCD7EE1
:10350000CC7D8C7C40D19D1202DC600740057F039E
:10351000121742E4FFFE7D98121789501B7F9A7E96
:10352000997D997C40B192600F400D7D02AF26B12C
:103530009D8F26E4F5278035E4FFFEFD7C3FB192A8
:10354000501C7F337E337D037C4212178B600F400B
:103550000D7D01AF26B19D8F26752701800FD39178
:10356000C64006E52614FF80027F008F26E527C4AB
:1035700054F04526900039F0C3E5266480948840D5
:1035800010E0C4540F1470047F0480027F021217ED
:103590004222AB61AA60A95FA85E0202DCC3EF64AD
:1035A0008094885004EF2DFF227F0822302040C2F3
:1035B00020D21390001E12160FE0FFB1F21202DCAF
:1035C00040257FCD7ECC7DCC7C3DB192501C7F339D
:1035D0007E337D63B1F01202DC500FE4FFFE7DB05C
:1035E00012178960054003D22B22301202C22B220F
:1035F0007C41AB59AA58A957A8562212220AFF901B
:10360000001CD143120414B40A2220020A90001CA8
:10361000743BF0A374E5F0C2127F667E667D467C43
:10362000C0B1F212004590001E12068022900030B8
:10363000E0FAA3E0FB22A804A905AA06AB0722FF33
:10364000900025E5F0F0A3EFF022E56414600A1481
:10365000600E1460172403701D12220AD13F8016D9
:10366000900025741AF0A3740AF0800A9000257463
:103670000AF0A3746AF0E56430E102C21420021576
:10368000D3900026E094E5121FF494BB4007743BEE
:10369000F0A374E5F022E4FFFE7D7A7C44AB55AAEA
:1036A00054A953A8522275260AD1E6E4F566900083
:1036B00002F0120028D1961217C3900000EEF0A37A
:1036C000EFF0121C4DD526EA3026081218E67003DA
:1036D0007565122290002AE0FFD394044006EF940F
:1036E00008500122C322900004747FF0A374FEF0FE
:1036F000A37480F0A37402F0E490000CF090000832
:1037000012068C00000000221218E6B40204C284E3
:103710008024D1D45004D284801C1218E664016045
:103720000E90002BE0C394045005E004F08007B233
:1037300084E490002BF0900029E0600214F02275E0
:1037400026C8D284121638120028E526C330E301B9
:10375000D39284E4FFFE7D20B1F01202DC4021AB65
:1037600051AA50A94FA84EAF59AE58AD57AC5612FA
:103770000041E4FBFA7980783E1202DC60025010CE
:10378000D526C1756701122BDD1217E9B28480F9C5
:103790002290002AE0FF64086004EFB40902D322FB
:1037A000C32290000274011218E5600DE5676006FF
:1037B0009000037408F0E4F56722E562602390004E
:1037C00002E0701DF1A2D224E54BAE4A30E707FFBC
:1037D0007CFF7DF68006AF4B7C007D0A12046CF105
:1037E000E22290000EEEF0A3EFF0228F288D2990B8
:1037F0000003E030E708122C9EE4900003F09000F4
:1038000003E0FF7E0030E102AE288E67EF700BF51B
:1038100067122FDC900002E529F022900003E0708F
:1038200018EF4E70057480F0800AEF25E025E01453
:10383000900003F0900002EDF022900002E014B43A
:103840000B004002219B90384C319C7302386D0272
:10385000387F0238D10238D70238F40238FA0239F8
:103860001202396702398202391902392A9000039B
:10387000E06002219B740FF09000027402F022318C
:10388000F68F67900003E06002219B90000EE0FE3F
:10389000A3E0FFD394E7EE6480948340287C007D0E
:1038A0000A12047ED3ED9404EC64809480400BE013
:1038B000240AF090000EE03400F01227EB7D0A128B
:1038C000047E1237E21227EB7D6412047E7D0380B2
:1038D0003F7D047F01803F1227EB7D6412047E90C0
:1038E000000EECF0FEA3EDF0FF7C007D0A12047EDA
:1038F0007D05801C7D067F02801C302405122FDC94
:1039000021971227EB7D0A12047EAE04AF057D07D6
:10391000011B7D087F030237EB900003E0707C9071
:103920000002740BF0A3741FF022900003E0FFC3A9
:1039300094195028EF54F86023C3E54B94321227B2
:10394000BF50057567038017C3E54B943E1227BF30
:10395000500575670280087567018003E4F567907C
:103960000003E070368014900003E0702E1218E619
:10397000FF64026003EF7003756512900002740922
:10398000F022C224E490000EF0A3F0E5656002800E
:1039900016122EE3EF7004900002F02275F003A4DB
:1039A000C58325F0C58322E56414600E14600F14EE
:1039B00060102403700F7567032275670222756714
:1039C0000122756704221218E664026004D2258081
:1039D0001CE564B40304D2258013E56670037566A4
:1039E00052E566D3940240028001D392253025022D
:1039F00080B5E4F56722900003E0FFD39409403AD4
:103A0000EF24F8C31314FF302407E54B20E7020F1F
:103A10000F202413D390000FE094E790000EE06491
:103A200080948340020F0FEF3395E0FE74232FF54F
:103A30008274003EF583E493FF227F00221218E691
:103A4000FFB40302800BEF64026006E56464036068
:103A500007E490000DF0801390000DE0FF70040467
:103A6000F08008EFD394744002D322C32290004721
:103A7000E0FEAF13B40302AF140FEF54FC6002E496
:103A8000FFEEB403038F14228F1322900048E060EE
:103A90000214F022900047E064037023E5145403FD
:103AA0009009F893F528601A900003E0FF7009E58B
:103AB0001475F003A4F0800AEFB401067F0022859C
:103AC0001328E528C37001D39229E52814601D143A
:103AD000601D14601D2403701C900003E070167FAD
:103AE00001122C9E9000037405F080097F03227F51
:103AF00001227F02227F0022E4900003F090004820
:103B000074F0F022300111300503C20522E56A701D
:103B1000071218E6900032F022E412045AFEEE7505
:103B2000F00EA42418F582E43409F583E493B50774
:103B300007740112045A80040EBE10E2AF06EF753E
:103B4000F00EA42418F9740935F0FA7BFF22E5126F
:103B500054FE60021512E5116005D51102C20790EE
:103B60000034E0600214F022E56A700A121ECE40B2
:103B70000D121FCF4008C20AE4900036F0229000D8
:103B800036E0FF541FFE7015EF20E611D20A121F17
:103B9000CF7D8050027D20EF4D900036F0900036B2
:103BA000E054E0F0C3EE648094865007E020E60322
:103BB0000E8002E4FE900036E04EF022900002E01B
:103BC0006004E4FF8009300F047F018002910CEF54
:103BD00014602914600E14600B2403702DE490000F
:103BE00049F08026900049E0FE640D6007BF030C99
:103BF000EEB40A08900049E004F0D322900049E0B6
:103C000004F0E030E404E4F0D322C3221218E664A6
:103C10000A60037F00223002067E697FE980047E0D
:103C20003A7FB2C390001DE09FEE6480F890001CC4
:103C3000E064809850037F02227F002002027F030D
:103C400022900047E07009900044E07003302C039C
:103C50007F0122900002E060037F01221218E654E7
:103C6000FE7F0060027F0122900037E0FF7003A317
:103C7000F022900038E004F0122FE3240FFFE43E1E
:103C8000FEE091894002E4F022C39FEE6480F87464
:103C9000809822900038E0FFC39405500BEFC39446
:103CA000035038EF04F56722900037E0FF122FE34E
:103CB0002405FFE43EFEA3E0FD9189501EED24FBA8
:103CC000FFEC34FFFE7D0312047E7C007D021204B3
:103CD0007EED4C7004756701228000E4F56722E4F4
:103CE000FFEF90000893FE900037E0FDEEB505026F
:103CF000C3220FBF03EBD32290004EE07007EDF01C
:103D000090004DEFF02290004DE0B4070050669017
:103D10003D16F8282873023D2B023D36023D550220
:103D20003D5B023D6A023D36023D70E490004EF07C
:103D30007D0B7F01803D3015067F02B17850037FF7
:103D4000012290004DE0B401067D077F0280247DB2
:103D5000237F06801E7D237F0380187F06B1785065
:103D6000037F01227D077F0480097D0B7F0580038F
:103D7000E4FDFF91F87F0022AB07EB3395E0FEEF07
:103D800025E0FDEE33FC90004EE0FF3395E0FE129F
:103D9000047EEB14D36480F8ED6480984002D32253
:103DA000C322E490004DF0A3F02290004EE06002A8
:103DB00014F022900024E0600214F0E5696002151E
:103DC00069900023E06008C394095003E004F09078
:103DD0000022E06008C3940B5003E004F02230128C
:103DE0000A90001E12068CC12000003022223012E0
:103DF0001F1227CF900022E0C3940A5002C18CE426
:103E0000F090002474A0F07F093003027F04803812
:103E1000302B74301235E569707290001DE024DF9C
:103E2000F090001CE034FFF0756902D3A3E094A584
:103E300090001CE06480949C5052741CF0A374A504
:103E4000F07F093003027F04021AB112220AFFC375
:103E5000900028E09FE5F01225915030E4FFFE7DB0
:103E6000587C4190001E1213FA1202DC60044002DA
:103E7000C202756908900027E0FFA3E090001CCF04
:103E8000F0A3EFF0D21222E4900022F02220220FC1
:103E900020230CE564700812220AF51085F00F2229
:103EA0001218E67007E56AC394025007E4900050C8
:103EB000F0801D900050E004F0E0FFB40E07E56ACA
:103EC000B40302D322EFB41007E4900050F0D322E1
:103ED000C32290003E7401F0E4A3F0A37418F02212
:103EE000900040E0600214F02290003EE0601A244E
:103EF000FE602514603F2402704530150990004093
:103F0000E0D3940040217F022290003F743CF09067
:103F1000003E7402F07F012290003FE014F0E0D3F5
:103F2000940040037F01229000407418F090003EFE
:103F30007403F0800A900040E0700490003EF07F2F
:103F40000022900043E0600314F022900042E0243D
:103F500080F582E4342EF583E493540F900043F00F
:103F6000E0FE654D900042F054246008E06E900041
:103F700041F08006900041E004F0900041E05403DD
:103F8000F022201502D322302D19900041E024FEAA
:103F9000600604700EA21822E54C454D24FF30192E
:103FA00001B322A21922900044E070097402F0903B
:103FB0000003740FF022EDF4F58275830085832EE3
:103FC00085822F858330227511048E0B8F0CD206CB
:103FD0002275260375270175280122900025EEF031
:043FE000A3EFF02239
:00000001FF
